:100000000C94A0060C94932F0C94BD060C94BD0682
:100010000C94BD060C94BD060C94BD060C94BD0654
:100020000C94BD060C94BD060C94AB180C94ED1703
:100030000C948A280C94BD060C94BD060C94BD0645
:100040000C94BD060C94BD060C94BD060C94BD0624
:100050000C94BD060C943D280C94BD060C94BD0672
:100060000C94BD060C94BD060C94BD060C94BD0604
:100070000C94BD060C94BD060C94BD060C94BD06F4
:100080000C94BD060C94BD060C94BD060C94BD06E4
:100090000C94BD060C94BD060C94BD060C94BD06D4
:1000A0000C94BD060C94BD060C94BD060A0E0A0EF7
:1000B0003D0E3D0EAF0ECB0EFB0FFB0FD60E660FA7
:1000C000780F780F0C163316CB173316CB177B1619
:1000D0009E16CB178D17A017F823FE2304240A249D
:1000E000102416241C24222428242E2434243A24C8
:1000F000402446244C24522458245E2464246A2438
:10010000702476247B24802485248A248F249424BC
:1001100099249E24A324A824AD2405010902A10149
:1001200085020901A1000509190129081500250109
:100130009508750181020501093009311581257F76
:1001400095027508810609381581257F9501750886
:100150008106050C0A38021581257F9501750881F5
:1001600006C0C005010980A101850319012AB70055
:10017000150126B700950175108100C0050C090115
:10018000A101850419012AA002150126A0029501EA
:1001900075108100C005010906A101050719E029B4
:1001A000E715002501950875018102950175088103
:1001B000010507190029FF150026FF00950675089F
:1001C0008100050819012905950575019102950120
:1001D00075039101C009023B00020100A0FA090465
:1001E000000001030101000921110100012240006A
:1001F0000705810308000109040100010300000054
:10020000092111010001227B000705820320000162
:1002100012010002000000084D44363501000102C1
:1002200000012C03440061006300740079006C003D
:100230002D004D0061006E00750066006F007200B9
:100240006D002000280035007800360029000000ED
:100250000E037400730068006F00720074000000E9
:10026000040309042900104050064F060440AE0064
:100270002B000500B45D130012003400C65D0400BD
:1002800018000C0008003600E00031001C001B00C4
:100290003700361200000000B35D2F00C05DBB5D6B
:1002A00000000000E30009510651E20015040F4070
:1002B000AA00A90011400F081A00190007000F003A
:1002C0000D001D000600170016001500110010009B
:1002D0000E0014000A000B000900C65D2C00BF5D73
:1002E00030002E00000000002A000351D45DE3001E
:1002F00000000000010001000100010001000100F8
:10030000010014001A00080015001700E1000400A5
:100310001600070009000A0001001D001B0006006E
:10032000190005000000000001003100010001007B
:1003300000000000010001000100010001000100B7
:1003400001000100010001001C0018000C00120057
:1003500013002F000B000D000E000F0033003400BF
:1003600011001000360037003800B25D01000100B6
:100370000100010000000000010001000100010077
:100380000000000001001E001F00AD002100D35D31
:1003900001003602B85DED00BC5DB55D01003702BD
:1003A000EF00EE00F00001000100B75DF900F10080
:1003B000FA00B65D00000000361437140100010099
:1003C0000000000001000E53010001000000400089
:1003D00041004200430044001E084B0052004A0006
:1003E000000030004A00500051004F004D00E50071
:1003F0002A004E0051004D004C0028000851010019
:100400000100620000000000010001000100010085
:100410000000000046001E001F00200021002200F6
:1004200045003A003B003C003D003E0045012A00EB
:100430004C0043004400440245022A014C022805B6
:100440002C003E0100000000E000370101000751D0
:10045000000000000A52015200520D523F004000BD
:10046000410042001504A5002D021E001F002000BF
:1004700024142514560021002200230026142714DA
:100480006500240025002600350035022C030100FC
:1004900027003700000000000100010001000100FA
:1004A000000000002716010001000100010001000A
:1004B00039001E022402250226022702E10023023F
:1004C0001F0220022102220201000100010001009E
:1004D00072000100000000000100010001000100A5
:1004E000000000000000000000000000010001000A
:1004F000520C010001000100D05D4B0152084E0179
:10050000CE5D0000CC5D500051084F00CD5D000075
:10051000D15D4E05CB5D4B05CF5D000001000100B4
:10052000D25D6C000000000000000100000000002F
:10053000000000004801010001000100010001006D
:100540000B0114011A01080115011701E100040053
:100550001601070109010A011C011D011B01060109
:100560001901050100000000B25D370107510100CB
:100570000000000001000100010001000100010075
:1005800001000100010001001C0118010C010F0114
:10059000130101000B010D010E010F0136010100D5
:1005A00011011001360137010100010001000100B5
:1005B0005701670100000000010001000100010077
:1005C0000000000001000100010001000100010025
:1005D000010001004B0052004A00010001005008D8
:1005E000500051004F004F080100CA5D4E005100FD
:1005F0004D00280000000000000000000000000086
:1006000000000000000000000100010000000000E8
:10061000000000000000000000001E011F0120017A
:100620000000000000002101220123010000000061
:10063000000024012501E00100000000000000008E
:100640002701000000000000000000000000000082
:1006500000000000000000000000AD003D043E016D
:100660000B0314031A030803150317034C020403B6
:100670001603070309030A032C0300000000060306
:10068000190305030000000000002C080100010010
:10069000000000000000000000000000000000005A
:1006A0000000000000000000000000000C03120326
:1006B000130300000B030000000000000000000016
:1006C00000000000000037030000000001000100EE
:1006D000000000000000000000000000000000001A
:1006E0000000000029001E011F012001210122013C
:1006F0002B000000F200ED00F1000000E10000001E
:10070000EF00EE00F000000000000000F900000023
:10071000FA000000000000000000000000002805B2
:1007200000000000000000000000000000000000C9
:10073000000000000000000000004B0352034E03C5
:10074000000000000B01500351034F0300000000A4
:100750000000000051030000000000000100000044
:100760000000000000000000000001000100010086
:10077000000000002D002300240025002600270093
:100780002F001C001E001F0020000000E10056008A
:100790002100220023003300E000CA5D2400250070
:1007A00026003800000000000000270000000000C4
:1007B0000000000001000100010001000000000035
:1007C00000000000000000001F0820082108220887
:1007D000230824081E08500900004F0900002608BD
:1007E0000000000000000000000000000000000009
:1007F00000000000000000000000000000000000F9
:100800000000000029001E001F002000210022001F
:100810002B002F0014001A0008001500E10028002A
:100820000400160007000900E00035001D001B0051
:1008300006001900000000003400010001002C0037
:10084000000000000100010001000100230024005D
:100850002500260027002D0017001C0018000C00A2
:10086000120013000A000B000D000E000F003300F1
:1008700005001100100036003700330001000100B0
:1008800031002E0000000000010001000100010005
:100890000000000001001E021F02200221022202AD
:1008A00001000100381201000100010001000100F7
:1008B000010001000100BA5D01000100010001001A
:1008C0003302010000000000B35DB25D01000100D1
:1008D00000000000010001000100010001002402ED
:1008E0002502260227022D0201000100010001005D
:1008F00001000100010001000100010001000100F0
:1009000001000100010001000100010001000100DF
:1009100001000100000000000100010001000100D1
:1009200000000000000000000000000000000000C7
:1009300000000000000000000000000001000000B6
:100940000000000000000000E000000000000000C7
:100950000000000000000000000000000000000097
:100960000000000000000000000000000000000087
:10097000000000000000000000004B1252024E1266
:10098000000000004A12500251024F024D120000B6
:100990000000000051020000000000000000010003
:1009A0000000000000000000000000000000000047
:1009B0000000000001000100010001000100010031
:1009C000010001000100010001000100010001001F
:1009D000010001000100010001000100010001000F
:1009E00001000100000000000100010001002800DA
:1009F00000000000010001000100010001000100F1
:100A0000010001000100010001000100520001008D
:100A1000010001000100500051004F0001000100E1
:100A200001000100010001000100010001000100BE
:100A300001000100000000000100010001000100B0
:100A4000000000006262726167614070726F6769E6
:100A50002E636F6D0062696C6C792E6272616761E2
:100A6000400020414E4420006B38730020213D207F
:100A7000002D3E00203C3D2000203E3D20007072B5
:100A80006F7065727469657300706970656C696E0A
:100A90006500737562736372697074696F6E00507C
:100AA000726F67694F6E650070726F6769004070A2
:100AB000726F67692E636F6D0061756A6F7572641E
:100AC000276875692000646F65736E277420006461
:100AD0006F65736E27742000636F6E6669670062CE
:100AE000656175636F7570200070726F6261626C12
:100AF000656D656E7400612D742D696C2000706FDA
:100B0000757271756F692000612D742D6F6E2000F4
:100B1000706575782D74752000506575742D010110
:100B20002F657472652000706575742D01012F6545
:100B3000747265200061732D7475200045732D74E7
:100B400075200065732D747520004573742D6365E1
:100B500020717527006573742D63652071752700FA
:100B60004573742D63652071756520006573742D60
:100B70006365207175652000050015000A000000FE
:100B800005000C0015000000040011000700000023
:100B90000E001600000005002E0000002F000600C9
:100BA0000000B35D2E0000002F002E000000130097
:100BB00015001200170016000000130008000F00B7
:100BC00011000000160005001100000013001500C0
:100BD000120011000000130015000A0000000400BC
:100BE00013000600000004000D00070000000700CD
:100BF000120011000000070012001700000006009C
:100C0000120011000C000000050006001300000097
:100C10001300150005000000040017000C000F0071
:100C2000000013000E000000040017001200110065
:100C30000000130017001800000016001300170032
:100C40000800000013001700080000000400160050
:100C500017001800000008000C001600170018000C
:100C6000000008001600170018000000160014000D
:100C700012001300000016001400120000001600FD
:100C8000140008000C00000016001400080000000A
:100C90000000000000000000000000400100000013
:100CA0000000000000000050000000280100007853
:100CB00000000000FE0F0084FFFFFF97000000000F
:100CC00000000000000000002A2B280000000000A7
:100CD00000000000000000000000002900000000EB
:100CE0002C1E3720212224362627252E362D373557
:100CF000271E1F202122232425263333362E372377
:100D00001F0405060708090A0B0C0D0E0F1011121F
:100D1000131415161718191A1B1C1D2635272F2DED
:100D20002F0405060708090A0B0C0D0E0F101112EF
:100D3000131415161718191A1B1C1D243525304CB1
:100D400011241FBECFEFDAE0DEBFCDBF12E0A0E07E
:100D5000B1E0E6EEF2E602C005900D92AE36B107C4
:100D6000D9F724E0AEE6B2E001C01D92AE30B20782
:100D7000E1F70E945A110C9471310C940000A0E02C
:100D8000B0E0E5ECF6E00C94BC307C01FC01438162
:100D90005481618180810E949E2A81110C944810A7
:100DA00061E0C7010E940E23EC01F70182818111ED
:100DB00041C0CE0104974A9720F08FEF8093000145
:100DC00039C0809100018F5F80930001833090F5DE
:100DD000E82FF0E0EE0FFF1FEE58FD4FD183C083E8
:100DE000811107C00E947E28909371028093700247
:100DF00021C08230F9F48FEF80930001809170025E
:100E0000909171020E946328853F914098F48091EF
:100E1000720290917302449769F4809174029091E8
:100E20007502449739F48091760290917702419748
:100E300009F43BC620917E022223B1F1F7018281A1
:100E4000882349F1CF3BFDE5DF0709F443C3C932ED
:100E5000D10511F40C943610C63B2DE5D20729F4C8
:100E600084E192E00E94462C03C08C2F0E946620F1
:100E700087E192E00E94462CC63B4DE5D40711F471
:100E80000C9436108C2F0E94662082E292E00E9421
:100E9000462C0C943610CF3B5DE5D50709F41AC3F8
:100EA00010927E020C943610CC3B8DE5D80709F4E5
:100EB000B8C108F045C0C43BEDE5DE0709F46FC1D9
:100EC00020F5C03140E4D40709F4B8C088F4F70134
:100ED0009281C430F0E4DF0709F4DDC0CF3040E494
:100EE000D40709F48CC0C53AD10509F067C073C0B6
:100EF000C23B5DE5D50709F45AC108F068C1C131AC
:100F000090E4D90709F489C059C0C83BEDE5DE0774
:100F100009F477C140F4C63B2DE5D20709F464C15A
:100F200008F458C169C1CA3B5DE5D50709F432C16F
:100F3000F7018281CB3BFDE5DF0708F46AC1D1C030
:100F4000F7018281CD3CFDE5DF0709F45FC2E8F4DB
:100F5000C93C4DE5D40709F4BBC078F4C03C9DE51D
:100F6000D90709F4C3C2C63CEDE5DE0709F406C1A2
:100F7000CF3BFDE5DF0711F5ADC2CB3C2DE5D20738
:100F800009F49EC108F455C164C2C13D5DE5D507B1
:100F900009F4B6C140F4CF3CEDE5DE0709F4D3C156
:100FA00008F414C2F3C1C33D2DE5D20709F4AEC263
:100FB00008F472C2C43D5DE5D50711F081E0A7C217
:100FC000882329F082EE0E941C2E89E088C289E0E5
:100FD0000E94751F84C0992311F40C9436108091DF
:100FE000B1029091B202009739F033E0969587955F
:100FF0003A95E1F7282F217020937D0287C299232B
:1010000009F484C2F701858182958F7011F080E523
:101010007BC262E370E08CEA0EC0F7018281882314
:1010200009F474C2858182958F7011F08FE46CC2CF
:1010300062E370E08BEA0E944E2068C2F701828171
:10104000882309F463C2858182958F70A1F082EEB6
:101050000E941C2E81EE0E941C2E80EE0E941C2EEF
:1010600080E10E94662080EE0E94EB1F81EE0E94CC
:10107000EB1F82EE0DC080EE0E941C2E83EE0E94BC
:101080001C2E80E50E94662083EE0E94EB1F80EEFE
:101090000E94EB1FEBC7992309F438C2F701858141
:1010A00082958F7039F082EE0E941C2E85E10E949D
:1010B000662015C080EE0E941C2E83EE0E941C2E1E
:1010C0008FE40E94662083EE0E94EB1F80EEFFC13A
:1010D000882329F082EE0E941C2E80EC15C282EE3D
:1010E000F6C1882339F180917C02882381F08091B8
:1010F0007A0290917B020E946328883C910538F423
:1011000088E20E941C2E81E0809379020CC08091BD
:10111000E702809581708093780280EE0E941C2EF9
:1011200085E00E94871F0E947E2890937B02809317
:101130007A02ECC188E20E94EB1F8091780288233A
:1011400019F080EE0E94EB1F85E00E94751F8091D0
:101150007902811110C080917C02882361F0809116
:101160007A0290917B020E946328883C910518F4D2
:1011700088E20E94662010927902C8C1882329F073
:1011800081EE0E941C2E8BE0AAC181EE0E94EB1F13
:101190008BE0A9C140E050E063E370E046C0F70196
:1011A0008281882311F088E337C088E390C1F7017A
:1011B0008281882339F081EE0E941C2EC7010E9493
:1011C000C914A4C1C7010E94C91481EE80C148E1BD
:1011D00050E014C0F7018281882309F497C18CE1A3
:1011E00092E00E94462C92C1F701828181118EC14A
:1011F00081E080937E028AC14CE250E06FE270E0B1
:1012000004C04CE250E060E370E0C7010E94D723C5
:101210007DC1882321F08FE20E941C2E77C18FE2CE
:1012200056C145E350E066EE70E0C7010E94A62378
:101230006DC1882309F46AC180EE0E941C2E81EEE4
:101240000E941C2E8CE20E941C2E8CE20E94EB1F3E
:1012500080EE0E94EB1F81EE0E94EB1F80EE0E9449
:101260001C2E89E10E941C2E89E10E94EB1F80EE5A
:101270000E94EB1F80EE0E941C2E80E50E941C2E17
:1012800080E50E94EB1F80EE0E94EB1F80EE0E9423
:101290001C2E8AE20E941C2E8AE20E94EB1F80EE26
:1012A0000E94EB1FFFEF24E34CE0F1502040404050
:1012B000E1F700C0000088E20E941C2E88E207C10E
:1012C000882309F423C183EE0E941C2E8DE10E9425
:1012D000662083EE0E94EB1F5FEF81EE94E0515099
:1012E00080409040E1F700C0000086E20E94662046
:1012F000EFEFF1EE24E0E150F0402040E1F7A5C02F
:10130000882309F403C183EE0E941C2E8DE10E9404
:10131000662083EE0E94EB1F4FEF51EE84E04150B8
:1013200050408040E1F700C0000085E20E94662046
:101330009FEFE1EEF4E09150E040F040E1F700C0B3
:10134000000080E2E1C0882309F4E0C083EE0E943F
:101350001C2E8DE10E94662083EE0E94EB1F2FEF72
:1013600041EE54E0215040405040E1F700C0000001
:1013700085E20E9466208FEF91EEE4E0815090407C
:10138000E040E1F700C0000081E2BEC0882309F41C
:10139000BDC083EE0E941C2E8DE10E94662083EE6C
:1013A0000E94EB1FFFEF21EE44E0F150204040404F
:1013B000E1F700C0000085E20E9466205FEF81EE49
:1013C00094E0515080409040E1F762C0882309F4D6
:1013D0009DC083EE0E941C2E8DE10E94662083EE4C
:1013E0000E94EB1FEFEFF1EE24E0E150F0402040CF
:1013F000E1F700C0000085E20E9466204FEF51EE49
:1014000084E0415050408040E1F71FC0882309F438
:101410007DC083EE0E941C2E8DE10E94662083EE2B
:101420000E94EB1F9FEFE1EEF4E09150E040F040AE
:10143000E1F700C0000081E20E9466202FEF41EE3C
:1014400054E0215040405040E1F700C000008FE1DF
:101450005BC0882309F45AC083EE0E941C2E8DE1E4
:101460000E94662083EE0E94EB1F8FEF91EEE4E076
:1014700081509040E040E1F700C0000081E20E940E
:101480006620FFEF21EE44E0F15020404040E1F7BC
:1014900000C000008EE138C08823C1F183EE0E94B5
:1014A0001C2E82EE0E941C2E81E50E9466205FEFBA
:1014B00081EE94E0515080409040E1F700C0000080
:1014C00081E50E94662082EE0E94EB1F83EE0E945F
:1014D000EB1F1CC0F7018281882321F082E00E946B
:1014E000871F14C082E00E94751F10C0882311F06E
:1014F00083E0F5CF83E00E94751F80917D028823F1
:1015000029F010927D0285EA0E94662080E0F701B2
:101510009281992329F191E0CB3BFDE5DF0709F0AA
:1015200090E090937C02882309F4A0C5C43E2CE58A
:10153000D207E1F050F4C23E5CE5D507A1F0C33E0E
:101540008CE5D807E1F481E016C0C63E9CE5D907DA
:1015500089F070F0C13BFDE5DF0789F485E00BC041
:1015600081110DC083C51092060407C082E003C03C
:1015700083E001C084E0809306040E94A12CD7FF81
:10158000CEC0F7018281882309F4C9C00E940629D0
:1015900086958170809381020E94062981708093D4
:1015A000800280910604813039F480918102882381
:1015B00019F089E30E9466208091E70280937F0200
:1015C0001092E70210920C0480910604823019F107
:1015D00048F48823E1F08130C9F560E070E088E1EB
:1015E00093E032C0843049F1853081F560E070E0ED
:1015F0008BE191E00E944E2360E070E085E290E094
:101600000E944E2360E070E088E290E01DC082EE10
:101610000E941C2E1BC080918002811103C083E5B3
:101620000E94662082EE0E941C2E8FE39CE90197A7
:10163000F1F700C0000087E504C086EE0E94662036
:1016400088E10E94662002C00E944E23EFE3FCE97D
:101650003197F1F700C000006E01E894D7F80CE074
:1016600010E02AE0A22EB12CC601002E02C09695F1
:1016700087950A94E2F78F7090910604923069F48E
:101680008A3038F490E00996B5010E942D31875ACE
:1016900001C086500E94662009C096EF980F9630D0
:1016A00010F0805D01C0895A0E94E92B0450110995
:1016B0000C3FFFEF1F07C1F6809106048230F1F066
:1016C00028F4882371F0813081F025C0843009F13D
:1016D000853009F560E070E088E290E00E944E23DA
:1016E0001AC082EE0E94EB1F16C08CE20E94662098
:1016F00080918102882379F089E308C082EE0E94FC
:10170000EB1F80918002811106C083E50E94662054
:1017100002C088E2FBCF80917F028093E702C43F42
:101720002CE5D20741F190F4C93D5CE5D507E9F01D
:10173000CA3D8CE5D80789F1C83D9CE5D907B1F5CC
:1017400006E221EE41EE68ED7CE52CC0C63FECE5FB
:10175000DE07E9F0B0F0C73F2CE5D20739F507E224
:1017600025EE46EE67EF7CE51DC007E225EE45EE6F
:1017700069ED7CE517C006E221EE40EE64EF7CE502
:1017800011C007E225EE44EE65EF7CE50BC006E2F2
:1017900021EE42EE66EF7CE505C008E221E045EE71
:1017A0006AED7CE5C7010E94172960C4F7018281B8
:1017B000882309F4A4C11092EA03C430FDE5DF07D1
:1017C00058F4CB3F2CE5D207C0F4CE0182509C45A3
:1017D000449708F07EC111C0C63A4DE5D40769F0C0
:1017E00030F4C2368DE5D80709F073C106C0CE01CA
:1017F0008E5A9D45039708F06CC10E941E1D909360
:10180000B4028093B302C2319CE5D90709F405C143
:1018100008F04BC0C930FCE5DF0709F4D2C000F581
:10182000C5304CE5D40709F4B9C078F4C3308CE571
:10183000D80709F4AAC008F0AEC0C230DC4509F0F0
:1018400024C18091B3028160A3C0C730FCE5DF07EB
:1018500009F4AFC008F0B1C08091B302806198C0B4
:10186000CD304CE5D40709F4C2C058F4CB308CE538
:10187000D80709F4B0C008F0B6C08091B302886000
:10188000A6C0CF30ECE5DE0709F4BFC008F4B2C053
:10189000C0312CE5D20709F4BCC0C131DC4509F0E8
:1018A000F4C08091B3028F7B73C0C1155DE5D5078D
:1018B00009F4BEC088F5CB3F9CE5D90709F472C096
:1018C000B8F4C431FCE5DF0709F4C1C008F4ABC0CB
:1018D000C531DC4509F0D9C08091B30282FB2227D3
:1018E00020F991E0922790FB82F990FB83F950C098
:1018F000CD3F5CE5D50709F481C008F456C0CE3F62
:101900009CE5D90709F47DC0CF3FDC4509F0BDC097
:101910008091B40282605DC0C236FDE5DF0709F444
:10192000A8C068F4C2304DE5D40709F49CC008F49F
:1019300084C0C330DD4509F0A8C060E095C0CE3A50
:101940009DE5D907F1F058F4C63ADD4509F09DC090
:101950008091B302982F909590FB80F919C0CF3AEF
:101960002DE5D207E1F1C03BDD4509F08EC0809145
:10197000B40283FB222720F991E0922790FB83F9A0
:1019800082C08091B40288607EC08091B302826080
:101990008093B3027AC08091B30219C08091B302E0
:1019A0008860F6CF8091B40214C08091B402826046
:1019B0006AC08091B3028062EBCF8091B3028064F1
:1019C000E7CF0E94B91F8091B3028068E1CF8460A5
:1019D000DFCF816058C08091B3028E7FD9CF8091D4
:1019E000B402877F50C08091B3028D7FD1CF8091A8
:1019F000B3021CC08091B302877FCACF8091B4022A
:101A00001AC08091B4028D7F3EC08091B3028F7E58
:101A1000BFCF8091B3028F7DBBCF0E94B91F809151
:101A2000B3028F77B5CF8091B302877F8B7FB0CF22
:101A30008091B4028D7F8E7F26C08091B402982F52
:101A4000909591708E7F892B90FB81F91CC00E942C
:101A5000B91F8091B30287FB222720F991E09227DA
:101A600090FB87F995CF61E08EE090E00E94F9301D
:101A70000CC08091B30284FB222720F991E09227C9
:101A800090FB84F985CF8093B4026091B302C0913A
:101A9000B40284E090E00E94F9306C2F82E290E082
:101AA0000E94F9300E94B91FE1C260E070E08AE252
:101AB0000E944E2060E070E08AE20E944E2060E0CA
:101AC00070E08AE20E944E2084E292E00E94462C5E
:101AD000B1C9C631FCE5DF0711F58091E7028A7ACA
:101AE00091E009F490E090938202882311F065E37D
:101AF00001C069E288EE92E00E94C0280DC0C631A4
:101B0000DC45C1F580918202882309F4BFC265E3F8
:101B100088EE92E00E94B3280E94A41DA7C2CB3594
:101B20005DE5D50711F150F4C1159CE5D90779F0B1
:101B3000CF3DDC45F9F40E942F1D0CC0CD35FDE5ED
:101B4000DF0759F0A0F0C83ADD4521F013C00E942C
:101B500032238CC20E941C2389C28091B40282FB72
:101B6000882780F991E0892703C081E001C080E0E7
:101B70000E94FD1DF701868197810097B9F4F70156
:101B80008281C081D181882349F0CE010E94C41E88
:101B9000182F682FCE010E94381F04C0CE010E946A
:101BA000051F182FBE01812F0E94691B0E94821BF6
:101BB000EC01F7010281D580D2949FE0D922809177
:101BC0003A038770B9F00023A9F08D2F807F80340D
:101BD00021F080E28C0F883068F08091B40282FF9F
:101BE00009C082E00E94E01D80913A038770CC24F6
:101BF000C3948111C12CBD2EB2948FE0B8228B2DDD
:101C000090E08C30910508F0F6C1FC01EA5AFF4FD4
:101C10000C9441311D2F1F708D2F807F11F0129574
:101C2000107F0023B9F0112309F4D2C180E28C0F98
:101C3000883010F0C11106C08091E702182B109374
:101C4000E70205C080910C04182B10930C040E942D
:101C5000A41DBEC18C2F0E94EB1F112309F4CBC120
:101C600080E28C0F883078F1CC2369F11095809157
:101C70000C04182310930C0429C01D2F1F708D2FE6
:101C8000807F803211F01295107FCC2319F0C13083
:101C9000D9F149C08091B40282FD1BC0002369F0D4
:101CA000112339F08091E702182B1093E7020E946C
:101CB000A41D80E00E941C2E9EC180E00E94EB1FAC
:101CC000112309F498C1812F0E949D1D0E94A41D1B
:101CD00092C1002381F080914303DD2051F0F1E0B7
:101CE000DF1207C0182B181709F485C1109343039E
:101CF00082C1812B10C0DD2021F021E0D21609F431
:101D00007AC10E94971D27C0002341F042E04D1583
:101D100008F471C1812F0E94E11F6DC151E05D1572
:101D200008F469C118C0002349F0DD2099F3F701D8
:101D3000858180FF4DC18F708583ECCFDD2059F008
:101D4000C93309F055C1FFEF27EE43E0F1502040C1
:101D50004040E1F74BC1812F0E94DA1F4CC18D2F0B
:101D600086958695837019F0813059F044C100231F
:101D700019F0CE01937002C080E090E00E94F0283C
:101D800040C1002319F0CE01937002C080E090E0C2
:101D90000E94DA2836C18C2F002319F00E94C12D31
:101DA00002C00E94D22C0E94A82C2BC18D2F8370C0
:101DB00009F042C0011123C13C2F3295369537708E
:101DC000330F330F8C2F8F7090E0032E02C0880FDB
:101DD000991F0A94E2F7C4FF0BC04FE050E002C025
:101DE000440F551F3A95E2F79A012095309502C0AD
:101DF00020E030E04D2F469546954370423099F0F3
:101E000068F46091440370914503413029F0822BBE
:101E1000932B8623972304C0862B972B822B932BFF
:101E20000E94971FECC0822B932B2091440330918A
:101E3000450382279327F4CF002319F08D2F81705B
:101E400001C08695882309F4DAC03C2F3295369577
:101E50003770330F330F8C2F8F7090E0032E02C03A
:101E6000880F991F0A94E2F7C4FF0BC04FE050E0BF
:101E700002C0440F551F3A95E2F79A01209530951C
:101E800002C020E030E04D2F469546954370423029
:101E900079F0B8F46091B1027091B202413029F04A
:101EA000822B932B862397230EC0862B972B09C05A
:101EB000822B932B2091B1023091B202822793277B
:101EC00002C0822B932B0E946C1F99C01D2F1F7084
:101ED000002339F0812F0E94871F8C2F0E94E11F61
:101EE0008EC08C2F0E94DA1F812F0E94751F87C021
:101EF000C23F79F128F4C03F41F0C13F29F163C0EE
:101F0000C33F71F1C43FE1F05EC00023A1F051E096
:101F10005D1508F470C02D2F2F7181E090E002C094
:101F2000880F991F2A95E2F72091B1023091B202F1
:101F30008227932725C082E08D1508F45CC0EBCF83
:101F40008091B40282FD1FC0002329F08D2F8F7174
:101F50002DC00023D9F38D2F8F710E94751F4BC0A8
:101F6000002361F021E030E09D2F9F71F90102C054
:101F7000EE0FFF1F9A95E2F7CF0102C080E090E0DC
:101F80000E946C1F38C00023A1F01D2F1F71812FEC
:101F90000E94871F8091B40282FF07C0F8E01F9F54
:101FA000C0011124836080933A03812F0E94871F10
:101FB00022C081E00E94E01D21E02D15E0F482E0C6
:101FC0000E94E01D18C0002329F0DD2009F4BECFD7
:101FD0008C2F70CEDD2009F4BECFC93349F44FEF0A
:101FE00057EE83E0415050408040E1F700C00000D0
:101FF0008C2F0E94EB1F88EF8B0D843010F40E9411
:102000000629CE010E949E1F882381F0002319F02B
:10201000D1100CC00FC0D11009C020E0F7014081E1
:1020200051816281738184810E94EB22109284022B
:1020300010928302CC20A9F080913A0380FD11C058
:10204000F70112828595859585950E94871FC701A6
:102050000E94BF0680913A038595859585950E94DB
:10206000751F60E0C7010E940E2312C080913A03E1
:10207000877071F0F7018281882351F08091B4025A
:1020800082FF06C082E00E94E01D02C069E240CDEE
:10209000CDB7DEB7EAE00C94D830A4E0B0E0E3E5D9
:1020A000F0E10C94C23040919A0250919B026091F1
:1020B0009C0270919D022FB7F8948091F203909149
:1020C000F303A091F403B091F5032FBF841B950B8C
:1020D000A60BB70B84369105A105B10508F441C0E4
:1020E0000E94C719882319F00E9472280EC00E940E
:1020F000722800919F021091A0022091A1023091BC
:10210000A202600F711F821F931FDC01CB01029698
:10211000A11DB11D89839A83AB83BC838091120179
:102120009091130181579D4F4091110150E045302E
:10213000510510F044E050E0BE016F5F7F4F0E94F8
:10214000683182E090E00E943930882359F00E9483
:10215000722860939A0270939B0280939C029093E2
:102160009D0281E02496E4E00C94DE30EF92FF9231
:102170001F93CF93DF93CDB7DEB727970FB6F894B1
:10218000DEBF0FBECDBF7B0180E090E00E94393002
:10219000882309F463C04091040150E041155105C2
:1021A00011F041E050E06091050170910601615726
:1021B0007D4FCE0107960E94683140918B0250916D
:1021C0008C0260918D0270918E022FB7F8948091ED
:1021D000F2039091F303A091F403B091F5032FBFA4
:1021E000841B950BA60BB70B84369105A105B10591
:1021F00038F480E992E00E94EA149F81891781F106
:1022000081E090E00E943930182F882391F04091AE
:102210000C0150E04730510510F046E050E060916D
:102220000D0170910E0161577D4FCE0101960E9404
:10223000683180E992E00E94EA1491E02F8128132E
:1022400090E0192311F10E94722860938B02709321
:102250008C0280938D0290938E020CC010E001C01E
:1022600011E086E0E0E9F2E0DE01119601900D92C6
:102270008A95E1F7112349F086E0FE013196A5E841
:10228000B2E001900D928A95E1F786E0E5E8F2E090
:10229000D70101900D928A95E1F7812F27960FB60D
:1022A000F894DEBF0FBECDBFDF91CF911F91FF909D
:1022B000EF900895A0E1B0E0E0E6F1E10C94B630D3
:1022C00085B7806885BF85B7806885BF84B7877FFD
:1022D00084BF0FB6F894A8958091600088618093C0
:1022E0006000109260000FBE90E080E80FB6F89496
:1022F00080936100909361000FBE82E899E1909312
:102300006F0280936E020E9431180E9450188091D3
:10231000E20084608093E20078948091DD0288235B
:10232000A1F01091E9001F709091EC00892F81704D
:1023300090FD80E8182B1092E9008091E80083FD61
:102340000E942B151F701093E90082E084BD93E07A
:1023500095BD9AEF97BD80936E0010929F021092E8
:10236000A0021092A1021092A2020E94C7198093AB
:1023700019010E94C71981110E944E2F80911901E5
:1023800080911901811102C096E001C090E0909304
:10239000B00286E0891B8093AF0200E312E0D8010F
:1023A0008D918D018F3F11F00E94EA19B2E0063342
:1023B0001B07A9F706E312E0F80181918F018F3F17
:1023C00011F00E94EA19F2E00C331F07A9F78CE024
:1023D000E7EBF2E0DF01282F1D922A95E9F7E3EA07
:1023E000F2E0DF011D928A95E9F780E090E00E941B
:1023F000F330883E9E4F11F00E942F1D82E090E046
:102400000E94EB308093E3030E941E1D9093B40260
:102410008093B30283E090E00E94EB3090E00E9452
:10242000971F8CE090E00E94EB3090E0A0E0B0E0DD
:102430008093060490930704A0930804B0930904C2
:102440000E94C719811102C00E94512F8AE191E0B8
:102450009093EE038093ED0308E110E040E4E42E56
:10246000FF24F3948091DD02853009F042C020E121
:10247000C22E32E1D32E8091DD02853009F035C0C5
:102480008091DD02843009F11092F1030FB6F894C7
:10249000A895009360000FBEE092600083B7817F33
:1024A000846083BF83B7816083BF7894889583B746
:1024B0008E7F83BF0FB6F894A895809160008861E5
:1024C00080936000109260000FBE8091DC02882330
:1024D00091F20E94011AE7EBF2E081918111ACC107
:1024E00022E0E33CF207C9F7C6CF0E94B91F0E9461
:1024F00006290E94011A83ECA82E82E0B82E97EBE1
:10250000892E92E0992ED401F50191918D91892720
:1025100032E0EF3CF30719F08823B9F322C08111B0
:1025200020C00E947E286C018091B5029091B60275
:10253000C816D90609F44CC08FEF8F838887198697
:102540000E947E288160782F9B878A874F815885DB
:1025500069858B850E94B424D092B602C092B502E0
:1025600037C00E94C719482ED12CD4015D904D016F
:10257000F5016080652419F1C12C77247394862DB0
:102580008721B1F04420A1F0CC86DD8691E0852D35
:10259000872109F490E09E870E947E288160782F31
:1025A000988B8F874C855D856E8588890E94B424C1
:1025B000C394770CF6E0CF12E2CFD5015C92D394AE
:1025C000BFEFAB1ABB0AECE0DE12CFCF0E9472283D
:1025D0000E94C719882361F180910E02882341F17E
:1025E0008091E0039091E103009711F10E9463282C
:1025F00020910A0430910B0428173907C8F49091F0
:10260000DE038091DF03981759F00E94BC2A1092D4
:102610000B0410920A041092E1031092E00308C028
:102620000E94822B1092E1031092E0030E94D82BAB
:1026300086E0E0E0F4E0DE01119601900D928A95CB
:10264000E1F7109202041092030410920404109215
:1026500005048B81811104C08C81882309F45DC03D
:102660008091FE039091FF030E946328AC0190913A
:10267000FA03992339F02091130230E0241735072B
:1026800058F04BC02091E403FAE02F9F90011124F1
:102690002417350718F041C09F3F19F09F5F9093B2
:1026A000FA03DB80DD2061F00E94822D1D1414F0FE
:1026B0009FEF01C091E0899F802D11248093020437
:1026C000DC80DD2061F00E94822D1D1414F09FEF4C
:1026D00001C091E0899F802D1124809303043091E3
:1026E00002043323D1F0209103042223B1F045EBFF
:1026F0003403C0011124992319F09093020402C0FD
:10270000F092020435EB2303C0011124992319F040
:102710009093030402C0F09203048D81811104C0E0
:102720008E81882309F451C08091FC039091FD03B0
:102730000E9463289C019091F903992309F492C0A7
:102740002135310508F441C09F3F19F09F5F9093F8
:10275000F903DD80DD2061F00E94492D1D1414F085
:102760009FEF01C091E0899F802D11248093040484
:10277000DE80DD2061F00E94492D1D1414F09FEFD2
:1027800001C091E0899F802D112480930504309130
:1027900004043323D1F0209105042223B1F045EB4A
:1027A0003403C0011124992319F09093040402C04A
:1027B000F092040435EB2303C0011124992319F08E
:1027C0009093050402C0F092050446E050E0BE017B
:1027D0006F5F7F4F80E094E00E945B31892BA9F40A
:1027E0008091020481110FC08091030481110BC0FC
:1027F00080910404811107C081E09091050491113A
:1028000003C080E001C081E080FD0E94A82C86E02A
:10281000FE013196A0E0B4E001900D928A95E1F7B7
:102820000E9406299091CF02891709F41BCE80934C
:10283000CF020E94722816CEC9BCD9BC09B400FED2
:10284000FDCF8091D8008F7D8093D8008091E000EB
:1028500082608093E0008091E00081FDFCCF0E94C7
:10286000B91F09CE232B09F071CFAFCFA0E0B0E0A4
:10287000ECE3F4E10C94BC307C015B016A018091D3
:102880009E028A3018F001E010E002C00AE010E079
:10289000C1E0D0E0B501C701F6010995811115C06D
:1028A00021960C171D0794F0CC9F9001CD9F300D01
:1028B000300D112480E090E045E34A95F1F70000E7
:1028C000019682179307C1F7E5CF81E0CDB7DEB758
:1028D000EAE00C94D830FF920F931F93CF93DF93CD
:1028E0008C018AE0F82EF8018491882309F44CC009
:1028F000813009F042C0E8012196FE0184918130C7
:1029000031F42196FE0184910E94662039C0823004
:1029100039F4E8012296FE0184910E941C2E30C0F9
:10292000833039F4E8012296FE0184910E94EB1F66
:1029300027C0843029F5E8012296FE01249180E029
:1029400090E030E0205331092A30310560F4F89EE0
:10295000A001F99E500D1124C901840F951F2196E5
:10296000FE012491EECF009759F0EFE9FFE0319797
:10297000F1F700C000000197F6CF0E94E92BE801B3
:102980008E010F5F1F4FAFCFCDB7DEB7E5E00C94E0
:10299000DD300F931F93CF938C018091E702C82FF6
:1029A000C17080FF03C080EE0E94EB1FF80182819E
:1029B000882321F08FE20E941C2E03C08FE20E9428
:1029C000EB1FCC2319F080EE0E941C2ECF911F919B
:1029D0000F910895FC01AC014A5F5F4F8FEF91E3C7
:1029E0002191822728E030E087FF03C0880F8927E4
:1029F00001C0880F21503109B9F7E417F50781F7B5
:102A00000895EF92FF920F931F93CF93DF937C0172
:102A10008B010E945827811119C0E701011511058A
:102A2000A1F08091E80085FD0AC08091E8008E77D2
:102A30008093E8000E945827882381F307C089917A
:102A40008093F10001501109E9CF80E0CDB7DEB7E6
:102A5000E6E00C94DC30AAE2B0E0E1E3F5E10C94AE
:102A6000C330EFEDF2E087EE92E02091F100219388
:102A70008E179F07D1F78091E002833009F461C07F
:102A800030F4813071F0823009F49BC0B2C08A30DA
:102A900009F487C08B3009F46CC0893009F0A9C0F3
:102AA00020C08091DF02813A09F0A3C08091E80044
:102AB000877F8093E8008091E3029091E402892B64
:102AC00021F468E083ED92E003C060E080E090E0F4
:102AD00070E00E94DF278091E8008B778093E80008
:102AE00088C08091DF02813209F083C08091E302C7
:102AF0009091E402029708F07CC08091E800877F03
:102B00008093E8008091E80082FD05C08091DD029D
:102B10008111F8CF6EC02091F3008091F20090E017
:102B2000922B029731F48091F100813011F08630C0
:102B300021F48091F1008093D2028091E8008B779C
:102B400054C08091DF02813A09F053C08091E302C2
:102B50009091E402892B09F04CC08091E800877FB6
:102B60008093E8008091E80080FFFCCF80912601EF
:102B700037C08091DF028132E1F58091E3029091CC
:102B8000E402892BB1F58091E800877F8093E8000B
:102B90000E948B278091E102809326010E94B91F39
:102BA00028C08091DF02813221F58091E800877F83
:102BB0008093E8000E948B278091E2028093D102EB
:102BC00018C08091DF02813AA1F48091E800877FEC
:102BD0008093E8008091E80080FFFCCF8091D102D3
:102BE0008093F1008091E8008E778093E8000E9446
:102BF0008B278091E80083FFCEC18091DF02909106
:102C0000E002492F50E04A30510508F0C4C1FA01F2
:102C1000EE59FF4F0C944131803821F0823809F091
:102C2000BAC108C08091DB029091DC02992389F03F
:102C300082600FC08091E3028F70873008F0ABC1D3
:102C40008093E9008091EB0085FB882780F9109242
:102C5000E9009091E800977F9093E8008093F1005D
:102C60001092F10065C1282F2D7F09F094C18823AF
:102C700019F0823061F08FC18091E102813009F05A
:102C80008AC1933009F080E08093DC022EC08091ED
:102C9000E10281112AC08091E3028F702FEF280F8B
:102CA000263008F078C18093E9002091EB0020FFE6
:102CB0001CC0933021F48091EB00806214C090918D
:102CC000EB0090619093EB0021E030E0A90102C09D
:102CD000440F551F8A95E2F74093EA001092EA00EC
:102CE0008091EB0088608093EB001092E900809166
:102CF000E800877F20C181114EC11091E1021F774A
:102D00008091E3008078812B8093E3008091E8003C
:102D1000877F8093E8000E948B278091E80080FFE6
:102D2000FCCF8091E30080688093E300111102C022
:102D300082E001C083E08093DD022DC180588230A3
:102D400008F029C18091E1029091E2028C3D53E0AC
:102D5000950779F583E08A838AE289834FB7F894EF
:102D6000DE01139620E03EE051E2E32FF0E05093C5
:102D70005700E49120FF03C0E295EF703F5FEF70D2
:102D80008E2F90E0EA3010F0C79601C0C0968D9368
:102D90009D932F5F243149F74FBF8091E800877FD3
:102DA0008093E8006AE270E0CE0101960E94DF277E
:102DB000AEC04091E3025091E402292F3327233023
:102DC0003105A9F068F42130310509F4F3C022304F
:102DD000310509F0E0C08BE390E0E5EDF1E044C09F
:102DE0002132310521F12232310571F1D4C0992708
:102DF00081309105A1F058F0029709F0CCC0E2E2D1
:102E0000F2E0E4918E2F90E0E2E2F2E02AC0E0E608
:102E1000F2E0E4918E2F90E0E0E6F2E022C0E0E5FF
:102E2000F2E0E4918E2F90E0E0E5F2E01AC0411567
:102E3000510509F4C4C04130510509F0ACC089E026
:102E400090E0E0E0F2E010C04115510509F4BCC08B
:102E50004130510509F09FC08BE790E0EAE1F1E0D5
:102E600003C0009709F497C02091E800277F2093C2
:102E7000E8002091E5023091E6028217930708F4FA
:102E80009C0140E02115310589F18091DD02882304
:102E900009F43DC08530D9F18091E80083FD37C049
:102EA0008091E80082FD2FC08091E80080FFEACF8A
:102EB0004091F3008091F20090E0942B21153105B0
:102EC00059F08830910540F444914093F1003196D7
:102ED000215031090196F2CF41E0089709F040E016
:102EE0008091E8008E778093E800CCCF4111CDCF60
:102EF0000AC08091DD02882351F0853041F0809135
:102F0000E80083FD04C08091E80082FFF2CF809149
:102F1000E8008B778093E8003EC08038E1F580912F
:102F2000E800877F8093E8008091DE028093F100C3
:102F30008091E8008E778093E8000E948B272BC059
:102F4000811129C08091E1029091E20299270297B4
:102F500014F58091E800877F8093E8001091E102EA
:102F60001093DE020E948B27111106C08091E300AE
:102F700087FD02C081E001C084E08093DD0242E071
:102F800061EC81E00E94AA2742E261EC82E00E94AB
:102F9000AA278091DD028091E80083FF1AC080910A
:102FA000E800877F8093E8008091EB008062809347
:102FB000EB000FC082E190E0E0E1F2E055CF89E064
:102FC00090E0E7EEF1E050CF80E490E0E5E9F1E059
:102FD0004BCFAA96E3E00C94DF301F920F920FB60E
:102FE0000F9211242F933F934F935F936F937F938F
:102FF0008F939F93AF93BF93CF93DF93EF93FF9301
:10300000C091E900CF708091EC00D82FD17080FD85
:10301000D0E81092E9008091F000877F8093F00063
:1030200078940E942B151092E9008091F00088603E
:103030008093F000CD2BCF70C093E900FF91EF910A
:10304000DF91CF91BF91AF919F918F917F916F91C0
:103050005F914F913F912F910F900FBE0F901F9056
:103060001895E8EDF0E080818E7F80831092E20079
:103070001092DA001092E100A0EEB0E08C91816035
:103080008C9380818F77808319BCA7EDB0E08C9101
:103090008E7F8C9380818F7E80831092D0020895E2
:1030A000A0E0B0E0E6E5F8E10C94BE30C8EDD0E079
:1030B00088818F7E8883E7EDF0E080818160808366
:1030C00084E082BF81E08093D00288818E7F8883F4
:1030D00002EE10E0F80110821092DA0081EEC82EA4
:1030E000D12CF601108288818F778883888180684F
:1030F000888388818F7D888319BC1092DD021092AD
:10310000DE021092DC021092DB0290EEE92EF12C2E
:10311000F70180818B7F808388818160888342E092
:1031200060E080E00E94AA27F60180818E7F808384
:10313000F801808181608083808188608083F701CD
:1031400080818E7F8083888180618883CDB7DEB760
:10315000E8E00C94DA301F920F920FB60F92112410
:103160002F933F934F935F936F937F938F939F938F
:10317000AF93BF93EF93FF938091E10082FF09C06B
:103180008091E20082FF05C08091E1008B7F8093F7
:10319000E1008091DA0080FF2AC08091D80080FF92
:1031A00026C08091DA008E7F8093DA008091D9006A
:1031B00080FF18C080E189BD82E189BD09B400FEAD
:1031C000FDCF81E08093DD028091D00281110FC09C
:1031D0000E9431180E9450188091E2008460809310
:1031E000E20005C019BC1092DD021092D00280915D
:1031F000E10080FF17C08091E20080FF13C0809142
:10320000E2008E7F8093E2008091E20080618093F3
:10321000E2008091D80080628093D80019BC85E0DC
:103220008093DD028091E10084FF30C08091E20054
:1032300084FF2CC080E189BD82E189BD09B400FE14
:10324000FDCF8091D8008F7D8093D8008091E100E0
:103250008F7E8093E1008091E2008F7E8093E20078
:103260008091E20081608093E2008091DE028823F9
:1032700011F084E007C08091E30087FD02C081E087
:1032800001C083E08093DD028091DD028091E10046
:1032900083FF27C08091E20083FF23C08091E1007B
:1032A000877F8093E10082E08093DD021092DE024E
:1032B0008091E1008E7F8093E1008091E2008E7F1B
:1032C0008093E2008091E20080618093E20042E01E
:1032D00060E080E00E94AA278091F00088608093DF
:1032E000F000FF91EF91BF91AF919F918F917F91EE
:1032F0006F915F914F913F912F910F900FBE0F9063
:103300001F90189580E008959091B30292FF0DC030
:10331000282F2871283019F4877F846006C0282F51
:103320002471243011F48B7F886093FF0DC0282F07
:103330002871283119F4877E846106C0282F2471F2
:10334000243111F48B7E88612091B40220FF0DC0DE
:10335000382F3871383019F4877F816006C0382FD4
:103360003171313011F48E7F886021FF0DC0282F1C
:103370002871283119F4877E816106C0282F2171B8
:10338000213111F48E7E886194FD877E08958091AD
:103390005003811118C08091D80080618093D800BB
:1033A0008AE18A95F1F700C08091D90080FD02C0C2
:1033B00082E001C081E080935003823021F40E94BA
:1033C00031181092DD0281E090915003913009F0A4
:1033D00080E00895F894E82FE295EF70F0E031A1D5
:1033E000282F2F7081E090E001C0880F2A95EAF71E
:1033F000982F9095932391A392A1892B82A37894DF
:103400000895A2E1B0E0E7E0FAE10C94B730AE0134
:103410004F5F5F4F7A018CE0DA011D928A95E9F7E0
:1034200000E312E06A0186E3682E82E0782EAA2487
:10343000A394B12C2CE3822E22E0922EF8018081FD
:103440008F3F09F440C0F894E82FE295EF70F0E068
:1034500021A18F70A50102C0440F551F8A95E2F784
:10346000CA01922F982B91A392A18095892382A3C0
:10347000789400C0E6E3F2E0512C31E021912F3F37
:1034800089F0A22FA295AF70B0E090968C9190E059
:103490002F7002C0959587952A95E2F780FD02C0AE
:1034A000832F01C080E0582A330F8E169F0631F714
:1034B000D8018C918F3F11F00E94EA19B0EABA95B9
:1034C000F1F7F60150820F5F1F4FFFEFCF1ADF0AAF
:1034D0006016710609F0B2CF4CE050E0B70183EA04
:1034E00092E00E945B31009741F02CE0F701A3EAE3
:1034F000B2E001900D922A95E1F70091B002892B7C
:1035000049F081E0809348030E947E28909347030E
:103510008093460380914803811102C0F12C22C0A0
:1035200080914603909147030E9463280597B0F36A
:1035300010E009541D4F46E050E063EA72E0C80114
:103540000E945B31892B59F086E0E3EAF2E0D80172
:1035500001900D928A95E1F7FF24F39401C0F12CBC
:10356000109248030E94C719E091B002882309F421
:1035700058C06E012DE0C20ED11C86E0D6011D920E
:103580008A95E9F70E2F10E009541D4F80919E0295
:103590008A3048F446EB50E1B601C8010E94361467
:1035A000882399F00AC08091490390914A030E94B0
:1035B0006328843F914070F71AC04DE450E1B60192
:1035C000C8010E943614811171C080919E028F3F04
:1035D00019F08F5F80939E0280919E028A3008F4DA
:1035E00067C00E947E2890934A038093490380918C
:1035F0004F03882309F454C086E0F60111928A959E
:10360000E9F710924F03A091AF02B0E0A954BD4F6B
:1036100086E0FE013D9601900D928A95E1F781E0EA
:1036200040C0F0E0E954FD4F86E0A0E9B2E001902F
:103630000D928A95E1F780E992E00E94EA14809366
:103640008F028090960290909702A0909802B0907E
:10365000990280914B0390914C03A0914D03B0913E
:103660004E0388169906AA06BB06D1F080924B033A
:1036700090924C03A0924D03B0924E030E94C71942
:1036800081110EC00E947228861A970AA80AB90AE8
:1036900080929F029092A002A092A102B092A202F8
:1036A00080E08F296296EFE00C94D33010929E0256
:1036B0008091AF0290E046E050E0B60189549D4F02
:1036C0000E945B3121E020934F03892B09F09BCFAF
:1036D000E7CF7C30A0F4663090F498E4899FF00145
:1036E000112486E0789FE00DF11D1124E60FF11DF5
:1036F000EE0FFF1FEC59FD4F85919491089580E0E6
:1037000090E00895CF93DF938238910569F1B0F48A
:103710008133910509F477C048F48932910509F4A1
:1037200069C08A32910509F473C092C0853391054E
:1037300009F45BC089339105B9F08AC0833E9105D5
:1037400091F138F4803E9105D1F0823E910531F13E
:103750007FC0863E9105D9F1873E9105E9F1843E0F
:10376000910509F075C028C02091B30220FD5BC00F
:1037700021FD59C02091B40223FD61C069C0809130
:10378000B30280FD4AC08091B40280FF4CC080919A
:10379000B30284FD4EC183EE90E04DC18091B3022F
:1037A00082FF3EC0F4CF8091B30282FD39C0809188
:1037B000B40280FD38C0EBCF8091B40281FF39C0E4
:1037C0008091B30284FD35C187EE90E034C18091D1
:1037D000B30283FF2BC0F4CF8091B30283FD26C0D8
:1037E0008091B40281FD25C0EBCF8091B30285FDAD
:1037F00026C022C08091B30285FD1EC08091B40214
:1038000083FF1DC00AC08091B30286FD1BC01DC08E
:103810008091B30286FD19C015C089E390E00BC109
:1038200082EE90E008C180EE90E005C186EE90E067
:1038300002C184EE90E0FFC085E390E0FCC089E225
:1038400090E0F9C08AE290E0F6C081E390E0F3C036
:10385000811531E5930708F061C0811520E59207D5
:10386000B0F09C012370332741E050E002C0440FC8
:10387000551F2A95E2F7282F2695269580E2289F46
:1038800090011124CA01822B932B9D68D4C0883EDD
:10389000910568F5803E910508F0CDC0883A910504
:1038A000B8F4853A910548F0855AE82FF0E0E45CD9
:1038B000FD4F808190E09064BEC08130910509F495
:1038C000B5C008F4B6C08430910508F4B2C0B3C0E6
:1038D0008F3B910508F0ADC0885AE82FF0E0EE0F5D
:1038E000FF1FE15CFD4F808191819464A4C081152C
:1038F00030E2930758F4811521E0920708F09BC04D
:103900008D3E910508F495C0906595C0811530E411
:10391000930708F48EC09F70906A8DC0811525E5CD
:10392000920708F042C0811534E5930728F0982FDC
:103930008827846F906A7FC0811523E59207B0F0D5
:103940009C012370332741E050E002C0440F551F13
:103950002A95E2F7282F2695269580E2289F900148
:103960001124CA01822B932B9A6865C0811532E518
:10397000930728F4982F8827816F906A5CC09C0178
:103980002370332741E050E002C0440F551F2A95B1
:10399000E2F7282F2695269580E2289F9001112492
:1039A000CA01822B932B9C6846C0EC01C11589E5A6
:1039B000D807B0F4C11528E5D20728F09C2F882736
:1039C000806F906A38C0C11536E5D30790F58C2F0B
:1039D0000E9484198F7190E0982F882790622BC0E5
:1039E000C1158AE5D80790F48C2F8F700E94841936
:1039F00094E0D695C7959A95E1F7CF70D0E0DC2F8B
:103A0000CC27D0699E01282BC90115C0CE01905644
:103A10008115904270F48D2F8F710E948419282F88
:103A20002F71CE0199279062922B05C081E090E022
:103A300002C080E090E0DF91CF910895CF9384E0C1
:103A400090E00E94EB30C82F82E290E00E94EB30C1
:103A50002C2F30E0A901582BCA01CF91089568EEB0
:103A60007EEF80E090E00E94173160E082E090E01D
:103A70000E94F93060E083E090E00E94F9301092FB
:103A800045031092440360E084E090E00E94F93026
:103A900064E082E290E00E94F93060E085E090E02E
:103AA0000E94F93060E086E090E00E94F9306FEF0C
:103AB00087E090E00E94F93040E050E0BA0188E0F1
:103AC00090E00E940B3160E08DE090E00E94F930C0
:103AD00040E050E0BA0188E190E00E940B3160E0E4
:103AE00087E190E00E94F93040E050E0BA018CE1BB
:103AF00090E00E940B3160E070E080E290E00E9474
:103B0000173140E050E0BA0188E190E00E940B31AB
:103B100040E050E0BA018FE090E00E940B3140E0BD
:103B200050E0BA0183E190E00E940B31089580914A
:103B30004303811110924303089580959091E70209
:103B400089238093E70208959091E70280910C0405
:103B5000982B9093E80280914303882389F0892B66
:103B60008093E802EAEEF2E097E080E0915029F0DD
:103B700021912223D9F38F5FF9CF81110E94971DE4
:103B800048E050E06BE373E088EE92E00E945B3126
:103B9000892BA9F088E0E8EEF2E0ABE3B3E0019016
:103BA0000D928A95E1F7E091ED03F091EE033097E5
:103BB00031F00280F381E02D88EE92E009950895BE
:103BC00020913A038095822380933A03982F97702F
:103BD00099F430E0482F082E000C550B24173507B8
:103BE00059F09091B40292FF07C08595859585950F
:103BF0000E94751F10923A030895CF93C091B402AA
:103C0000C2FB992790F9981791F080FBC2F9C093F5
:103C1000B4026091B30284E090E00E94F9306C2F0E
:103C200082E290E00E94F93082E00E94E01DCF9194
:103C30000895209139039091F8022917B1F030E0EE
:103C4000F90153E0EE0FFF1F5A95E1F7E750FD4FE2
:103C50005181561306C05081581303C0528154132A
:103C600006C02F5F3F4F2770E8CF80E0089581E0C6
:103C70000895809139039091F802891719F08F5FA8
:103C80008770FBCF0895EF92FF920F931F93CF930E
:103C9000DF938091F50282958F7009F054C0809176
:103CA000F202882309F44FC0C0913903E090F80272
:103CB000D091F002F090F1020091F3021091F40221
:103CC000CE1509F440C0A8016F2D8D2F0E949E2AA9
:103CD0002C2F30E0811132C0F90183E0EE0FFF1F7D
:103CE0008A95E1F7DF01A750BD4F11968C9111978E
:103CF0008F1124C08C918D1321C012968C91129734
:103D000081111CC013968D919C911497801B910B6F
:103D1000883C910598F48091F5028F7080618093C2
:103D2000F502E250FD4F80818F708061808380EFCB
:103D300092E00E94BF060E94391E05C02F5F3F4FD0
:103D4000C22FC770BDCFCDB7DEB7E6E00C94DC3034
:103D500080E090E00E94F02880E090E00E94DA2865
:103D600010920C040E94A41DE0E0F4E086E0DF0164
:103D70001D928A95E9F71092FA031092F9031092B6
:103D8000FB030E94A82C0895A0E0B0E0EAECFEE15D
:103D90000C94BD307C010091B1021091B20280916F
:103DA000440390914503082B192BCFE0D0E0CC249D
:103DB000C394D12CC6010C2E02C0880F991F0A94FF
:103DC000E2F780239123892B21F4219798F7B12CD6
:103DD00009C0BC2EB7018C2F0E94691B0E94821B58
:103DE000019799F38B2DCDB7DEB7E9E00C94D9306C
:103DF000CF93DF93EC010E94C41EBE010E94691B99
:103E00000E94821BDF91CF9108959C3078F5863017
:103E100068F5E82FF0E086E0989FE00DF11D112491
:103E20009E2F977083E0F695E7958A95E1F7EE0F60
:103E3000FF1FEE0FFF1FEF5AFC4F40E050E080E005
:103E4000219130E0092E02C0369527950A94E2F7B9
:103E500021703327042E01C0220F0A94EAF7822B27
:103E60004F5F5F4F4430510559F7089580E0089542
:103E70009C3088F5863078F5E82FF0E086E0989F52
:103E8000E00DF11D11248E2F877051E001C0550FF8
:103E90008A95EAF783E0F695E7958A95E1F7EE0FC4
:103EA000FF1FEE0FFF1FEF5AFC4F20E030E070E0E5
:103EB0004081CB01022E02C0969587950A94E2F7C5
:103EC0008170819584278523842781932F5F3F4FBD
:103ED0002430310569F708950E9493239093B2022C
:103EE0008093B1020E94A81E089521E030E002C034
:103EF000220F331F8A95E2F7209530958091B10209
:103F00009091B202822393230E946C1F089521E0B6
:103F100030E002C0220F331F8A95E2F78091B10290
:103F20009091B202822B932B0E946C1F0895909364
:103F30004503809344030E94A81E089592959F70A4
:103F4000963079F010F4925001C09A50923068F493
:103F5000803F69F018F4883E40F409C0843F29F49A
:103F600006C0883E20F0813F11F080E0089581E096
:103F700008951092E70286E0EAEEF2E0DF011D927A
:103F80008A95E9F70E94A81E0895882341F080953C
:103F900090910C04892380930C040E94A41D089521
:103FA000882339F090910C04892B80930C040E9493
:103FB000A41D0895882321F00E949D1D0E94A41D28
:103FC0000895882339F09091E702892B8093E702C6
:103FD0000E94A41D0895882309F45FC0823869F403
:103FE0000E94062981FF59C069E388EE92E00E9491
:103FF000C0280E94A41D69E30EC0833899F40E9472
:10400000062980FF4AC063E588EE92E00E94C0283E
:104010000E94A41D63E588EE92E00E94B3280E94EE
:10402000A41D0895843869F40E94062982FF35C0D2
:1040300067E488EE92E00E94C0280E94A41D67E415
:10404000EACF9CEF980F913A10F4682FE4CF90E2FA
:10405000980F983050F4877091E001C0990F8A95BD
:10406000EAF7892F0E949D1DDACF9BE5980F9330C8
:1040700028F480E090E00E94F028089598E5980FD9
:10408000973128F480E090E00E94DA2808958D3E70
:1040900020F00E94D22C0E94A82C08951F93CF9349
:1040A000DF93182FEB010E941C2E209741F08FE91F
:1040B0009FE00197F1F700C000002197F6CF812F14
:1040C0000E94EB1FDF91CF911F910895893319F062
:1040D00060E070E002C060E570E00E944E2008954C
:1040E000CF93DF93EC014B815C81698188810E94D1
:1040F0009E2A81110EC08E819F81009719F00E9427
:10410000821B04C0888199810E94F81E0E949E1F14
:1041100001C080E0DF91CF910895A5E1B0E0E3E92F
:10412000F0E20C94B5308C0185E0F801DE01519687
:1041300001900D928A95E1F7D8011296EC9080EFEC
:10414000A82E82E0B82E5090F0024090F1028090AC
:10415000F3029090F402A401642D852D0E949E2A02
:10416000F82E811174C1F80170806180C380D48001
:104170003090F202960128193909332009F419C147
:104180008091F502982F907F283C310508F0D3C02C
:10419000911179C046101AC0571018C04091F6020C
:1041A0005091F702268137814217530779F4E110C5
:1041B0000DC08F7080618093F502C5010E94BF061B
:1041C0008091F502D80115968C935DC1A601662DEC
:1041D000872D0E949E2AD82E811103C081E08E2552
:1041E00002C080E090E080FF07C04E2D662D872D35
:1041F0000E94191E81113EC0D11003C081E08E259E
:1042000002C080E090E0B82FB170DB2E80FF2AC0A2
:104210004E2D662D872D0E94191EC82E811122C099
:10422000798A6A8A89899A890E94F81E292F22959B
:104230002F70223018F0243078F405C09F7049F0B8
:10424000811107C00DC09F7021F0F8019581907F0A
:1042500039F0805E883020F0C8010E94BF06CD2C66
:10426000FC2C11C1EE2009F40DC18091F502816092
:104270008093F50280EF92E00E94BF06E0EFF2E04B
:1042800088E0DF01E0C046101BC0571019C0409104
:10429000F6025091F702F801268137814217530741
:1042A00079F4E1100DC08583C8010E94BF0688E043
:1042B000F801A0EFB2E001900D928A95E1F759C0A4
:1042C000C8010E947020882381F1EE2071F12091B5
:1042D000F502822F82958F7090E00297A4F0809172
:1042E000F0029091F1029A8789871B86DD86CC8641
:1042F0002E878091F6029091F702988B8F87CE01DE
:1043000009960E94BF0688E0F801A0EFB2E0019094
:104310000D928A95E1F70E94431E0AC0461491F05F
:10432000C8010E947020811126C0C8010E94BF06EA
:10433000FF24F394A8C09111F1CF80EF92E00E9486
:10434000BF067FC05710ECCF4091F6025091F702A4
:10435000F801268137814217530711F7E110E0CFAA
:104360008583C8010E94BF0688E0D5011D928A9509
:10437000E9F7F32C88C0EE20C1F22091F502822FDC
:1043800082958F7090E002970CF4BDCF8091F0027F
:104390009091F1029A8389831B82DD82CC822E83E5
:1043A0008091F6029091F70298878F83CE01019653
:1043B000A8CF283C310508F044C0FE2CEE2009F4BB
:1043C000B4CF461030C057102EC02091F602309165
:1043D000F702F801868197812817390721F5909116
:1043E000F50290FD17C0892F82958F70282F30E03D
:1043F0002115310579F095832F30310541F08F5F1C
:10440000982F9295907F85818F70892B8583C80125
:104410000E94BF0688E0F801A0EFB2E001900D9283
:104420008A95E1F730C0C8010E94702081116BCFDE
:104430008091F50281608093F502C8010E94BF0659
:1044400022C088E0D5011D928A95E9F71CC0EE20B4
:1044500009F46BCFC8010E947020F82E882309F45C
:1044600064CF88E0F801A0EFB2E001900D928A9548
:10447000E1F78091F0029091F1020E94F81E0E94F3
:10448000431E01C0F12C8F2D6596E1E10C94D130D3
:10449000A0E1B0E0EEE4F2E20C94C03029873A8764
:1044A0004B875C876D877E878F87988BCE010996B7
:1044B0000E948D2081114AC088E0FE013996DE01FC
:1044C000119601900D928A95E1F7E984FA840C85A2
:1044D0001D85A8016F2D8E2D0E949E2A811136C048
:1044E000A091F802B0E0CD01019687709927209144
:1044F000390330E08217930781F1E982FA821D8344
:104500000C8393E0AA0FBB1F9A95E1F7A750BD4F0C
:1045100098E0FE01319601900D929A95E1F7809313
:10452000F8020E94391E12C028E0829FC0011124A7
:1045300087509D4F0E948D208823E1F080913903A0
:1045400090E0019687709927809339038091390311
:104550009091F8028913E8CF0DC00E94B91F109204
:10456000F80210923903E0EFF2E088E0DF011D92DB
:104570008A95E9F76096E6E00C94DC309C013A9568
:1045800021153F4130F5BC0166277270AC0144270C
:1045900054709C012227387094FF0FC090FF02C016
:1045A00080E101C080E0672B09F08062452B09F0B3
:1045B0008064232B79F080680895892F8170672BA0
:1045C00009F08260452B09F08460232B19F0886084
:1045D000089580E00895A5E0B0E0E1EFF2E20C94E8
:1045E000C33049835A8389819A81662359F02223F3
:1045F00049F00E94C41E182F682F89819A810E9459
:10460000381F03C00E94051F182F69817A81812FEE
:104610000E94691B2596E3E00C94DF30FC01868143
:104620009781009741F4262F4081518162817381E7
:1046300084810E94EB2208950E94B91F2FEF84E32A
:104640009CE0215080409040E1F700C000009AE0DB
:1046500088E10FB6F894A895809360000FBE909300
:104660006000FFCF0E94B91F2FEF84E39CE0215030
:1046700080409040E1F700C0000087E797E7909303
:104680000108809300089AE088E10FB6F894A89595
:10469000809360000FBE90936000FFCFEF92FF9277
:1046A0000F931F93CF93DF93EC018B017C0180EE7E
:1046B000E81AF10898E0E916F10410F0209731F4B7
:1046C000CE010E94BE220E94E11F05C0CE010E94C1
:1046D000BE220E94D01F8C2F0E941C2E0115110596
:1046E00049F08FE99FE00197F1F700C00000015009
:1046F0001109F4CF8C2F0E94EB1F98E0E916F1040A
:1047000010F0209731F4CE010E94BE220E94DA1FE1
:1047100005C0CE010E94BE220E94C51FCDB7DEB7E4
:10472000E6E00C94DC309C012C7033272C303105F2
:1047300011F4806101C08F7E9C0124703870243098
:10474000384011F4906108959F7E0895EF92FF9292
:104750000F931F93CF93DF937C01162FEA01809173
:10476000E702082F027081FF03C081EE0E94EB1F59
:10477000F7018281882349F0812F0E941C2E209707
:1047800061F08C2F0E941C2E08C0812F0E94EB1F0D
:10479000209719F08C2F0E94EB1F002319F081EE57
:1047A0000E941C2ECDB7DEB7E6E00C94DC300F93F0
:1047B0001F93CF938C01C42FAB0166EE70E00E9473
:1047C000A623F8018281811106C08C2F0E941C2E25
:1047D0008C2F0E94EB1FCF911F910F910895813272
:1047E000910508F0C0C0FC01E459FF4F0C94413121
:1047F000662309F4B8C08CE69BE0B3C0662309F4D5
:10480000B2C080E69BE0ADC0662309F4ACC085E58C
:104810009BE0A7C0662309F4A6C08AE49BE0A1C080
:10482000662309F4A0C083E49BE09BC0662309F4DF
:104830009AC08CE39BE095C0662309F494C085E39D
:104840009BE08FC0662309F48EC087E29BE089C09D
:10485000662309F488C089E19BE083C0662309F4DC
:1048600082C080E19BE07DC0662309F47CC088E0C3
:104870009BE077C0662309F476C08EEF9AE071C0A2
:10488000662309F470C086EF9AE06BC0662309F4D2
:104890006AC089EE9AE065C0662309F464C08FEDB2
:1048A0009AE05FC0662309F45EC088ED9AE059C0C3
:1048B000662309F458C08FEC9AE053C0662309F4CC
:1048C00052C086EC9AE04DC0662309F44CC089EBD7
:1048D0009AE047C0662309F446C08EEA9AE041C0D8
:1048E000662309F440C088EA9AE03BC06623D9F108
:1048F0008FE99AE036C06623B1F182E99AE031C0CF
:10490000662389F189E89AE02CC0662361F18EE77D
:104910009AE027C0662339F189E79AE022C066232E
:1049200011F184E79AE01DC06623E9F081E79AE07F
:1049300018C06623C1F08CE69AE013C0662399F094
:1049400088E69AE00EC0662371F082E69AE009C01C
:10495000662349F085E59AE004C0662321F084E4EB
:104960009AE00E946B140895ABE1B0E0EAEBF4E248
:104970000C94B430942F498B252F5A8B6B8B7C8BE6
:104980008D8B4C895D89622F892F0E949E2A81110F
:1049900009C08091830290918402019690938402D1
:1049A000809383028B89811110920C048E01075F22
:1049B0001F4F88E0F80111928A95E9F785E0FE0122
:1049C0007196D80101900D928A95E1F74C855D852D
:1049D0006A8589850E949E2A8111D8C161E0C8013B
:1049E0000E940E235C01883FFCE59F0739F48B850C
:1049F0008823A1F081E080930E02C8C1893F2CE595
:104A0000920731F48B85882349F00E94AD2ABEC1FC
:104A10008A3F9C4519F48B85811111C007E211E092
:104A2000712CC12CD12C88248394912C552453941F
:104A3000CE0101969F8B8E8B77E0472E38C08091F8
:104A40000E028823B9F2E1CFFFEFEF16FF0609F45B
:104A50004BC1F8016481611145C020910E02822F83
:104A600081706B84F80135812681662009F4DCC0F1
:104A7000882309F4D9C03323C1F1940102C0220F65
:104A8000331F9A95E2F721503109F801868190E0B1
:104A90002817390709F440C07628FFEFCF1ADF0A3C
:104AA000095F1F4F21E2C216D10409F41FC1F801AA
:104AB000208131816FEF8FEF90E0E92EF12CF7012B
:104AC000EE0FFF1FE20FF31F45915491A416B50698
:104AD00011F0E62EF82E452B09F4B6CF9F5F6E2D10
:104AE0008F2DEBCF20E030E0BACFA4010E2C01C017
:104AF000440F0A94EAF7242B268320910A0430916C
:104B00000B042233310508F0B8CF22E330E03093B4
:104B10000B0420930A04B1CF8091E0039091E1034C
:104B2000009729F00E946328C39708F02CC1809158
:104B3000DE03B091DF03982FE0E0F0E08B1709F47B
:104B40005FC0282F30E0F901EE0FFF1FEA52FC4F43
:104B5000E080F1804E9CF0014F9CF00D1124E95D46
:104B6000FE4F40814A8F41814B8FA0E060E070E0B2
:104B7000EA8DFB8DE70FF11DE70FF11D25903490B5
:104B800021143104D1F0F801F081F88FF801F1819E
:104B9000F98F60E0E88DF98DE60FF11DE60FF11D4C
:104BA000459154914115510531F02416350609F40B
:104BB000A1E06F5FEFCF7F5FDBCFAA23D1F0671754
:104BC00008F4DBC04E9CF0014F9CF00D1124E95D10
:104BD000FE4F309781F05482E017F10719F490935B
:104BE000DE035ACF891307C0C9010196982F93702D
:104BF00002C0E0E0F0E02F5F3F4F822F83709ECF36
:104C00009093DE03E017F10709F446CF90E0FC0132
:104C1000EE0FFF1FEA52FC4FD182C08201968370D3
:104C200099278093DF0338CF311114C0A40102C04B
:104C3000440F551F9A95E2F74150510930E0421751
:104C4000530709F043C0662309F441C0C6010E941E
:104C5000542B3CC0822F90E09C0121503109282325
:104C600039230E2C02C0959587950A94E2F7232BE1
:104C700059F580FF29C0F80182819381892BE1F0E9
:104C800088E0EE89FF8911928A95E9F78EEF898392
:104C90008A830E947E288160582F9D838C83F8012F
:104CA000828193818F83988729813A814B816D819D
:104CB0007E810E94482204C060E0C6010E94EF236A
:104CC000F801158281E003C0817001C080E0940189
:104CD0000E2C01C0220F0A94EAF72095F801968164
:104CE00029232683682ED8CE612CD6CE8B858823A7
:104CF00081F1772071F10E947E289093E1038093E7
:104D0000E00380917503883008F04AC091E0980F65
:104D10009093750398E0FE013996DE01119601909B
:104D20000D929A95E1F74CE0849FC00111248A58B6
:104D30009C4F28E0FE013196DC0101900D922A95EE
:104D4000E1F72FEF3FEFFC0131872087B386A28682
:104D500027C09091DE038091DF03981719F00E941D
:104D6000BC2A08C00E94822B1092E1031092E0033B
:104D70000E94D82B772051F013C00115110509F4BA
:104D800038CF9093DE03F801548286CE29853A8588
:104D90004B855C856D857E858F8598890E9448222C
:104DA0006B96E2E10C94D03008958091D202089580
:104DB0008093F6037093F8036093F7038091DD020C
:104DC000843001F582E08093E9008FEF9091E80054
:104DD000815095FD06C095ED9A95F1F7000081117F
:104DE000F5CF8091E80085FF0DC040E050E063E022
:104DF00070E086EF93E00E9401158091E8008E77C5
:104E00008093E8000895BC0184E00E94D8260895AC
:104E1000BC0183E00E94D826089522E02093E90097
:104E20002FEF3091E800215035FD06C035ED3A9561
:104E3000F1F700002111F5CF2091E80025FF0BC00C
:104E400040E050E066E070E00E9401158091E800CB
:104E50008E778093E8000895CF93DF9321E020932D
:104E6000E9002FEF3091E800215035FD06C035ED07
:104E70003A95F1F700002111F5CF2091E80025FFC8
:104E800014C0EC0140E050E068E070E00E940115C1
:104E90008091E8008E778093E80088E0FE01A3ED22
:104EA000B2E001900D928A95E1F7DF91CF910895DC
:104EB0002091E4003091E50095E64091EC00842FCC
:104EC000817040FF23C08091E80080FD1DC080916B
:104ED000DD02882399F0853099F08091EB0085FD03
:104EE00011C04091E4005091E5002417350729F3E3
:104EF000915011F09A01E1CF84E0089582E0089585
:104F000083E0089581E0089580E008954091E800ED
:104F100042FFDDCF08958091DF0287FF11C08091AD
:104F2000E80082FD05C08091DD028111F8CF11C03B
:104F30008091E8008B770BC08091DD02882349F0D7
:104F40008091E80080FFF8CF8091E8008E77809311
:104F5000E8000895982F973068F59093E900981726
:104F600039F07091EC002091ED005091F00003C0F9
:104F7000242F762F50E021FD02C09F5FECCF3091AF
:104F8000EB003E7F3093EB003091ED003D7F30939E
:104F9000ED003091EB0031603093EB007093EC004A
:104FA0002093ED005093F0002091EE0027FDE5CF17
:104FB00080E008958F708093E90081E0089520914A
:104FC000E5023091E6022617370748F061157105B2
:104FD00039F42091E8002E772093E80001C0B90150
:104FE000FC0120E06115710579F18091DD028823D3
:104FF000F1F18530F1F18091E80083FD3CC08091B2
:10500000E80082FD2EC08091E80080FFEBCF209168
:10501000F3008091F20090E0922B6115710551F040
:105020008830910538F421912093F1006150710985
:105030000196F3CF21E0089709F020E08091E80085
:105040008E778093E800CECF2111CFCF0AC0809118
:10505000DD02882361F0853061F08091E80083FDF6
:105060000AC08091E80082FFF2CF80E0089582E0DC
:10507000089583E0089581E0089578941F920F9237
:105080000FB60F9211248F939F93AF93BF9380918C
:10509000F2039091F303A091F403B091F50301960C
:1050A000A11DB11D8093F2039093F303A093F40329
:1050B000B093F503BF91AF919F918F910F900FBE69
:1050C0000F901F9018959C014FB7F8948091F203B0
:1050D0009091F303A091F403B091F5034FBF821BAD
:1050E000930B08952FB7F8946091F2037091F30336
:1050F0008091F4039091F5032FBF08952FB7F89492
:105100008091F2039091F303A091F403B091F50321
:105110002FBF08951F920F920FB60F9211248F93F5
:105120009F93AF93BF938091F103811113C080913E
:10513000F2039091F303A091F403B091F50341962B
:10514000A11DB11D8093F2039093F303A093F40388
:10515000B093F503BF91AF919F918F910F900FBEC8
:105160000F901F9018959C012A5F3F4FFC014281D0
:10517000461301C01282019682179307B9F708956A
:105180009C01FC0132969FEF80E04191461789F027
:105190009F3F19F4411101C0982F8F5F8630A9F706
:1051A0009F3F39F0F901E90FF11D97FDFA956283F0
:1051B000089508952091EF033091F00328173907DF
:1051C00071F09093F0038093EF03E091ED03F09181
:1051D000EE03309721F00084F185E02D09950895C4
:1051E0002091EB033091EC032817390771F090936D
:1051F000EC038093EB03E091ED03F091EE03309725
:1052000021F00680F781E02D099508950E94C719C5
:10521000882359F0E091ED03F091EE03309729F0E7
:105220000190F081E02D0995089580E008950F9395
:105230001F93CF93DF93C42FD22FFC018281882349
:10524000B1F04093EA030E947E289093E903809393
:10525000E80380E28C0F883008F04DC0C77081E011
:1052600001C0880FCA95EAF70E94E11F44C08091EF
:10527000EA03481330C08091E8039091E9030E944B
:105280006328883C910538F510E21D0FCD17B9F061
:1052900080E28C0F883040F4C77081E001C0880F35
:1052A000CA95EAF70E94DA1F183010F581E09D2FA9
:1052B000977001C0880F9A95EAF70E94E11F802F2E
:1052C0000E9466201830B8F4D77081E001C0880FC2
:1052D000DA95EAF70AC080E28C0F883060F4C77074
:1052E00081E001C0880FCA95EAF70E94DA1F03C067
:1052F000802F0E946620DF91CF911F910F9108951A
:10530000893279F1E0F4843161F1A0F4873009F059
:1053100075C01092E40394E19093130280931202FB
:105320008CE38093110288E08093100288E28093DE
:105330000F0264C092EE980F9A30F0F05FC0803593
:1053400009F444C028F48F3409F058C08AE03FC003
:10535000813529F0823509F051C081E038C08FEFE6
:1053600036C08091E703882379F11092E703109209
:10537000E6031092E50342C08D518093E70383302A
:1053800099F038F4813069F08230D9F483E192E009
:105390000DC0853099F078F0863099F48FE092E076
:1053A00005C084EE93E002C082E192E09093E603B0
:1053B0008093E50323C081E192E0F8CF80E192E0A1
:1053C000F5CF1092E7031AC080E0089586EFE091D0
:1053D000E503F091E603309789F02081082E000C58
:1053E000990B820F911D8F3F910519F014F08FEFEB
:1053F00004C097FF02C0108201C0808381E008953D
:105400008B3109F469C058F58B3009F493C078F4F6
:10541000863009F446C020F4853009F44CC08CC0B5
:10542000873009F44BC0883009F484C085C08031CE
:1054300009F465C068F48E3009F07EC08091E30302
:1054400082FB222720F991E0922790FB82F94DC040
:10545000863109F46FC0893109F46CC06DC08A329D
:10546000E9F060F4873209F45FC028F48E3108F463
:1054700063C08D514FC08932F1F05EC0833450F467
:105480008A3308F046C0853309F44EC0883309F4E6
:1054900051C052C0833409F447C04EC00E942F1D32
:1054A00049C08091E303817F8E7F8093E30381E095
:1054B0008093E20308950E9432233CC08091E3036D
:1054C000982F9095917090FB80F98093E303911150
:1054D00031C0897F877F10C08091E30381FB222741
:1054E00020F991E0922790FB81F98093E3039923BF
:1054F00009F18091E30381608093E3031BC08091F5
:10550000E30383FB222720F991E0922790FB83F9A4
:10551000ECCF895321E030E0A90102C0440F551FB0
:105520008A95E2F7CA0102C081E090E00E94971FCD
:105530000E94B91F81E0089580E00895452B41F055
:105540006F3F41F491E08F3F09F090E0892F03C055
:1055500081E001C080E0817008951092E103109213
:10556000E00310920E028091DF038093DE030E941D
:10557000D82B0E94822B0895A0E0B0E0E2ECFAE282
:105580000C94B430C091DE03E7E0FE2E01E010E0A1
:10559000FCE02F2EAEEFEA2E8091DF03C81709F44E
:1055A0007AC0D0E0FE01EE0FFF1FEA52FC4F80816F
:1055B0009181F89EF001F99EF00D1124E95DFE4FF6
:1055C0002481211165C060907503A6E7B3E020E057
:1055D00030E0712C5F01261508F058C01A964D90E6
:1055E0005C901B97F501808091804FEF5FEF312C2D
:1055F000C32CD12CF601EE0FFF1FE80DF91D6591AC
:1056000074914616570609F4A601672B11F03394DE
:10561000EFCF4F3FFFEF5F07A9F1B80102C0660F60
:10562000771F4A95E2F7762AA801032C02C0440F9F
:10563000551F0A94E2F741505109672D70E0461753
:105640005707E1F4229EF001239EF00D1124EA5841
:10565000FC4FF89ED001F99EB00D1124A95DBE4FFC
:1056600012962D913C91139737832683E082E18235
:105670009187808771E015967C9308C014961C92E0
:105680001E9213972F5F3F4F1C96A5CF0E94542B5D
:105690002196C37081CF0E94822B0E94D82BCDB758
:1056A000DEB7E2E10C94D030BC014091DE03809182
:1056B000DF03942F981729F1292F30E0F901EE0F1D
:1056C000FF1FEA52FC4F0190F081E02DE617F7072B
:1056D00099F487E0869FF001879FF00D1124E95D22
:1056E000FE4F81E0848394130CC02F5F3F4F2370E3
:1056F00033272093DE0308952F5F3F4F922F93703F
:10570000D9CF0895EF92FF920F931F93CF93DF931A
:1057100080917503882309F446C000910D048CE044
:10572000F82E809175030817D0F5EE24E394E00E6F
:10573000E0920D0410E0F09EE001F19ED00D1124E6
:10574000CA58DC4F4B815C81698188810E949E2A06
:10575000811123C08E819F81892B51F48885998581
:105760008F3F2FEF920721F061E00E94EF230AC0E4
:10577000288139814A815B816C817D818E819F8105
:105780000E944822F09EF001F19EF00D1124EA588B
:10579000FC4F1482138210920C040E2DC2CF109273
:1057A000750310920D04CDB7DEB7E6E00C94DC3043
:1057B00010920B0410920A04E7E2F1E08581811156
:1057C00002C014821682379682E0EE30F807B1F7F5
:1057D0000895A0E0B0E0EFEEFBE20C94BF30E82FBC
:1057E000F0E0E054F34FD490282F26952695269587
:1057F00030E0F901E055F34F0491877010E0082E76
:1058000002C0159507950A94E2F701701127F90176
:10581000E056F34FE490F12C082E02C0F594E79483
:105820000A94E2F791E0E922FF24F901E057F34FEF
:10583000C491D0E002C0D595C7958A95E2F7C170B2
:10584000DD270115110519F081EE0E941C2EE114CF
:10585000F10419F086EE0E941C2E8D2D0E94662008
:10586000E114F10419F086EE0E94EB1F01151105F9
:1058700019F081EE0E94EB1FCD2B19F08CE20E94F3
:105880006620CDB7DEB7E7E00C94DB30EF92FF92F5
:105890001F93CF93DF93EC011AE08881882309F4EA
:1058A0004AC0813009F043C08981813041F47E01D2
:1058B00082E0E80EF11C8A810E94662009C08230D5
:1058C00049F47E01E2E0EE0EF11C8A810E941C2E5A
:1058D000E7012FC0833041F47E01F2E0EF0EF11CAE
:1058E0008A810E94EB1FF4CF843011F0219621C0F1
:1058F0002A81229680E090E030E0205331092A305E
:10590000310558F4189FA001199F500D1124C901A9
:10591000840F951F21962881EFCF009751F0EFE972
:10592000FFE03197F1F700C000000197F6CF0E9429
:10593000E92B2196B2CFDF91CF911F91FF90EF908D
:105940000895609106048CE090E00E94F93008957B
:105950000E947E2820910204211104C0209103049A
:10596000222321F09093FF038093FE0320910404EF
:10597000211104C020910504222321F09093FD03FE
:105980008093FC03E091ED03F091EE03309749F032
:1059900082E0809300040480F581E02D80E094E0B3
:1059A000099508958D3E39F49091030497FF35C011
:1059B0001092030459C08E3E29F4909103041916E5
:1059C000BCF32BC0909102048F3E29F497FF25C0B1
:1059D0001092020449C0803F19F41916CCF31DC07F
:1059E00090910404893F29F41916BCF41092040420
:1059F0003BC08A3F19F497FF10C0F8CF8B3F39F4B2
:105A00009091050497FF09C0109205042DC08C3FAA
:105A100021F4909105041916BCF39FE0980F98307B
:105A200080F421E030E0A90102C0440F551F9A958F
:105A3000E2F7CA01809590910104892380930104C3
:105A400013C08D3F21F48091FB038E7F0BC08E3FEE
:105A500021F48091FB038D7F05C08F3F29F4809155
:105A6000FB038B7F8093FB0380910204811106C0AE
:105A700080910304811102C01092FA038091040402
:105A8000811106C080910504811102C01092F903B2
:105A900008958091FB0380FF08C06091100270E0C0
:105AA000759567957595679521C081FF06C06091D2
:105AB000100270E07595679519C082FF04C060916F
:105AC000100270E010C09091F903992399F0609151
:105AD0000F029617A0F780911002899FC001112430
