:100000000C948A060C945C2F0C94A7060C94A706FB
:100010000C94A7060C94A7060C94A7060C94A706AC
:100020000C94A7060C94A7060C9480180C94C21785
:100030000C9453280C94A7060C94A7060C94A706BE
:100040000C94A7060C94A7060C94A7060C94A7067C
:100050000C94A7060C9406280C94A7060C94A706EB
:100060000C94A7060C94A7060C94A7060C94A7065C
:100070000C94A7060C94A7060C94A7060C94A7064C
:100080000C94A7060C94A7060C94A7060C94A7063C
:100090000C94A7060C94A7060C94A7060C94A7062C
:1000A0000C94A7060C94A7060C94A706EF0DEF0D71
:1000B000220E220E940EB00EE00FE00FBB0E4B0F7F
:1000C0005D0F5D0FE1150816A0170816A017501652
:1000D0007316A01762177517CD23D323D923DF23F7
:1000E000E523EB23F123F723FD23032409240F2425
:1000F00015241B24212427242D24332439243F2490
:10010000442449244E24532458245D246224672423
:100110006C247124762405010902A10185020901DC
:10012000A100050919012908150025019508750187
:1001300081020501093009311581257F9502750875
:10014000810609381581257F950175088106050C02
:100150000A38021581257F950175088106C0C00502
:10016000010980A101850319012AB700150126B7ED
:1001700000950175108100C0050C0901A1018504DD
:1001800019012AA002150126A0029501751081000F
:10019000C005010906A101050719E029E715002599
:1001A00001950875018102950175088101050719FE
:1001B0000029FF150026FF00950675088100050837
:1001C00019012905950575019102950175039101A4
:1001D000C009023B00020100A0FA0904000001036B
:1001E00001010009211101000122400007058103DE
:1001F00008000109040100010300000009211101A8
:100200000001227B00070582032000011201000289
:10021000000000084D4436350100010200012C03A6
:10022000440061006300740079006C002D004D00F3
:1002300061006E00750066006F0072006D002000A6
:100240002800350078003600290000000E037400F5
:10025000730068006F00720074000000040309045A
:100260002900104050064F060440AE002B00050048
:10027000B45D130012003400C65D040018000C00C9
:1002800008003600E00031001C001B003700361269
:1002900000000000B35D2F00C05DBB5D00000000EA
:1002A000E30009510651E20015040F40AA00A9001D
:1002B00011400F081A00190007000F000D001D0063
:1002C0000600170016001500110010000E001400A3
:1002D0000A000B000900C65D2C00BF5D30002E0037
:1002E000000000002A000351D45DE300000000007C
:1002F00001000100010001000100010001001400E3
:100300001A00080015001700E1000400160007009D
:1003100009000A0001001D001B000600190005006D
:100320000000000001003100010001000000000099
:1003300001000100010001000100010001000100B5
:10034000010001001C0018000C00120013002F0017
:100350000B000D000E000F003300340011001000E0
:10036000360037003800B25D0100010001000100D5
:100370000000000001000100010001000000000079
:1003800001001E001F00AD002100D35D01003602F8
:10039000B85DED00BC5DB55D01003702EF00EE0019
:1003A000F00001000100B75DF900F100FA00B65D50
:1003B00000000000361437140100010000000000A6
:1003C00001000E5301000100000040004100420006
:1003D000430044001E084B0052004A000000300059
:1003E0004A00500051004F004D00E5002A004E0029
:1003F00051004D004C00280008510100010062002E
:1004000000000000010001000100010000000000E8
:1004100046001E001F0020002100220045003A0077
:100420003B003C003D003E0045012A004C004300DB
:100430004400440245022A014C0228052C003E01DA
:1004400000000000E000370101000751000000003B
:100450000A52015200520D523F004000410042003A
:100460001504A5002D021E001F00200024142514D1
:1004700056002100220023002614271465002400C2
:1004800025002600350035022C03010027006300FB
:100490000000000001000100010001000000000058
:1004A00027160100010001000100010039001E02B1
:1004B0002402250226022702E10023021F02200255
:1004C000210222020100010001000100720001006E
:1004D0000000000001000100010001000000000018
:1004E000000000000000000001000100520C0100AB
:1004F00001000100D05D4B0152084E01CE5D0000AD
:10050000CC5D500051084F00CD5D0000D15D4E051F
:10051000CB5D4B05CF5D000001000100D25D6C009A
:1005200000000000000001000000000000000000CA
:100530004801010001000100010001000B0114014C
:100540001A01080115011701E10004001601070155
:1005500009010A011C011D011B0106011901050108
:1005600000000000B25D37010751010000000000EB
:100570000100010001000100010001000100010073
:10058000010001001C0118010C010F011301010001
:100590000B010D010E010F013601010011011001C7
:1005A0003601370101000100010001005701670118
:1005B0000000000001000100010001000000000037
:1005C0000100010001000100010001000100010023
:1005D0004B0052004A000100010050085000510039
:1005E0004F004F080100CA5D4E0051004D00280029
:1005F00000000000000000000000000000000000FB
:1006000000000000010001000000000000000000E8
:100610000000000000001E011F012001000000007A
:10062000000021012201230100000000000024013C
:100630002501E0010000000000000000270100008B
:1006400000000000000000000000000000000000AA
:10065000000000000000AD003D043E010B03140348
:100660001A030803150317034C02040316030703B8
:1006700009030A032C030000000006031903050305
:100680000000000000002C08010001000000000034
:10069000000000000000000000000000000000005A
:1006A00000000000000000000C0312031303000010
:1006B0000B0300000000000000000000000000002C
:1006C00000003703000000000100010000000000EE
:1006D000000000000000000000000000000000001A
:1006E00029001E011F012001210122012B00000011
:1006F000F200ED00F1000000E1000000EF00EE006C
:10070000F000000000000000F9000000FA00000006
:1007100000000000000000000000280500000000AC
:1007200000000000000000000000000000000000C9
:100730000000000000004B0352034E0300000000C5
:100740000B01500351034F030000000000000000A4
:100750005103000000000000010000000000000044
:100760000000000000000100010001000000000086
:100770002D00230024002500260027002F001C0048
:100780001E001F0020000000E10056002100220092
:1007900023003300E000CA5D240025002600380055
:1007A0000000000000002700000000000000000022
:1007B0000100010001000100000000000000000035
:1007C000000000001F082008210822082308240830
:1007D0001E08500900004F09000026080000000014
:1007E0000000000000000000000000000000000009
:1007F00000000000000000000000000000000000F9
:1008000029001E001F002000210022002B001400E0
:100810001A00080015001700E10004001600070088
:1008200009000A00E0001D001B0006001900050079
:100830000000000034000100010001000000000081
:1008400001000100010050002300240025002600C3
:1008500027002D001C0018000C00120013002F00B0
:100860000B000D000E000F003300350011001000CA
:1008700036003700330035005200010031002E00F1
:100880000000000000004F000100510000000000C7
:1008900001001E021F0220022102220201000100AB
:1008A00038120100010001000100010001000100F7
:1008B0000100BA5D010001000100010033020100E6
:1008C00000000000B35DB25D010001000000000007
:1008D000010001000100010001002402250226029E
:1008E00027022D02010001000100010001000100AA
:1008F00001000100010001000100010001000100F0
:1009000001000100010001000100010001000100DF
:1009100000000000010001000100010000000000D3
:1009200000000000000000000000000000000000C7
:1009300000000000000000000100000000000000B6
:1009400000000000E00000000000000000000000C7
:100950000000000000000000000000000000000097
:100960000000000000000000000000000000000087
:100970000000000000004B1252024E120000000066
:100980004A12500251024F024D12000000000000B6
:100990005102000000000000000001000000000003
:1009A0000000000000000000000000000000000047
:1009B000010001000100010001000100010001002F
:1009C000010001000100010001000100010001001F
:1009D000010001000100010001000100010001000F
:1009E00000000000010001000100280000000000DC
:1009F00001000100010001000100010001000100EF
:100A0000010001000100010052000100010001008D
:100A10000100500051004F000100010001000100E1
:100A200001000100010001000100010001000100BE
:100A300000000000010001000100010000000000B2
:100A40006262726167614070726F67692E636F6D79
:100A50000062696C6C792E627261676140002041AE
:100A60004E4420006B38730020213D20002D3E00B5
:100A7000203C3D2000203E3D200070726F7065726A
:100A80007469657300706970656C696E6500737573
:100A900062736372697074696F6E0050726F676918
:100AA0004F6E650070726F6769004070726F6769A2
:100AB0002E636F6D0061756A6F7572642768756962
:100AC0002000646F65736E27742000646F65736E19
:100AD00027742000636F6E666967006265617563E5
:100AE0006F75702000612D742D696C2000706F751A
:100AF0007271756F692000612D742D6F6E2000700A
:100B00006575782D74752000506575742D01012F61
:100B1000657472652000706575742D01012F657410
:100B20007265200061732D7475200065732D7475D6
:100B300020004573742D63652071752700657374FB
:100B40002D636520717527004573742D63652071D1
:100B5000756520006573742D6365207175652000CF
:100B6000050015000A00000005000C00150000003B
:100B700004001100070000000E0016000000050030
:100B80002E0000002F0006000000B35D2E000000C4
:100B90002F002E0000001300150012001700160091
:100BA0000000130008000F001100000016000500EF
:100BB00011000000130015001200110000001300C6
:100BC00015000A00000004001300060000000400E5
:100BD0000D000700000007001200110000000700D0
:100BE0001200170000000600120011000C000000A7
:100BF0000500060013000000040017000C000F00A1
:100C0000000013000E000000040017001200110085
:100C10000000130017001800000038001300170030
:100C20000800000013001700080000000400160070
:100C30001700180000000800160017001800000038
:100C40001600140012001300000016001400120019
:100C500000001600140008000C000000160014002C
:100C6000080000000000000000000000000000403C
:100C700001000000000000000000005000000028FB
:100C80000100007800000000FE0F0084FFFFFF97C6
:100C90000000000000000000000000002A2B2800D7
:100CA000000000000000000000000000000000291B
:100CB000000000002C1E3720212224362627252E56
:100CC000362D3735271E1F20212223242526333396
:100CD000362E37231F0405060708090A0B0C0D0ED4
:100CE0000F101112131415161718191A1B1C1D2694
:100CF00035272F2D2F0405060708090A0B0C0D0EAA
:100D00000F101112131415161718191A1B1C1D2475
:100D10003525304C11241FBECFEFDAE0DEBFCDBF4A
:100D200012E0A0E0B1E0E8E7F2E602C005900D9223
:100D3000A036B107D9F723E0A0E6B2E001C01D92CA
:100D4000AF3FB207E1F70E942F110C943A310C9497
:100D50000000A0E0B0E0EFEAF6E00C9485307C0102
:100D6000FC0143815481618180810E94672A811145
:100D70000C941D1061E0C7010E94E322EC0104976E
:100D80004A9708F044C0809100018F5F8093000172
:100D9000833008F03FC0E82FF0E0EE0FFF1FE65968
:100DA000FD4FD183C0838230A9F58FEF809300017E
:100DB00081E08093690280916A0290916B0244976E
:100DC00061F480916C0290916D02449731F48091AE
:100DD0006E0290916F02419711F01092690280911A
:100DE00069028823B9F062E370E08AE20E9423205E
:100DF00062E370E08AE20E94232062E370E08AE20C
:100E00000E94232086E092E00E940F2C03C08FEF07
:100E10008093000120916802222391F1F7018281E1
:100E2000882331F1CF3BFDE5DF0709F438C3C93230
:100E3000D10509F472C6C63B2DE5D20729F480E13D
:100E400092E00E940F2C03C08C2F0E943B2083E174
:100E500092E00E940F2CC63B4DE5D40709F45DC615
:100E60008C2F0E943B208EE192E00E940F2C55C6F1
:100E7000CF3B5DE5D50709F412C3109268024DC659
:100E8000CC3B8DE5D80709F4B1C108F045C0C43B9F
:100E9000EDE5DE0709F468C120F5C03140E4D40770
:100EA00009F4B7C088F4F7019281C430F0E4DF0799
:100EB00009F4D6C0CF3040E4D40709F48BC0C53A5A
:100EC000D10509F067C073C0C23B5DE5D50709F4E1
:100ED00053C108F061C1C13190E4D90709F488C059
:100EE00059C0C83BEDE5DE0709F470C140F4C63BCC
:100EF0002DE5D20709F45DC108F451C162C1CA3BB6
:100F00005DE5D50709F42BC1F7018281CB3BFDE5F7
:100F1000DF0708F463C1CAC0F7018281CD3CFDE55B
:100F2000DF0709F458C2E8F4C93C4DE5D40709F4D9
:100F3000B4C078F4C03C9DE5D90709F4BCC2C63CF6
:100F4000EDE5DE0709F4FFC0CF3BFDE5DF0711F556
:100F5000A6C2CB3C2DE5D20709F497C108F44EC1D7
:100F60005DC2C13D5DE5D50709F4AFC140F4CF3C9A
:100F7000EDE5DE0709F4CCC108F40DC2ECC1C33DB8
:100F80002DE5D20709F4A7C208F46BC2C43D5DE5A4
:100F9000D50711F081E0A0C2882329F082EE0E94DB
:100FA000E52D89E081C289E00E944A1F7DC0992316
:100FB00009F4B3C58091A2029091A302009739F081
:100FC00033E0969587953A95E1F7282F2170209385
:100FD000670281C2992309F47EC2F7018581829557
:100FE0008F7011F080E575C262E370E08CEA0EC08C
:100FF000F7018281882309F46EC2858182958F7002
:1010000011F08FE466C262E370E08BEA0E94232055
:1010100062C2F7018281882309F45DC285818295CD
:101020008F7071F082EE0E94E52D83EE0E94E52D17
:101030008EE00E943B2083EE0E94C01F82EE0DC016
:1010400080EE0E94E52D83EE0E94E52D80E50E9452
:101050003B2083EE0E94C01F80EE0E94C01F5DC532
:10106000992309F438C2F701858182958F7039F090
:1010700082EE0E94E52D85E10E943B2015C080EEA6
:101080000E94E52D83EE0E94E52D8FE40E943B2017
:1010900083EE0E94C01F80EEFFC1882329F082EEFC
:1010A0000E94E52D80EC15C282EEF6C1882339F14D
:1010B00080916602882381F080916402909165029C
:1010C0000E942C28883C910538F488E20E94E52D86
:1010D00081E0809363020CC08091D802809581707A
:1010E0008093620280EE0E94E52D85E00E945C1FE5
:1010F0000E9447289093650280936402ECC188E2C5
:101100000E94C01F80916202882319F080EE0E9425
:10111000C01F85E00E944A1F80916302811110C0A8
:1011200080916602882361F080916402909165024B
:101130000E942C28883C910518F488E20E943B20EC
:1011400010926302C8C1882329F081EE0E94E52D28
:101150008BE0AAC181EE0E94C01F8BE0A9C140E0D4
:1011600050E063E370E046C0F7018281882311F00C
:1011700088E337C088E390C1F7018281882339F082
:1011800081EE0E94E52DC7010E949E14A4C1C701F3
:101190000E949E1481EE80C148E150E014C0F70126
:1011A0008281882309F497C188E192E00E940F2C84
:1011B00092C1F701828181118EC181E08093680222
:1011C0008AC14CE250E06FE270E004C04CE250E0B3
:1011D00060E370E0C7010E94AC237DC1882321F049
:1011E0008FE20E94E52D77C18FE256C145E350E0C2
:1011F00066EE70E0C7010E947B236DC1882309F46D
:101200006AC180EE0E94E52D81EE0E94E52D8CE200
:101210000E94E52D8CE20E94C01F80EE0E94C01F3C
:1012200081EE0E94C01F80EE0E94E52D89E10E94A0
:10123000E52D89E10E94C01F80EE0E94C01F80EE54
:101240000E94E52D80E50E94E52D80E50E94C01FEB
:1012500080EE0E94C01F80EE0E94E52D8AE20E946F
:10126000E52D8AE20E94C01F80EE0E94C01FFFEFA2
:1012700024E34CE0F15020404040E1F700C0000082
:1012800088E20E94E52D88E207C1882309F423C182
:1012900083EE0E94E52D8DE10E943B2083EE0E94AB
:1012A000C01F5FEF81EE94E0515080409040E1F725
:1012B00000C0000083E20E943B20EFEFF1EE24E04B
:1012C000E150F0402040E1F7A5C0882309F403C1B4
:1012D00083EE0E94E52D8DE10E943B2083EE0E946B
:1012E000C01F4FEF51EE84E0415050408040E1F785
:1012F00000C0000082E20E943B209FEFE1EEF4E09C
:101300009150E040F040E1F700C0000080E2E1C011
:10131000882309F4E0C083EE0E94E52D8DE10E9450
:101320003B2083EE0E94C01F2FEF41EE54E021507E
:1013300040405040E1F700C0000082E20E943B20A4
:101340008FEF91EEE4E081509040E040E1F700C083
:10135000000081E2BEC0882309F4BDC083EE0E9474
:10136000E52D8DE10E943B2083EE0E94C01FFFEF20
:1013700021EE44E0F15020404040E1F700C0000081
:1013800082E20E943B205FEF81EE94E0515080406A
:101390009040E1F762C0882309F49DC083EE0E946B
:1013A000E52D8DE10E943B2083EE0E94C01FEFEFF0
:1013B000F1EE24E0E150F0402040E1F700C00000F1
:1013C00082E20E943B204FEF51EE84E041505040BA
:1013D0008040E1F71FC0882309F47DC083EE0E949E
:1013E000E52D8DE10E943B2083EE0E94C01F9FEF00
:1013F000E1EEF4E09150E040F040E1F700C0000081
:101400008EE10E943B202FEF41EE54E021504040FE
:101410005040E1F700C000008FE15BC0882309F471
:101420005AC083EE0E94E52D8DE10E943B2083EEA1
:101430000E94C01F8FEF91EEE4E081509040E040A9
:10144000E1F700C000008EE10E943B20FFEF21EE9B
:1014500044E0F15020404040E1F700C000008EE140
:1014600038C08823C1F183EE0E94E52D82EE0E94F0
:10147000E52D81E50E943B205FEF81EE94E0515025
:1014800080409040E1F700C0000081E50E943B20D1
:1014900082EE0E94C01F83EE0E94C01F1CC0F70195
:1014A0008281882321F082E00E945C1F14C082E0C8
:1014B0000E944A1F10C0882311F083E0F5CF83E01B
:1014C0000E944A1F80916702882329F010926702C8
:1014D00085EA0E943B2080E0F7019281992329F15F
:1014E00091E0CB3BFDE5DF0709F090E090936602C9
:1014F000882309F412C3C43E2CE5D207E1F050F46E
:10150000C23E5CE5D507A1F0C33E8CE5D807E1F407
:1015100081E016C0C63E9CE5D90789F070F0C13B5A
:10152000FDE5DF0789F485E00BC081110DC0F5C230
:101530001092F70307C082E003C083E001C084E09B
:101540008093F7030E946A2CD7FFCEC0F7018281F7
:10155000882309F4C9C00E94CF28869581708093A2
:1015600072020E94CF288170809371028091F703EC
:10157000813039F480917202882319F089E30E9446
:101580003B208091D802809370021092D802109272
:10159000FD038091F703823019F148F48823E1F0CC
:1015A0008130C9F560E070E088E193E032C08430BA
:1015B00049F1853081F560E070E08BE191E00E94B7
:1015C000232360E070E085E290E00E94232360E046
:1015D00070E088E290E01DC082EE0E94E52D1BC005
:1015E00080917102811103C083E50E943B2082EE4D
:1015F0000E94E52D8FE39CE90197F1F700C0000000
:1016000087E504C086EE0E943B2088E10E943B20D3
:1016100002C00E942323EFE3FCE93197F1F700C0F9
:1016200000006E01E894D7F80CE010E02AE0A22E4A
:10163000B12CC601002E02C0969587950A94E2F758
:101640008F709091F703923069F48A3038F490E00B
:101650000996B5010E94F630875A01C086500E9453
:101660003B2009C096EF980F963010F0805D01C0C6
:10167000895A0E94B22B045011090C3FFFEF1F073B
:10168000C1F68091F7038230F1F028F4882371F0DD
:10169000813081F025C0843009F1853009F560E0A2
:1016A00070E088E290E00E9423231AC082EE0E943C
:1016B000C01F16C08CE20E943B20809172028823DA
:1016C00079F089E308C082EE0E94C01F8091710208
:1016D000811106C083E50E943B2002C088E2FBCF57
:1016E000809170028093D802C43F2CE5D20741F16B
:1016F00090F4C93D5CE5D507E9F0CA3D8CE5D80713
:1017000089F1C83D9CE5D907B1F506E221EE41EE2D
:1017100068ED7CE52CC0C63FECE5DE07E9F0B0F0F3
:10172000C73F2CE5D20739F507E225EE46EE67EF15
:101730007CE51DC007E225EE45EE69ED7CE517C0AE
:1017400006E221EE40EE64EF7CE511C007E225EEF3
:1017500044EE65EF7CE50BC006E221EE42EE66EF5B
:101760007CE505C008E221E045EE6AED7CE5C701B5
:101770000E94E028D2C1F7018281882309F490C138
:101780001092DB03C430FDE5DF0758F4CB3F2CE5B6
:10179000D207C0F4CE0182509C45449708F06AC13C
:1017A00011C0C63A4DE5D40769F030F4C2368DE574
:1017B000D80709F05FC106C0CE018E5A9D45039738
:1017C00008F058C10E94F31C9093A5028093A402D4
:1017D000C2319CE5D90709F405C108F04BC0C930F6
:1017E000FCE5DF0709F4D2C000F5C5304CE5D407AD
:1017F00009F4B9C078F4C3308CE5D80709F4AAC05D
:1018000008F0AEC0C230DC4509F024C18091A402CA
:101810008160A3C0C730FCE5DF0709F4AFC008F062
:10182000B1C08091A402806198C0CD304CE5D4074E
:1018300009F4C2C058F4CB308CE5D80709F4B0C025
:1018400008F0B6C08091A4028860A6C0CF30ECE555
:10185000DE0709F4BFC008F4B2C0C0312CE5D207DE
:1018600009F4BCC0C131DC4509F0F4C08091A40288
:101870008F7B73C0C1155DE5D50709F4BEC088F53F
:10188000CB3F9CE5D90709F472C0B8F4C431FCE53C
:10189000DF0709F4C1C008F4ABC0C531DC4509F06D
:1018A000D9C08091A40282FB222720F991E09227DF
:1018B00090FB82F990FB83F950C0CD3F5CE5D507E2
:1018C00009F481C008F456C0CE3F9CE5D90709F45D
:1018D0007DC0CF3FDC4509F0BDC08091A50282608C
:1018E0005DC0C236FDE5DF0709F4A8C068F4C23068
:1018F0004DE5D40709F49CC008F484C0C330DD452D
:1019000009F0A8C060E095C0CE3A9DE5D907F1F096
:1019100058F4C63ADD4509F09DC08091A402982F85
:10192000909590FB80F919C0CF3A2DE5D207E1F1EF
:10193000C03BDD4509F08EC08091A50283FB2227C4
:1019400020F991E0922790FB83F982C08091A50253
:1019500088607EC08091A40282608093A4027AC0D5
:101960008091A40219C08091A4028860F6CF809172
:10197000A50214C08091A50282606AC08091A40271
:101980008062EBCF8091A4028064E7CF0E948E1F1B
:101990008091A4028068E1CF8460DFCF816058C06D
:1019A0008091A4028E7FD9CF8091A502877F50C0FD
:1019B0008091A4028D7FD1CF8091A4021CC0809120
:1019C000A402877FCACF8091A5021AC08091A50288
:1019D0008D7F3EC08091A4028F7EBFCF8091A402F4
:1019E0008F7DBBCF0E948E1F8091A4028F77B5CFD1
:1019F0008091A402877F8B7FB0CF8091A5028D7FDD
:101A00008E7F26C08091A502982F909591708E7F31
:101A1000892B90FB81F91CC00E948E1F8091A4022B
:101A200087FB222720F991E0922790FB87F995CF39
:101A300061E08EE090E00E94C2300CC08091A40270
:101A400084FB222720F991E0922790FB84F985CF2F
:101A50008093A5026091A402C091A50284E090E069
:101A60000E94C2306C2F82E290E00E94C2300E943D
:101A70008E1F53C0C631FCE5DF0719F58091D802EF
:101A80008A7A91E009F490E090937302882311F030
:101A900065E301C069E289ED92E00E9489280EC0E9
:101AA000C631DC4509F04BC080917302882309F4EC
:101AB000C2C265E389ED92E00E947C280E94791DF4
:101AC0002CC0CB355DE5D50711F150F4C1159CE56F
:101AD000D90779F0CF3DDC4591F50E94041D0CC07B
:101AE000CD35FDE5DF0759F0A0F0C83ADD4521F01E
:101AF00026C00E94072311C00E94F1220EC08091CF
:101B0000A50282FB882780F991E0892703C081E044
:101B100001C080E00E94D21D12C080912B0387700B
:101B200009F48BC2F7018281882309F486C280916F
:101B3000A50282FF82C282E00E94B51D7EC2F7012B
:101B4000868197810097B9F4F7018281C081D181A4
:101B5000882349F0CE010E94991E182F682FCE01CC
:101B60000E940D1F04C0CE010E94DA1E182FBE0174
:101B7000812F0E943E1B0E94571BEC01F70102813E
:101B8000D580D2949FE0D92280912B038770B9F041
:101B90000023A9F08D2F807F803421F080E28C0F0C
:101BA000883068F08091A50282FF09C082E00E941F
:101BB000B51D80912B038770CC24C3948111C12C57
:101BC000BD2EB2948FE0B8228B2D90E08C30910521
:101BD00008F0F6C1FC01EA5AFF4F0C940A311D2FA0
:101BE0001F708D2F807F11F01295107F0023B9F0A8
:101BF000112309F4D2C180E28C0F883010F0C1119A
:101C000006C08091D802182B1093D80205C080918D
:101C1000FD03182B1093FD030E94791DBEC18C2F6C
:101C20000E94C01F112309F4CBC180E28C0F8830C1
:101C300078F1CC2369F110958091FD03182310935E
:101C4000FD0329C01D2F1F708D2F807F803211F062
:101C50001295107FCC2319F0C130D9F149C0809181
:101C6000A50282FD1BC0002369F0112339F0809189
:101C7000D802182B1093D8020E94791D80E00E9490
:101C8000E52D9EC180E00E94C01F112309F498C178
:101C9000812F0E94721D0E94791D92C1002381F044
:101CA00080913403DD2051F0F1E0DF1207C0182BE2
:101CB000181709F485C11093340382C1812B10C019
:101CC000DD2021F021E0D21609F47AC10E946C1DBA
:101CD00027C0002341F042E04D1508F471C1812F67
:101CE0000E94B61F6DC151E05D1508F469C118C0AE
:101CF000002349F0DD2099F3F701858180FF4DC174
:101D00008F708583ECCFDD2059F0C93309F055C1C0
:101D1000FFEF27EE43E0F15020404040E1F74BC198
:101D2000812F0E94AF1F4CC18D2F869586958370A1
:101D300019F0813059F044C1002319F0CE0193709D
:101D400002C080E090E00E94B92840C1002319F051
:101D5000CE01937002C080E090E00E94A32836C1BB
:101D60008C2F002319F00E948A2D02C00E949B2C08
:101D70000E94712C2BC18D2F837009F042C001117C
:101D800023C13C2F329536953770330F330F8C2F8C
:101D90008F7090E0032E02C0880F991F0A94E2F71B
:101DA000C4FF0BC04FE050E002C0440F551F3A95EE
:101DB000E2F79A012095309502C020E030E04D2FE7
:101DC000469546954370423099F068F4609135032A
:101DD00070913603413029F0822B932B8623972371
:101DE00004C0862B972B822B932B0E946C1FECC078
:101DF000822B932B20913503309136038227932732
:101E0000F4CF002319F08D2F817001C086958823AF
:101E100009F4DAC03C2F329536953770330F330F03
:101E20008C2F8F7090E0032E02C0880F991F0A94A8
:101E3000E2F7C4FF0BC04FE050E002C0440F551F53
:101E40003A95E2F79A012095309502C020E030E003
:101E50004D2F469546954370423079F0B8F4609125
:101E6000A2027091A302413029F0822B932B86238A
:101E700097230EC0862B972B09C0822B932B209182
:101E8000A2023091A3028227932702C0822B932BB8
:101E90000E94411F99C01D2F1F70002339F0812F10
:101EA0000E945C1F8C2F0E94B61F8EC08C2F0E9438
:101EB000AF1F812F0E944A1F87C0C23F79F128F4CB
:101EC000C03F41F0C13F29F163C0C33F71F1C43F3E
:101ED000E1F05EC00023A1F051E05D1508F470C090
:101EE0002D2F2F7181E090E002C0880F991F2A9555
:101EF000E2F72091A2023091A3028227932725C006
:101F000082E08D1508F45CC0EBCF8091A50282FDC4
:101F10001FC0002329F08D2F8F712DC00023D9F30E
:101F20008D2F8F710E944A1F4BC0002361F021E06A
:101F300030E09D2F9F71F90102C0EE0FFF1F9A95AF
:101F4000E2F7CF0102C080E090E00E94411F38C05C
:101F50000023A1F01D2F1F71812F0E945C1F809113
:101F6000A50282FF07C0F8E01F9FC0011124836013
:101F700080932B03812F0E945C1F22C081E00E946E
:101F8000B51D21E02D15E0F482E00E94B51D18C0BA
:101F9000002329F0DD2009F4BECF8C2F70CEDD2088
:101FA00009F4BECFC93349F44FEF57EE83E04150F7
:101FB00050408040E1F700C000008C2F0E94C01FFD
:101FC00088EF8B0D843010F40E94CF28CE010E9440
:101FD000731F882381F0002319F0D1100CC00FC0AB
:101FE000D11009C020E0F7014081518162817381E5
:101FF00084810E94C0221092750210927402CC203B
:10200000A9F080912B0380FD11C0F7011282859504
:10201000859585950E945C1FC7010E94A906809145
:102020002B038595859585950E944A1F60E0C70121
:102030000E94E32202C069E23DCDCDB7DEB7EAE0FF
:102040000C94A130A4E0B0E0E8E2F0E10C948B3015
:1020500040918B0250918C0260918D0270918E02A2
:102060002FB7F8948091E3039091E403A091E503E6
:10207000B091E6032FBF841B950BA60BB70B8436DC
:102080009105A105B10508F441C00E949C1988235F
:1020900019F00E943B280EC00E943B28009190023C
:1020A000109191022091920230919302600F711F62
:1020B000821F931FDC01CB010296A11DB11D8983F4
:1020C0009A83AB83BC838091120190911301805855
:1020D0009D4F4091110150E04530510510F044E012
:1020E00050E0BE016F5F7F4F0E94313182E090E08F
:1020F0000E940230882359F00E943B2860938B0293
:1021000070938C0280938D0290938E0281E02496CE
:10211000E4E00C94A730EF92FF921F93CF93DF93EC
:10212000CDB7DEB727970FB6F894DEBF0FBECDBF91
:102130007B0180E090E00E940230882309F463C0B4
:102140004091040150E04115510511F041E050E08B
:10215000609105017091060160587D4FCE01079690
:102160000E94313140917C0250917D0260917E024B
:1021700070917F022FB7F8948091E3039091E4036C
:10218000A091E503B091E6032FBF841B950BA60B2E
:10219000B70B84369105A105B10538F481E892E0CA
:1021A0000E94BF149F81891781F181E090E00E9415
:1021B0000230182F882391F040910C0150E04730F5
:1021C000510510F046E050E060910D0170910E0154
:1021D00060587D4FCE0101960E94313181E892E036
:1021E0000E94BF1491E02F81281390E0192311F170
:1021F0000E943B2860937C0270937D0280937E0254
:1022000090937F020CC010E001C011E086E0E1E88D
:10221000F2E0DE01119601900D928A95E1F711230B
:1022200049F086E0FE013196A6E7B2E001900D92FA
:102230008A95E1F786E0E6E7F2E0D70101900D929A
:102240008A95E1F7812F27960FB6F894DEBF0FBE6F
:10225000CDBFDF91CF911F91FF90EF900895A0E146
:10226000B0E0E5E3F1E10C947F3085B7806885BF8D
:1022700085B7806885BF84B7877F84BF0FB6F89421
:10228000A895809160008861809360001092600042
:102290000FBE90E080E80FB6F894809361009093B1
:1022A00061000FBE87E599E190936102809360021F
:1022B0000E9406180E9425188091E2008460809395
:1022C000E20078948091CE028823A1F01091E90079
:1022D0001F709091EC00892F817090FD80E8182B81
:1022E0001092E9008091E80083FD0E9400151F70A4
:1022F0001093E90082E084BD93E095BD9AEF97BD0D
:1023000080936E00109290021092910210929202AD
:10231000109293020E949C19809319010E949C19AB
:1023200081110E94172F809119018091190181114B
:1023300002C096E001C090E09093A10286E0891B64
:102340008093A00202E212E0D8018D918D018F3FAF
:1023500011F00E94BF19B2E008321B07A9F708E28A
:1023600012E0F80181918F018F3F11F00E94BF1997
:10237000F2E00E321F07A9F78CE0E8EAF2E0DF0195
:10238000282F1D922A95E9F7E4E9F2E0DF011D927A
:102390008A95E9F780E090E00E94BC30883E9E4F2D
:1023A00011F00E94041D82E090E00E94B4308093FE
:1023B000D4030E94F31C9093A5028093A40283E0AF
:1023C00090E00E94B43090E00E946C1F8CE090E09E
:1023D0000E94B43090E0A0E0B0E08093F7039093C7
:1023E000F803A093F903B093FA030E949C1981119A
:1023F00002C00E941A2F8AE191E09093DF0380933C
:10240000DE0308E110E040E4E42EFF24F394809121
:10241000CE02853009F042C020E1C22E32E1D32E37
:102420008091CE02853009F035C08091CE02843093
:1024300009F11092E2030FB6F894A895009360009A
:102440000FBEE092600083B7817F846083BF83B753
:10245000816083BF7894889583B78E7F83BF0FB6E2
:10246000F894A89580916000886180936000109234
:1024700060000FBE8091CD02882391F20E94D61990
:10248000E8EAF2E081918111ACC122E0E43BF2077D
:10249000C9F7C6CF0E948E1F0E94CF280E94D6196E
:1024A00084EBA82E82E0B82E98EA892E92E0992E2D
:1024B000D401F50191918D91892732E0E03CF30739
:1024C00019F08823B9F322C0811120C00E94472847
:1024D0006C018091A6029091A702C816D90609F452
:1024E0004CC08FEF8F83888719860E9447288160B0
:1024F000782F9B878A874F81588569858B850E94B5
:102500007D24D092A702C092A60237C00E949C19D7
:10251000482ED12CD4015D904D01F50160806524D9
:1025200019F1C12C77247394862D8721B1F04420B2
:10253000A1F0CC86DD8691E0852D872109F490E01D
:102540009E870E9447288160782F988B8F874C85C3
:102550005D856E8588890E947D24C394770CF6E0A2
:10256000CF12E2CFD5015C92D394BFEFAB1ABB0A76
:10257000ECE0DE12CFCF0E943B280E949C198823FA
:1025800061F180910002882341F18091D103909103
:10259000D203009711F10E942C282091FB03309167
:1025A000FC0328173907C8F49091CF038091D0031A
:1025B000981759F00E94852A1092FC031092FB0391
:1025C0001092D2031092D10308C00E944B2B10929C
:1025D000D2031092D1030E94A12B86E0E1EFF3E039
:1025E000DE01119601900D928A95E1F71092F303A6
:1025F0001092F4031092F5031092F6038B8181116F
:1026000004C08C81882309F45DC08091EF03909110
:10261000F0030E942C28AC019091EB03992339F030
:102620002091050230E02417350758F04BC0209167
:10263000D503FAE02F9F900111242417350718F0D5
:1026400041C09F3F19F09F5F9093EB03DB80DD203B
:1026500061F00E944B2D1D1414F09FEF01C091E01A
:10266000899F802D11248093F303DC80DD2061F0AD
:102670000E944B2D1D1414F09FEF01C091E0899F23
:10268000802D11248093F4033091F3033323D1F090
:102690002091F4032223B1F045EB3403C00111244F
:1026A000992319F09093F30302C0F092F30335EBF2
:1026B0002303C0011124992319F09093F40302C05D
:1026C000F092F4038D81811104C08E81882309F476
:1026D00051C08091ED039091EE030E942C289C0143
:1026E0009091EA03992309F492C02135310508F449
:1026F00041C09F3F19F09F5F9093EA03DD80DD208A
:1027000061F00E94122D1D1414F09FEF01C091E0A2
:10271000899F802D11248093F503DE80DD2061F0F8
:102720000E94122D1D1414F09FEF01C091E0899FAB
:10273000802D11248093F6033091F5033323D1F0DB
:102740002091F6032223B1F045EB3403C00111249C
:10275000992319F09093F50302C0F092F50335EB3D
:102760002303C0011124992319F09093F60302C0AA
:10277000F092F60346E050E0BE016F5F7F4F81EFBD
:1027800093E00E942431892BA9F48091F3038111F5
:102790000FC08091F40381110BC08091F50381116A
:1027A00007C081E09091F603911103C080E001C061
:1027B00081E080FD0E94712C86E0FE013196A1EF40
:1027C000B3E001900D928A95E1F70E94CF28909195
:1027D000C002891709F41BCE8093C0020E943B28D7
:1027E00016CEC9BCD9BC09B400FEFDCF8091D8007B
:1027F0008F7D8093D8008091E00082608093E0001C
:102800008091E00081FDFCCF0E948E1F09CE232B1A
:1028100009F071CFAFCFA0E0B0E0E1E1F4E10C94BA
:1028200085307C015B016A0180918F028A3018F04B
:1028300001E010E002C00AE010E0C1E0D0E0B50124
:10284000C701F6010995811115C021960C171D07C6
:1028500094F0CC9F9001CD9F300D300D112480E07D
:1028600090E045E34A95F1F700000196821793073F
:10287000C1F7E5CF81E0CDB7DEB7EAE00C94A13037
:10288000FF920F931F93CF93DF938C018AE0F82E72
:10289000F8018491882309F44CC0813009F042C0CA
:1028A000E8012196FE018491813031F42196FE01E8
:1028B00084910E943B2039C0823039F4E80122968D
:1028C000FE0184910E94E52D30C0833039F4E80187
:1028D0002296FE0184910E94C01F27C0843029F5F2
:1028E000E8012296FE01249180E090E030E0205340
:1028F00031092A30310560F4F89EA001F99E500D8F
:102900001124C901840F951F2196FE012491EECF59
:10291000009759F0EFE9FFE03197F1F700C00000B0
:102920000197F6CF0E94B22BE8018E010F5F1F4F77
:10293000AFCFCDB7DEB7E5E00C94A6300F931F9371
:10294000CF938C018091D802C82FC17080FF03C043
:1029500080EE0E94C01FF8018281882321F08FE25F
:102960000E94E52D03C08FE20E94C01FCC2319F006
:1029700080EE0E94E52DCF911F910F910895FC01EB
:10298000AC014A5F5F4F8FEF91E32191822728E0EE
:1029900030E087FF03C0880F892701C0880F2150CE
:1029A0003109B9F7E417F50781F70895EF92FF921F
:1029B0000F931F93CF93DF937C018B010E942127FC
:1029C000811119C0E70101151105A1F08091E800FE
:1029D00085FD0AC08091E8008E778093E8000E9410
:1029E0002127882381F307C089918093F10001504A
:1029F0001109E9CF80E0CDB7DEB7E6E00C94A53051
:102A0000AAE2B0E0E6E0F5E10C948C30E0EDF2E013
:102A100088ED92E02091F10021938E179F07D1F766
:102A20008091D102833009F461C030F4813071F0BB
:102A3000823009F49BC0B2C08A3009F487C08B3061
:102A400009F46CC0893009F0A9C020C08091D0027F
:102A5000813A09F0A3C08091E800877F8093E80065
:102A60008091D4029091D502892B21F468E084EC06
:102A700092E003C060E080E090E070E00E94A82750
:102A80008091E8008B778093E80088C08091D00225
:102A9000813209F083C08091D4029091D5020297CF
:102AA00008F07CC08091E800877F8093E8008091E7
:102AB000E80082FD05C08091CE028111F8CF6EC082
:102AC0002091F3008091F20090E0922B029731F474
:102AD0008091F100813011F0863021F48091F10075
:102AE0008093C3028091E8008B7754C08091D0021C
:102AF000813A09F053C08091D4029091D502892B7C
:102B000009F04CC08091E800877F8093E8008091B5
:102B1000E80080FFFCCF8091260137C08091D00271
:102B20008132E1F58091D4029091D502892BB1F5E3
:102B30008091E800877F8093E8000E94542780916D
:102B4000D202809326010E948E1F28C08091D0025D
:102B5000813221F58091E800877F8093E8000E9410
:102B600054278091D3028093C20218C08091D00272
:102B7000813AA1F48091E800877F8093E8008091FA
:102B8000E80080FFFCCF8091C2028093F100809129
:102B9000E8008E778093E8000E9454278091E80037
:102BA00083FFCEC18091D0029091D102492F50E095
:102BB0004A30510508F0C4C1FA01EE59FF4F0C9498
:102BC0000A31803821F0823809F0BAC108C08091FA
:102BD000CC029091CD02992389F082600FC0809140
:102BE000D4028F70873008F0ABC18093E9008091E8
:102BF000EB0085FB882780F91092E9009091E800AE
:102C0000977F9093E8008093F1001092F10065C1E6
:102C1000282F2D7F09F094C1882319F0823061F0AC
:102C20008FC18091D202813009F08AC1933009F0BE
:102C300080E08093CD022EC08091D20281112AC003
:102C40008091D4028F702FEF280F263008F078C1C2
:102C50008093E9002091EB0020FF1CC0933021F409
:102C60008091EB00806214C09091EB009061909392
:102C7000EB0021E030E0A90102C0440F551F8A9506
:102C8000E2F74093EA001092EA008091EB0088603E
:102C90008093EB001092E9008091E800877F20C1CB
:102CA00081114EC11091D2021F778091E30080788C
:102CB000812B8093E3008091E800877F8093E80078
:102CC0000E9454278091E80080FFFCCF8091E300B0
:102CD00080688093E300111102C082E001C083E0AC
:102CE0008093CE022DC18058823008F029C1809196
:102CF000D2029091D3028C3D53E0950779F583E0A1
:102D00008A838AE289834FB7F894DE01139620E024
:102D10003EE051E2E32FF0E050935700E49120FFB2
:102D200003C0E295EF703F5FEF708E2F90E0EA30C6
:102D300010F0C79601C0C0968D939D932F5F2431EC
:102D400049F74FBF8091E800877F8093E8006AE2EF
:102D500070E0CE0101960E94A827AEC04091D40237
:102D60005091D502292F332723303105A9F068F47B
:102D70002130310509F4F3C02230310509F0E0C0FB
:102D80008BE390E0E1EDF1E044C02132310521F127
:102D90002232310571F1D4C0992781309105A1F01B
:102DA00058F0029709F0CCC0EEE1F2E0E4918E2FEA
:102DB00090E0EEE1F2E02AC0ECE5F2E0E4918E2F43
:102DC00090E0ECE5F2E022C0ECE4F2E0E4918E2F3A
:102DD00090E0ECE4F2E01AC04115510509F4C4C0DA
:102DE0004130510509F0ACC089E090E0ECEFF1E032
:102DF00010C04115510509F4BCC04130510509F01E
:102E00009FC08BE790E0E6E1F1E003C0009709F492
:102E100097C02091E800277F2093E8002091D602F8
:102E20003091D7028217930708F49C0140E02115E6
:102E3000310589F18091CE02882309F43DC08530A7
:102E4000D9F18091E80083FD37C08091E80082FDD0
:102E50002FC08091E80080FFEACF4091F30080917D
:102E6000F20090E0942B2115310559F0883091053E
:102E700040F444914093F10031962150310901967C
:102E8000F2CF41E0089709F040E08091E8008E77AA
:102E90008093E800CCCF4111CDCF0AC08091CE0203
:102EA000882351F0853041F08091E80083FD04C013
:102EB0008091E80082FFF2CF8091E8008B778093C9
:102EC000E8003EC08038E1F58091E800877F80937C
:102ED000E8008091CF028093F1008091E8008E7726
:102EE0008093E8000E9454272BC0811129C0809153
:102EF000D2029091D3029927029714F58091E800AD
:102F0000877F8093E8001091D2021093CF020E9435
:102F10005427111106C08091E30087FD02C081E0B3
:102F200001C084E08093CE0242E061EC81E00E9427
:102F3000732742E261EC82E00E9473278091CE0207
:102F40008091E80083FF1AC08091E800877F80931A
:102F5000E8008091EB0080628093EB000FC082E17B
:102F600090E0ECE0F2E055CF89E090E0E3EEF1E0B4
:102F700050CF80E490E0E1E9F1E04BCFAA96E3E0A6
:102F80000C94A8301F920F920FB60F9211242F931A
:102F90003F934F935F936F937F938F939F93AF93E1
:102FA000BF93CF93DF93EF93FF93C091E900CF706E
:102FB0008091EC00D82FD17080FDD0E81092E9000C
:102FC0008091F000877F8093F00078940E94001534
:102FD0001092E9008091F00088608093F000CD2B82
:102FE000CF70C093E900FF91EF91DF91CF91BF9136
:102FF000AF919F918F917F916F915F914F913F9191
:103000002F910F900FBE0F901F901895E8EDF0E0F4
:1030100080818E7F80831092E2001092DA001092FD
:10302000E100A0EEB0E08C9181608C9380818F777D
:10303000808319BCA7EDB0E08C918E7F8C9380814A
:103040008F7E80831092C1020895A0E0B0E0EBE291
:10305000F8E10C948730C8EDD0E088818F7E8883BA
:10306000E7EDF0E080818160808384E082BF81E0D1
:103070008093C10288818E7F888302EE10E0F80180
:1030800010821092DA0081EEC82ED12CF601108247
:1030900088818F77888388818068888388818F7D05
:1030A000888319BC1092CE021092CF021092CD02EA
:1030B0001092CC0290EEE92EF12CF70180818B7FEB
:1030C000808388818160888342E060E080E00E94A4
:1030D0007327F60180818E7F8083F8018081816073
:1030E0008083808188608083F70180818E7F8083E8
:1030F000888180618883CDB7DEB7E8E00C94A33087
:103100001F920F920FB60F9211242F933F934F935C
:103110005F936F937F938F939F93AF93BF93EF933F
:10312000FF938091E10082FF09C08091E20082FF5D
:1031300005C08091E1008B7F8093E1008091DA00EF
:1031400080FF2AC08091D80080FF26C08091DA00DD
:103150008E7F8093DA008091D90080FF18C080E1D3
:1031600089BD82E189BD09B400FEFDCF81E0809375
:10317000CE028091C10281110FC00E9406180E94E8
:1031800025188091E20084608093E20005C019BC9C
:103190001092CE021092C1028091E10080FF17C010
:1031A0008091E20080FF13C08091E2008E7F8093C7
:1031B000E2008091E20080618093E2008091D8007B
:1031C00080628093D80019BC85E08093CE02809104
:1031D000E10084FF30C08091E20084FF2CC080E1D8
:1031E00089BD82E189BD09B400FEFDCF8091D80080
:1031F0008F7D8093D8008091E1008F7E8093E100E5
:103200008091E2008F7E8093E2008091E2008160F5
:103210008093E2008091CF02882311F084E007C000
:103220008091E30087FD02C081E001C083E08093CC
:10323000CE028091CE028091E10083FF27C0809171
:10324000E20083FF23C08091E100877F8093E1004B
:1032500082E08093CE021092CF028091E1008E7FB7
:103260008093E1008091E2008E7F8093E200809164
:10327000E20080618093E20042E060E080E00E9432
:1032800073278091F00088608093F000FF91EF91A8
:10329000BF91AF919F918F917F916F915F914F916E
:1032A0003F912F910F900FBE0F901F90189580E0C7
:1032B00008959091A40292FF0DC0282F2871283004
:1032C00019F4877F846006C0282F2471243011F4FC
:1032D0008B7F886093FF0DC0282F2871283119F447
:1032E000877E846106C0282F2471243111F48B7EDF
:1032F00088612091A50220FF0DC0382F3871383029
:1033000019F4877F816006C0382F3171313011F494
:103310008E7F886021FF0DC0282F2871283119F475
:10332000877E816106C0282F2171213111F48E7EA4
:10333000886194FD877E089580914103811118C0B2
:103340008091D80080618093D8008AE18A95F1F756
:1033500000C08091D90080FD02C082E001C081E000
:1033600080934103823021F40E9406181092CE020D
:1033700081E090914103913009F080E00895F89444
:10338000E82FE295EF70F0E031A1282F2F7081E057
:1033900090E001C0880F2A95EAF7982F9095932323
:1033A00091A392A1892B82A378940895A2E1B0E021
:1033B000ECEDF9E10C948030AE014F5F5F4F7A0184
:1033C0008CE0DA011D928A95E9F702E212E06A01C7
:1033D00088E2682E82E0782EAA24A394B12C2EE2F3
:1033E000822E22E0922EF80180818F3F09F440C0A6
:1033F000F894E82FE295EF70F0E021A18F70A5011D
:1034000002C0440F551F8A95E2F7CA01922F982BEC
:1034100091A392A18095892382A3789400C0E8E2C9
:10342000F2E0512C31E021912F3F89F0A22FA2959B
:10343000AF70B0E090968C9190E02F7002C095959F
:1034400087952A95E2F780FD02C0832F01C080E0B6
:10345000582A330F8E169F0631F7D8018C918F3F73
:1034600011F00E94BF19B0EABA95F1F7F601508247
:103470000F5F1F4FFFEFCF1ADF0A6016710609F0CA
:10348000B2CF4CE050E0B70184E992E00E942431D1
:10349000009741F02CE0F701A4E9B2E001900D9211
:1034A0002A95E1F70091A102892B49F081E08093F0
:1034B00039030E9447289093380380933703809103
:1034C0003903811102C0F12C22C080913703909101
:1034D00038030E942C280597B0F310E008551D4FC3
:1034E00046E050E064E972E0C8010E942431892B73
:1034F00059F086E0E4E9F2E0D80101900D928A9556
:10350000E1F7FF24F39401C0F12C109239030E94DB
:103510009C19E091A102882309F458C06E012DE0A6
:10352000C20ED11C86E0D6011D928A95E9F70E2FB6
:1035300010E008551D4F80918F028A3048F44BE807
:1035400050E1B601C8010E940B14882399F00AC00B
:1035500080913A0390913B030E942C28843F914034
:1035600070F71AC042E250E1B601C8010E940B1484
:10357000811171C080918F028F3F19F08F5F80930E
:103580008F0280918F028A3008F467C00E9447281A
:1035900090933B0380933A0380914003882309F47E
:1035A00054C086E0F60111928A95E9F71092400323
:1035B000A091A002B0E0A855BD4F86E0FE013D9667
:1035C00001900D928A95E1F781E040C0F0E0E85566
:1035D000FD4F86E0A1E8B2E001900D928A95E1F7F7
:1035E00081E892E00E94BF1480938002809087025D
:1035F00090908802A0908902B0908A0280913C034A
:1036000090913D03A0913E03B0913F038816990627
:10361000AA06BB06D1F080923C0390923D03A09293
:103620003E03B0923F030E949C1981110EC00E947C
:103630003B28861A970AA80AB90A809290029092AB
:103640009102A0929202B092930280E08F2962963A
:10365000EFE00C949C3010928F028091A00290E0D9
:1036600046E050E0B60188559D4F0E94243121E08C
:1036700020934003892B09F09BCFE7CF7C30A0F447
:10368000663090F498E4899FF001112486E0789FD9
:10369000E00DF11D1124E60FF11DEE0FFF1FE05AA2
:1036A000FD4F85919491089580E090E00895CF9327
:1036B000DF938238910569F1B0F48133910509F403
:1036C00077C048F48932910509F469C08A329105BE
:1036D00009F473C092C08533910509F45BC0893346
:1036E0009105B9F08AC0833E910591F138F4803E8E
:1036F0009105D1F0823E910531F17FC0863E910562
:10370000D9F1873E9105E9F1843E910509F075C034
:1037100028C02091A40220FD5BC021FD59C020914A
:10372000A50223FD61C069C08091A40280FD4AC04A
:103730008091A50280FF4CC08091A40284FD4EC1FF
:1037400083EE90E04DC18091A40282FF3EC0F4CF91
:103750008091A40282FD39C08091A50280FD38C00D
:10376000EBCF8091A50281FF39C08091A40284FD36
:1037700035C187EE90E034C18091A40283FF2BC055
:10378000F4CF8091A40283FD26C08091A50281FD23
:1037900025C0EBCF8091A40285FD26C022C0809178
:1037A000A40285FD1EC08091A50283FF1DC00AC032
:1037B0008091A40286FD1BC01DC08091A40286FDDD
:1037C00019C015C089E390E00BC182EE90E008C1FA
:1037D00080EE90E005C186EE90E002C184EE90E0BC
:1037E000FFC085E390E0FCC089E290E0F9C08AE286
:1037F00090E0F6C081E390E0F3C0811531E59307D6
:1038000008F061C0811520E59207B0F09C0123709B
:10381000332741E050E002C0440F551F2A95E2F7DC
:10382000282F2695269580E2289F90011124CA0111
:10383000822B932B9D68D4C0883E910568F5803E0D
:10384000910508F0CDC0883A9105B8F4853A910504
:1038500048F0855AE82FF0E0E25DFD4F808190E06E
:103860009064BEC08130910509F4B5C008F4B6C0BB
:103870008430910508F4B2C0B3C08F3B910508F0C5
:10388000ADC0885AE82FF0E0EE0FFF1FEF5CFD4F50
:10389000808191819464A4C0811530E2930758F42B
:1038A000811521E0920708F09BC08D3E910508F438
:1038B00095C0906595C0811530E4930708F48EC0DB
:1038C0009F70906A8DC0811525E5920708F042C06F
:1038D000811534E5930728F0982F8827846F906A24
:1038E0007FC0811523E59207B0F09C012370332738
:1038F00041E050E002C0440F551F2A95E2F7282FFF
:103900002695269580E2289F90011124CA01822BDA
:10391000932B9A6865C0811532E5930728F4982F98
:103920008827816F906A5CC09C012370332741E037
:1039300050E002C0440F551F2A95E2F7282F269524
:10394000269580E2289F90011124CA01822B932B97
:103950009C6846C0EC01C11589E5D807B0F4C115D3
:1039600028E5D20728F09C2F8827806F906A38C0FE
:10397000C11536E5D30790F58C2F0E9459198F7128
:1039800090E0982F882790622BC0C1158AE5D80750
:1039900090F48C2F8F700E94591994E0D695C7959A
:1039A0009A95E1F7CF70D0E0DC2FCC27D0699E014B
:1039B000282BC90115C0CE0190568115904270F494
:1039C0008D2F8F710E945919282F2F71CE019927A1
:1039D0009062922B05C081E090E002C080E090E010
:1039E000DF91CF910895CF9384E090E00E94B430AE
:1039F000C82F82E290E00E94B4302C2F30E0A90161
:103A0000582BCA01CF91089568EE7EEF80E090E0D8
:103A10000E94E03060E082E090E00E94C23060E00E
:103A200083E090E00E94C23010923603109235037A
:103A300060E084E090E00E94C23064E082E290E0C6
:103A40000E94C23060E085E090E00E94C23060E0F9
:103A500086E090E00E94C2306FEF87E090E00E9425
:103A6000C23040E050E0BA0188E090E00E94D430DB
:103A700060E08DE090E00E94C23040E050E0BA018A
:103A800088E190E00E94D43060E087E190E00E94FD
:103A9000C23040E050E0BA018CE190E00E94D430A6
:103AA00060E070E080E290E00E94E03040E050E0B2
:103AB000BA0188E190E00E94D43040E050E0BA01C1
:103AC0008FE090E00E94D43040E050E0BA0183E102
:103AD00090E00E94D43008958091340381111092B7
:103AE0003403089580959091D80289238093D80259
:103AF00008959091D8028091FD03982B9093D9025C
:103B000080913403882389F0892B8093D902EBEDCF
:103B1000F2E097E080E0915029F021912223D9F33F
:103B20008F5FF9CF81110E946C1D48E050E06CE27C
:103B300073E089ED92E00E942431892BA9F088E09E
:103B4000E9EDF2E0ACE2B3E001900D928A95E1F785
:103B5000E091DE03F091DF03309731F00280F381D2
:103B6000E02D89ED92E00995089520912B03809531
:103B7000822380932B03982F977099F430E0482F7D
:103B8000082E000C550B2417350759F09091A5020B
:103B900092FF07C08595859585950E944A1F1092D2
:103BA0002B030895CF93C091A502C2FB992790F9EA
:103BB000981791F080FBC2F9C093A5026091A4020E
:103BC00084E090E00E94C2306C2F82E290E00E947C
:103BD000C23082E00E94B51DCF91089520912A0342
:103BE0009091E9022917B1F030E0F90153E0EE0FAE
:103BF000FF1F5A95E1F7E651FD4F5181561306C05C
:103C00005081581303C05281541306C02F5F3F4F99
:103C10002770E8CF80E0089581E0089580912A031D
:103C20009091E902891719F08F5F8770FBCF089593
:103C3000EF92FF920F931F93CF93DF938091E60251
:103C400082958F7009F054C08091E302882309F4B3
:103C50004FC0C0912A03E090E902D091E102F090B8
:103C6000E2020091E4021091E502CE1509F440C091
:103C7000A8016F2D8D2F0E94672A2C2F30E0811113
:103C800032C0F90183E0EE0FFF1F8A95E1F7DF01F3
:103C9000A651BD4F11968C9111978F1124C08C9114
:103CA0008D1321C012968C91129781111CC013960E
:103CB0008D919C911497801B910B883C910598F4F1
:103CC0008091E6028F7080618093E602E151FD4FA2
:103CD00080818F708061808381EE92E00E94A906CE
:103CE0000E940E1E05C02F5F3F4FC22FC770BDCF71
:103CF000CDB7DEB7E6E00C94A53080E090E00E94FE
:103D0000B92880E090E00E94A3281092FD030E9451
:103D1000791DE1EFF3E086E0DF011D928A95E9F776
:103D20001092EB031092EA031092EC030E94712CA4
:103D30000895A0E0B0E0EFE9FEE10C9486307C014C
:103D40000091A2021091A302809135039091360355
:103D5000082B192BCFE0D0E0CC24C394D12CC60182
:103D60000C2E02C0880F991F0A94E2F7802391233A
:103D7000892B21F4219798F7B12C09C0BC2EB701EB
:103D80008C2F0E943E1B0E94571B019799F38B2D8D
:103D9000CDB7DEB7E9E00C94A230CF93DF93EC010E
:103DA0000E94991EBE010E943E1B0E94571BDF917C
:103DB000CF9108959C3078F5863068F5E82FF0E0D3
:103DC00086E0989FE00DF11D11249E2F977083E0EF
:103DD000F695E7958A95E1F7EE0FFF1FEE0FFF1FAF
:103DE000EE5BFC4F40E050E080E0219130E0092E96
:103DF00002C0369527950A94E2F721703327042EE6
:103E000001C0220F0A94EAF7822B4F5F5F4F4430C4
:103E1000510559F7089580E008959C3088F5863063
:103E200078F5E82FF0E086E0989FE00DF11D112471
:103E30008E2F877051E001C0550F8A95EAF783E015
:103E4000F695E7958A95E1F7EE0FFF1FEE0FFF1F3E
:103E5000EE5BFC4F20E030E070E04081CB01022EB1
:103E600002C0969587950A94E2F781708195842720
:103E70008523842781932F5F3F4F2430310569F7D5
:103E800008950E9468239093A3028093A2020E9447
:103E90007D1E089521E030E002C0220F331F8A9575
:103EA000E2F7209530958091A2029091A30282239F
:103EB00093230E94411F089521E030E002C0220FA9
:103EC000331F8A95E2F78091A2029091A302822B80
:103ED000932B0E94411F08959093360380933503DE
:103EE0000E947D1E089592959F70963079F010F48F
:103EF000925001C09A50923068F4803F69F018F4F3
:103F0000883E40F409C0843F29F406C0883E20F072
:103F1000813F11F080E0089581E008951092D80269
:103F200086E0EBEDF2E0DF011D928A95E9F70E9451
:103F30007D1E0895882341F080959091FD0389238B
:103F40008093FD030E94791D0895882339F0909194
:103F5000FD03892B8093FD030E94791D089588231A
:103F600021F00E94721D0E94791D0895882339F066
:103F70009091D802892B8093D8020E94791D0895D0
:103F8000882309F45FC0823869F40E94CF2881FF3A
:103F900059C069E389ED92E00E9489280E94791D49
:103FA00069E30EC0833899F40E94CF2880FF4AC08D
:103FB00063E589ED92E00E9489280E94791D63E5FE
:103FC00089ED92E00E947C280E94791D0895843832
:103FD00069F40E94CF2882FF35C067E489ED92E042
:103FE0000E9489280E94791D67E4EACF9CEF980F10
:103FF000913A10F4682FE4CF90E2980F983050F483
:10400000877091E001C0990F8A95EAF7892F0E9485
:10401000721DDACF9BE5980F933028F480E090E092
:104020000E94B928089598E5980F973128F480E008
:1040300090E00E94A32808958D3E20F00E949B2CC2
:104040000E94712C08951F93CF93DF93182FEB01DB
:104050000E94E52D209741F08FE99FE00197F1F74D
:1040600000C000002197F6CF812F0E94C01FDF9172
:10407000CF911F910895893319F060E070E002C07C
:1040800060E570E00E9423200895CF93DF93EC0158
:104090004B815C81698188810E94672A81110EC0F1
:1040A0008E819F81009719F00E94571B04C0888160
:1040B00099810E94CD1E0E94731F01C080E0DF9194
:1040C000CF910895A5E1B0E0E8E6F0E20C947E30EF
:1040D0008C0185E0F801DE01519601900D928A95E0
:1040E000E1F7D8011296EC9081EEA82E82E0B82E6E
:1040F0005090E1024090E2028090E4029090E5024C
:10410000A401642D852D0E94672AF82E811174C1A7
:10411000F80170806180C380D4803090E302960102
:1041200028193909332009F419C18091E602982F22
:10413000907F283C310508F0D3C0911179C046101A
:104140001AC0571018C04091E7025091E80226812A
:1041500037814217530779F4E1100DC08F708061E9
:104160008093E602C5010E94A9068091E602D8016B
:1041700015968C935DC1A601662D872D0E94672A36
:10418000D82E811103C081E08E2502C080E090E02E
:1041900080FF07C04E2D662D872D0E94EE1D8111D8
:1041A0003EC0D11003C081E08E2502C080E090E0C7
:1041B000B82FB170DB2E80FF2AC04E2D662D872DC3
:1041C0000E94EE1DC82E811122C0798A6A8A8989CF
:1041D0009A890E94CD1E292F22952F70223018F027
:1041E000243078F405C09F7049F0811107C00DC0DC
:1041F0009F7021F0F8019581907F39F0805E8830C2
:1042000020F0C8010E94A906CD2CFC2C11C1EE2083
:1042100009F40DC18091E60281608093E60281EE8F
:1042200092E00E94A906E1EEF2E088E0DF01E0C042
:1042300046101BC0571019C04091E7025091E80288
:10424000F801268137814217530779F4E1100DC038
:104250008583C8010E94A90688E0F801A1EEB2E0BA
:1042600001900D928A95E1F759C0C8010E9445203E
:10427000882381F1EE2071F12091E602822F829550
:104280008F7090E00297A4F08091E1029091E20299
:104290009A8789871B86DD86CC862E878091E702E8
:1042A0009091E802988B8F87CE0109960E94A9060B
:1042B00088E0F801A1EEB2E001900D928A95E1F755
:1042C0000E94181E0AC0461491F0C8010E944520A1
:1042D000811126C0C8010E94A906FF24F394A8C03A
:1042E0009111F1CF81EE92E00E94A9067FC0571094
:1042F000ECCF4091E7025091E802F8012681378126
:104300004217530711F7E110E0CF8583C8010E94DF
:10431000A90688E0D5011D928A95E9F7F32C88C09B
:10432000EE20C1F22091E602822F82958F7090E0FC
:1043300002970CF4BDCF8091E1029091E2029A8342
:1043400089831B82DD82CC822E838091E70290914B
:10435000E80298878F83CE010196A8CF283C3105CB
:1043600008F044C0FE2CEE2009F4B4CF461030C053
:1043700057102EC02091E7023091E802F8018681A3
:1043800097812817390721F59091E60290FD17C013
:10439000892F82958F70282F30E02115310579F013
:1043A00095832F30310541F08F5F982F9295907F44
:1043B00085818F70892B8583C8010E94A90688E0BA
:1043C000F801A1EEB2E001900D928A95E1F730C0BC
:1043D000C8010E94452081116BCF8091E602816067
:1043E0008093E602C8010E94A90622C088E0D50198
:1043F0001D928A95E9F71CC0EE2009F46BCFC80125
:104400000E944520F82E882309F464CF88E0F80143
:10441000A1EEB2E001900D928A95E1F78091E10260
:104420009091E2020E94CD1E0E94181E01C0F12C44
:104430008F2D6596E1E10C949A30A0E1B0E0E3E2C3
:10444000F2E20C94893029873A874B875C876D8725
:104450007E878F87988BCE0109960E9462208111FA
:104460004AC088E0FE013996DE01119601900D9256
:104470008A95E1F7E984FA840C851D85A8016F2DE2
:104480008E2D0E94672A811136C0A091E902B0E00A
:10449000CD0101968770992720912A0330E0821779
:1044A000930781F1E982FA821D830C8393E0AA0FBE
:1044B000BB1F9A95E1F7A651BD4F98E0FE013196DA
:1044C00001900D929A95E1F78093E9020E940E1EE9
:1044D00012C028E0829FC001112486519D4F0E9486
:1044E00062208823E1F080912A0390E00196877092
:1044F000992780932A0380912A039091E9028913D6
:10450000E8CF0DC00E948E1F1092E90210922A037C
:10451000E1EEF2E088E0DF011D928A95E9F760960E
:10452000E6E00C94A5309C013A9521153F4130F509
:10453000BC0166277270AC01442754709C0122278D
:10454000387094FF0FC090FF02C080E101C080E08E
:10455000672B09F08062452B09F08064232B79F0EA
:1045600080680895892F8170672B09F08260452B40
:1045700009F08460232B19F08860089580E0089585
:10458000A5E0B0E0E6ECF2E20C948C3049835A836B
:1045900089819A81662359F0222349F00E94991E4D
:1045A000182F682F89819A810E940D1F03C00E94D5
:1045B000DA1E182F69817A81812F0E943E1B259671
:1045C000E3E00C94A830FC0186819781009741F4C8
:1045D000262F408151816281738184810E94C02293
:1045E00008950E948E1F2FEF84E39CE021508040AD
:1045F0009040E1F700C000009AE088E10FB6F8941F
:10460000A895809360000FBE90936000FFCF0E943A
:104610008E1F2FEF84E39CE0215080409040E1F713
:1046200000C0000087E797E7909301088093000897
:104630009AE088E10FB6F894A895809360000FBEC9
:1046400090936000FFCFEF92FF920F931F93CF9351
:10465000DF93EC018B017C0180EEE81AF10898E011
:10466000E916F10410F0209731F4CE010E94932254
:104670000E94B61F05C0CE010E9493220E94A51F72
:104680008C2F0E94E52D0115110549F08FE99FE05F
:104690000197F1F700C0000001501109F4CF8C2FF1
:1046A0000E94C01F98E0E916F10410F0209731F441
:1046B000CE010E9493220E94AF1F05C0CE010E942E
:1046C00093220E949A1FCDB7DEB7E6E00C94A53086
:1046D0009C012C7033272C30310511F4806101C00E
:1046E0008F7E9C01247038702430384011F4906122
:1046F00008959F7E0895EF92FF920F931F93CF939B
:10470000DF937C01162FEA018091D802082F0270F6
:1047100081FF03C081EE0E94C01FF70182818823C0
:1047200049F0812F0E94E52D209761F08C2F0E9487
:10473000E52D08C0812F0E94C01F209719F08C2FF3
:104740000E94C01F002319F081EE0E94E52DCDB715
:10475000DEB7E6E00C94A5300F931F93CF938C0146
:10476000C42FAB0166EE70E00E947B23F8018281CA
:10477000811106C08C2F0E94E52D8C2F0E94C01F36
:10478000CF911F910F9108958F31910508F0B4C01A
:10479000FC01E459FF4F0C940A31662309F4ACC0C4
:1047A00084E59BE0A7C0662309F4A6C088E49BE0EB
:1047B000A1C0662309F4A0C08DE39BE09BC06623E3
:1047C00009F49AC082E39BE095C0662309F494C083
:1047D0008BE29BE08FC0662309F48EC084E29BE0ED
:1047E00089C0662309F488C086E19BE083C0662304
:1047F00009F482C088E09BE07DC0662309F47CC098
:104800008FEF9AE077C0662309F476C087EF9AE0CD
:1048100071C0662309F470C08DEE9AE06BC0662308
:1048200009F46AC085EE9AE065C0662309F464C0A5
:104830008BED9AE05FC0662309F45EC084ED9AE0D8
:1048400059C0662309F458C08BEC9AE053C0662324
:1048500009F452C082EC9AE04DC0662309F44CC0C2
:1048600085EB9AE047C0662309F446C08AEA9AE0DD
:1048700041C0662309F440C084EA9AE03BC0662345
:10488000D9F18BE99AE036C06623B1F18EE89AE05F
:1048900031C0662389F185E89AE02CC0662361F176
:1048A0008AE79AE027C0662339F185E79AE022C0BB
:1048B000662311F180E79AE01DC06623E9F08DE6DA
:1048C0009AE018C06623C1F088E69AE013C0662318
:1048D00099F084E69AE00EC0662371F08EE59AE0C6
:1048E00009C0662349F081E59AE004C0662321F0FF
:1048F00080E49AE00E9440140895ABE1B0E0E3E860
:10490000F4E20C947D30942F498B252F5A8B6B8BBE
:104910007C8B8D8B4C895D89622F892F0E94672A41
:10492000811109C080917402909175020196909353
:104930007502809374028B8981111092FD038E01A0
:10494000075F1F4F88E0F80111928A95E9F785E02B
:10495000FE017196D80101900D928A95E1F74C8580
:104960005D856A8589850E94672A8111D8C161E0C9
:10497000C8010E94E3225C01883FFCE59F0739F4EF
:104980008B858823A1F081E080930002C8C1893F14
:104990002CE5920731F48B85882349F00E94762A12
:1049A000BEC18A3F9C4519F48B85811111C007E275
:1049B00011E0712CC12CD12C88248394912C552486
:1049C0005394CE0101969F8B8E8B77E0472E38C093
:1049D000809100028823B9F2E1CFFFEFEF16FF06C6
:1049E00009F44BC1F8016481611145C020910002B6
:1049F000822F81706B84F80135812681662009F44D
:104A0000DCC0882309F4D9C03323C1F1940102C06A
:104A1000220F331F9A95E2F721503109F801868160
:104A200090E02817390709F440C07628FFEFCF1A25
:104A3000DF0A095F1F4F2FE1C216D10409F41FC11D
:104A4000F801208131816FEF8FEF90E0E92EF12C9A
:104A5000F701EE0FFF1FE20FF31F45915491A416CB
:104A6000B50611F0E62EF82E452B09F4B6CF9F5F60
:104A70006E2D8F2DEBCF20E030E0BACFA4010E2CAD
:104A800001C0440F0A94EAF7242B26832091FB03EC
:104A90003091FC032233310508F0B8CF22E330E037
:104AA0003093FC032093FB03B1CF8091D10390910D
:104AB000D203009729F00E942C28C39708F02CC13C
:104AC0008091CF03B091D003982FE0E0F0E08B17F6
:104AD00009F45FC0282F30E0F901EE0FFF1FE95302
:104AE000FC4FE080F1804E9CF0014F9CF00D1124B2
:104AF000E95DFE4F40814A8F41814B8FA0E060E02D
:104B000070E0EA8DFB8DE70FF11DE70FF11D259099
:104B1000349021143104D1F0F801F081F88FF801BC
:104B2000F181F98F60E0E88DF98DE60FF11DE60F58
:104B3000F11D459154914115510531F0241635066A
:104B400009F4A1E06F5FEFCF7F5FDBCFAA23D1F045
:104B5000671708F4DBC04E9CF0014F9CF00D112448
:104B6000E95DFE4F309781F05482E017F10719F4A8
:104B70009093CF035ACF891307C0C9010196982F8C
:104B8000937002C0E0E0F0E02F5F3F4F822F837010
:104B90009ECF9093CF03E017F10709F446CF90E042
:104BA000FC01EE0FFF1FE953FC4FD182C08201963A
:104BB000837099278093D00338CF311114C0A4019A
:104BC00002C0440F551F9A95E2F74150510930E059
:104BD0004217530709F043C0662309F441C0C601D8
:104BE0000E941D2B3CC0822F90E09C012150310976
:104BF000282339230E2C02C0959587950A94E2F755
:104C0000232B59F580FF29C0F80182819381892BDC
:104C1000E1F088E0EE89FF8911928A95E9F78EEF3D
:104C200089838A830E9447288160582F9D838C83C3
:104C3000F801828193818F83988729813A814B8102
:104C40006D817E810E941D2204C060E0C6010E9429
:104C5000C423F801158281E003C0817001C080E0A7
:104C600094010E2C01C0220F0A94EAF72095F80156
:104C7000968129232683682ED8CE612CD6CE8B85AB
:104C8000882381F1772071F10E9447289093D20305
:104C90008093D10380916603883008F04AC091E088
:104CA000980F9093660398E0FE013996DE01119605
:104CB00001900D929A95E1F74CE0849FC001112478
:104CC00089599C4F28E0FE013196DC0101900D923C
:104CD0002A95E1F72FEF3FEFFC0131872087B3865C
:104CE000A28627C09091CF038091D003981719F026
:104CF0000E94852A08C00E944B2B1092D20310926A
:104D0000D1030E94A12B772051F013C0011511058A
:104D100009F438CF9093CF03F801548286CE2985C9
:104D20003A854B855C856D857E858F8598890E9447
:104D30001D226B96E2E10C94993008958091C30294
:104D400008958093E7037093E9036093E8038091EB
:104D5000CE02843001F582E08093E9008FEF9091DC
:104D6000E800815095FD06C095ED9A95F1F7000099
:104D70008111F5CF8091E80085FF0DC040E050E043
:104D800063E070E087EE93E00E94D6148091E80023
:104D90008E778093E8000895BC0184E00E94A126EC
:104DA0000895BC0183E00E94A126089522E020938B
:104DB000E9002FEF3091E800215035FD06C035EDB8
:104DC0003A95F1F700002111F5CF2091E80025FF79
:104DD0000BC040E050E066E070E00E94D614809185
:104DE000E8008E778093E8000895CF93DF9321E069
:104DF0002093E9002FEF3091E800215035FD06C0E7
:104E000035ED3A95F1F700002111F5CF2091E8003A
:104E100025FF14C0EC0140E050E068E070E00E9423
:104E2000D6148091E8008E778093E80088E0FE0138
:104E3000A4ECB2E001900D928A95E1F7DF91CF9159
:104E400008952091E4003091E50095E64091EC0052
:104E5000842F817040FF23C08091E80080FD1DC039
:104E60008091CE02882399F0853099F08091EB00F3
:104E700085FD11C04091E4005091E50024173507ED
:104E800029F3915011F09A01E1CF84E0089582E076
:104E9000089583E0089581E0089580E008954091A9
:104EA000E80042FFDDCF08958091D00287FF11C056
:104EB0008091E80082FD05C08091CE028111F8CF7B
:104EC00011C08091E8008B770BC08091CE028823BF
:104ED00049F08091E80080FFF8CF8091E8008E775C
:104EE0008093E8000895982F973068F59093E90033
:104EF000981739F07091EC002091ED005091F0007E
:104F000003C0242F762F50E021FD02C09F5FECCF1D
:104F10003091EB003E7F3093EB003091ED003D7F10
:104F20003093ED003091EB0031603093EB007093E3
:104F3000EC002093ED005093F0002091EE0027FD4F
:104F4000E5CF80E008958F708093E90081E00895B7
:104F50002091D6023091D7022617370748F0611505
:104F6000710539F42091E8002E772093E80001C004
:104F7000B901FC0120E06115710579F18091CE0243
:104F80008823F1F18530F1F18091E80083FD3CC088
:104F90008091E80082FD2EC08091E80080FFEBCF79
:104FA0002091F3008091F20090E0922B6115710541
:104FB00051F08830910538F421912093F10061502F
:104FC00071090196F3CF21E0089709F020E0809164
:104FD000E8008E778093E800CECF2111CFCF0AC0B2
:104FE0008091CE02882361F0853061F08091E800E5
:104FF00083FD0AC08091E80082FFF2CF80E008952F
:1050000082E0089583E0089581E0089578941F92E6
:105010000F920FB60F9211248F939F93AF93BF936C
:105020008091E3039091E403A091E503B091E6033E
:105030000196A11DB11D8093E3039093E403A09317
:10504000E503B093E603BF91AF919F918F910F90CD
:105050000FBE0F901F9018959C014FB7F894809148
:10506000E3039091E403A091E503B091E6034FBF01
:10507000821B930B08952FB7F8946091E30370910E
:10508000E4038091E5039091E6032FBF08952FB7C5
:10509000F8948091E3039091E403A091E503B0912B
:1050A000E6032FBF08951F920F920FB60F9211249F
:1050B0008F939F93AF93BF938091E203811113C0AD
:1050C0008091E3039091E403A091E503B091E6039E
:1050D0004196A11DB11D8093E3039093E403A09337
:1050E000E503B093E603BF91AF919F918F910F902D
:1050F0000FBE0F901F9018959C012A5F3F4FFC0137
:105100004281461301C01282019682179307B9F7B4
:1051100008959C01FC0132969FEF80E04191461773
:1051200089F09F3F19F4411101C0982F8F5F86309D
:10513000A9F79F3F39F0F901E90FF11D97FDFA95A5
:105140006283089508952091E0033091E1032817C8
:10515000390771F09093E1038093E003E091DE035F
:10516000F091DF03309721F00084F185E02D09955F
:1051700008952091DC033091DD032817390771F081
:105180009093DD038093DC03E091DE03F091DF0375
:10519000309721F00680F781E02D099508950E944F
:1051A0009C19882359F0E091DE03F091DF033097DA
:1051B00029F00190F081E02D0995089580E008958F
:1051C0000F931F93CF93DF93C42FD22FFC018281C3
:1051D0008823B1F04093DB030E9447289093DA03C1
:1051E0008093D90380E28C0F883008F04DC0C770DF
:1051F00081E001C0880FCA95EAF70E94B61F44C03B
:105200008091DB03481330C08091D9039091DA0379
:105210000E942C28883C910538F510E21D0FCD170F
:10522000B9F080E28C0F883040F4C77081E001C093
:10523000880FCA95EAF70E94AF1F183010F581E079
:105240009D2F977001C0880F9A95EAF70E94B61FAC
:10525000802F0E943B201830B8F4D77081E001C045
:10526000880FDA95EAF70AC080E28C0F883060F484
:10527000C77081E001C0880FCA95EAF70E94AF1F8E
:1052800003C0802F0E943B20DF91CF911F910F918F
:105290000895893279F1E0F4843161F1A0F4873026
:1052A00009F075C01092D50394E1909305028093A4
:1052B00004028CE38093030288E08093020288E278
:1052C0008093010264C092EE980F9A30F0F05FC0B4
:1052D000803509F444C028F48F3409F058C08AE0BE
:1052E0003FC0813529F0823509F051C081E038C0D6
:1052F0008FEF36C08091D803882379F11092D803BC
:105300001092D7031092D60342C08D518093D803D8
:10531000833099F038F4813069F08230D9F485E037
:1053200092E00DC0853099F078F0863099F481E0F4
:1053300092E005C085ED93E002C084E092E0909396
:10534000D7038093D60323C083E092E0F8CF82E0B6
:1053500092E0F5CF1092D8031AC080E0089586EF4E
:10536000E091D603F091D703309789F02081082E81
:10537000000C990B820F911D8F3F910519F014F0CD
:105380008FEF04C097FF02C0108201C0808381E0CC
:1053900008958B3109F469C058F58B3009F493C036
:1053A00078F4863009F446C020F4853009F44CC006
:1053B0008CC0873009F44BC0883009F484C085C0A4
:1053C000803109F465C068F48E3009F07EC08091A8
:1053D000D40382FB222720F991E0922790FB82F9E7
:1053E0004DC0863109F46FC0893109F46CC06DC0BD
:1053F0008A32E9F060F4873209F45FC028F48E3114
:1054000008F463C08D514FC08932F1F05EC083341F
:1054100050F48A3308F046C0853309F44EC088330F
:1054200009F451C052C0833409F447C04EC00E94F1
:10543000041D49C08091D403817F8E7F8093D40363
:1054400081E08093D30308950E9407233CC080919C
:10545000D403982F9095917090FB80F98093D4039A
:10546000911131C0897F877F10C08091D40381FB67
:10547000222720F991E0922790FB81F98093D403B1
:10548000992309F18091D40381608093D4031BC0D8
:105490008091D40383FB222720F991E0922790FB8F
:1054A00083F9ECCF895321E030E0A90102C0440F19
:1054B000551F8A95E2F7CA0102C081E090E00E9480
:1054C0006C1F0E948E1F81E0089580E00895452B97
:1054D00041F06F3F41F491E08F3F09F090E0892F58
:1054E00003C081E001C080E0817008951092D20372
:1054F0001092D103109200028091D0038093CF03C9
:105500000E94A12B0E944B2B0895A0E0B0E0EBE895
:10551000FAE20C947D30C091CF03E7E0FE2E01E06B
:1055200010E0FCE02F2EAEEFEA2E8091D003C817DA
:1055300009F47AC0D0E0FE01EE0FFF1FE953FC4FE3
:1055400080819181F89EF001F99EF00D1124E95DB2
:10555000FE4F2481211165C060906603A7E6B3E089
:1055600020E030E0712C5F01261508F058C01A9633
:105570004D905C901B97F501808091804FEF5FEF1D
:10558000312CC32CD12CF601EE0FFF1FE80DF91DB5
:10559000659174914616570609F4A601672B11F020
:1055A0003394EFCF4F3FFFEF5F07A9F1B80102C07F
:1055B000660F771F4A95E2F7762AA801032C02C0EE
:1055C000440F551F0A94E2F741505109672D70E0CE
:1055D00046175707E1F4229EF001239EF00D112497
:1055E000E959FC4FF89ED001F99EB00D1124A95D38
:1055F000BE4F12962D913C91139737832683E082FC
:10560000E1829187808771E015967C9308C014969B
:105610001C921E9213972F5F3F4F1C96A5CF0E949E
:105620001D2B2196C37081CF0E944B2B0E94A12B72
:10563000CDB7DEB7E2E10C949930BC014091CF03C5
:105640008091D003942F981729F1292F30E0F90188
:10565000EE0FFF1FE953FC4F0190F081E02DE6179C
:10566000F70799F487E0869FF001879FF00D1124DA
:10567000E95DFE4F81E0848394130CC02F5F3F4FA0
:10568000237033272093CF0308952F5F3F4F922F2E
:105690009370D9CF0895EF92FF920F931F93CF93FA
:1056A000DF9380916603882309F446C00091FE03CE
:1056B0008CE0F82E809166030817D0F5EE24E39471
:1056C000E00EE092FE0310E0F09EE001F19ED00DAE
:1056D0001124C959DC4F4B815C81698188810E940A
:1056E000672A811123C08E819F81892B51F488857F
:1056F00099858F3F2FEF920721F061E00E94C4232C
:105700000AC0288139814A815B816C817D818E81CB
:105710009F810E941D22F09EF001F19EF00D112448
:10572000E959FC4F148213821092FD030E2DC2CF53
:10573000109266031092FE03CDB7DEB7E6E00C943C
:10574000A5301092FC031092FB03E7E2F1E08581A3
:10575000811102C014821682379682E0E030F80789
:10576000B1F70895A0E0B0E0E8EBFBE20C948830DC
:10577000E82FF0E0EC56F34FD490282F269526958D
:10578000269530E0F901EC57F34F0491877010E053
:10579000082E02C0159507950A94E2F701701127AB
:1057A000F901EC58F34FE490F12C082E02C0F59467
:1057B000E7940A94E2F791E0E922FF24F901EC5919
:1057C000F34FC491D0E002C0D595C7958A95E2F712
:1057D000C170DD270115110519F081EE0E94E52D3C
:1057E000E114F10419F086EE0E94E52D8D2D0E9442
:1057F0003B20E114F10419F086EE0E94C01F011550
:10580000110519F081EE0E94C01FCD2B19F08CE21A
:105810000E943B20CDB7DEB7E7E00C94A430EF92B6
:10582000FF921F93CF93DF93EC011AE088818823C6
:1058300009F44AC0813009F043C08981813041F4C4
:105840007E0182E0E80EF11C8A810E943B2009C0A3
:10585000823049F47E01E2E0EE0EF11C8A810E9462
:10586000E52DE7012FC0833041F47E01F2E0EF0E19
:10587000F11C8A810E94C01FF4CF843011F0219660
:1058800021C02A81229680E090E030E02053310947
:105890002A30310558F4189FA001199F500D11248A
:1058A000C901840F951F21962881EFCF009751F0F1
:1058B000EFE9FFE03197F1F700C000000197F6CF64
:1058C0000E94B22B2196B2CFDF91CF911F91FF9012
:1058D000EF9008956091F7038CE090E00E94C23051
:1058E00008950E9447282091F303211104C02091BC
:1058F000F403222321F09093F0038093EF0320918F
:10590000F503211104C02091F603222321F0909386
:10591000EE038093ED03E091DE03F091DF03309717
:1059200049F082E08093F1030480F581E02D81EF5E
:1059300093E0099508958D3E39F49091F40397FF13
:1059400035C01092F40359C08E3E29F49091F403AF
:105950001916BCF32BC09091F3038F3E29F497FFE7
:1059600025C01092F30349C0803F19F41916CCF3F7
:105970001DC09091F503893F29F41916BCF41092CB
:10598000F5033BC08A3F19F497FF10C0F8CF8B3F57
:1059900039F49091F60397FF09C01092F6032DC0D9
:1059A0008C3F21F49091F6031916BCF39FE0980FF9
:1059B000983080F421E030E0A90102C0440F551F67
:1059C0009A95E2F7CA0180959091F203892380931A
:1059D000F20313C08D3F21F48091EC038E7F0BC046
:1059E0008E3F21F48091EC038D7F05C08F3F29F419
:1059F0008091EC038B7F8093EC038091F303811102
:105A000006C08091F403811102C01092EB038091D3
:105A1000F503811106C08091F603811102C0109236
:105A2000EA0308958091EC0380FF08C060910202B0
:105A300070E0759567957595679521C081FF06C0E3
:105A40006091020270E07595679519C082FF04C0ED
:105A50006091020270E010C09091EA03992399F0DE
:105A6000609101029617A0F780910202899FC00100
:105A7000112470E00E94F6306038710540F4611521
:105A8000710519F406C061E070E0862F08958FE774
:105A9000089581E008958091EC0380FF06C0609135
:105AA000040270E0660F771F26C081FF04C060917A
:105AB000040284E005C082FF07C06091040288E010
:105AC000689FB001112417C09091EB039923D1F086
:105AD00060910302961788F72091040288E0289FBE
