:100000000C947C060C94482F0C9499060C94990639
:100010000C9499060C9499060C9499060C949906E4
:100020000C9499060C9499060C9472180C94B417BD
:100030000C943F280C9499060C9499060C949906FC
:100040000C9499060C9499060C9499060C949906B4
:100050000C9499060C94F2270C9499060C9499062A
:100060000C9499060C9499060C9499060C94990694
:100070000C9499060C9499060C9499060C94990684
:100080000C9499060C9499060C9499060C94990674
:100090000C9499060C9499060C9499060C94990664
:1000A0000C9499060C9499060C949906E10DE10DB7
:1000B000140E140E860EA20ED20FD20FAD0E3D0FEF
:1000C0004F0F4F0FD315FA159217FA1592174216C4
:1000D0006516921754176717BF23C523CB23D12367
:1000E000D723DD23E323E923EF23F523FB23012497
:1000F00007240D24132419241F2425242B24302401
:1001000035243A243F24442449244E24532458249B
:100110005D24622405010902A10185020901A100F3
:1001200005091901290815002501950875018102A5
:100130000501093009311581257F95027508810671
:1001400009381581257F950175088106050C0A3847
:10015000021581257F950175088106C0C00501093A
:1001600080A101850319012AB700150126B7009562
:100170000175108100C0050C0901A1018504190158
:100180002AA002150126A002950175108100C00564
:10019000010906A101050719E029E71500250195C8
:1001A000087501810295017508810105071900296B
:1001B000FF150026FF009506750881000508190146
:1001C0002905950575019102950175039101C009F5
:1001D000023B00020100A0FA090400000103010132
:1001E00000092111010001224000070581030800D8
:1001F00001090401000103000000092111010001AF
:10020000227B00070582032000011201000200008A
:1002100000084D4436350100010200012C03440062
:1002200061006300740079006C002D004D006100D6
:100230006E00750066006F0072006D0020002800DF
:10024000350078003600290000000E0374007300AA
:1002500068006F00720074000000040309042900A4
:10026000104050064F060440AE002B000500B45D60
:10027000130012003400C65D040018000C000800D2
:100280003600E00031001C001B0037003612000071
:100290000000B35D2F00C05DBB5D00000000E30007
:1002A00009510651E20015040F40AA00A9001140AF
:1002B0000F081A00190007000F000D001D000600AE
:1002C000170016001500110010000E0014000A009F
:1002D0000B000900C65D2C00BF5D30002E00000041
:1002E00000002A000351D45DE3000000000001007B
:1002F00001000100010001000100010014001A00CA
:10030000080015001700E1000400160007000900AE
:100310000A0001001D001B00060019000500000076
:100320000000010031000100010000000000010098
:1003300001000100010001000100010001000100B5
:1003400001001C0018000C00120013002F000B000D
:100350000D000E000F0033003400110010003600B5
:1003600037003800B25D010001000100010000000B
:100370000000010001000100010000000000010078
:100380001E001F00AD002100D35D01003602B85DE4
:10039000ED00BC5DB55D01003702EF00EE00F0003E
:1003A00001000100B75DF9000100FA00B65D000030
:1003B00000003614371401000100000000000100A5
:1003C0000E530100010000004000410042004300C4
:1003D00044001E084B0052004A00000030004A0052
:1003E000500051004F004D00E5002A004E00510022
:1003F0004D004C002800085101000100620000007F
:1004000000000100010001000100000000004600A2
:100410001E001F0020002100220045003A003B0082
:100420003C003D003E0045012A004C0043004400D2
:10043000440245022A014C0228052C003E0100001E
:100440000000E000370101000751000000000A52DF
:10045000015200520D523F0040004100420015047D
:10046000A5002D021E001F00200024142514560094
:1004700021002200230026142714650024002500F3
:100480002600350035022C03010027006300000020
:10049000000001000100010001000000000027161B
:1004A0000100010001000100010039001E022402C8
:1004B000250226022702E10023021F022002210258
:1004C0002202010001000100010072000100000091
:1004D0000000010001000100010000000000000018
:1004E00000000000000001000100520C01000100AA
:1004F0000100D05D4B0152084E01CE5D0000CC5D85
:10050000500051084F00CD5D0000D15D4E05CB5D20
:100510004B05CF5D000001000100D25D6C000000C2
:100520000000000001000000000000000000480181
:10053000010001000100010001000B0114011A017A
:10054000080115011701E100040016010701090166
:100550000A011C011D011B01060119010501000012
:100560000000B25D370107510100000000000100EA
:100570000100010001000100010001000100010073
:1005800001001C0118010C010F01130101000B01F6
:100590000D010E010F01360101001101100136019C
:1005A000370101000100010001005701670100004F
:1005B0000000010001000100010000000000010036
:1005C00001000100010001000100010001004B00D9
:1005D00052004A00010001005008500051004F0035
:1005E0004F080100CA5D4E0051004D002800000078
:1005F00000000000000000000000000000000000FB
:1006000000000100010000000000000000000000E8
:10061000000000001E011F0120010000000000007A
:100620002101220123010000000000002401250116
:10063000E0010000000000000000270100000000B1
:1006400000000000000000000000000000000000AA
:1006500000000000AD003D043E010B0314031A032B
:100660000803150317034C020403160307030903C9
:100670000A032C0300000000060319030503000011
:10068000000000002C080100010000000000000034
:10069000000000000000000000000000000000005A
:1006A0000000000000000C031203130300000B0302
:1006B000000000000000000000000000000000003A
:1006C00037030000000001000100000000000000EE
:1006D00000000000000000000000000000002900F1
:1006E0001E011F012001210122012B000000F20048
:1006F000ED00F1000000E1000000EF00EE00F0006E
:10070000000000000000F9000000FA0000000000F6
:1007100000000000000000002805000000000000AC
:1007200000000000000000000000000000000000C9
:10073000000000004B0352034E03000000000B01B9
:10074000500351034F03000000000000000051035C
:100750000000000000000100000000000000000098
:1007600000000000010001000100000000002D0059
:10077000230024002500260027002F001C001E0057
:100780001F0020000000E10056002100220023008D
:100790003300E000CA5D2400250026003800000078
:1007A0000000000027000000000000000000010021
:1007B0000100010001000000000000000000000036
:1007C00000001F08200821082208230824081E080A
:1007D000500900004F09000026080000000000003A
:1007E0000000000000000000000000000000000009
:1007F00000000000000000000000000000002900D0
:100800001E001F002000210022002B0014001A00EF
:10081000080015001700E100040016000700090099
:100820000A00E0001D001B00060019000500000082
:100830000000340001000100010000000000010080
:10084000010001005000230024002500260027009D
:100850002D001C0018000C00120013002F000B00CC
:100860000D000E000F00330035001100100036009F
:100870003700330035005200010031002E00000027
:10088000000000004F0001005100000000000100C6
:100890001E021F0220022102220201000100381262
:1008A0000100010001000100010001000100010040
:1008B000BA5D0100010001000100330201000000E7
:1008C0000000B35DB25D0100010000000000010006
:1008D0000100010001000100240225022602270276
:1008E0002D020100010001000100010001000100D2
:1008F00001000100010001000100010001000100F0
:1009000001000100010001000100010001000000E0
:1009100000000100010001000100000000000000D3
:1009200000000000000000000000000000000000C7
:1009300000000000000001000000000000000000B6
:100940000000E000000000000000000000000000C7
:100950000000000000000000000000000000000097
:100960000000000000000000000000000000000087
:10097000000000004B1252024E12000000004A120A
:10098000500251024F024D120000000000005102BF
:100990000000000000000000010000000000000056
:1009A0000000000000000000000000000000010046
:1009B000010001000100010001000100010001002F
:1009C000010001000100010001000100010001001F
:1009D0000100010001000100010001000100000010
:1009E00000000100010001002800000000000100DB
:1009F00001000100010001000100010001000100EF
:100A0000010001000100520001000100010001008D
:100A1000500051004F0001000100010001000100E1
:100A200001000100010001000100010001000000BF
:100A300000000100010001000100000000006262EE
:100A4000726167614070726F67692E636F6D0062DB
:100A5000696C6C792E6272616761400020414E447E
:100A600020006B38730020213D20002D3E00203CEB
:100A70003D2000203E3D200070726F7065727469E9
:100A8000657300706970656C696E6500737562737B
:100A90006372697074696F6E0050726F67694F6E30
:100AA000650070726F6769004070726F67692E63CE
:100AB0006F6D0061756A6F757264276875692000D3
:100AC000646F65736E27742000646F65736E27749E
:100AD0002000636F6E6669670062656175636F759C
:100AE000702000612D742D696C2000706F7572711B
:100AF000756F692000612D742D6F6E200070657513
:100B0000782D74752000706575742D01012F657442
:100B10007265200061732D7475200065732D7475E6
:100B200020004573742D6365207175006573742D05
:100B30006365207175004573742D6365207175655B
:100B400020006573742D63652071756520000500B4
:100B500015000A00000005000C001500000004004C
:100B60001100070000000E001600000005002E0016
:100B700000002F0006000000B35D2E0000002F00D3
:100B80002E000000130015001200170016000000D0
:100B9000130008000F0011000000160005001100EE
:100BA00000001300150012001100000013001500D2
:100BB0000A000000040013000600000004000D00FD
:100BC00007000000070012001100000007001200DB
:100BD000170000000600120011000C0000000500C4
:100BE000060013000000040017000C000F000000B6
:100BF00013000E0000000400170012001100000096
:100C00001300170018000000130017000800000070
:100C10000400160017001800000008001600170056
:100C20001800000016001400120013000000160047
:100C30001400120000001600140008000C00000050
:100C40001600140008000000000000000000000072
:100C50000000004001000000000000000000005003
:100C6000000000280100007800000000FE0F008452
:100C7000FFFFFF97000000000000000000000000E0
:100C80002A2B2800000000000000000000000000E7
:100C900000000029000000002C1E372021222436ED
:100CA0002627252E362D3735271E1F2021222324C7
:100CB00025263333362E37231F0405060708090A75
:100CC0000B0C0D0E0F101112131415161718191AFC
:100CD0001B1C1D2635272F2D2F0405060708090A82
:100CE0000B0C0D0E0F101112131415161718191ADC
:100CF0001B1C1D243525304C11241FBECFEFDAE01C
:100D0000DEBFCDBF12E0A0E0B1E0E0E5F2E602C058
:100D100005900D92A835B107D9F723E0A8E5B2E018
:100D200001C01D92A73FB207E1F70E9421110C9468
:100D300026310C940000A0E0B0E0E1EAF6E00C946B
:100D400071307C01FC0143815481618180810E946A
:100D5000532A81110C940F1061E0C7010E94D52223
:100D6000EC0104974A9708F044C0809100018F5F1E
:100D700080930001833008F03FC0E82FF0E0EE0FD1
:100D8000FF1FEE59FD4FD183C0838230A9F58FEF4D
:100D90008093000181E080936102809162029091D2
:100DA0006302449761F480916402909165024497D4
:100DB00031F48091660290916702419711F0109290
:100DC0006102809161028823B9F062E370E08AE2F7
:100DD0000E94152062E370E08AE20E94152062E31F
:100DE00070E08AE20E9415208FEF91E00E94FB2BB9
:100DF00003C08FEF8093000120916002222391F1C4
:100E0000F7018281882331F1CF3BFDE5DF0709F44B
:100E100038C3C932D10509F472C6C63B2DE5D207E5
:100E200029F489E092E00E94FB2B03C08C2F0E94E2
:100E30002D208CE092E00E94FB2BC63B4DE5D407B1
:100E400009F45DC68C2F0E942D2087E192E00E945C
:100E5000FB2B55C6CF3B5DE5D50709F412C31092B5
:100E600060024DC6CC3B8DE5D80709F4B1C108F04E
:100E700045C0C43BEDE5DE0709F468C120F5C0318B
:100E800040E4D40709F4B7C088F4F7019281C43074
:100E9000F0E4DF0709F4D6C0CF3040E4D40709F40A
:100EA0008BC0C53AD10509F067C073C0C23B5DE590
:100EB000D50709F453C108F061C1C13190E4D907E5
:100EC00009F488C059C0C83BEDE5DE0709F470C1DC
:100ED00040F4C63B2DE5D20709F45DC108F451C1C9
:100EE00062C1CA3B5DE5D50709F42BC1F7018281D8
:100EF000CB3BFDE5DF0708F463C1CAC0F70182817F
:100F0000CD3CFDE5DF0709F458C2E8F4C93C4DE5E6
:100F1000D40709F4B4C078F4C03C9DE5D90709F4BE
:100F2000BCC2C63CEDE5DE0709F4FFC0CF3BFDE5E2
:100F3000DF0711F5A6C2CB3C2DE5D20709F497C116
:100F400008F44EC15DC2C13D5DE5D50709F4AFC1EE
:100F500040F4CF3CEDE5DE0709F4CCC108F40DC246
:100F6000ECC1C33D2DE5D20709F4A7C208F46BC25A
:100F7000C43D5DE5D50711F081E0A0C2882329F0CA
:100F800082EE0E94D12D89E081C289E00E943C1F3F
:100F90007DC0992309F4B3C580919A0290919B0278
:100FA000009739F033E0969587953A95E1F7282F29
:100FB000217020935F0281C2992309F47EC2F70158
:100FC000858182958F7011F080E575C262E370E0D3
:100FD0008CEA0EC0F7018281882309F46EC28581F4
:100FE00082958F7011F08FE466C262E370E08BEA45
:100FF0000E94152062C2F7018281882309F45DC234
:10100000858182958F7071F082EE0E94D12D83EEE2
:101010000E94D12D8EE00E942D2083EE0E94B21FEF
:1010200082EE0DC080EE0E94D12D83EE0E94D12D64
:1010300080E50E942D2083EE0E94B21F80EE0E9468
:10104000B21F5DC5992309F438C2F70185818295E5
:101050008F7039F082EE0E94D12D85E10E942D2003
:1010600015C080EE0E94D12D83EE0E94D12D8FE419
:101070000E942D2083EE0E94B21F80EEFFC18823C4
:1010800029F082EE0E94D12D80EC15C282EEF6C1CD
:10109000882339F180915E02882381F080915C027F
:1010A00090915D020E941828883C910538F488E2EE
:1010B0000E94D12D81E080935B020CC08091D00210
:1010C0008095817080935A0280EE0E94D12D85E038
:1010D0000E944E1F0E94332890935D0280935C0211
:1010E000ECC188E20E94B21F80915A02882319F055
:1010F00080EE0E94B21F85E00E943C1F80915B023F
:10110000811110C080915E02882361F080915C02A1
:1011100090915D020E941828883C910518F488E29D
:101120000E942D2010925B02C8C1882329F081EE15
:101130000E94D12D8BE0AAC181EE0E94B21F8BE0EC
:10114000A9C140E050E063E370E046C0F70182814E
:10115000882311F088E337C088E390C1F7018281CA
:10116000882339F081EE0E94D12DC7010E9490148E
:10117000A4C1C7010E94901481EE80C148E150E0F3
:1011800014C0F7018281882309F497C181E192E0BC
:101190000E94FB2B92C1F701828181118EC181E0F7
:1011A000809360028AC14CE250E06FE270E004C0BC
:1011B0004CE250E060E370E0C7010E949E237DC1D5
:1011C000882321F08FE20E94D12D77C18FE256C192
:1011D00045E350E066EE70E0C7010E946D236DC1EB
:1011E000882309F46AC180EE0E94D12D81EE0E940D
:1011F000D12D8CE20E94D12D8CE20E94B21F80EE94
:101200000E94B21F81EE0E94B21F80EE0E94D12D7B
:1012100089E10E94D12D89E10E94B21F80EE0E94D7
:10122000B21F80EE0E94D12D80E50E94D12D80E575
:101230000E94B21F80EE0E94B21F80EE0E94D12D4C
:101240008AE20E94D12D8AE20E94B21F80EE0E94A3
:10125000B21FFFEF24E34CE0F15020404040E1F7A3
:1012600000C0000088E20E94D12D88E207C18823D7
:1012700009F423C183EE0E94D12D8DE10E942D201F
:1012800083EE0E94B21F5FEF81EE94E051508040E8
:101290009040E1F700C0000083E20E942D20EFEFB4
:1012A000F1EE24E0E150F0402040E1F7A5C08823B2
:1012B00009F403C183EE0E94D12D8DE10E942D20FF
:1012C00083EE0E94B21F4FEF51EE84E04150504038
:1012D0008040E1F700C0000082E20E942D209FEFD5
:1012E000E1EEF4E09150E040F040E1F700C0000092
:1012F00080E2E1C0882309F4E0C083EE0E94D12D92
:101300008DE10E942D2083EE0E94B21F2FEF41EE4F
:1013100054E0215040405040E1F700C0000082E21C
:101320000E942D208FEF91EEE4E081509040E0404C
:10133000E1F700C0000081E2BEC0882309F4BDC00F
:1013400083EE0E94D12D8DE10E942D2083EE0E941C
:10135000B21FFFEF21EE44E0F15020404040E1F7A2
:1013600000C0000082E20E942D205FEF81EE94E039
:10137000515080409040E1F762C0882309F49DC03D
:1013800083EE0E94D12D8DE10E942D2083EE0E94DC
:10139000B21FEFEFF1EE24E0E150F0402040E1F722
:1013A00000C0000082E20E942D204FEF51EE84E049
:1013B000415050408040E1F71FC0882309F47DC0B0
:1013C00083EE0E94D12D8DE10E942D2083EE0E949C
:1013D000B21F9FEFE1EEF4E09150E040F040E1F702
:1013E00000C000008EE10E942D202FEF41EE54E05E
:1013F000215040405040E1F700C000008FE15BC049
:10140000882309F45AC083EE0E94D12D8DE10E94F9
:101410002D2083EE0E94B21F8FEF91EEE4E0815009
:101420009040E040E1F700C000008EE10E942D20D6
:10143000FFEF21EE44E0F15020404040E1F700C0D2
:1014400000008EE138C08823C1F183EE0E94D12DC7
:1014500082EE0E94D12D81E50E942D205FEF81EE6A
:1014600094E0515080409040E1F700C0000081E5D9
:101470000E942D2082EE0E94B21F83EE0E94B21FB6
:101480001CC0F7018281882321F082E00E944E1F58
:1014900014C082E00E943C1F10C0882311F083E03A
:1014A000F5CF83E00E943C1F80915F02882329F0E2
:1014B00010925F0285EA0E942D2080E0F701928160
:1014C000992329F191E0CB3BFDE5DF0709F090E09E
:1014D00090935E02882309F412C3C43E2CE5D20720
:1014E000E1F050F4C23E5CE5D507A1F0C33E8CE5C7
:1014F000D807E1F481E016C0C63E9CE5D90789F023
:1015000070F0C13BFDE5DF0789F485E00BC0811178
:101510000DC0F5C21092EF0307C082E003C083E064
:1015200001C084E08093EF030E94562CD7FFCEC009
:10153000F7018281882309F4C9C00E94BB288695DF
:10154000817080936A020E94BB2881708093690237
:101550008091EF03813039F480916A02882319F079
:1015600089E30E942D208091D0028093680210921E
:10157000D0021092F5038091EF03823019F148F404
:101580008823E1F08130C9F560E070E088E193E004
:1015900032C0843049F1853081F560E070E08BE144
:1015A00091E00E94152360E070E085E290E00E94E7
:1015B000152360E070E088E290E01DC082EE0E949A
:1015C000D12D1BC080916902811103C083E50E9467
:1015D0002D2082EE0E94D12D8FE39CE90197F1F737
:1015E00000C0000087E504C086EE0E942D2088E13F
:1015F0000E942D2002C00E941523EFE3FCE93197E1
:10160000F1F700C000006E01E894D7F80CE010E09C
:101610002AE0A22EB12CC601002E02C09695879515
:101620000A94E2F78F709091EF03923069F48A3058
:1016300038F490E00996B5010E94E230875A01C063
:1016400086500E942D2009C096EF980F963010F01A
:10165000805D01C0895A0E949E2B045011090C3FE5
:10166000FFEF1F07C1F68091EF038230F1F028F4FD
:10167000882371F0813081F025C0843009F18530F4
:1016800009F560E070E088E290E00E9415231AC03E
:1016900082EE0E94B21F16C08CE20E942D20809123
:1016A0006A02882379F089E308C082EE0E94B21FA3
:1016B00080916902811106C083E50E942D2002C03D
:1016C00088E2FBCF809168028093D002C43F2CE572
:1016D000D20741F190F4C93D5CE5D507E9F0CA3D78
:1016E0008CE5D80789F1C83D9CE5D907B1F506E23C
:1016F00021EE41EE68ED7CE52CC0C63FECE5DE074F
:10170000E9F0B0F0C73F2CE5D20739F507E225EE46
:1017100046EE67EF7CE51DC007E225EE45EE69ED7C
:101720007CE517C006E221EE40EE64EF7CE511C0D7
:1017300007E225EE44EE65EF7CE50BC006E221EE04
:1017400042EE66EF7CE505C008E221E045EE6AED79
:101750007CE5C7010E94CC28D2C1F7018281882391
:1017600009F490C11092D303C430FDE5DF0758F4AB
:10177000CB3F2CE5D207C0F4CE0182509C45449764
:1017800008F06AC111C0C63A4DE5D40769F030F4DB
:10179000C2368DE5D80709F05FC106C0CE018E5A6A
:1017A0009D45039708F058C10E94E51C90939D0247
:1017B00080939C02C2319CE5D90709F405C108F069
:1017C0004BC0C930FCE5DF0709F4D2C000F5C530D5
:1017D0004CE5D40709F4B9C078F4C3308CE5D807D8
:1017E00009F4AAC008F0AEC0C230DC4509F024C13B
:1017F00080919C028160A3C0C730FCE5DF0709F43B
:10180000AFC008F0B1C080919C02806198C0CD301B
:101810004CE5D40709F4C2C058F4CB308CE5D807A6
:1018200009F4B0C008F0B6C080919C028860A6C0E0
:10183000CF30ECE5DE0709F4BFC008F4B2C0C03118
:101840002CE5D20709F4BCC0C131DC4509F0F4C075
:1018500080919C028F7B73C0C1155DE5D50709F4AB
:10186000BEC088F5CB3F9CE5D90709F472C0B8F437
:10187000C431FCE5DF0709F4C1C008F4ABC0C531D1
:10188000DC4509F0D9C080919C0282FB222720F917
:1018900091E0922790FB82F990FB83F950C0CD3FF5
:1018A0005CE5D50709F481C008F456C0CE3F9CE53D
:1018B000D90709F47DC0CF3FDC4509F0BDC0809158
:1018C0009D0282605DC0C236FDE5DF0709F4A8C055
:1018D00068F4C2304DE5D40709F49CC008F484C014
:1018E000C330DD4509F0A8C060E095C0CE3A9DE563
:1018F000D907F1F058F4C63ADD4509F09DC0809152
:101900009C02982F909590FB80F919C0CF3A2DE555
:10191000D207E1F1C03BDD4509F08EC080919D0208
:1019200083FB222720F991E0922790FB83F982C064
:1019300080919D0288607EC080919C02826080932D
:101940009C027AC080919C0219C080919C028860A0
:10195000F6CF80919D0214C080919D0282606AC082
:1019600080919C028062EBCF80919C028064E7CFE3
:101970000E94801F80919C028068E1CF8460DFCF4D
:10198000816058C080919C028E7FD9CF80919D024A
:10199000877F50C080919C028D7FD1CF80919C0227
:1019A0001CC080919C02877FCACF80919D021AC083
:1019B00080919D028D7F3EC080919C028F7EBFCF23
:1019C00080919C028F7DBBCF0E94801F80919C02E2
:1019D0008F77B5CF80919C02877F8B7FB0CF80912E
:1019E0009D028D7F8E7F26C080919D02982F9095BD
:1019F00091708E7F892B90FB81F91CC00E94801F03
:101A000080919C0287FB222720F991E0922790FB8E
:101A100087F995CF61E08EE090E00E94AE300CC077
:101A200080919C0284FB222720F991E0922790FB71
:101A300084F985CF80939D0260919C02C0919D02A4
:101A400084E090E00E94AE306C2F82E290E00E9431
:101A5000AE300E94801F53C0C631FCE5DF0719F588
:101A60008091D0028A7A91E009F490E090936B0221
:101A7000882311F065E301C069E281ED92E00E94E4
:101A800075280EC0C631DC4509F04BC080916B0251
:101A9000882309F4C2C265E381ED92E00E946828C0
:101AA0000E946B1D2CC0CB355DE5D50711F150F4BC
:101AB000C1159CE5D90779F0CF3DDC4591F50E9431
:101AC000F61C0CC0CD35FDE5DF0759F0A0F0C83A93
:101AD000DD4521F026C00E94F92211C00E94E322B8
:101AE0000EC080919D0282FB882780F991E08927B2
:101AF00003C081E001C080E00E94C41D12C080913B
:101B00002303877009F48BC2F7018281882309F4CB
:101B100086C280919D0282FF82C282E00E94A71D40
:101B20007EC2F701868197810097B9F4F70182811F
:101B3000C081D181882349F0CE010E948B1E182FCD
:101B4000682FCE010E94FF1E04C0CE010E94CC1E51
:101B5000182FBE01812F0E94301B0E94491BEC01EF
:101B6000F7010281D580D2949FE0D922809123038E
:101B70008770B9F00023A9F08D2F807F803421F089
:101B800080E28C0F883068F080919D0282FF09C04E
:101B900082E00E94A71D809123038770CC24C39408
:101BA0008111C12CBD2EB2948FE0B8228B2D90E014
:101BB0008C30910508F0F6C1FC01EA5AFF4F0C94F5
:101BC000F6301D2F1F708D2F807F11F01295107F22
:101BD0000023B9F0112309F4D2C180E28C0F8830C0
:101BE00010F0C11106C08091D002182B1093D002C2
:101BF00005C08091F503182B1093F5030E946B1D0F
:101C0000BEC18C2F0E94B21F112309F4CBC180E208
:101C10008C0F883078F1CC2369F110958091F50311
:101C200018231093F50329C01D2F1F708D2F807F5F
:101C3000803211F01295107FCC2319F0C130D9F108
:101C400049C080919D0282FD1BC0002369F01123D1
:101C500039F08091D002182B1093D0020E946B1D96
:101C600080E00E94D12D9EC180E00E94B21F11230E
:101C700009F498C1812F0E94641D0E946B1D92C1BE
:101C8000002381F080912C03DD2051F0F1E0DF1280
:101C900007C0182B181709F485C110932C0382C1B3
:101CA000812B10C0DD2021F021E0D21609F47AC189
:101CB0000E945E1D27C0002341F042E04D1508F44C
:101CC00071C1812F0E94A81F6DC151E05D1508F4FC
:101CD00069C118C0002349F0DD2099F3F70185811F
:101CE00080FF4DC18F708583ECCFDD2059F0C93363
:101CF00009F055C1FFEF27EE43E0F150204040408E
:101D0000E1F74BC1812F0E94A11F4CC18D2F8695F9
:101D10008695837019F0813059F044C1002319F081
:101D2000CE01937002C080E090E00E94A52840C1DF
:101D3000002319F0CE01937002C080E090E00E9471
:101D40008F2836C18C2F002319F00E94762D02C0F7
:101D50000E94872C0E945D2C2BC18D2F837009F06F
:101D600042C0011123C13C2F329536953770330F95
:101D7000330F8C2F8F7090E0032E02C0880F991FB5
:101D80000A94E2F7C4FF0BC04FE050E002C0440FDA
:101D9000551F3A95E2F79A012095309502C020E050
:101DA00030E04D2F469546954370423099F068F4E7
:101DB00060912D0370912E03413029F0822B932BDB
:101DC0008623972304C0862B972B822B932B0E946C
:101DD0005E1FECC0822B932B20912D0330912E039C
:101DE00082279327F4CF002319F08D2F817001C033
:101DF0008695882309F4DAC03C2F329536953770E2
:101E0000330F330F8C2F8F7090E0032E02C0880F9A
:101E1000991F0A94E2F7C4FF0BC04FE050E002C0E4
:101E2000440F551F3A95E2F79A012095309502C06C
:101E300020E030E04D2F469546954370423079F0D2
:101E4000B8F460919A0270919B02413029F0822B84
:101E5000932B862397230EC0862B972B09C0822BAA
:101E6000932B20919A0230919B028227932702C0E4
:101E7000822B932B0E94331F99C01D2F1F700023AC
:101E800039F0812F0E944E1F8C2F0E94A81F8EC0F8
:101E90008C2F0E94A11F812F0E943C1F87C0C23F30
:101EA00079F128F4C03F41F0C13F29F163C0C33F3D
:101EB00071F1C43FE1F05EC00023A1F051E05D1577
:101EC00008F470C02D2F2F7181E090E002C0880FC0
:101ED000991F2A95E2F720919A0230919B0282275E
:101EE000932725C082E08D1508F45CC0EBCF80916C
:101EF0009D0282FD1FC0002329F08D2F8F712DC000
:101F00000023D9F38D2F8F710E943C1F4BC00023FB
:101F100061F021E030E09D2F9F71F90102C0EE0FCA
:101F2000FF1F9A95E2F7CF0102C080E090E00E9487
:101F3000331F38C00023A1F01D2F1F71812F0E9475
:101F40004E1F80919D0282FF07C0F8E01F9FC001D5
:101F50001124836080932303812F0E944E1F22C08F
:101F600081E00E94A71D21E02D15E0F482E00E948F
:101F7000A71D18C0002329F0DD2009F4BECF8C2F47
:101F800070CEDD2009F4BECFC93349F44FEF57EED0
:101F900083E0415050408040E1F700C000008C2FAA
:101FA0000E94B21F88EF8B0D843010F40E94BB2872
:101FB000CE010E94651F882381F0002319F0D11003
:101FC0000CC00FC0D11009C020E0F7014081518141
:101FD0006281738184810E94B22210926D021092FC
:101FE0006C02CC20A9F08091230380FD11C0F70181
:101FF00012828595859585950E944E1FC7010E9486
:102000009B06809123038595859585950E943C1FAD
:1020100060E0C7010E94D52202C069E23DCDCDB784
:10202000DEB7EAE00C948D30A4E0B0E0EAE1F0E144
:102030000C94773040918302509184026091850224
:10204000709186022FB7F8948091DB039091DC03A6
:10205000A091DD03B091DE032FBF841B950BA60B6F
:10206000B70B84369105A105B10508F441C00E9463
:102070008E19882319F00E9427280EC00E94272855
:10208000009188021091890220918A0230918B027E
:10209000600F711F821F931FDC01CB010296A11DEF
:1020A000B11D89839A83AB83BC8380911201909187
:1020B000130188589D4F4091110150E04530510562
:1020C00010F044E050E0BE016F5F7F4F0E941D3171
:1020D00082E090E00E94EE2F882359F00E9427288A
:1020E00060938302709384028093850290938602AA
:1020F00081E02496E4E00C949330EF92FF921F93DA
:10210000CF93DF93CDB7DEB727970FB6F894DEBF36
:102110000FBECDBF7B0180E090E00E94EE2F8823B0
:1021200009F463C04091040150E04115510511F0DC
:1021300041E050E0609105017091060168587D4FC3
:10214000CE0107960E941D31409174025091750294
:1021500060917602709177022FB7F8948091DB033B
:102160009091DC03A091DD03B091DE032FBF841BAF
:10217000950BA60BB70B84369105A105B10538F474
:1021800089E792E00E94B1149F81891781F181E073
:1021900090E00E94EE2F182F882391F040910C01BF
:1021A00050E04730510510F046E050E060910D01DD
:1021B00070910E0168587D4FCE0101960E941D312D
:1021C00089E792E00E94B11491E02F81281390E0FA
:1021D000192311F10E9427286093740270937502ED
:1021E00080937602909377020CC010E001C011E05A
:1021F00086E0E9E7F2E0DE01119601900D928A9502
:10220000E1F7112349F086E0FE013196AEE6B2E037
:1022100001900D928A95E1F786E0EEE6F2E0D701B3
:1022200001900D928A95E1F7812F27960FB6F894C9
:10223000DEBF0FBECDBFDF91CF911F91FF90EF901A
:102240000895A0E1B0E0E7E2F1E10C946B3085B7CE
:10225000806885BF85B7806885BF84B7877F84BF66
:102260000FB6F894A8958091600088618093600013
:10227000109260000FBE90E080E80FB6F894809353
:102280006100909361000FBE89E499E19093590237
:10229000809358020E94F8170E9417188091E2005C
:1022A00084608093E20078948091C6028823A1F034
:1022B0001091E9001F709091EC00892F817090FDC2
:1022C00080E8182B1092E9008091E80083FD0E94BD
:1022D000F2141F701093E90082E084BD93E095BD75
:1022E0009AEF97BD80936E00109288021092890237
:1022F00010928A0210928B020E948E19809319010B
:102300000E948E1981110E94032F809119018091E2
:102310001901811102C096E001C090E090939902EA
:1023200086E0891B809398020BE112E0D8018D9121
:102330008D018F3F11F00E94B119B2E001321B07ED
:10234000A9F701E212E0F80181918F018F3F11F0AE
:102350000E94B119F2E007321F07A9F78CE0E0EA0A
:10236000F2E0DF01282F1D922A95E9F7ECE8F2E070
:10237000DF011D928A95E9F780E090E00E94A83085
:10238000883E9E4F11F00E94F61C82E090E00E9471
:10239000A0308093CC030E94E51C90939D02809313
:1023A0009C0283E090E00E94A03090E00E945E1FBB
:1023B0008CE090E00E94A03090E0A0E0B0E080933C
:1023C000EF039093F003A093F103B093F2030E9404
:1023D0008E19811102C00E94062F8AE191E090932C
:1023E000D7038093D60308E110E040E4E42EFF24F5
:1023F000F3948091C602853009F042C020E1C22EDC
:1024000032E1D32E8091C602853009F035C080912B
:10241000C602843009F11092DA030FB6F894A89539
:10242000009360000FBEE092600083B7817F8460FC
:1024300083BF83B7816083BF7894889583B78E7F8D
:1024400083BF0FB6F894A89580916000886180934F
:102450006000109260000FBE8091C502882391F247
:102460000E94C819E0EAF2E081918111ACC122E03A
:10247000EC3AF207C9F7C6CF0E94801F0E94BB2822
:102480000E94C8198CEAA82E82E0B82E90EA892E04
:1024900092E0992ED401F50191918D91892732E036
:1024A000E83BF30719F08823B9F322C0811120C05B
:1024B0000E9433286C0180919E0290919F02C81661
:1024C000D90609F44CC08FEF8F83888719860E9444
:1024D00033288160782F9B878A874F81588569854B
:1024E0008B850E946924D0929F02C0929E0237C0C1
:1024F0000E948E19482ED12CD4015D904D01F5011A
:102500006080652419F1C12C77247394862D87216E
:10251000B1F04420A1F0CC86DD8691E0852D8721A5
:1025200009F490E09E870E9433288160782F988B71
:102530008F874C855D856E8588890E946924C39448
:10254000770CF6E0CF12E2CFD5015C92D394BFEFC7
:10255000AB1ABB0AECE0DE12CFCF0E9427280E9404
:102560008E19882361F18091F901882341F18091CE
:10257000C9039091CA03009711F10E941828209175
:10258000F3033091F40328173907C8F49091C70377
:102590008091C803981759F00E94712A1092F40391
:1025A0001092F3031092CA031092C90308C00E944C
:1025B000372B1092CA031092C9030E948D2B86E01C
:1025C000E9EEF3E0DE01119601900D928A95E1F7B4
:1025D0001092EB031092EC031092ED031092EE03B5
:1025E0008B81811104C08C81882309F45DC08091A6
:1025F000E7039091E8030E941828AC019091E3034F
:10260000992339F02091FE0130E02417350758F066
:102610004BC02091CD03FAE02F9F90011124241785
:10262000350718F041C09F3F19F09F5F9093E30377
:10263000DB80DD2061F00E94372D1D1414F09FEF28
:1026400001C091E0899F802D11248093EB03DC80F1
:10265000DD2061F00E94372D1D1414F09FEF01C0A2
:1026600091E0899F802D11248093EC033091EB033E
:102670003323D1F02091EC032223B1F045EB340356
:10268000C0011124992319F09093EB0302C0F0923A
:10269000EB0335EB2303C0011124992319F0909328
:1026A000EC0302C0F092EC038D81811104C08E8195
:1026B000882309F451C08091E5039091E6030E94BC
:1026C00018289C019091E203992309F492C02135C6
:1026D000310508F441C09F3F19F09F5F9093E203DA
:1026E000DD80DD2061F00E94FE2C1D1414F09FEFB0
:1026F00001C091E0899F802D11248093ED03DE803D
:10270000DD2061F00E94FE2C1D1414F09FEF01C02B
:1027100091E0899F802D11248093EE033091ED0389
:102720003323D1F02091EE032223B1F045EB3403A3
:10273000C0011124992319F09093ED0302C0F09287
:10274000ED0335EB2303C0011124992319F0909375
:10275000EE0302C0F092EE0346E050E0BE016F5F70
:102760007F4F89EE93E00E941031892BA9F480916C
:10277000EB0381110FC08091EC0381110BC080919C
:10278000ED03811107C081E09091EE03911103C028
:1027900080E001C081E080FD0E945D2C86E0FE01AA
:1027A0003196A9EEB3E001900D928A95E1F70E946F
:1027B000BB289091B802891709F41BCE8093B80208
:1027C0000E94272816CEC9BCD9BC09B400FEFDCF93
:1027D0008091D8008F7D8093D8008091E000826046
:1027E0008093E0008091E00081FDFCCF0E94801F7B
:1027F00009CE232B09F071CFAFCFA0E0B0E0E3E02A
:10280000F4E10C9471307C015B016A0180918702D4
:102810008A3018F001E010E002C00AE010E0C1E0E8
:10282000D0E0B501C701F6010995811115C02196C7
:102830000C171D0794F0CC9F9001CD9F300D300DEB
:10284000112480E090E045E34A95F1F700000196FD
:1028500082179307C1F7E5CF81E0CDB7DEB7EAE095
:102860000C948D30FF920F931F93CF93DF938C01C5
:102870008AE0F82EF8018491882309F44CC0813055
:1028800009F042C0E8012196FE018491813031F4C3
:102890002196FE0184910E942D2039C0823039F4A6
:1028A000E8012296FE0184910E94D12D30C0833030
:1028B00039F4E8012296FE0184910E94B21F27C0DC
:1028C000843029F5E8012296FE01249180E090E011
:1028D00030E0205331092A30310560F4F89EA00120
:1028E000F99E500D1124C901840F951F2196FE01F8
:1028F0002491EECF009759F0EFE9FFE03197F1F71F
:1029000000C000000197F6CF0E949E2BE8018E01C7
:102910000F5F1F4FAFCFCDB7DEB7E5E00C9492301D
:102920000F931F93CF938C018091D002C82FC17059
:1029300080FF03C080EE0E94B21FF80182818823CD
:1029400021F08FE20E94D12D03C08FE20E94B21FBE
:10295000CC2319F080EE0E94D12DCF911F910F91C1
:102960000895FC01AC014A5F5F4F8FEF91E3219125
:10297000822728E030E087FF03C0880F892701C045
:10298000880F21503109B9F7E417F50781F7089549
:10299000EF92FF920F931F93CF93DF937C018B01F4
:1029A0000E940D27811119C0E70101151105A1F041
:1029B0008091E80085FD0AC08091E8008E778093C1
:1029C000E8000E940D27882381F307C08991809336
:1029D000F10001501109E9CF80E0CDB7DEB7E6E0A4
:1029E0000C949130AAE2B0E0E8EFF4E10C94783076
:1029F000E8ECF2E080ED92E02091F10021938E1757
:102A00009F07D1F78091C902833009F461C030F487
:102A1000813071F0823009F49BC0B2C08A3009F471
:102A200087C08B3009F46CC0893009F0A9C020C080
:102A30008091C802813A09F0A3C08091E800877FA5
:102A40008093E8008091CC029091CD02892B21F4F3
:102A500068E08CEB92E003C060E080E090E070E022
:102A60000E9494278091E8008B778093E80088C0CB
:102A70008091C802813209F083C08091CC0290918C
:102A8000CD02029708F07CC08091E800877F809398
:102A9000E8008091E80082FD05C08091C6028111A6
:102AA000F8CF6EC02091F3008091F20090E0922B5D
:102AB000029731F48091F100813011F0863021F4D9
:102AC0008091F1008093BB028091E8008B7754C025
:102AD0008091C802813A09F053C08091CC02909154
:102AE000CD02892B09F04CC08091E800877F80934C
:102AF000E8008091E80080FFFCCF8091260137C07C
:102B00008091C8028132E1F58091CC029091CD0292
:102B1000892BB1F58091E800877F8093E8000E94BF
:102B200040278091CA02809326010E94801F28C0FE
:102B30008091C802813221F58091E800877F8093DF
:102B4000E8000E9440278091CB028093BA0218C00F
:102B50008091C802813AA1F48091E800877F809338
:102B6000E8008091E80080FFFCCF8091BA0280935A
:102B7000F1008091E8008E778093E8000E94402762
:102B80008091E80083FFCEC18091C8029091C90274
:102B9000492F50E04A30510508F0C4C1FA01EE59FE
:102BA000FF4F0C94F630803821F0823809F0BAC11A
:102BB00008C08091C4029091C502992389F0826077
:102BC0000FC08091CC028F70873008F0ABC180932A
:102BD000E9008091EB0085FB882780F91092E900DD
:102BE0009091E800977F9093E8008093F100109215
:102BF000F10065C1282F2D7F09F094C1882319F0B9
:102C0000823061F08FC18091CA02813009F08AC19F
:102C1000933009F080E08093C5022EC08091CA02F3
:102C200081112AC08091CC028F702FEF280F26309F
:102C300008F078C18093E9002091EB0020FF1CC0D0
:102C4000933021F48091EB00806214C09091EB00EE
:102C500090619093EB0021E030E0A90102C0440FA5
:102C6000551F8A95E2F74093EA001092EA0080919E
:102C7000EB0088608093EB001092E9008091E800FF
:102C8000877F20C181114EC11091CA021F778091A8
:102C9000E3008078812B8093E3008091E800877FB8
:102CA0008093E8000E9440278091E80080FFFCCFDD
:102CB0008091E30080688093E300111102C082E0FC
:102CC00001C083E08093C6022DC18058823008F095
:102CD00029C18091CA029091CB028C3D53E09507A7
:102CE00079F583E08A838AE289834FB7F894DE011D
:102CF000139620E03EE051E2E32FF0E050935700BE
:102D0000E49120FF03C0E295EF703F5FEF708E2FDC
:102D100090E0EA3010F0C79601C0C0968D939D9365
:102D20002F5F243149F74FBF8091E800877F809360
:102D3000E8006AE270E0CE0101960E949427AEC0DE
:102D40004091CC025091CD02292F332723303105F9
:102D5000A9F068F42130310509F4F3C022303105BF
:102D600009F0E0C08BE390E0EFECF1E044C02132E9
:102D7000310521F12232310571F1D4C0992781301A
:102D80009105A1F058F0029709F0CCC0ECE1F2E017
:102D9000E4918E2F90E0ECE1F2E02AC0EAE5F2E067
:102DA000E4918E2F90E0EAE5F2E022C0EAE4F2E05E
:102DB000E4918E2F90E0EAE4F2E01AC0411551054B
:102DC00009F4C4C04130510509F0ACC089E090E07D
:102DD000EAEFF1E010C04115510509F4BCC04130E3
:102DE000510509F09FC08BE790E0E4E1F1E003C0FA
:102DF000009709F497C02091E800277F2093E8000E
:102E00002091CE023091CF028217930708F49C01E3
:102E100040E02115310589F18091C602882309F42B
:102E20003DC08530D9F18091E80083FD37C08091A5
:102E3000E80082FD2FC08091E80080FFEACF40913A
:102E4000F3008091F20090E0942B2115310559F0A8
:102E50008830910540F444914093F100319621501F
:102E600031090196F2CF41E0089709F040E08091E6
:102E7000E8008E778093E800CCCF4111CDCF0AC017
:102E80008091C602882351F0853041F08091E8009E
:102E900083FD04C08091E80082FFF2CF8091E800BA
:102EA0008B778093E8003EC08038E1F58091E800A0
:102EB000877F8093E8008091C7028093F100809122
:102EC000E8008E778093E8000E9440272BC0811194
:102ED00029C08091CA029091CB029927029714F5DC
:102EE0008091E800877F8093E8001091CA021093D8
:102EF000C7020E944027111106C08091E30087FDA0
:102F000002C081E001C084E08093C60242E061EC2F
:102F100081E00E945F2742E261EC82E00E945F272D
:102F20008091C6028091E80083FF1AC08091E8007A
:102F3000877F8093E8008091EB0080628093EB00B4
:102F40000FC082E190E0EAE0F2E055CF89E090E046
:102F5000E1EEF1E050CF80E490E0EFE8F1E04BCF1C
:102F6000AA96E3E00C9494301F920F920FB60F9242
:102F700011242F933F934F935F936F937F938F937E
:102F80009F93AF93BF93CF93DF93EF93FF93C09142
:102F9000E900CF708091EC00D82FD17080FDD0E88F
:102FA0001092E9008091F000877F8093F000789480
:102FB0000E94F2141092E9008091F00088608093E2
:102FC000F000CD2BCF70C093E900FF91EF91DF911E
:102FD000CF91BF91AF919F918F917F916F915F91B1
:102FE0004F913F912F910F900FBE0F901F9018950A
:102FF000E8EDF0E080818E7F80831092E2001092F5
:10300000DA001092E100A0EEB0E08C9181608C9328
:1030100080818F77808319BCA7EDB0E08C918E7F83
:103020008C9380818F7E80831092B9020895A0E0F6
:10303000B0E0EDE1F8E10C947330C8EDD0E08881A8
:103040008F7E8883E7EDF0E080818160808384E07B
:1030500082BF81E08093B90288818E7F888302EEEF
:1030600010E0F80110821092DA0081EEC82ED12C07
:10307000F601108288818F778883888180688883B1
:1030800088818F7D888319BC1092C6021092C70276
:103090001092C5021092C40290EEE92EF12CF701B5
:1030A00080818B7F808388818160888342E060E0BB
:1030B00080E00E945F27F60180818E7F8083F80187
:1030C000808181608083808188608083F701808136
:1030D0008E7F8083888180618883CDB7DEB7E8E00A
:1030E0000C948F301F920F920FB60F9211242F93D2
:1030F0003F934F935F936F937F938F939F93AF9380
:10310000BF93EF93FF938091E10082FF09C080910C
:10311000E20082FF05C08091E1008B7F8093E10097
:103120008091DA0080FF2AC08091D80080FF26C0FD
:103130008091DA008E7F8093DA008091D90080FF41
:1031400018C080E189BD82E189BD09B400FEFDCFD0
:1031500081E08093C6028091B90281110FC00E9464
:10316000F8170E9417188091E20084608093E200B3
:1031700005C019BC1092C6021092B9028091E100FC
:1031800080FF17C08091E20080FF13C08091E200B1
:103190008E7F8093E2008091E20080618093E20064
:1031A0008091D80080628093D80019BC85E080931C
:1031B000C6028091E10084FF30C08091E20084FF6C
:1031C0002CC080E189BD82E189BD09B400FEFDCF3C
:1031D0008091D8008F7D8093D8008091E1008F7E10
:1031E0008093E1008091E2008F7E8093E2008091E5
:1031F000E20081608093E2008091C702882311F091
:1032000084E007C08091E30087FD02C081E001C037
:1032100083E08093C6028091C6028091E10083FF23
:1032200027C08091E20083FF23C08091E100877F67
:103230008093E10082E08093C6021092C7028091E1
:10324000E1008E7F8093E1008091E2008E7F809389
:10325000E2008091E20080618093E20042E060E061
:1032600080E00E945F278091F00088608093F000EA
:10327000FF91EF91BF91AF919F918F917F916F914E
:103280005F914F913F912F910F900FBE0F901F9024
:10329000189580E0089590919C0292FF0DC0282F10
:1032A0002871283019F4877F846006C0282F247184
:1032B000243011F48B7F886093FF0DC0282F287174
:1032C000283119F4877E846106C0282F24712431A7
:1032D00011F48B7E886120919D0220FF0DC0382F54
:1032E0003871383019F4877F816006C0382F31710A
:1032F000313011F48E7F886021FF0DC0282F287196
:10330000283119F4877E816106C0282F217121316F
:1033100011F48E7E886194FD877E08958091390333
:10332000811118C08091D80080618093D8008AE113
:103330008A95F1F700C08091D90080FD02C082E03B
:1033400001C081E080933903823021F40E94F81794
:103350001092C60281E090913903913009F080E02B
:103360000895F894E82FE295EF70F0E031A1282F4E
:103370002F7081E090E001C0880F2A95EAF7982F1E
:103380009095932391A392A1892B82A37894089579
:10339000A2E1B0E0EEECF9E10C946C30AE014F5FCD
:1033A0005F4F7A018CE0DA011D928A95E9F70BE113
:1033B00012E06A0181E2682E82E0782EAA24A394AA
:1033C000B12C27E2822E22E0922EF80180818F3FDD
:1033D00009F440C0F894E82FE295EF70F0E021A1E5
:1033E0008F70A50102C0440F551F8A95E2F7CA01EC
:1033F000922F982B91A392A18095892382A37894F0
:1034000000C0E1E2F2E0512C31E021912F3F89F040
:10341000A22FA295AF70B0E090968C9190E02F70A3
:1034200002C0959587952A95E2F780FD02C0832F0B
:1034300001C080E0582A330F8E169F0631F7D8015D
:103440008C918F3F11F00E94B119B0EABA95F1F753
:10345000F60150820F5F1F4FFFEFCF1ADF0A601691
:10346000710609F0B2CF4CE050E0B7018CE892E071
:103470000E941031009741F02CE0F701ACE8B2E077
:1034800001900D922A95E1F700919902892B49F05C
:1034900081E0809331030E9433289093300380931E
:1034A0002F0380913103811102C0F12C22C0809141
:1034B0002F03909130030E9418280597B0F310E075
:1034C00000561D4F46E050E06CE872E0C8010E94D3
:1034D0001031892B59F086E0ECE8F2E0D801019038
:1034E0000D928A95E1F7FF24F39401C0F12C10921C
:1034F00031030E948E19E0919902882309F458C083
:103500006E012DE0C20ED11C86E0D6011D928A9577
:10351000E9F70E2F10E000561D4F809187028A3088
:1035200048F44DE750E1B601C8010E94FD1388231D
:1035300099F00AC080913203909133030E941828B9
:10354000843F914070F71AC044E150E1B601C801D0
:103550000E94FD13811171C0809187028F3F19F085
:103560008F5F80938702809187028A3008F467C05A
:103570000E94332890933303809332038091380361
:10358000882309F454C086E0F60111928A95E9F780
:1035900010923803A0919802B0E0A056BD4F86E08B
:1035A000FE013D9601900D928A95E1F781E040C0C1
:1035B000F0E0E056FD4F86E0A9E7B2E001900D9201
:1035C0008A95E1F789E792E00E94B114809378022E
:1035D00080907F0290908002A0908102B090820241
:1035E0008091340390913503A0913603B091370355
:1035F00088169906AA06BB06D1F0809234039092F1
:103600003503A0923603B09237030E948E198111C0
:103610000EC00E942728861A970AA80AB90A809223
:10362000880290928902A0928A02B0928B0280E076
:103630008F296296EFE00C94883010928702809177
:10364000980290E046E050E0B60180569D4F0E94FF
:10365000103121E020933803892B09F09BCFE7CF6D
:103660007C30A0F4663090F498E4899FF001112436
:1036700086E0789FE00DF11D1124E60FF11DEE0F9D
:10368000FF1FE25AFD4F85919491089580E090E0EC
:103690000895CF93DF938238910569F1B0F48133B7
:1036A000910509F477C048F48932910509F469C09D
:1036B0008A32910509F473C092C08533910509F4EB
:1036C0005BC089339105B9F08AC0833E910591F1C1
:1036D00038F4803E9105D1F0823E910531F17FC0F2
:1036E000863E9105D9F1873E9105E9F1843E910529
:1036F00009F075C028C020919C0220FD5BC021FD0F
:1037000059C020919D0223FD61C069C080919C0237
:1037100080FD4AC080919D0280FF4CC080919C0238
:1037200084FD4EC183EE90E04DC180919C0282FFEA
:103730003EC0F4CF80919C0282FD39C080919D02F1
:1037400080FD38C0EBCF80919D0281FF39C0809110
:103750009C0284FD35C187EE90E034C180919C02CB
:1037600083FF2BC0F4CF80919C0283FD26C0809103
:103770009D0281FD25C0EBCF80919C0285FD26C076
:1037800022C080919C0285FD1EC080919D0283FF16
:103790001DC00AC080919C0286FD1BC01DC0809187
:1037A0009C0286FD19C015C089E390E00BC182EE32
:1037B00090E008C180EE90E005C186EE90E002C185
:1037C00084EE90E0FFC085E390E0FCC089E290E0E9
:1037D000F9C08AE290E0F6C081E390E0F3C0811581
:1037E00031E5930708F061C0811520E59207B0F03C
:1037F0009C012370332741E050E002C0440F551F65
:103800002A95E2F7282F2695269580E2289F900199
:103810001124CA01822B932B9D68D4C0883E910548
:1038200068F5803E910508F0CDC0883A9105B8F45E
:10383000853A910548F0855AE82FF0E0E95DFD4FA3
:10384000808190E09064BEC08130910509F4B5C0DC
:1038500008F4B6C08430910508F4B2C0B3C08F3B01
:10386000910508F0ADC0885AE82FF0E0EE0FFF1F79
:10387000E65DFD4F808191819464A4C0811530E2A2
:10388000930758F4811521E0920708F09BC08D3E04
:10389000910508F495C0906595C0811530E49307B3
:1038A00008F48EC09F70906A8DC0811525E592073F
:1038B00008F042C0811534E5930728F0982F882737
:1038C000846F906A7FC0811523E59207B0F09C0158
:1038D0002370332741E050E002C0440F551F2A9562
:1038E000E2F7282F2695269580E2289F9001112443
:1038F000CA01822B932B9A6865C0811532E5930724
:1039000028F4982F8827816F906A5CC09C012370EF
:10391000332741E050E002C0440F551F2A95E2F7DB
:10392000282F2695269580E2289F90011124CA0110
:10393000822B932B9C6846C0EC01C11589E5D80702
:10394000B0F4C11528E5D20728F09C2F8827806F96
:10395000906A38C0C11536E5D30790F58C2F0E94C8
:103960004B198F7190E0982F882790622BC0C1155A
:103970008AE5D80790F48C2F8F700E944B1994E041
:10398000D695C7959A95E1F7CF70D0E0DC2FCC277C
:10399000D0699E01282BC90115C0CE019056811512
:1039A000904270F48D2F8F710E944B19282F2F7128
:1039B000CE0199279062922B05C081E090E002C071
:1039C00080E090E0DF91CF910895CF9384E090E084
:1039D0000E94A030C82F82E290E00E94A0302C2FDD
:1039E00030E0A901582BCA01CF91089568EE7EEF0F
:1039F00080E090E00E94CC3060E082E090E00E94A5
:103A0000AE3060E083E090E00E94AE3010922E0372
:103A100010922D0360E084E090E00E94AE3064E0FC
:103A200082E290E00E94AE3060E085E090E00E948B
:103A3000AE3060E086E090E00E94AE306FEF87E04D
:103A400090E00E94AE3040E050E0BA0188E090E0A3
:103A50000E94C03060E08DE090E00E94AE3040E017
:103A600050E0BA0188E190E00E94C03060E087E158
:103A700090E00E94AE3040E050E0BA018CE190E06E
:103A80000E94C03060E070E080E290E00E94CC30A4
:103A900040E050E0BA0188E190E00E94C03040E090
:103AA00050E0BA018FE090E00E94C03040E050E06A
:103AB000BA0183E190E00E94C030089580912C0308
:103AC000811110922C03089580959091D002892342
:103AD0008093D00208959091D0028091F503982BA5
:103AE0009093D10280912C03882389F0892B8093B5
:103AF000D102E3EDF2E097E080E0915029F02191CE
:103B00002223D9F38F5FF9CF81110E945E1D48E017
:103B100050E064E273E081ED92E00E941031892B65
:103B2000A9F088E0E1EDF2E0A4E2B3E001900D92AB
:103B30008A95E1F7E091D603F091D703309731F001
:103B40000280F381E02D81ED92E0099508952091A6
:103B500023038095822380932303982F977099F4F1
:103B600030E0482F082E000C550B2417350759F06C
:103B700090919D0292FF07C08595859585950E943D
:103B80003C1F109223030895CF93C0919D02C2FB66
:103B9000992790F9981791F080FBC2F9C0939D0284
:103BA00060919C0284E090E00E94AE306C2F82E233
:103BB00090E00E94AE3082E00E94A71DCF91089550
:103BC000209122039091E1022917B1F030E0F90130
:103BD00053E0EE0FFF1F5A95E1F7EE51FD4F518173
:103BE000561306C05081581303C05281541306C0A7
:103BF0002F5F3F4F2770E8CF80E0089581E0089560
:103C0000809122039091E102891719F08F5F8770EC
:103C1000FBCF0895EF92FF920F931F93CF93DF9303
:103C20008091DE0282958F7009F054C08091DB0292
:103C3000882309F44FC0C0912203E090E102D091A3
:103C4000D902F090DA020091DC021091DD02CE156B
:103C500009F440C0A8016F2D8D2F0E94532A2C2FEC
:103C600030E0811132C0F90183E0EE0FFF1F8A9529
:103C7000E1F7DF01AE51BD4F11968C9111978F1175
:103C800024C08C918D1321C012968C9112978111B2
:103C90001CC013968D919C911497801B910B883CAE
:103CA000910598F48091DE028F7080618093DE022E
:103CB000E951FD4F80818F708061808389ED92E0B2
:103CC0000E949B060E94001E05C02F5F3F4FC22F1F
:103CD000C770BDCFCDB7DEB7E6E00C94913080E081
:103CE00090E00E94A52880E090E00E948F2810922A
:103CF000F5030E946B1DE9EEF3E086E0DF011D9203
:103D00008A95E9F71092E3031092E2031092E4031C
:103D10000E945D2C0895A0E0B0E0E1E9FEE10C9482
:103D200072307C0100919A0210919B0280912D03C8
:103D300090912E03082B192BCFE0D0E0CC24C39414
:103D4000D12CC6010C2E02C0880F991F0A94E2F7ED
:103D500080239123892B21F4219798F7B12C09C056
:103D6000BC2EB7018C2F0E94301B0E94491B01976B
:103D700099F38B2DCDB7DEB7E9E00C948E30CF935D
:103D8000DF93EC010E948B1EBE010E94301B0E943B
:103D9000491BDF91CF9108959C3078F5863068F506
:103DA000E82FF0E086E0989FE00DF11D11249E2F92
:103DB000977083E0F695E7958A95E1F7EE0FFF1F80
:103DC000EE0FFF1FE65CFC4F40E050E080E02191E9
:103DD00030E0092E02C0369527950A94E2F721704B
:103DE0003327042E01C0220F0A94EAF7822B4F5F7B
:103DF0005F4F4430510559F7089580E008959C3095
:103E000088F5863078F5E82FF0E086E0989FE00DA1
:103E1000F11D11248E2F877051E001C0550F8A9536
:103E2000EAF783E0F695E7958A95E1F7EE0FFF1F35
:103E3000EE0FFF1FE65CFC4F20E030E070E04081B9
:103E4000CB01022E02C0969587950A94E2F7817005
:103E5000819584278523842781932F5F3F4F2430CA
:103E6000310569F708950E945A2390939B0280932D
:103E70009A020E946F1E089521E030E002C0220FD6
:103E8000331F8A95E2F72095309580919A029091A0
:103E90009B02822393230E94331F089521E030E088
:103EA00002C0220F331F8A95E2F780919A02909107
:103EB0009B02822B932B0E94331F089590932E0315
:103EC00080932D030E946F1E089592959F709630E7
:103ED00079F010F4925001C09A50923068F4803F0B
:103EE00069F018F4883E40F409C0843F29F406C004
:103EF000883E20F0813F11F080E0089581E0089530
:103F00001092D00286E0E3EDF2E0DF011D928A9587
:103F1000E9F70E946F1E0895882341F080959091E3
:103F2000F50389238093F5030E946B1D0895882370
:103F300039F09091F503892B8093F5030E946B1D56
:103F40000895882321F00E94641D0E946B1D08952E
:103F5000882339F09091D002892B8093D0020E945F
:103F60006B1D0895882309F45FC0823869F40E94AC
:103F7000BB2881FF59C069E381ED92E00E9475285A
:103F80000E946B1D69E30EC0833899F40E94BB2820
:103F900080FF4AC063E581ED92E00E9475280E948F
:103FA0006B1D63E581ED92E00E9468280E946B1D05
:103FB0000895843869F40E94BB2882FF35C067E405
:103FC00081ED92E00E9475280E946B1D67E4EACFA4
:103FD0009CEF980F913A10F4682FE4CF90E2980F7D
:103FE000983050F4877091E001C0990F8A95EAF7F4
:103FF000892F0E94641DDACF9BE5980F933028F437
:1040000080E090E00E94A528089598E5980F9731E8
:1040100028F480E090E00E948F2808958D3E20F0E3
:104020000E94872C0E945D2C08951F93CF93DF93ED
:10403000182FEB010E94D12D209741F08FE99FE0CE
:104040000197F1F700C000002197F6CF812F0E9461
:10405000B21FDF91CF911F910895893319F060E06D
:1040600070E002C060E570E00E9415200895CF93D3
:10407000DF93EC014B815C81698188810E94532A26
:1040800081110EC08E819F81009719F00E94491BFB
:1040900004C0888199810E94BF1E0E94651F01C0D3
:1040A00080E0DF91CF910895A5E1B0E0EAE5F0E28C
:1040B0000C946A308C0185E0F801DE015196019084
:1040C0000D928A95E1F7D8011296EC9089EDA82E11
:1040D00082E0B82E5090D9024090DA028090DC0243
:1040E0009090DD02A401642D852D0E94532AF82EA4
:1040F000811174C1F80170806180C380D4803090D8
:10410000DB02960128193909332009F419C180917D
:10411000DE02982F907F283C310508F0D3C0911122
:1041200079C046101AC0571018C04091DF02509154
:10413000E002268137814217530779F4E1100DC060
:104140008F7080618093DE02C5010E949B06809182
:10415000DE02D80115968C935DC1A601662D872DD0
:104160000E94532AD82E811103C081E08E2502C0FF
:1041700080E090E080FF07C04E2D662D872D0E94C5
:10418000E01D81113EC0D11003C081E08E2502C028
:1041900080E090E0B82FB170DB2E80FF2AC04E2D5A
:1041A000662D872D0E94E01DC82E811122C0798ABC
:1041B0006A8A89899A890E94BF1E292F22952F70A9
:1041C000223018F0243078F405C09F7049F0811136
:1041D00007C00DC09F7021F0F8019581907F39F0E4
:1041E000805E883020F0C8010E949B06CD2CFC2CFC
:1041F00011C1EE2009F40DC18091DE02816080932F
:10420000DE0289ED92E00E949B06E9EDF2E088E093
:10421000DF01E0C046101BC0571019C04091DF02FB
:104220005091E002F801268137814217530779F453
:10423000E1100DC08583C8010E949B0688E0F8014B
:10424000A9EDB2E001900D928A95E1F759C0C8013D
:104250000E943720882381F1EE2071F12091DE0247
:10426000822F82958F7090E00297A4F08091D902FE
:104270009091DA029A8789871B86DD86CC862E8705
:104280008091DF029091E002988B8F87CE01099692
:104290000E949B0688E0F801A9EDB2E001900D9222
:1042A0008A95E1F70E940A1E0AC0461491F0C801DF
:1042B0000E943720811126C0C8010E949B06FF245E
:1042C000F394A8C09111F1CF89ED92E00E949B0672
:1042D0007FC05710ECCF4091DF025091E002F8010F
:1042E000268137814217530711F7E110E0CF85830C
:1042F000C8010E949B0688E0D5011D928A95E9F7C6
:10430000F32C88C0EE20C1F22091DE02822F82952C
:104310008F7090E002970CF4BDCF8091D9029091FC
:10432000DA029A8389831B82DD82CC822E8380917C
:10433000DF029091E00298878F83CE010196A8CF8B
:10434000283C310508F044C0FE2CEE2009F4B4CF1F
:10435000461030C057102EC02091DF023091E0028D
:10436000F801868197812817390721F59091DE029F
:1043700090FD17C0892F82958F70282F30E021156E
:10438000310579F095832F30310541F08F5F982FFB
:104390009295907F85818F70892B8583C8010E94BB
:1043A0009B0688E0F801A9EDB2E001900D928A9594
:1043B000E1F730C0C8010E94372081116BCF809196
:1043C000DE0281608093DE02C8010E949B0622C04B
:1043D00088E0D5011D928A95E9F71CC0EE2009F40A
:1043E0006BCFC8010E943720F82E882309F464CFD0
:1043F00088E0F801A9EDB2E001900D928A95E1F70D
:104400008091D9029091DA020E94BF1E0E940A1E7A
:1044100001C0F12C8F2D6596E1E10C948630A0E16E
:10442000B0E0E5E1F2E20C94753029873A874B87DA
:104430005C876D877E878F87988BCE0109960E9457
:10444000542081114AC088E0FE013996DE011196A0
:1044500001900D928A95E1F7E984FA840C851D8517
:10446000A8016F2D8E2D0E94532A811136C0A09174
:10447000E102B0E0CD0101968770992720912203D7
:1044800030E08217930781F1E982FA821D830C8361
:1044900093E0AA0FBB1F9A95E1F7AE51BD4F98E08C
:1044A000FE01319601900D929A95E1F78093E10219
:1044B0000E94001E12C028E0829FC00111248E516C
:1044C0009D4F0E9454208823E1F08091220390E0C8
:1044D00001968770992780932203809122039091FF
:1044E000E1028913E8CF0DC00E94801F1092E10203
:1044F00010922203E9EDF2E088E0DF011D928A9537
:10450000E9F76096E6E00C9491309C013A9521150C
:104510003F4130F5BC0166277270AC0144275470EE
:104520009C012227387094FF0FC090FF02C080E1E9
:1045300001C080E0672B09F08062452B09F08064A0
:10454000232B79F080680895892F8170672B09F0FB
:104550008260452B09F08460232B19F08860089550
:1045600080E00895A5E0B0E0E8EBF2E20C9478304A
:1045700049835A8389819A81662359F0222349F01D
:104580000E948B1E182F682F89819A810E94FF1E1E
:1045900003C00E94CC1E182F69817A81812F0E944E
:1045A000301B2596E3E00C949430FC0186819781C2
:1045B000009741F4262F408151816281738184816B
:1045C0000E94B22208950E94801F2FEF84E39CE096
:1045D000215080409040E1F700C000009AE088E15F
:1045E0000FB6F894A895809360000FBE909360007A
:1045F000FFCF0E94801F2FEF84E39CE0215080407A
:104600009040E1F700C0000087E797E7909301082A
:10461000809300089AE088E10FB6F894A8958093FB
:1046200060000FBE90936000FFCFEF92FF920F9358
:104630001F93CF93DF93EC018B017C0180EEE81A8E
:10464000F10898E0E916F10410F0209731F4CE015A
:104650000E9485220E94A81F05C0CE010E948522CB
:104660000E94971F8C2F0E94D12D0115110549F032
:104670008FE99FE00197F1F700C000000150110998
:10468000F4CF8C2F0E94B21F98E0E916F10410F0CD
:10469000209731F4CE010E9485220E94A11F05C0FF
:1046A000CE010E9485220E948C1FCDB7DEB7E6E0C6
:1046B0000C9491309C012C7033272C30310511F46F
:1046C000806101C08F7E9C01247038702430384096
:1046D00011F4906108959F7E0895EF92FF920F93D9
:1046E0001F93CF93DF937C01162FEA018091D002B4
:1046F000082F027081FF03C081EE0E94B21FF701F4
:104700008281882349F0812F0E94D12D209761F06A
:104710008C2F0E94D12D08C0812F0E94B21F20979C
:1047200019F08C2F0E94B21F002319F081EE0E9415
:10473000D12DCDB7DEB7E6E00C9491300F931F93E7
:10474000CF938C01C42FAB0166EE70E00E946D2305
:10475000F8018281811106C08C2F0E94D12D8C2FEF
:104760000E94B21FCF911F910F9108958E31910534
:1047700008F0AEC0FC01E459FF4F0C94F6306623FC
:1047800009F4A6C082E49BE0A1C0662309F4A0C09E
:1047900086E39BE09BC0662309F49AC08CE29BE011
:1047A00095C0662309F494C082E29BE08FC0662323
:1047B00009F48EC08BE19BE089C0662309F488C0B0
:1047C00084E19BE083C0662309F482C086E09BE01D
:1047D0007DC0662309F47CC08DEF9AE077C0662324
:1047E00009F476C085EF9AE071C0662309F470C0C1
:1047F0008BEE9AE06BC0662309F46AC083EE9AE000
:1048000065C0662309F464C089ED9AE05FC0662341
:1048100009F45EC082ED9AE059C0662309F458C0DD
:1048200089EC9AE053C0662309F452C080EC9AE008
:104830004DC0662309F44CC083EB9AE047C0662361
:1048400009F446C088EA9AE041C0662309F440C0F2
:1048500082EA9AE03BC06623D9F189E99AE036C042
:104860006623B1F18CE89AE031C0662389F183E8D0
:104870009AE02CC0662361F188E79AE027C066239E
:1048800039F183E79AE022C0662311F18EE69AE0BF
:104890001DC06623E9F08BE69AE018C06623C1F0DC
:1048A00086E69AE013C0662399F082E69AE00EC08D
:1048B000662371F08CE59AE009C0662349F08FE425
:1048C0009AE004C0662321F08EE39AE00E9432143D
:1048D0000895ABE1B0E0EFE6F4E20C946930942F78
:1048E000498B252F5A8B6B8B7C8B8D8B4C895D89EB
:1048F000622F892F0E94532A811109C080916C0276
:1049000090916D02019690936D0280936C028B8959
:1049100081111092F5038E01075F1F4F88E0F801A7
:1049200011928A95E9F785E0FE017196D801019010
:104930000D928A95E1F74C855D856A8589850E948F
:10494000532A8111D8C161E0C8010E94D5225C01BF
:10495000883FFCE59F0739F48B858823A1F081E02F
:104960008093F901C8C1893F2CE5920731F48B850A
:10497000882349F00E94622ABEC18A3F9C4519F4EF
:104980008B85811111C007E211E0712CC12CD12C53
:1049900088248394912C55245394CE0101969F8BA7
:1049A0008E8B77E0472E38C08091F9018823B9F2C9
:1049B000E1CFFFEFEF16FF0609F44BC1F801648168
:1049C000611145C02091F901822F81706B84F8013B
:1049D00035812681662009F4DCC0882309F4D9C01A
:1049E0003323C1F1940102C0220F331F9A95E2F7DD
:1049F00021503109F801868190E02817390709F420
:104A000040C07628FFEFCF1ADF0A095F1F4F2EE163
:104A1000C216D10409F41FC1F801208131816FEF62
:104A20008FEF90E0E92EF12CF701EE0FFF1FE20F60
:104A3000F31F45915491A416B50611F0E62EF82EF9
:104A4000452B09F4B6CF9F5F6E2D8F2DEBCF20E065
:104A500030E0BACFA4010E2C01C0440F0A94EAF74B
:104A6000242B26832091F3033091F4032233310564
:104A700008F0B8CF22E330E03093F4032093F3033F
:104A8000B1CF8091C9039091CA03009729F00E9489
:104A90001828C39708F02CC18091C703B091C803B0
:104AA000982FE0E0F0E08B1709F45FC0282F30E08A
:104AB000F901EE0FFF1FE154FC4FE080F1804E9CA6
:104AC000F0014F9CF00D1124E95DFE4F40814A8FAB
:104AD00041814B8FA0E060E070E0EA8DFB8DE70F35
:104AE000F11DE70FF11D2590349021143104D1F010
:104AF000F801F081F88FF801F181F98F60E0E88D1D
:104B0000F98DE60FF11DE60FF11D45915491411508
:104B1000510531F02416350609F4A1E06F5FEFCF9F
:104B20007F5FDBCFAA23D1F0671708F4DBC04E9C70
:104B3000F0014F9CF00D1124E95DFE4F309781F09C
:104B40005482E017F10719F49093C7035ACF8913E1
:104B500007C0C9010196982F937002C0E0E0F0E011
:104B60002F5F3F4F822F83709ECF9093C703E01734
:104B7000F10709F446CF90E0FC01EE0FFF1FE1546E
:104B8000FC4FD182C0820196837099278093C8031D
:104B900038CF311114C0A40102C0440F551F9A959B
:104BA000E2F74150510930E04217530709F043C082
:104BB000662309F441C0C6010E94092B3CC0822F24
:104BC00090E09C0121503109282339230E2C02C08A
:104BD000959587950A94E2F7232B59F580FF29C014
:104BE000F80182819381892BE1F088E0EE89FF89C9
:104BF00011928A95E9F78EEF89838A830E94332880
:104C00008160582F9D838C83F801828193818F83EB
:104C1000988729813A814B816D817E810E940F2284
:104C200004C060E0C6010E94B623F801158281E04D
:104C300003C0817001C080E094010E2C01C0220FDE
:104C40000A94EAF72095F801968129232683682E95
:104C5000D8CE612CD6CE8B85882381F1772071F157
:104C60000E9433289093CA038093C90380915E0306
:104C7000883008F04AC091E0980F90935E0398E066
:104C8000FE013996DE01119601900D929A95E1F799
:104C90004CE0849FC0011124815A9C4F28E0FE0102
:104CA0003196DC0101900D922A95E1F72FEF3FEF4D
:104CB000FC0131872087B386A28627C09091C70365
:104CC0008091C803981719F00E94712A08C00E94A9
:104CD000372B1092CA031092C9030E948D2B7720A4
:104CE00051F013C00115110509F438CF9093C70393
:104CF000F801548286CE29853A854B855C856D8581
:104D00007E858F8598890E940F226B96E2E10C9434
:104D1000853008958091BB0208958093DF037093DE
:104D2000E1036093E0038091C602843001F582E0E4
:104D30008093E9008FEF9091E800815095FD06C0C7
:104D400095ED9A95F1F700008111F5CF8091E8007B
:104D500085FF0DC040E050E063E070E08FED93E030
:104D60000E94C8148091E8008E778093E80008952F
:104D7000BC0184E00E948D260895BC0183E00E945E
:104D80008D26089522E02093E9002FEF3091E8006E
:104D9000215035FD06C035ED3A95F1F7000021119F
:104DA000F5CF2091E80025FF0BC040E050E066E021
:104DB00070E00E94C8148091E8008E778093E8002C
:104DC0000895CF93DF9321E02093E9002FEF3091F6
:104DD000E800215035FD06C035ED3A95F1F70000A9
:104DE0002111F5CF2091E80025FF14C0EC0140E02F
:104DF00050E068E070E00E94C8148091E8008E776F
:104E00008093E80088E0FE01ACEBB2E001900D92E7
:104E10008A95E1F7DF91CF9108952091E4003091D8
:104E2000E50095E64091EC00842F817040FF23C09F
:104E30008091E80080FD1DC08091C602882399F012
:104E4000853099F08091EB0085FD11C04091E40020
:104E50005091E5002417350729F3915011F09A017C
:104E6000E1CF84E0089582E0089583E0089581E031
:104E7000089580E008954091E80042FFDDCF089555
:104E80008091C80287FF11C08091E80082FD05C0B3
:104E90008091C6028111F8CF11C08091E8008B7714
:104EA0000BC08091C602882349F08091E80080FF02
:104EB000F8CF8091E8008E778093E8000895982FCE
:104EC000973068F59093E900981739F07091EC00ED
:104ED0002091ED005091F00003C0242F762F50E078
:104EE00021FD02C09F5FECCF3091EB003E7F3093FD
:104EF000EB003091ED003D7F3093ED003091EB0001
:104F000031603093EB007093EC002093ED005093F0
:104F1000F0002091EE0027FDE5CF80E008958F702E
:104F20008093E90081E008952091CE023091CF0274
:104F30002617370748F06115710539F42091E8000C
:104F40002E772093E80001C0B901FC0120E0611533
:104F5000710579F18091C6028823F1F18530F1F174
:104F60008091E80083FD3CC08091E80082FD2EC066
:104F70008091E80080FFEBCF2091F3008091F20058
:104F800090E0922B6115710551F08830910538F44D
:104F900021912093F100615071090196F3CF21E036
:104FA000089709F020E08091E8008E778093E80070
:104FB000CECF2111CFCF0AC08091C602882361F0E5
:104FC000853061F08091E80083FD0AC08091E8009F
:104FD00082FFF2CF80E0089582E0089583E0089593
:104FE00081E0089578941F920F920FB60F921124CA
:104FF0008F939F93AF93BF938091DB039091DC03DA
:10500000A091DD03B091DE030196A11DB11D809337
:10501000DB039093DC03A093DD03B093DE03BF9129
:10502000AF919F918F910F900FBE0F901F90189589
:105030009C014FB7F8948091DB039091DC03A09121
:10504000DD03B091DE034FBF821B930B08952FB792
:10505000F8946091DB037091DC038091DD03909103
:10506000DE032FBF08952FB7F8948091DB03909152
:10507000DC03A091DD03B091DE032FBF08951F92E2
:105080000F920FB60F9211248F939F93AF93BF93FC
:105090008091DA03811113C08091DB039091DC03CE
:1050A000A091DD03B091DE034196A11DB11D809357
:1050B000DB039093DC03A093DD03B093DE03BF9189
:1050C000AF919F918F910F900FBE0F901F901895E9
:1050D0009C012A5F3F4FFC014281461301C01282AE
:1050E000019682179307B9F708959C01FC01329647
:1050F0009FEF80E04191461789F09F3F19F44111DD
:1051000001C0982F8F5F8630A9F79F3F39F0F901D2
:10511000E90FF11D97FDFA95628308950895209196
:10512000D8033091D9032817390771F09093D90328
:105130008093D803E091D603F091D703309721F004
:105140000084F185E02D099508952091D4033091D4
:10515000D5032817390771F09093D5038093D403B2
:10516000E091D603F091D703309721F00680F781C4
:10517000E02D099508950E948E19882359F0E09139
:10518000D603F091D703309729F00190F081E02DFC
:105190000995089580E008950F931F93CF93DF93AF
:1051A000C42FD22FFC0182818823B1F04093D30316
:1051B0000E9433289093D2038093D10380E28C0F16
:1051C000883008F04DC0C77081E001C0880FCA95D3
:1051D000EAF70E94A81F44C08091D303481330C04F
:1051E0008091D1039091D2030E941828883C9105A8
:1051F00038F510E21D0FCD17B9F080E28C0F883022
:1052000040F4C77081E001C0880FCA95EAF70E9498
:10521000A11F183010F581E09D2F977001C0880FF5
:105220009A95EAF70E94A81F802F0E942D2018301F
:10523000B8F4D77081E001C0880FDA95EAF70AC0A8
:1052400080E28C0F883060F4C77081E001C0880F65
:10525000CA95EAF70E94A11F03C0802F0E942D204B
:10526000DF91CF911F910F910895893279F1E0F488
:10527000843161F1A0F4873009F075C01092CD033C
:1052800094E19093FE018093FD018CE38093FC01F7
:1052900088E08093FB0188E28093FA0164C092EE7B
:1052A000980F9A30F0F05FC0803509F444C028F4BC
:1052B0008F3409F058C08AE03FC0813529F082352B
:1052C00009F051C081E038C08FEF36C08091D00323
:1052D000882379F11092D0031092CF031092CE035D
:1052E00042C08D518093D003833099F038F48130DF
:1052F00069F08230D9F48EEF91E00DC0853099F0DD
:1053000078F0863099F48AEF91E005C08DEC93E057
:1053100002C08DEF91E09093CF038093CE0323C022
:105320008CEF91E0F8CF8BEF91E0F5CF1092D003A6
:105330001AC080E0089586EFE091CE03F091CF038C
:10534000309789F02081082E000C990B820F911D57
:105350008F3F910519F014F08FEF04C097FF02C042
:10536000108201C0808381E008958B3109F469C007
:1053700058F58B3009F493C078F4863009F446C0B0
:1053800020F4853009F44CC08CC0873009F44BC040
:10539000883009F484C085C0803109F465C068F4A0
:1053A0008E3009F07EC08091CC0382FB222720F949
:1053B00091E0922790FB82F94DC0863109F46FC0CD
:1053C000893109F46CC06DC08A32E9F060F487322B
:1053D00009F45FC028F48E3108F463C08D514FC0CA
:1053E0008932F1F05EC0833450F48A3308F046C04D
:1053F000853309F44EC0883309F451C052C0833458
:1054000009F447C04EC00E94F61C49C08091CC03ED
:10541000817F8E7F8093CC0381E08093CB030895BE
:105420000E94F9223CC08091CC03982F90959170F6
:1054300090FB80F98093CC03911131C0897F877FE5
:1054400010C08091CC0381FB222720F991E09227A4
:1054500090FB81F98093CC03992309F18091CC03CF
:1054600081608093CC031BC08091CC0383FB2227F7
:1054700020F991E0922790FB83F9ECCF895321E04A
:1054800030E0A90102C0440F551F8A95E2F7CA0116
:1054900002C081E090E00E945E1F0E94801F81E0B8
:1054A000089580E00895452B41F06F3F41F491E06D
:1054B0008F3F09F090E0892F03C081E001C080E0B8
:1054C000817008951092CA031092C9031092F901D5
:1054D0008091C8038093C7030E948D2B0E94372BB5
:1054E0000895A0E0B0E0E7E7FAE20C946930C091DB
:1054F000C703E7E0FE2E01E010E0FCE02F2EAEEF48
:10550000EA2E8091C803C81709F47AC0D0E0FE01E2
:10551000EE0FFF1FE154FC4F80819181F89EF00156
:10552000F99EF00D1124E95DFE4F2481211165C023
:1055300060905E03AFE5B3E020E030E0712C5F01E6
:10554000261508F058C01A964D905C901B97F501EF
:10555000808091804FEF5FEF312CC32CD12CF6016E
:10556000EE0FFF1FE80DF91D659174914616570661
:1055700009F4A601672B11F03394EFCF4F3FFFEFF3
:105580005F07A9F1B80102C0660F771F4A95E2F7DD
:10559000762AA801032C02C0440F551F0A94E2F793
:1055A00041505109672D70E046175707E1F4229EDC
:1055B000F001239EF00D1124E15AFC4FF89ED0011A
:1055C000F99EB00D1124A95DBE4F12962D913C910C
:1055D000139737832683E082E1829187808771E089
:1055E00015967C9308C014961C921E9213972F5FF9
:1055F0003F4F1C96A5CF0E94092B2196C37081CFE7
:105600000E94372B0E948D2BCDB7DEB7E2E10C94C0
:105610008530BC014091C7038091C803942F98172F
:1056200029F1292F30E0F901EE0FFF1FE154FC4F63
:105630000190F081E02DE617F70799F487E0869F47
:10564000F001879FF00D1124E95DFE4F81E0848316
:1056500094130CC02F5F3F4F237033272093C70351
:1056600008952F5F3F4F922F9370D9CF0895EF92F7
:10567000FF920F931F93CF93DF9380915E03882354
:1056800009F446C00091F6038CE0F82E80915E0389
:105690000817D0F5EE24E394E00EE092F60310E054
:1056A000F09EE001F19ED00D1124C15ADC4F4B81D8
:1056B0005C81698188810E94532A811123C08E8177
:1056C0009F81892B51F4888599858F3F2FEF920711
:1056D00021F061E00E94B6230AC0288139814A8105
:1056E0005B816C817D818E819F810E940F22F09E63
:1056F000F001F19EF00D1124E15AFC4F1482138247
:105700001092F5030E2DC2CF10925E031092F60395
:10571000CDB7DEB7E6E00C9491301092F40310920E
:10572000F303E7E2F1E08581811102C01482168261
:10573000379681E0E93FF807B1F70895A0E0B0E0BF
:10574000E4EAFBE20C947430E82FF0E0E858F34F01
:10575000D490282F26952695269530E0F901E85912
:10576000F34F0491877010E0082E02C0159507953D
:105770000A94E2F701701127F901E85AF34FE49017
:10578000F12C082E02C0F594E7940A94E2F791E018
:10579000E922FF24F901E85BF34FC491D0E002C095
:1057A000D595C7958A95E2F7C170DD2701151105DA
:1057B00019F081EE0E94D12DE114F10419F086EE6A
:1057C0000E94D12D8D2D0E942D20E114F10419F09D
:1057D00086EE0E94B21F0115110519F081EE0E949C
:1057E000B21FCD2B19F08CE20E942D20CDB7DEB771
:1057F000E7E00C949030EF92FF921F93CF93DF93EA
:10580000EC011AE08881882309F44AC0813009F04C
:1058100043C08981813041F47E0182E0E80EF11CB1
:105820008A810E942D2009C0823049F47E01E2E085
:10583000EE0EF11C8A810E94D12DE7012FC083302A
:1058400041F47E01F2E0EF0EF11C8A810E94B21F4A
:10585000F4CF843011F0219621C02A81229680E075
:1058600090E030E0205331092A30310558F4189F78
:10587000A001199F500D1124C901840F951F219675
:105880002881EFCF009751F0EFE9FFE03197F1F772
:1058900000C000000197F6CF0E949E2B2196B2CF48
:1058A000DF91CF911F91FF90EF9008956091EF03EA
:1058B0008CE090E00E94AE3008950E943328209141
:1058C000EB03211104C02091EC03222321F09093DB
:1058D000E8038093E7032091ED03211104C0209198
:1058E000EE03222321F09093E6038093E503E091F9
:1058F000D603F091D703309749F082E08093E90313
:105900000480F581E02D89EE93E0099508958D3EA0
:1059100039F49091EC0397FF35C01092EC0359C015
:105920008E3E29F49091EC031916BCF32BC0909194
:10593000EB038F3E29F497FF25C01092EB0349C07B
:10594000803F19F41916CCF31DC09091ED03893FE7
:1059500029F41916BCF41092ED033BC08A3F19F4E8
:1059600097FF10C0F8CF8B3F39F49091EE0397FF6B
:1059700009C01092EE032DC08C3F21F49091EE03EC
:105980001916BCF39FE0980F983080F421E030E0C6
:10599000A90102C0440F551F9A95E2F7CA018095EC
:1059A0009091EA0389238093EA0313C08D3F21F489
:1059B0008091E4038E7F0BC08E3F21F48091E4033D
:1059C0008D7F05C08F3F29F48091E4038B7F809306
:1059D000E4038091EB03811106C08091EC038111F7
:1059E00002C01092E3038091ED03811106C0809103
:1059F000EE03811102C01092E20308958091E40346
:105A000080FF08C06091FB0170E075956795759502
:105A1000679521C081FF06C06091FB0170E075951C
:105A2000679519C082FF04C06091FB0170E010C04F
:105A30009091E203992399F06091FA019617A0F7EB
:105A40008091FB01899FC001112470E00E94E23027
:105A50006038710540F46115710519F406C061E004
:105A600070E0862F08958FE7089581E00895809172
:105A7000E40380FF06C06091FD0170E0660F771FB0
:105A800026C081FF04C06091FD0184E005C082FF53
:105A900007C06091FD0188E0689FB001112417C024
:105AA0009091E3039923D1F06091FC01961788F758
:105AB0002091FD0188E0289F90011124929FA00170
:105AC000939F500D112470E0CA010E94E2306038AB
:105AD000710540F46115710519F406C068E070E0C5
