:100000000C9466060C94262F0C9483060C9483069D
:100010000C9483060C9483060C9483060C9483063C
:100020000C9483060C9483060C945C180C949E1715
:100030000C941D280C9483060C9483060C94830660
:100040000C9483060C9483060C9483060C9483060C
:100050000C9483060C94D0270C9483060C9483068E
:100060000C9483060C9483060C9483060C948306EC
:100070000C9483060C9483060C9483060C948306DC
:100080000C9483060C9483060C9483060C948306CC
:100090000C9483060C9483060C9483060C948306BC
:1000A0000C9483060C9483060C948306CB0DCB0D25
:1000B000FE0DFE0D700E8C0EBC0FBC0F970E270FA1
:1000C000390F390FBD15E4157C17E4157C172C1674
:1000D0004F167C173E175117A923AF23B523BB2317
:1000E000C123C723CD23D323D923DF23E523EB2348
:1000F000F123F723FD23032409240E2413241824B9
:100100001D24222427242C24312436243B2440245B
:1001100005010902A10185020901A10005091901D2
:10012000290815002501950875018102050109308E
:1001300009311581257F95027508810609381581D9
:10014000257F950175088106050C0A380215812561
:100150007F950175088106C0C005010980A1018550
:100160000319012AB700150126B700950175108102
:1001700000C0050C0901A101850419012AA002157E
:100180000126A002950175108100C005010906A194
:1001900001050719E029E71500250195087501817A
:1001A000029501750881010507190029FF15002630
:1001B000FF009506750881000508190129059505B8
:1001C00075019102950175039101C009023B00027E
:1001D0000100A0FA09040000010301010009211136
:1001E0000100012240000705810308000109040104
:1001F000000103000000092111010001227B00071A
:1002000005820320000112010002000000084D4495
:1002100036350100010200012C0344006100630037
:10022000740079006C002D004D0061006E007500B7
:1002300066006F0072006D00200028003500780015
:100240003600290000000E037400730068006F0080
:1002500072007400000004030904290010405006D5
:100260004F060440AE002B000500B45D13001200E1
:100270003400C65D040018000C0008003600E000E1
:1002800031001C001B003700361200000000B35D77
:100290002F00C05DBB5D00000000E3000951065166
:1002A000E20015040F40AA00A90011400F081A002F
:1002B000190007000F000D001D00060017001600B2
:1002C0001500110010000E0014000A000B000900B8
:1002D000C65D2C00BF5D30002E00000000002A002B
:1002E0000351D45DE30000000000010001000100A3
:1002F000010001000100010014001A0008001500AF
:100300001700E10004001600070009000A000100C0
:100310001D001B0006001900050000000000010080
:100320003100010001000000000001000100010097
:1003300001000100010001000100010001001C009A
:1003400018000C00120013002F000B000D000E000F
:100350000F00330034001100100036003700380061
:10036000B25D010001000100010000000000010079
:100370000100010001000000000001001E001F003C
:10038000AD002100D35D01003602B85DED00BC5D1B
:10039000B55D01003702EF00EE00F0000100010042
:1003A000B75DF9000100FA00B65D000000003614E8
:1003B0003714010001000000000001000E5301008D
:1003C00001000000400041004200430044001E08BC
:1003D0004B0052004A00000030004A00500051001B
:1003E0004F004D00E5002A004E0051004D004C002A
:1003F0002800085101000100620000000000010017
:100400000100010001000000000046001E001F0066
:1004100020002100220045003A003B003C003D0046
:100420003E0045012A004C004300440044024502BE
:100430002A014C0228052C003E0100000000E000CB
:10044000370101000751000000000A52015200521A
:100450000D523F004000410042001504A5002D024E
:100460001E001F0020002414251456002100220025
:1004700023002614271465002400250026003500DB
:1004800035022C030100270063000000000001007A
:10049000010001000100000000002716010001001A
:1004A00001000100010039001E022402250226027B
:1004B0002702E10023021F02200221022202010082
:1004C00001000100010072000100000000000100B5
:1004D0000100010001000000000000000000000019
:1004E000000001000100520C010001000100D05D7C
:1004F0004B0152084E01CE5D0000CC5D500051080A
:100500004F00CD5D0000D15D4E05CB5D4B05CF5D4D
:10051000000001000100D25D6C000000000000003E
:10052000010000000000000000004801010001007F
:100530000100010001000B0114011A01080115015D
:100540001701E10004001601070109010A011C015D
:100550001D011B0106011901050100000000B25D2B
:1005600037010751010000000000010001000100F7
:1005700001000100010001000100010001001C0157
:1005800018010C010F01130101000B010D010E01F7
:100590000F01360101001101100136013701010080
:1005A0000100010001005701670100000000010087
:1005B0000100010001000000000001000100010035
:1005C000010001000100010001004B0052004A003F
:1005D000010001005008500051004F004F08010079
:1005E000CA5D4E0051004D002800000000000000D0
:1005F00000000000000000000000000000000100FA
:1006000001000000000000000000000000000000E9
:100610001E011F0120010000000000002101220135
:10062000230100000000000024012501E00100007A
:100630000000000000002701000000000000000092
:1006400000000000000000000000000000000000AA
:10065000AD003D043E010B0314031A030803150308
:1006600017034C0204031603070309030A032C03B0
:10067000000000000603190305030000000000004D
:100680002C08010001000000000000000000000034
:10069000000000000000000000000000000000005A
:1006A00000000C031203130300000B030000000002
:1006B0000000000000000000000000003703000000
:1006C0000000010001000000000000000000000028
:1006D0000000000000000000000029001E011F01B2
:1006E0002001210122012B000000F200ED00F100A9
:1006F0000000E1000000EF00EE00F000000000004C
:100700000000F9000000FA000000000000000000F6
:1007100000000000280500000000000000000000AC
:1007200000000000000000000000000000000000C9
:100730004B0352034E03000000000B015003510312
:100740004F03000000000000000051030000000003
:100750000000010000000000000000000000000098
:10076000010001000100000000002D002300240012
:100770002500260027002F001C001E001F0020005F
:100780000000E10056002100220023003300E000B9
:10079000CA5D24002500260038000000000000008B
:1007A000270000000000000000000100010001001F
:1007B00001000000000000000000000000001F0811
:1007C000200821082208230824081E0850090000D8
:1007D0004F09000026080000000000000000000093
:1007E0000000000000000000000000000000000009
:1007F0000000000000000000000029001E001F0093
:100800002000210022002B0014001A00080015000F
:100810001700E10004001600070009000A00E000CC
:100820001D001B0006001900050000000000340038
:1008300001000100010000000000010001000100B2
:100840005000230024002500260027002D001C0056
:1008500018000C00120013002F000B000D000E00FA
:100860000F00330035001100100036003700330050
:1008700035005200010031002E0000000000000091
:100880004F00010051000000000001001E021F0285
:1008900020022102220201000100381201000100A1
:1008A000010001000100010001000100BA5D01002A
:1008B0000100010001003302010000000000B35DEF
:1008C000B25D010001000000000001000100010014
:1008D0000100010024022502260227022D02010048
:1008E0000100010001000100010001000100010000
:1008F00001000100010001000100010001000100F0
:1009000001000100010001000100000000000100E1
:1009100001000100010000000000000000000000D4
:1009200000000000000000000000000000000000C7
:100930000000010000000000000000000000E000D6
:1009400000000000000000000000000000000000A7
:100950000000000000000000000000000000000097
:100960000000000000000000000000000000000087
:100970004B1252024E12000000004A125002510265
:100980004F024D1200000000000051020000000064
:100990000000000001000000000000000000000056
:1009A0000000000000000000000001000100010044
:1009B000010001000100010001000100010001002F
:1009C000010001000100010001000100010001001F
:1009D0000100010001000100010000000000010011
:1009E00001000100280000000000010001000100DA
:1009F00001000100010001000100010001000100EF
:100A000001005200010001000100010050005100EE
:100A10004F00010001000100010001000100010080
:100A200001000100010001000100000000000100C0
:100A30000100010001000000000062627261676154
:100A40004070726F67692E636F6D0062696C6C79BC
:100A50002E6272616761400020414E4420006B3875
:100A6000730020213D20002D3E00203C3D20002031
:100A70003E3D200070726F7065727469657300701E
:100A80006970656C696E6500737562736372697015
:100A900074696F6E0050726F67694F6E6500707297
:100AA0006F6769004070726F67692E636F6D0061D8
:100AB000756A6F757264276875692000646F657365
:100AC0006E27742000646F65736E27742000636F57
:100AD0006E6669670062656175636F75702000619D
:100AE0002D742D696C2000706F757271756F69209F
:100AF00000612D742D6F6E2000706575782D7475F2
:100B00002000706575742D01012F657472652000D9
:100B100061732D7475200065732D74752000457305
:100B2000742D636520717565200073742D636520D5
:100B3000717500050015000A00000005000C001585
:100B400000000004001100070000000E0016000065
:100B50000005002E0000002F0006000000B35D2EEF
:100B60000000002F002E00000013001500120017D7
:100B70000016000000130008000F0011000000160E
:100B80000005001100000013001500120011000004
:100B900000130015000A0000000400130006000006
:100BA0000004000D00070000000700120011000003
:100BB0000007001200170000000600120011000CD0
:100BC0000000000500060013000000040017000CE0
:100BD000000F00000013000E0000000400170012B8
:100BE0000011000000130017001800000013001788
:100BF000000800000004001600170018000000089C
:100C0000001600170018000000E10016001400088C
:100C100000000016001400080000000000000000A2
:100C20000000000000004001000000000000000083
:100C3000000050000000280100007800000000FEC5
:100C40000F0084FFFFFF970000000000000000007D
:100C50000000002A2B280000000000000000000017
:100C600000000000000029000000002C1E37202199
:100C70002224362627252E362D3735271E1F2021E4
:100C800022232425263333362E37231F0405060757
:100C900008090A0B0C0D0E0F10111213141516175C
:100CA00018191A1B1C1D2635272F2D2F0405060782
:100CB00008090A0B0C0D0E0F10111213141516173C
:100CC00018191A1B1C1D243525304C0011241FBE79
:100CD000CFEFDAE0DEBFCDBF12E0A0E0B1E0ECE0A4
:100CE000F2E602C005900D92AA34B107D9F723E0CD
:100CF000AAE4B2E001C01D92A93EB207E1F70E944A
:100D00000B110C9404310C940000A0E0B0E0EBE86F
:100D1000F6E00C944F307C01FC01438154816181E9
:100D200080810E94312A81110C94F90F61E0C70182
:100D30000E94BF22EC0104974A9708F044C08091BA
:100D400000018F5F80930001833008F03FC0E82FDF
:100D5000F0E0EE0FFF1FEC5AFD4FD183C0838230CD
:100D6000A9F58FEF8093000181E080935302809179
:100D7000540290915502449761F4809156029091EB
:100D80005702449731F4809158029091590241974B
:100D900011F010925302809153028823B9F062E35C
:100DA00070E08AE20E94FF1F62E370E08AE20E9424
:100DB000FF1F62E370E08AE20E94FF1F81EF91E073
:100DC0000E94D92B03C08FEF809300012091520223
:100DD000222391F1F7018281882331F1CF3BFDE598
:100DE000DF0709F438C3C932D10509F472C6C63B1E
:100DF0002DE5D20729F48BEF91E00E94D92B03C097
:100E00008C2F0E9417208EEF91E00E94D92BC63BB9
:100E10004DE5D40709F45DC68C2F0E94172089E0A8
:100E200092E00E94D92B55C6CF3B5DE5D50709F46A
:100E300012C3109252024DC6CC3B8DE5D80709F47F
:100E4000B1C108F045C0C43BEDE5DE0709F468C157
:100E500020F5C03140E4D40709F4B7C088F4F701A5
:100E60009281C430F0E4DF0709F4D6C0CF3040E40B
:100E7000D40709F48BC0C53AD10509F067C073C027
:100E8000C23B5DE5D50709F453C108F061C1C1312A
:100E900090E4D90709F488C059C0C83BEDE5DE07E6
:100EA00009F470C140F4C63B2DE5D20709F45DC1D9
:100EB00008F451C162C1CA3B5DE5D50709F42BC1F5
:100EC000F7018281CB3BFDE5DF0708F463C1CAC0AF
:100ED000F7018281CD3CFDE5DF0709F458C2E8F453
:100EE000C93C4DE5D40709F4B4C078F4C03C9DE595
:100EF000D90709F4BCC2C63CEDE5DE0709F4FFC022
:100F0000CF3BFDE5DF0711F5A6C2CB3C2DE5D207AF
:100F100009F497C108F44EC15DC2C13D5DE5D50736
:100F200009F4AFC140F4CF3CEDE5DE0709F4CCC1D4
:100F300008F40DC2ECC1C33D2DE5D20709F4A7C2E8
:100F400008F46BC2C43D5DE5D50711F081E0A0C295
:100F5000882329F082EE0E94AF2D89E081C289E0CA
:100F60000E94261F7DC0992309F4B3C580918C028D
:100F700090918D02009739F033E0969587953A95D8
:100F8000E1F7282F21702093510281C2992309F49F
:100F90007EC2F701858182958F7011F080E575C260
:100FA00062E370E08CEA0EC0F7018281882309F4C5
:100FB0006EC2858182958F7011F08FE466C262E304
:100FC00070E08BEA0E94FF1F62C2F70182818823D2
:100FD00009F45DC2858182958F7071F082EE0E9466
:100FE000AF2D83EE0E94AF2D8EE00E94172083EE7E
:100FF0000E949C1F82EE0DC080EE0E94AF2D83EEFA
:101000000E94AF2D80E50E94172083EE0E949C1F56
:1010100080EE0E949C1F5DC5992309F438C2F70138
:10102000858182958F7039F082EE0E94AF2D85E127
:101030000E94172015C080EE0E94AF2D83EE0E9403
:10104000AF2D8FE40E94172083EE0E949C1F80EE3C
:10105000FFC1882329F082EE0E94AF2D80EC15C2DB
:1010600082EEF6C1882339F180915002882381F005
:1010700080914E0290914F020E94F627883C910584
:1010800038F488E20E94AF2D81E080934D020CC0BD
:101090008091C2028095817080934C0280EE0E9404
:1010A000AF2D85E00E94381F0E94112890934F02B7
:1010B00080934E02ECC188E20E949C1F80914C02FA
:1010C000882319F080EE0E949C1F85E00E94261F55
:1010D00080914D02811110C080915002882361F0EF
:1010E00080914E0290914F020E94F627883C910514
:1010F00018F488E20E94172010924D02C8C188237C
:1011000029F081EE0E94AF2D8BE0AAC181EE0E94F2
:101110009C1F8BE0A9C140E050E063E370E046C053
:10112000F7018281882311F088E337C088E390C1FA
:10113000F7018281882339F081EE0E94AF2DC7012B
:101140000E947A14A4C1C7010E947A1481EE80C162
:1011500048E150E014C0F7018281882309F497C167
:1011600083E092E00E94D92B92C1F7018281811124
:101170008EC181E0809352028AC14CE250E06FE25E
:1011800070E004C04CE250E060E370E0C7010E94F0
:1011900088237DC1882321F08FE20E94AF2D77C183
:1011A0008FE256C145E350E066EE70E0C7010E9451
:1011B00057236DC1882309F46AC180EE0E94AF2DC8
:1011C00081EE0E94AF2D8CE20E94AF2D8CE20E9436
:1011D0009C1F80EE0E949C1F81EE0E949C1F80EE4F
:1011E0000E94AF2D89E10E94AF2D89E10E949C1FD2
:1011F00080EE0E949C1F80EE0E94AF2D80E50E9431
:10120000AF2D80E50E949C1F80EE0E949C1F80EE07
:101210000E94AF2D8AE20E94AF2D8AE20E949C1F9D
:1012200080EE0E949C1FFFEF24E34CE0F150204031
:101230004040E1F700C0000088E20E94AF2D88E244
:1012400007C1882309F423C183EE0E94AF2D8DE1ED
:101250000E94172083EE0E949C1F5FEF81EE94E0B6
:10126000515080409040E1F700C0000083E20E94AE
:101270001720EFEFF1EE24E0E150F0402040E1F7DD
:10128000A5C0882309F403C183EE0E94AF2D8DE130
:101290000E94172083EE0E949C1F4FEF51EE84E0C6
:1012A000415050408040E1F700C0000082E20E94BF
:1012B00017209FEFE1EEF4E09150E040F040E1F7BD
:1012C00000C0000080E2E1C0882309F4E0C083EEA2
:1012D0000E94AF2D8DE10E94172083EE0E949C1F7B
:1012E0002FEF41EE54E0215040405040E1F700C064
:1012F000000082E20E9417208FEF91EEE4E081501F
:101300009040E040E1F700C0000081E2BEC08823C9
:1013100009F4BDC083EE0E94AF2D8DE10E9417201D
:1013200083EE0E949C1FFFEF21EE44E0F15020402D
:101330004040E1F700C0000082E20E9417205FEF0A
:1013400081EE94E0515080409040E1F762C08823E4
:1013500009F49DC083EE0E94AF2D8DE10E941720FD
:1013600083EE0E949C1FEFEFF1EE24E0E150F0408D
:101370002040E1F700C0000082E20E9417204FEFFA
:1013800051EE84E0415050408040E1F71FC0882377
:1013900009F47DC083EE0E94AF2D8DE10E941720DD
:1013A00083EE0E949C1F9FEFE1EEF4E09150E0403D
:1013B000F040E1F700C000008EE10E9417202FEFFF
:1013C00041EE54E0215040405040E1F700C00000A1
:1013D0008FE15BC0882309F45AC083EE0E94AF2DD1
:1013E0008DE10E94172083EE0E949C1F8FEF91EEEB
:1013F000E4E081509040E040E1F700C000008EE161
:101400000E941720FFEF21EE44E0F15020404040C1
:10141000E1F700C000008EE138C08823C1F183EEFF
:101420000E94AF2D82EE0E94AF2D81E50E94172011
:101430005FEF81EE94E0515080409040E1F700C0B2
:10144000000081E50E94172082EE0E949C1F83EE1F
:101450000E949C1F1CC0F7018281882321F082E03A
:101460000E94381F14C082E00E94261F10C08823EB
:1014700011F083E0F5CF83E00E94261F8091510296
:10148000882329F01092510285EA0E94172080E0FB
:10149000F7019281992329F191E0CB3BFDE5DF072C
:1014A00009F090E090935002882309F412C3C43EDF
:1014B0002CE5D207E1F050F4C23E5CE5D507A1F07F
:1014C000C33E8CE5D807E1F481E016C0C63E9CE53A
:1014D000D90789F070F0C13BFDE5DF0789F485E0AD
:1014E0000BC081110DC0F5C21092E10307C082E06C
:1014F00003C083E001C084E08093E1030E94342CA8
:10150000D7FFCEC0F7018281882309F4C9C00E94A9
:1015100099288695817080935C020E949928817039
:1015200080935B028091E103813039F480915C0209
:10153000882319F089E30E9417208091C2028093CA
:101540005A021092C2021092E7038091E1038230A6
:1015500019F148F48823E1F08130C9F560E070E0CA
:1015600088E193E032C0843049F1853081F560E054
:1015700070E08BE191E00E94FF2260E070E085E284
:1015800090E00E94FF2260E070E088E290E01DC0E1
:1015900082EE0E94AF2D1BC080915B02811103C0BF
:1015A00083E50E94172082EE0E94AF2D8FE39CE915
:1015B0000197F1F700C0000087E504C086EE0E94A5
:1015C000172088E10E94172002C00E94FF22EFE34B
:1015D000FCE93197F1F700C000006E01E894D7F8FC
:1015E0000CE010E02AE0A22EB12CC601002E02C0B1
:1015F000969587950A94E2F78F709091E103923067
:1016000069F48A3038F490E00996B5010E94C03040
:10161000875A01C086500E94172009C096EF980F84
:10162000963010F0805D01C0895A0E947C2B0450D6
:1016300011090C3FFFEF1F07C1F68091E1038230D3
:10164000F1F028F4882371F0813081F025C08430D6
:1016500009F1853009F560E070E088E290E00E94D1
:10166000FF221AC082EE0E949C1F16C08CE20E94CC
:10167000172080915C02882379F089E308C082EE0C
:101680000E949C1F80915B02811106C083E50E942D
:10169000172002C088E2FBCF80915A028093C202D9
:1016A000C43F2CE5D20741F190F4C93D5CE5D50774
:1016B000E9F0CA3D8CE5D80789F1C83D9CE5D9071A
:1016C000B1F506E221EE41EE68ED7CE52CC0C63FA7
:1016D000ECE5DE07E9F0B0F0C73F2CE5D20739F5BD
:1016E00007E225EE46EE67EF7CE51DC007E225EE3A
:1016F00045EE69ED7CE517C006E221EE40EE64EFB1
:101700007CE511C007E225EE44EE65EF7CE50BC0F9
:1017100006E221EE42EE66EF7CE505C008E221E03C
:1017200045EE6AED7CE5C7010E94AA28D2C1F70107
:101730008281882309F490C11092C503C430FDE56D
:10174000DF0758F4CB3F2CE5D207C0F4CE0182501E
:101750009C45449708F06AC111C0C63A4DE5D407CC
:1017600069F030F4C2368DE5D80709F05FC106C0D4
:10177000CE018E5A9D45039708F058C10E94CF1C98
:1017800090938F0280938E02C2319CE5D90709F4B1
:1017900005C108F04BC0C930FCE5DF0709F4D2C031
:1017A00000F5C5304CE5D40709F4B9C078F4C3306E
:1017B0008CE5D80709F4AAC008F0AEC0C230DC45F9
:1017C00009F024C180918E028160A3C0C730FCE57E
:1017D000DF0709F4AFC008F0B1C080918E028061CC
:1017E00098C0CD304CE5D40709F4C2C058F4CB30D2
:1017F0008CE5D80709F4B0C008F0B6C080918E021D
:101800008860A6C0CF30ECE5DE0709F4BFC008F45D
:10181000B2C0C0312CE5D20709F4BCC0C131DC45EF
:1018200009F0F4C080918E028F7B73C0C1155DE515
:10183000D50709F4BEC088F5CB3F9CE5D90709F46C
:1018400072C0B8F4C431FCE5DF0709F4C1C008F484
:10185000ABC0C531DC4509F0D9C080918E0282FB56
:10186000222720F991E0922790FB82F990FB83F9DF
:1018700050C0CD3F5CE5D50709F481C008F456C0DF
:10188000CE3F9CE5D90709F47DC0CF3FDC4509F088
:10189000BDC080918F0282605DC0C236FDE5DF076A
:1018A00009F4A8C068F4C2304DE5D40709F49CC01F
:1018B00008F484C0C330DD4509F0A8C060E095C0DD
:1018C000CE3A9DE5D907F1F058F4C63ADD4509F066
:1018D0009DC080918E02982F909590FB80F919C041
:1018E000CF3A2DE5D207E1F1C03BDD4509F08EC0CE
:1018F00080918F0283FB222720F991E0922790FBB1
:1019000083F982C080918F0288607EC080918E02B0
:10191000826080938E027AC080918E0219C080917D
:101920008E028860F6CF80918F0214C080918F0262
:1019300082606AC080918E028062EBCF80918E02BD
:101940008064E7CF0E946A1F80918E028068E1CF99
:101950008460DFCF816058C080918E028E7FD9CFA6
:1019600080918F02877F50C080918E028D7FD1CF72
:1019700080918E021CC080918E02877FCACF809199
:101980008F021AC080918F028D7F3EC080918E029F
:101990008F7EBFCF80918E028F7DBBCF0E946A1F4A
:1019A00080918E028F77B5CF80918E02877F8B7F5B
:1019B000B0CF80918F028D7F8E7F26C080918F0265
:1019C000982F909591708E7F892B90FB81F91CC088
:1019D0000E946A1F80918E0287FB222720F991E0E6
:1019E000922790FB87F995CF61E08EE090E00E940E
:1019F0008C300CC080918E0284FB222720F991E06C
:101A0000922790FB84F985CF80938F0260918E029C
:101A1000C0918F0284E090E00E948C306C2F82E2B3
:101A200090E00E948C300E946A1F53C0C631FCE5D2
:101A3000DF0719F58091C2028A7A91E009F490E0FB
:101A400090935D02882311F065E301C069E283ECA5
:101A500092E00E9453280EC0C631DC4509F04BC00D
:101A600080915D02882309F4C2C265E383EC92E0B1
:101A70000E9446280E94551D2CC0CB355DE5D50738
:101A800011F150F4C1159CE5D90779F0CF3DDC4543
:101A900091F50E94E01C0CC0CD35FDE5DF0759F043
:101AA000A0F0C83ADD4521F026C00E94E32211C013
:101AB0000E94CD220EC080918F0282FB882780F980
:101AC00091E0892703C081E001C080E00E94AE1D43
:101AD00012C080911503877009F48BC2F7018281CF
:101AE000882309F486C280918F0282FF82C282E03D
:101AF0000E94911D7EC2F701868197810097B9F4FB
:101B0000F7018281C081D181882349F0CE010E94F2
:101B1000751E182F682FCE010E94E91E04C0CE0149
:101B20000E94B61E182FBE01812F0E941A1B0E9410
:101B3000331BEC01F7010281D580D2949FE0D922BA
:101B4000809115038770B9F00023A9F08D2F807F55
:101B5000803421F080E28C0F883068F080918F0211
:101B600082FF09C082E00E94911D80911503877059
:101B7000CC24C3948111C12CBD2EB2948FE0B82225
:101B80008B2D90E08C30910508F0F6C1FC01EA5AEB
:101B9000FF4F0C94D4301D2F1F708D2F807F11F0BC
:101BA0001295107F0023B9F0112309F4D2C180E20D
:101BB0008C0F883010F0C11106C08091C202182B22
:101BC0001093C20205C08091E703182B1093E7031E
:101BD0000E94551DBEC18C2F0E949C1F112309F429
:101BE000CBC180E28C0F883078F1CC2369F110955D
:101BF0008091E70318231093E70329C01D2F1F705E
:101C00008D2F807F803211F01295107FCC2319F038
:101C1000C130D9F149C080918F0282FD1BC00023E1
:101C200069F0112339F08091C202182B1093C2027F
:101C30000E94551D80E00E94AF2D9EC180E00E9451
:101C40009C1F112309F498C1812F0E944E1D0E94F0
:101C5000551D92C1002381F080911E03DD2051F0BB
:101C6000F1E0DF1207C0182B181709F485C1109393
:101C70001E0382C1812B10C0DD2021F021E0D2168D
:101C800009F47AC10E94481D27C0002341F042E0B8
:101C90004D1508F471C1812F0E94921F6DC151E052
:101CA0005D1508F469C118C0002349F0DD2099F3DF
:101CB000F701858180FF4DC18F708583ECCFDD20DA
:101CC00059F0C93309F055C1FFEF27EE43E0F15059
:101CD00020404040E1F74BC1812F0E948B1F4CC137
:101CE0008D2F86958695837019F0813059F044C107
:101CF000002319F0CE01937002C080E090E00E94B2
:101D0000832840C1002319F0CE01937002C080E007
:101D100090E00E946D2836C18C2F002319F00E949C
:101D2000542D02C00E94652C0E943B2C2BC18D2F8C
:101D3000837009F042C0011123C13C2F32953695C2
:101D40003770330F330F8C2F8F7090E0032E02C04B
:101D5000880F991F0A94E2F7C4FF0BC04FE050E0D0
:101D600002C0440F551F3A95E2F79A01209530952D
:101D700002C020E030E04D2F46954695437042303A
:101D800099F068F460911F0370912003413029F0AD
:101D9000822B932B8623972304C0862B972B822B91
:101DA000932B0E94481FECC0822B932B20911F0382
:101DB0003091200382279327F4CF002319F08D2F31
:101DC000817001C08695882309F4DAC03C2F3295D2
:101DD00036953770330F330F8C2F8F7090E0032EB2
:101DE00002C0880F991F0A94E2F7C4FF0BC04FE0AE
:101DF00050E002C0440F551F3A95E2F79A01209532
:101E0000309502C020E030E04D2F46954695437056
:101E1000423079F0B8F460918C0270918D024130BB
:101E200029F0822B932B862397230EC0862B972B8A
:101E300009C0822B932B20918C0230918D02822736
:101E4000932702C0822B932B0E941D1F99C01D2F28
:101E50001F70002339F0812F0E94381F8C2F0E94A1
:101E6000921F8EC08C2F0E948B1F812F0E94261FD5
:101E700087C0C23F79F128F4C03F41F0C13F29F14A
:101E800063C0C33F71F1C43FE1F05EC00023A1F025
:101E900051E05D1508F470C02D2F2F7181E090E0A6
:101EA00002C0880F991F2A95E2F720918C02309189
:101EB0008D028227932725C082E08D1508F45CC02F
:101EC000EBCF80918F0282FD1FC0002329F08D2F60
:101ED0008F712DC00023D9F38D2F8F710E94261F83
:101EE0004BC0002361F021E030E09D2F9F71F9018C
:101EF00002C0EE0FFF1F9A95E2F7CF0102C080E00B
:101F000090E00E941D1F38C00023A1F01D2F1F71FB
:101F1000812F0E94381F80918F0282FF07C0F8E056
:101F20001F9FC0011124836080931503812F0E949D
:101F3000381F22C081E00E94911D21E02D15E0F4A0
:101F400082E00E94911D18C0002329F0DD2009F4D1
:101F5000BECF8C2F70CEDD2009F4BECFC93349F43B
:101F60004FEF57EE83E0415050408040E1F700C012
:101F700000008C2F0E949C1F88EF8B0D843010F482
:101F80000E949928CE010E944F1F882381F00023D0
:101F900019F0D1100CC00FC0D11009C020E0F7011A
:101FA000408151816281738184810E949C221092C0
:101FB0005F0210925E02CC20A9F08091150380FD93
:101FC00011C0F70112828595859585950E94381F6D
:101FD000C7010E9485068091150385958595859595
:101FE0000E94261F60E0C7010E94BF2202C069E272
:101FF0003DCDCDB7DEB7EAE00C946B30A4E0B0E0A5
:10200000E4E0F0E10C945530409175025091760275
:1020100060917702709178022FB7F8948091CD0388
:102020009091CE03A091CF03B091D0032FBF841B1A
:10203000950BA60BB70B84369105A105B10508F4E5
:1020400041C00E947819882319F00E9405280EC00B
:102050000E94052800917A0210917B0220917C0257
:1020600030917D02600F711F821F931FDC01CB0135
:102070000296A11DB11D89839A83AB83BC83809195
:1020800012019091130186599D4F4091110150E02A
:102090004530510510F044E050E0BE016F5F7F4FC6
:1020A0000E94FB3082E090E00E94CC2F882359F000
:1020B0000E940528609375027093760280937702E0
:1020C0009093780281E02496E4E00C947130EF92D2
:1020D000FF921F93CF93DF93CDB7DEB727970FB64D
:1020E000F894DEBF0FBECDBF7B0180E090E00E9480
:1020F000CC2F882309F463C04091040150E04115BE
:10210000510511F041E050E0609105017091060128
:1021100066597D4FCE0107960E94FB3040916602C2
:102120005091670260916802709169022FB7F8942C
:102130008091CD039091CE03A091CF03B091D003B5
:102140002FBF841B950BA60BB70B84369105A105F9
:10215000B10538F48BE692E00E949B149F818917A9
:1021600081F181E090E00E94CC2F182F882391F01C
:1021700040910C0150E04730510510F046E050E02E
:1021800060910D0170910E0166597D4FCE0101964F
:102190000E94FB308BE692E00E949B1491E02F811D
:1021A000281390E0192311F10E940528609366021C
:1021B0007093670280936802909369020CC010E0EC
:1021C00001C011E086E0EBE6F2E0DE01119601903D
:1021D0000D928A95E1F7112349F086E0FE013196D0
:1021E000A0E6B2E001900D928A95E1F786E0E0E684
:1021F000F2E0D70101900D928A95E1F7812F2796A1
:102200000FB6F894DEBF0FBECDBFDF91CF911F9107
:10221000FF90EF900895A0E1B0E0E1E1F1E10C94CE
:10222000493085B7806885BF85B7806885BF84B72A
:10223000877F84BF0FB6F894A8958091600088616D
:1022400080936000109260000FBE90E080E80FB6AF
:10225000F89480936100909361000FBE83E399E14D
:1022600090934B0280934A020E94E2170E94011849
:102270008091E20084608093E20078948091B802BB
:102280008823A1F01091E9001F709091EC00892F34
:10229000817090FD80E8182B1092E9008091E80091
:1022A00083FD0E94DC141F701093E90082E084BD5E
:1022B00093E095BD9AEF97BD80936E0010927A02DD
:1022C00010927B0210927C0210927D020E9478197B
:1022D000809319010E94781981110E94E12E80914A
:1022E000190180911901811102C096E001C090E0AE
:1022F00090938B0286E0891B80938A020DE012E0A6
:10230000D8018D918D018F3F11F00E949B19B2E091
:1023100003311B07A9F703E112E0F80181918F0156
:102320008F3F11F00E949B19F2E009311F07A9F7B6
:102330008CE0E2E9F2E0DF01282F1D922A95E9F70F
:10234000EEE7F2E0DF011D928A95E9F780E090E088
:102350000E948630883E9E4F11F00E94E01C82E071
:1023600090E00E947E308093BE030E94CF1C909329
:102370008F0280938E0283E090E00E947E3090E096
:102380000E94481F8CE090E00E947E3090E0A0E028
:10239000B0E08093E1039093E203A093E303B09352
:1023A000E4030E947819811102C00E94E42E8AE1A0
:1023B00091E09093C9038093C80308E110E040E4E2
:1023C000E42EFF24F3948091B802853009F042C0D6
:1023D00020E1C22E32E1D32E8091B802853009F07F
:1023E00035C08091B802843009F11092CC030FB649
:1023F000F894A895009360000FBEE092600083B748
:10240000817F846083BF83B7816083BF7894889520
:1024100083B78E7F83BF0FB6F894A8958091600034
:10242000886180936000109260000FBE8091B702B7
:10243000882391F20E94B219E2E9F2E081918111C0
:10244000ACC122E0EE39F207C9F7C6CF0E946A1F7D
:102450000E9499280E94B2198EE9A82E82E0B82E17
:1024600092E9892E92E0992ED401F50191918D91F6
:10247000892732E0EA3AF30719F08823B9F322C03A
:10248000811120C00E9411286C01809190029091CE
:102490009102C816D90609F44CC08FEF8F83888744
:1024A00019860E9411288160782F9B878A874F8127
:1024B000588569858B850E944724D0929102C092ED
:1024C000900237C00E947819482ED12CD4015D901B
:1024D0004D01F5016080652419F1C12C77247394B6
:1024E000862D8721B1F04420A1F0CC86DD8691E0D5
:1024F000852D872109F490E09E870E941128816034
:10250000782F988B8F874C855D856E8588890E9492
:102510004724C394770CF6E0CF12E2CFD5015C924A
:10252000D394BFEFAB1ABB0AECE0DE12CFCF0E9410
:1025300005280E947819882361F18091EB01882396
:1025400041F18091BB039091BC03009711F10E946F
:10255000F6272091E5033091E60328173907C8F4E0
:102560009091B9038091BA03981759F00E944F2AAD
:102570001092E6031092E5031092BC031092BB0385
:1025800008C00E94152B1092BC031092BB030E943E
:102590006B2B86E0EBEDF3E0DE01119601900D92DE
:1025A0008A95E1F71092DD031092DE031092DF03AB
:1025B0001092E0038B81811104C08C81882309F47F
:1025C0005DC08091D9039091DA030E94F627AC0197
:1025D0009091D503992339F02091F00130E0241730
:1025E000350758F04BC02091BF03FAE02F9F9001B0
:1025F00011242417350718F041C09F3F19F09F5F41
:102600009093D503DB80DD2061F00E94152D1D1411
:1026100014F09FEF01C091E0899F802D11248093D9
:10262000DD03DC80DD2061F00E94152D1D1414F007
:102630009FEF01C091E0899F802D11248093DE03DC
:102640003091DD033323D1F02091DE032223B1F05A
:1026500045EB3403C0011124992319F09093DD0355
:1026600002C0F092DD0335EB2303C001112499234E
:1026700019F09093DE0302C0F092DE038D81811188
:1026800004C08E81882309F451C08091D7039091B2
:10269000D8030E94F6279C019091D403992309F452
:1026A00092C02135310508F441C09F3F19F09F5F6A
:1026B0009093D403DD80DD2061F00E94DC2C1D149A
:1026C00014F09FEF01C091E0899F802D1124809329
:1026D000DF03DE80DD2061F00E94DC2C1D1414F08D
:1026E0009FEF01C091E0899F802D11248093E0032A
:1026F0003091DF033323D1F02091E0032223B1F0A6
:1027000045EB3403C0011124992319F09093DF03A2
:1027100002C0F092DF0335EB2303C001112499239B
:1027200019F09093E00302C0F092E00346E050E01D
:10273000BE016F5F7F4F8BED93E00E94EE30892BDF
:10274000A9F48091DD0381110FC08091DE03811116
:102750000BC08091DF03811107C081E09091E003FD
:10276000911103C080E001C081E080FD0E943B2CFC
:1027700086E0FE013196ABEDB3E001900D928A95B3
:10278000E1F70E9499289091AA02891709F41BCEBB
:102790008093AA020E94052816CEC9BCD9BC09B4F0
:1027A00000FEFDCF8091D8008F7D8093D80080916E
:1027B000E00082608093E0008091E00081FDFCCF2A
:1027C0000E946A1F09CE232B09F071CFAFCFA0E082
:1027D000B0E0EDEEF3E10C944F307C015B016A0157
:1027E000809179028A3018F001E010E002C00AE01E
:1027F00010E0C1E0D0E0B501C701F60109958111F3
:1028000015C021960C171D0794F0CC9F9001CD9F09
:10281000300D300D112480E090E045E34A95F1F74A
:102820000000019682179307C1F7E5CF81E0CDB78D
:10283000DEB7EAE00C946B30FF920F931F93CF93B7
:10284000DF938C018AE0F82EF8018491882309F443
:102850004CC0813009F042C0E8012196FE0184910C
:10286000813031F42196FE0184910E94172039C0F5
:10287000823039F4E8012296FE0184910E94AF2D46
:1028800030C0833039F4E8012296FE0184910E9421
:102890009C1F27C0843029F5E8012296FE0124916F
:1028A00080E090E030E0205331092A30310560F4B7
:1028B000F89EA001F99E500D1124C901840F951FA7
:1028C0002196FE012491EECF009759F0EFE9FFE049
:1028D0003197F1F700C000000197F6CF0E947C2BE2
:1028E000E8018E010F5F1F4FAFCFCDB7DEB7E5E038
:1028F0000C9470300F931F93CF938C018091C20280
:10290000C82FC17080FF03C080EE0E949C1FF80199
:102910008281882321F08FE20E94AF2D03C08FE2D5
:102920000E949C1FCC2319F080EE0E94AF2DCF9106
:102930001F910F910895FC01AC014A5F5F4F8FEF2B
:1029400091E32191822728E030E087FF03C0880FC0
:10295000892701C0880F21503109B9F7E417F5071D
:1029600081F70895EF92FF920F931F93CF93DF9318
:102970007C018B010E94EB26811119C0E701011532
:102980001105A1F08091E80085FD0AC08091E80062
:102990008E778093E8000E94EB26882381F307C09E
:1029A00089918093F10001501109E9CF80E0CDB702
:1029B000DEB7E6E00C946F30AAE2B0E0E2EEF4E1BC
:1029C0000C945630EAEBF2E082EC92E02091F100B8
:1029D00021938E179F07D1F78091BB02833009F4B2
:1029E00061C030F4813071F0823009F49BC0B2C014
:1029F0008A3009F487C08B3009F46CC0893009F043
:102A0000A9C020C08091BA02813A09F0A3C0809188
:102A1000E800877F8093E8008091BE029091BF021A
:102A2000892B21F468E08EEA92E003C060E080E048
:102A300090E070E00E9472278091E8008B7780938D
:102A4000E80088C08091BA02813209F083C0809189
:102A5000BE029091BF02029708F07CC08091E8000E
:102A6000877F8093E8008091E80082FD05C0809117
:102A7000B8028111F8CF6EC02091F3008091F2006E
:102A800090E0922B029731F48091F100813011F0A7
:102A9000863021F48091F1008093AD028091E800AE
:102AA0008B7754C08091BA02813A09F053C080916B
:102AB000BE029091BF02892B09F04CC08091E800C2
:102AC000877F8093E8008091E80080FFFCCF8091B1
:102AD000260137C08091BA028132E1F58091BE02B1
:102AE0009091BF02892BB1F58091E800877F809398
:102AF000E8000E941E278091BC02809326010E945C
:102B00006A1F28C08091BA02813221F58091E800C5
:102B1000877F8093E8000E941E278091BD028093EA
:102B2000AC0218C08091BA02813AA1F48091E80009
:102B3000877F8093E8008091E80080FFFCCF809140
:102B4000AC028093F1008091E8008E778093E800DA
:102B50000E941E278091E80083FFCEC18091BA02B7
:102B60009091BB02492F50E04A30510508F0C4C192
:102B7000FA01EE59FF4F0C94D430803821F082389E
:102B800009F0BAC108C08091B6029091B7029923AA
:102B900089F082600FC08091BE028F70873008F08C
:102BA000ABC18093E9008091EB0085FB882780F919
:102BB0001092E9009091E800977F9093E80080934D
:102BC000F1001092F10065C1282F2D7F09F094C10A
:102BD000882319F0823061F08FC18091BC0281306E
:102BE00009F08AC1933009F080E08093B7022EC0CB
:102BF0008091BC0281112AC08091BE028F702FEF9C
:102C0000280F263008F078C18093E9002091EB006E
:102C100020FF1CC0933021F48091EB00806214C02F
:102C20009091EB0090619093EB0021E030E0A901DE
:102C300002C0440F551F8A95E2F74093EA001092B4
:102C4000EA008091EB0088608093EB001092E9002D
:102C50008091E800877F20C181114EC11091BC0294
:102C60001F778091E3008078812B8093E30080912F
:102C7000E800877F8093E8000E941E278091E8008B
:102C800080FFFCCF8091E30080688093E300111106
:102C900002C082E001C083E08093B8022DC1805859
:102CA000823008F029C18091BC029091BD028C3D18
:102CB00053E0950779F583E08A838AE289834FB7E9
:102CC000F894DE01139620E03EE051E2E32FF0E0BD
:102CD00050935700E49120FF03C0E295EF703F5FEF
:102CE000EF708E2F90E0EA3010F0C79601C0C096CA
:102CF0008D939D932F5F243149F74FBF8091E8005A
:102D0000877F8093E8006AE270E0CE0101960E941E
:102D10007227AEC04091BE025091BF02292F3327C7
:102D200023303105A9F068F42130310509F4F3C0EE
:102D30002230310509F0E0C08BE390E0EBECF1E0EC
:102D400044C02132310521F12232310571F1D4C064
:102D5000992781309105A1F058F0029709F0CCC075
:102D6000E8E1F2E0E4918E2F90E0E8E1F2E02AC0A1
:102D7000E6E5F2E0E4918E2F90E0E6E5F2E022C095
:102D8000E6E4F2E0E4918E2F90E0E6E4F2E01AC08F
:102D90004115510509F4C4C04130510509F0ACC0DA
:102DA00089E090E0E6EFF1E010C04115510509F42B
:102DB000BCC04130510509F09FC08BE790E0E0E1D5
:102DC000F1E003C0009709F497C02091E800277F45
:102DD0002093E8002091C0023091C102821793072E
:102DE00008F49C0140E02115310589F18091B80279
:102DF000882309F43DC08530D9F18091E80083FD36
:102E000037C08091E80082FD2FC08091E80080FFEC
:102E1000EACF4091F3008091F20090E0942B2115CD
:102E2000310559F08830910540F444914093F10008
:102E30003196215031090196F2CF41E0089709F00F
:102E400040E08091E8008E778093E800CCCF41117C
:102E5000CDCF0AC08091B802882351F0853041F06F
:102E60008091E80083FD04C08091E80082FFF2CFEA
:102E70008091E8008B778093E8003EC08038E1F5D0
:102E80008091E800877F8093E8008091B902809369
:102E9000F1008091E8008E778093E8000E941E2761
:102EA0002BC0811129C08091BC029091BD0299274D
:102EB000029714F58091E800877F8093E8001091D5
:102EC000BC021093B9020E941E27111106C0809106
:102ED000E30087FD02C081E001C084E08093B80276
:102EE00042E061EC81E00E943D2742E261EC82E039
:102EF0000E943D278091B8028091E80083FF1AC0AC
:102F00008091E800877F8093E8008091EB008062E9
:102F10008093EB000FC082E190E0E6E0F2E055CF55
:102F200089E090E0EDEDF1E050CF80E490E0EBE857
:102F3000F1E04BCFAA96E3E00C9472301F920F920F
:102F40000FB60F9211242F933F934F935F936F937C
:102F50007F938F939F93AF93BF93CF93DF93EF9321
:102F6000FF93C091E900CF708091EC00D82FD17011
:102F700080FDD0E81092E9008091F000877F809377
:102F8000F00078940E94DC141092E9008091F00027
:102F900088608093F000CD2BCF70C093E900FF9143
:102FA000EF91DF91CF91BF91AF919F918F917F91E1
:102FB0006F915F914F913F912F910F900FBE0F90A6
:102FC0001F901895E8EDF0E080818E7F808310924D
:102FD000E2001092DA001092E100A0EEB0E08C91D5
:102FE00081608C9380818F77808319BCA7EDB0E0DE
:102FF0008C918E7F8C9380818F7E80831092AB0228
:103000000895A0E0B0E0E7E0F8E10C945130C8ED9D
:10301000D0E088818F7E8883E7EDF0E08081816059
:10302000808384E082BF81E08093AB0288818E7FC1
:10303000888302EE10E0F80110821092DA0081EE2F
:10304000C82ED12CF601108288818F7788838881E1
:103050008068888388818F7D888319BC1092B8022C
:103060001092B9021092B7021092B60290EEE92EB9
:10307000F12CF70180818B7F808388818160888338
:1030800042E060E080E00E943D27F60180818E7F73
:103090008083F80180818160808380818860808363
:1030A000F70180818E7F8083888180618883CDB79E
:1030B000DEB7E8E00C946D301F920F920FB60F92BE
:1030C00011242F933F934F935F936F937F938F932D
:1030D0009F93AF93BF93EF93FF938091E10082FFA3
:1030E00009C08091E20082FF05C08091E1008B7FE2
:1030F0008093E1008091DA0080FF2AC08091D8009F
:1031000080FF26C08091DA008E7F8093DA00809164
:10311000D90080FF18C080E189BD82E189BD09B472
:1031200000FEFDCF81E08093B8028091AB02811157
:103130000FC00E94E2170E9401188091E200846093
:103140008093E20005C019BC1092B8021092AB0245
:103150008091E10080FF17C08091E20080FF13C0E2
:103160008091E2008E7F8093E2008091E200806196
:103170008093E2008091D80080628093D80019BCCF
:1031800085E08093B8028091E10084FF30C0809197
:10319000E20084FF2CC080E189BD82E189BD09B4D1
:1031A00000FEFDCF8091D8008F7D8093D800809164
:1031B000E1008F7E8093E1008091E2008F7E80931A
:1031C000E2008091E20081608093E2008091B90288
:1031D000882311F084E007C08091E30087FD02C0DE
:1031E00081E001C083E08093B8028091B8028091B1
:1031F000E10083FF27C08091E20083FF23C080911C
:10320000E100877F8093E10082E08093B802109212
:10321000B9028091E1008E7F8093E1008091E2000D
:103220008E7F8093E2008091E20080618093E200D3
:1032300042E060E080E00E943D278091F0008860DD
:103240008093F000FF91EF91BF91AF919F918F918B
:103250007F916F915F914F913F912F910F900FBE92
:103260000F901F90189580E0089590918E0292FF24
:103270000DC0282F2871283019F4877F846006C07C
:10328000282F2471243011F48B7F886093FF0DC0A8
:10329000282F2871283119F4877E846106C0282FD1
:1032A0002471243111F48B7E886120918F0220FFDC
:1032B0000DC0382F3871383019F4877F816006C00F
:1032C000382F3171313011F48E7F886021FF0DC0AD
:1032D000282F2871283119F4877E816106C0282F94
:1032E0002171213111F48E7E886194FD877E0895CD
:1032F00080912B03811118C08091D8008061809348
:10330000D8008AE18A95F1F700C08091D90080FD4C
:1033100002C082E001C081E080932B03823021F45F
:103320000E94E2171092B80281E090912B03913035
:1033300009F080E00895F894E82FE295EF70F0E04E
:1033400031A1282F2F7081E090E001C0880F2A95CD
:10335000EAF7982F9095932391A392A1892B82A3AA
:1033600078940895A2E1B0E0E8EBF9E10C944A30DA
:10337000AE014F5F5F4F7A018CE0DA011D928A95B2
:10338000E9F70DE012E06A0183E1682E82E0782E11
:10339000AA24A394B12C29E1822E22E0922EF801D6
:1033A00080818F3F09F440C0F894E82FE295EF70D8
:1033B000F0E021A18F70A50102C0440F551F8A952E
:1033C000E2F7CA01922F982B91A392A180958923AD
:1033D00082A3789400C0E3E1F2E0512C31E0219126
:1033E0002F3F89F0A22FA295AF70B0E090968C91FC
:1033F00090E02F7002C0959587952A95E2F780FDA1
:1034000002C0832F01C080E0582A330F8E169F061A
:1034100031F7D8018C918F3F11F00E949B19B0EACF
:10342000BA95F1F7F60150820F5F1F4FFFEFCF1AE9
:10343000DF0A6016710609F0B2CF4CE050E0B70128
:103440008EE792E00E94EE30009741F02CE0F70109
:10345000AEE7B2E001900D922A95E1F700918B0260
:10346000892B49F081E0809323030E9411289093D7
:1034700022038093210380912303811102C0F12C48
:1034800022C080912103909122030E94F627059784
:10349000B0F310E00E561D4F46E050E06EE772E0CC
:1034A000C8010E94EE30892B59F086E0EEE7F2E089
:1034B000D80101900D928A95E1F7FF24F39401C0A1
:1034C000F12C109223030E947819E0918B0288233B
:1034D00009F458C06E012DE0C20ED11C86E0D60161
:1034E0001D928A95E9F70E2F10E00E561D4F809120
:1034F00079028A3048F447E650E1B601C8010E94DB
:10350000E713882399F00AC0809124039091250342
:103510000E94F627843F914070F71AC04EEF5FE09B
:10352000B601C8010E94E713811171C08091790230
:103530008F3F19F08F5F80937902809179028A30F2
:1035400008F467C00E9411289093250380932403F8
:1035500080912A03882309F454C086E0F601119271
:103560008A95E9F710922A03A0918A02B0E0AE563C
:10357000BD4F86E0FE013D9601900D928A95E1F7E0
:1035800081E040C0F0E0EE56FD4F86E0ABE6B2E0F1
:1035900001900D928A95E1F78BE692E00E949B14D0
:1035A00080936A028090710290907202A0907302E0
:1035B000B09074028091260390912703A091280374
:1035C000B091290388169906AA06BB06D1F080920D
:1035D000260390922703A0922803B09229030E9409
:1035E000781981110EC00E940528861A970AA80A28
:1035F000B90A80927A0290927B02A0927C02B092E9
:103600007D0280E08F296296EFE00C946630109284
:10361000790280918A0290E046E050E0B6018E5631
:103620009D4F0E94EE3021E020932A03892B09F060
:103630009BCFE7CF7C30A0F4663090F498E4899F6C
:10364000F001112486E0789FE00DF11D1124E60FB2
:10365000F11DEE0FFF1FE65AFD4F859194910895DD
:1036600080E090E00895CF93DF938238910569F16F
:10367000B0F48133910509F477C048F4893291059B
:1036800009F469C08A32910509F473C092C0853388
:10369000910509F45BC089339105B9F08AC0833E76
:1036A000910591F138F4803E9105D1F0823E91056B
:1036B00031F17FC0863E9105D9F1873E9105E9F150
:1036C000843E910509F075C028C020918E0220FD2E
:1036D0005BC021FD59C020918F0223FD61C069C0EC
:1036E00080918E0280FD4AC080918F0280FF4CC085
:1036F00080918E0284FD4EC183EE90E04DC1809199
:103700008E0282FF3EC0F4CF80918E0282FD39C0CE
:1037100080918F0280FD38C0EBCF80918F0281FFB6
:1037200039C080918E0284FD35C187EE90E034C1AE
:1037300080918E0283FF2BC0F4CF80918E0283FD97
:1037400026C080918F0281FD25C0EBCF80918E0233
:1037500085FD26C022C080918E0285FD1EC080910D
:103760008F0283FF1DC00AC080918E0286FD1BC0A0
:103770001DC080918E0286FD19C015C089E390E0BE
:103780000BC182EE90E008C180EE90E005C186EEAC
:1037900090E002C184EE90E0FFC085E390E0FCC0C1
:1037A00089E290E0F9C08AE290E0F6C081E390E01F
:1037B000F3C0811531E5930708F061C0811520E55C
:1037C0009207B0F09C012370332741E050E002C023
:1037D000440F551F2A95E2F7282F2695269580E25B
:1037E000289F90011124CA01822B932B9D68D4C07D
:1037F000883E910568F5803E910508F0CDC0883A75
:103800009105B8F4853A910548F0855AE82FF0E023
:10381000E75EFD4F808190E09064BEC081309105ED
:1038200009F4B5C008F4B6C08430910508F4B2C0FC
:10383000B3C08F3B910508F0ADC0885AE82FF0E087
:10384000EE0FFF1FE45EFD4F808191819464A4C060
:10385000811530E2930758F4811521E0920708F0B2
:103860009BC08D3E910508F495C0906595C081156B
:1038700030E4930708F48EC09F70906A8DC0811564
:1038800025E5920708F042C0811534E5930728F03A
:10389000982F8827846F906A7FC0811523E592074F
:1038A000B0F09C012370332741E050E002C0440F88
:1038B000551F2A95E2F7282F2695269580E2289F06
:1038C00090011124CA01822B932B9A6865C081153F
:1038D00032E5930728F4982F8827816F906A5CC09F
:1038E0009C012370332741E050E002C0440F551F74
:1038F0002A95E2F7282F2695269580E2289F9001A9
:103900001124CA01822B932B9C6846C0EC01C1157F
:1039100089E5D807B0F4C11528E5D20728F09C2F17
:103920008827806F906A38C0C11536E5D30790F5B7
:103930008C2F0E9435198F7190E0982F8827906204
:103940002BC0C1158AE5D80790F48C2F8F700E9488
:10395000351994E0D695C7959A95E1F7CF70D0E0E8
:10396000DC2FCC27D0699E01282BC90115C0CE01C0
:1039700090568115904270F48D2F8F710E943519E9
:10398000282F2F71CE0199279062922B05C081E0DC
:1039900090E002C080E090E0DF91CF910895CF9356
:1039A00084E090E00E947E30C82F82E290E00E9486
:1039B0007E302C2F30E0A901582BCA01CF910895F9
:1039C00068EE7EEF80E090E00E94AA3060E082E046
:1039D00090E00E948C3060E083E090E00E948C30A8
:1039E0001092200310921F0360E084E090E00E9498
:1039F0008C3064E082E290E00E948C3060E085E0F0
:103A000090E00E948C3060E086E090E00E948C3074
:103A10006FEF87E090E00E948C3040E050E0BA0108
:103A200088E090E00E949E3060E08DE090E00E948F
:103A30008C3040E050E0BA0188E190E00E949E3076
:103A400060E087E190E00E948C3040E050E0BA01F5
:103A50008CE190E00E949E3060E070E080E290E0B7
:103A60000E94AA3040E050E0BA0188E190E00E9454
:103A70009E3040E050E0BA018FE090E00E949E301E
:103A800040E050E0BA0183E190E00E949E3008954A
:103A900080911E03811110921E03089580959091CC
:103AA000C20289238093C20208959091C20280913C
:103AB000E703982B9093C30280911E03882389F01B
:103AC000892B8093C302E5ECF2E097E080E091500F
:103AD00029F021912223D9F38F5FF9CF81110E9420
:103AE000481D48E050E066E173E083EC92E00E94FC
:103AF000EE30892BA9F088E0E3ECF2E0A6E1B3E038
:103B000001900D928A95E1F7E091C803F091C90305
:103B1000309731F00280F381E02D83EC92E009953B
:103B20000895209115038095822380931503982F83
:103B3000977099F430E0482F082E000C550B24178D
:103B4000350759F090918F0292FF07C085958595B2
:103B500085950E94261F109215030895CF93C0915A
:103B60008F02C2FB992790F9981791F080FBC2F958
:103B7000C0938F0260918E0284E090E00E948C30AE
:103B80006C2F82E290E00E948C3082E00E94911DB6
:103B9000CF910895209114039091D3022917B1F089
:103BA00030E0F90153E0EE0FFF1F5A95E1F7EC52B8
:103BB000FD4F5181561306C05081581303C05281E6
:103BC000541306C02F5F3F4F2770E8CF80E0089561
:103BD00081E00895809114039091D302891719F020
:103BE0008F5F8770FBCF0895EF92FF920F931F9323
:103BF000CF93DF938091D00282958F7009F054C0EB
:103C00008091CD02882309F44FC0C0911403E09045
:103C1000D302D091CB02F090CC020091CE02109151
:103C2000CF02CE1509F440C0A8016F2D8D2F0E9440
:103C3000312A2C2F30E0811132C0F90183E0EE0FE0
:103C4000FF1F8A95E1F7DF01AC52BD4F11968C91B1
:103C500011978F1124C08C918D1321C012968C91D5
:103C6000129781111CC013968D919C911497801B03
:103C7000910B883C910598F48091D0028F708061FF
:103C80008093D002E752FD4F80818F7080618083E6
:103C90008BEC92E00E9485060E94EA1D05C02F5F12
:103CA0003F4FC22FC770BDCFCDB7DEB7E6E00C9453
:103CB0006F3080E090E00E94832880E090E00E94D6
:103CC0006D281092E7030E94551DEBEDF3E086E0AE
:103CD000DF011D928A95E9F71092D5031092D40363
:103CE0001092D6030E943B2C0895A0E0B0E0EBE7D1
:103CF000FEE10C9450307C0100918C0210918D02F9
:103D000080911F0390912003082B192BCFE0D0E066
:103D1000CC24C394D12CC6010C2E02C0880F991F4D
:103D20000A94E2F780239123892B21F4219798F7B5
:103D3000B12C09C0BC2EB7018C2F0E941A1B0E9407
:103D4000331B019799F38B2DCDB7DEB7E9E00C94C7
:103D50006C30CF93DF93EC010E94751EBE010E9470
:103D60001A1B0E94331BDF91CF9108959C3078F588
:103D7000863068F5E82FF0E086E0989FE00DF11DB1
:103D800011249E2F977083E0F695E7958A95E1F7C9
:103D9000EE0FFF1FEE0FFF1FE45DFC4F40E050E011
:103DA00080E0219130E0092E02C0369527950A94D3
:103DB000E2F721703327042E01C0220F0A94EAF79C
:103DC000822B4F5F5F4F4430510559F7089580E0D3
:103DD00008959C3088F5863078F5E82FF0E086E08D
:103DE000989FE00DF11D11248E2F877051E001C0C6
:103DF000550F8A95EAF783E0F695E7958A95E1F7FE
:103E0000EE0FFF1FEE0FFF1FE45DFC4F20E030E0E0
:103E100070E04081CB01022E02C0969587950A94EE
:103E2000E2F78170819584278523842781932F5F12
:103E30003F4F2430310569F708950E944423909341
:103E40008D0280938C020E94591E089521E030E07B
:103E500002C0220F331F8A95E2F72095309580919A
:103E60008C0290918D02822393230E941D1F08953E
:103E700021E030E002C0220F331F8A95E2F78091E3
:103E80008C0290918D02822B932B0E941D1F08950E
:103E90009093200380931F030E94591E08959295CA
:103EA0009F70963079F010F4925001C09A50923081
:103EB00068F4803F69F018F4883E40F409C0843FFC
:103EC00029F406C0883E20F0813F11F080E008957B
:103ED00081E008951092C20286E0E5ECF2E0DF0195
:103EE0001D928A95E9F70E94591E0895882341F092
:103EF00080959091E70389238093E7030E94551DE5
:103F00000895882339F09091E703892B8093E70384
:103F10000E94551D0895882321F00E944E1D0E9485
:103F2000551D0895882339F09091C202892B809302
:103F3000C2020E94551D0895882309F45FC082388B
:103F400069F40E94992881FF59C069E383EC92E0EB
:103F50000E9453280E94551D69E30EC0833899F4CE
:103F60000E94992880FF4AC063E583EC92E00E949A
:103F700053280E94551D63E583EC92E00E94462879
:103F80000E94551D0895843869F40E94992882FF83
:103F900035C067E483EC92E00E9453280E94551DCF
:103FA00067E4EACF9CEF980F913A10F4682FE4CFC2
:103FB00090E2980F983050F4877091E001C0990F0B
:103FC0008A95EAF7892F0E944E1DDACF9BE5980F5C
:103FD000933028F480E090E00E948328089598E5CB
:103FE000980F973128F480E090E00E946D280895A2
:103FF0008D3E20F00E94652C0E943B2C08951F935B
:10400000CF93DF93182FEB010E94AF2D209741F043
:104010008FE99FE00197F1F700C000002197F6CFEC
:10402000812F0E949C1FDF91CF911F9108958933AA
:1040300019F060E070E002C060E570E00E94FF1FD0
:104040000895CF93DF93EC014B815C816981888176
:104050000E94312A81110EC08E819F81009719F034
:104060000E94331B04C0888199810E94A91E0E946E
:104070004F1F01C080E0DF91CF910895A5E1B0E02E
:10408000E4E4F0E20C9448308C0185E0F801DE01B4
:10409000519601900D928A95E1F7D8011296EC9015
:1040A0008BECA82E82E0B82E5090CB024090CC0230
:1040B0008090CE029090CF02A401642D852D0E94A5
:1040C000312AF82E811174C1F80170806180C3809B
:1040D000D4803090CD02960128193909332009F493
:1040E00019C18091D002982F907F283C310508F0AB
:1040F000D3C0911179C046101AC0571018C0409112
:10410000D1025091D202268137814217530779F4A8
:10411000E1100DC08F7080618093D002C5010E94B4
:1041200085068091D002D80115968C935DC1A601B9
:10413000662D872D0E94312AD82E811103C081E07F
:104140008E2502C080E090E080FF07C04E2D662DD6
:10415000872D0E94CA1D81113EC0D11003C081E08D
:104160008E2502C080E090E0B82FB170DB2E80FF7A
:104170002AC04E2D662D872D0E94CA1DC82E811182
:1041800022C0798A6A8A89899A890E94A91E292F60
:1041900022952F70223018F0243078F405C09F70DB
:1041A00049F0811107C00DC09F7021F0F801958181
:1041B000907F39F0805E883020F0C8010E9485062B
:1041C000CD2CFC2C11C1EE2009F40DC18091D00240
:1041D00081608093D0028BEC92E00E948506EBEC2C
:1041E000F2E088E0DF01E0C046101BC0571019C0A4
:1041F0004091D1025091D202F801268137814217B5
:10420000530779F4E1100DC08583C8010E9485062B
:1042100088E0F801ABECB2E001900D928A95E1F7ED
:1042200059C0C8010E942120882381F1EE2071F13C
:104230002091D002822F82958F7090E00297A4F097
:104240008091CB029091CC029A8789871B86DD866C
:10425000CC862E878091D1029091D202988B8F8745
:10426000CE0109960E94850688E0F801ABECB2E029
:1042700001900D928A95E1F70E94F41D0AC0461440
:1042800091F0C8010E942120811126C0C8010E941E
:104290008506FF24F394A8C09111F1CF8BEC92E036
:1042A0000E9485067FC05710ECCF4091D1025091FB
:1042B000D202F801268137814217530711F7E11026
:1042C000E0CF8583C8010E94850688E0D5011D9254
:1042D0008A95E9F7F32C88C0EE20C1F22091D00234
:1042E000822F82958F7090E002970CF4BDCF809161
:1042F000CB029091CC029A8389831B82DD82CC828F
:104300002E838091D1029091D20298878F83CE0123
:104310000196A8CF283C310508F044C0FE2CEE20C1
:1043200009F4B4CF461030C057102EC02091D102EE
:104330003091D202F801868197812817390721F53B
:104340009091D00290FD17C0892F82958F70282FF1
:1043500030E02115310579F095832F30310541F09A
:104360008F5F982F9295907F85818F70892B8583A1
:10437000C8010E94850688E0F801ABECB2E001902C
:104380000D928A95E1F730C0C8010E942120811169
:104390006BCF8091D00281608093D002C8010E94CF
:1043A000850622C088E0D5011D928A95E9F71CC0D8
:1043B000EE2009F46BCFC8010E942120F82E88233B
:1043C00009F464CF88E0F801ABECB2E001900D9203
:1043D0008A95E1F78091CB029091CC020E94A91EB0
:1043E0000E94F41D01C0F12C8F2D6596E1E10C9423
:1043F0006430A0E1B0E0EFEFF1E20C945330298794
:104400003A874B875C876D877E878F87988BCE0135
:1044100009960E943E2081114AC088E0FE0139962B
:10442000DE01119601900D928A95E1F7E984FA84F4
:104430000C851D85A8016F2D8E2D0E94312A8111BA
:1044400036C0A091D302B0E0CD01019687709927C4
:104450002091140330E08217930781F1E982FA82F8
:104460001D830C8393E0AA0FBB1F9A95E1F7AC5212
:10447000BD4F98E0FE01319601900D929A95E1F7BB
:104480008093D3020E94EA1D12C028E0829FC001DF
:1044900011248C529D4F0E943E208823E1F0809190
:1044A000140390E0019687709927809314038091FC
:1044B00014039091D3028913E8CF0DC00E946A1FA4
:1044C0001092D30210921403EBECF2E088E0DF01CB
:1044D0001D928A95E9F76096E6E00C946F309C0196
:1044E0003A9521153F4130F5BC0166277270AC0149
:1044F000442754709C012227387094FF0FC090FF0E
:1045000002C080E101C080E0672B09F08062452B8A
:1045100009F08064232B79F080680895892F8170D9
:10452000672B09F08260452B09F08460232B19F07A
:104530008860089580E00895A5E0B0E0E2EAF2E244
:104540000C94563049835A8389819A81662359F0A5
:10455000222349F00E94751E182F682F89819A81A5
:104560000E94E91E03C00E94B61E182F69817A813D
:10457000812F0E941A1B2596E3E00C947230FC01F7
:1045800086819781009741F4262F40815181628175
:10459000738184810E949C2208950E946A1F2FEFDC
:1045A00084E39CE0215080409040E1F700C000008F
:1045B0009AE088E10FB6F894A895809360000FBE4A
:1045C00090936000FFCF0E946A1F2FEF84E39CE06E
:1045D000215080409040E1F700C0000087E797E756
:1045E00090930108809300089AE088E10FB6F89450
:1045F000A895809360000FBE90936000FFCFEF926C
:10460000FF920F931F93CF93DF93EC018B017C01FB
:1046100080EEE81AF10898E0E916F10410F020970E
:1046200031F4CE010E946F220E94921F05C0CE017C
:104630000E946F220E94811F8C2F0E94AF2D0115B6
:10464000110549F08FE99FE00197F1F700C00000E4
:1046500001501109F4CF8C2F0E949C1F98E0E9169D
:10466000F10410F0209731F4CE010E946F220E94D5
:104670008B1F05C0CE010E946F220E94761FCDB70E
:10468000DEB7E6E00C946F309C012C7033272C30A1
:10469000310511F4806101C08F7E9C012470387057
:1046A0002430384011F4906108959F7E0895EF9270
:1046B000FF920F931F93CF93DF937C01162FEA0194
:1046C0008091C202082F027081FF03C081EE0E9418
:1046D0009C1FF7018281882349F0812F0E94AF2D12
:1046E000209761F08C2F0E94AF2D08C0812F0E946F
:1046F0009C1F209719F08C2F0E949C1F002319F0FB
:1047000081EE0E94AF2DCDB7DEB7E6E00C946F309E
:104710000F931F93CF938C01C42FAB0166EE70E013
:104720000E945723F8018281811106C08C2F0E94BC
:10473000AF2D8C2F0E949C1FCF911F910F91089538
:104740008C31910508F0A2C0FC01E459FF4F0C9494
:10475000D430662309F49AC08AE29BE095C06623B0
:1047600009F494C08EE19BE08FC0662309F48EC0EB
:1047700087E19BE089C0662309F488C080E19BE063
:1047800083C0662309F482C082E09BE07DC066237B
:1047900009F47CC089EF9AE077C0662309F476C0FB
:1047A00081EF9AE071C0662309F470C087EE9AE049
:1047B0006BC0662309F46AC08FED9AE065C066237A
:1047C00009F464C085ED9AE05FC0662309F45EC019
:1047D0008EEC9AE059C0662309F458C085EC9AE043
:1047E00053C0662309F452C08CEB9AE04DC0662397
:1047F00009F44CC08FEA9AE047C0662309F446C02A
:1048000084EA9AE041C0662309F440C08EE99AE048
:104810003BC06623D9F185E99AE036C06623B1F141
:1048200088E89AE031C0662389F18FE79AE02CC0CE
:10483000662361F184E79AE027C0662339F18FE6A9
:104840009AE022C0662311F18AE69AE01DC0662331
:10485000E9F087E69AE018C06623C1F082E69AE0A4
:1048600013C0662399F08EE59AE00EC0662371F0BE
:1048700088E59AE009C0662349F08BE49AE004C019
:10488000662321F08AE39AE00E941C140895ABE1AC
:10489000B0E0EDE4F4E20C944730942F498B252FDF
:1048A0005A8B6B8B7C8B8D8B4C895D89622F892F0A
:1048B0000E94312A811109C080915E0290915F02AD
:1048C000019690935F0280935E028B898111109212
:1048D000E7038E01075F1F4F88E0F80111928A9568
:1048E000E9F785E0FE017196D80101900D928A9555
:1048F000E1F74C855D856A8589850E94312A8111A1
:10490000D8C161E0C8010E94BF225C01883FFCE57C
:104910009F0739F48B858823A1F081E08093EB0118
:10492000C8C1893F2CE5920731F48B85882349F073
:104930000E94402ABEC18A3F9C4519F48B85811193
:1049400011C007E211E0712CC12CD12C8824839472
:10495000912C55245394CE0101969F8B8E8B77E03A
:10496000472E38C08091EB018823B9F2E1CFFFEFE9
:10497000EF16FF0609F44BC1F8016481611145C0CF
:104980002091EB01822F81706B84F80135812681A3
:10499000662009F4DCC0882309F4D9C03323C1F1AF
:1049A000940102C0220F331F9A95E2F7215031097A
:1049B000F801868190E02817390709F440C076286D
:1049C000FFEFCF1ADF0A095F1F4F2CE1C216D10497
:1049D00009F41FC1F801208131816FEF8FEF90E062
:1049E000E92EF12CF701EE0FFF1FE20FF31F4591A7
:1049F0005491A416B50611F0E62EF82E452B09F4B5
:104A0000B6CF9F5F6E2D8F2DEBCF20E030E0BACF79
:104A1000A4010E2C01C0440F0A94EAF7242B26832C
:104A20002091E5033091E6032233310508F0B8CF39
:104A300022E330E03093E6032093E503B1CF809189
:104A4000BB039091BC03009729F00E94F627C397FF
:104A500008F02CC18091B903B091BA03982FE0E01F
:104A6000F0E08B1709F45FC0282F30E0F901EE0F5A
:104A7000FF1FEF54FC4FE080F1804E9CF0014F9CF3
:104A8000F00D1124E95DFE4F40814A8F41814B8F2B
:104A9000A0E060E070E0EA8DFB8DE70FF11DE70F0D
:104AA000F11D2590349021143104D1F0F801F081EA
:104AB000F88FF801F181F98F60E0E88DF98DE60F4C
:104AC000F11DE60FF11D459154914115510531F04D
:104AD0002416350609F4A1E06F5FEFCF7F5FDBCFCF
:104AE000AA23D1F0671708F4DBC04E9CF0014F9C5D
:104AF000F00D1124E95DFE4F309781F05482E017EC
:104B0000F10719F49093B9035ACF891307C0C9016B
:104B10000196982F937002C0E0E0F0E02F5F3F4FC6
:104B2000822F83709ECF9093B903E017F10709F4A9
:104B300046CF90E0FC01EE0FFF1FEF54FC4FD182F7
:104B4000C0820196837099278093BA0338CF3111C0
:104B500014C0A40102C0440F551F9A95E2F74150BA
:104B6000510930E04217530709F043C0662309F4A6
:104B700041C0C6010E94E72A3CC0822F90E09C0100
:104B800021503109282339230E2C02C09595879591
:104B90000A94E2F7232B59F580FF29C0F80182819E
:104BA0009381892BE1F088E0EE89FF8911928A9543
:104BB000E9F78EEF89838A830E9411288160582F3C
:104BC0009D838C83F801828193818F8398872981CB
:104BD0003A814B816D817E810E94F92104C060E0A1
:104BE000C6010E94A023F801158281E003C08170F4
:104BF00001C080E094010E2C01C0220F0A94EAF754
:104C00002095F801968129232683682ED8CE612C21
:104C1000D6CE8B85882381F1772071F10E941128EF
:104C20009093BC038093BB0380915003883008F0BD
:104C30004AC091E0980F9093500398E0FE01399696
:104C4000DE01119601900D929A95E1F74CE0849F58
:104C5000C00111248F5A9C4F28E0FE013196DC01DF
:104C600001900D922A95E1F72FEF3FEFFC0131877C
:104C70002087B386A28627C09091B9038091BA039A
:104C8000981719F00E944F2A08C00E94152B109205
:104C9000BC031092BB030E946B2B772051F013C012
:104CA0000115110509F438CF9093B903F801548226
:104CB00086CE29853A854B855C856D857E858F8579
:104CC00098890E94F9216B96E2E10C946330089573
:104CD0008091AD0208958093D1037093D3036093C4
:104CE000D2038091B802843001F582E08093E9001C
:104CF0008FEF9091E800815095FD06C095ED9A9553
:104D0000F1F700008111F5CF8091E80085FF0DC01B
:104D100040E050E063E070E081ED93E00E94B21467
:104D20008091E8008E778093E8000895BC0184E0CC
:104D30000E946B260895BC0183E00E946B260895B3
:104D400022E02093E9002FEF3091E800215035FD5B
:104D500006C035ED3A95F1F700002111F5CF20910D
:104D6000E80025FF0BC040E050E066E070E00E94E4
:104D7000B2148091E8008E778093E8000895CF9375
:104D8000DF9321E02093E9002FEF3091E8002150DC
:104D900035FD06C035ED3A95F1F700002111F5CF4C
:104DA0002091E80025FF14C0EC0140E050E068E0ED
:104DB00070E00E94B2148091E8008E778093E80042
:104DC00088E0FE01AEEAB2E001900D928A95E1F72B
:104DD000DF91CF9108952091E4003091E50095E6B0
:104DE0004091EC00842F817040FF23C08091E80047
:104DF00080FD1DC08091B802882399F0853099F01C
:104E00008091EB0085FD11C04091E4005091E500D8
:104E10002417350729F3915011F09A01E1CF84E06E
:104E2000089582E0089583E0089581E0089580E088
:104E300008954091E80042FFDDCF08958091BA02C5
:104E400087FF11C08091E80082FD05C08091B80203
:104E50008111F8CF11C08091E8008B770BC0809151
:104E6000B802882349F08091E80080FFF8CF809154
:104E7000E8008E778093E8000895982F973068F5C2
:104E80009093E900981739F07091EC002091ED00B3
:104E90005091F00003C0242F762F50E021FD02C076
:104EA0009F5FECCF3091EB003E7F3093EB00309171
:104EB000ED003D7F3093ED003091EB003160309399
:104EC000EB007093EC002093ED005093F0002091E4
:104ED000EE0027FDE5CF80E008958F708093E90014
:104EE00081E008952091C0023091C1022617370752
:104EF00048F06115710539F42091E8002E77209370
:104F0000E80001C0B901FC0120E06115710579F1EB
:104F10008091B8028823F1F18530F1F18091E800A9
:104F200083FD3CC08091E80082FD2EC08091E800A6
:104F300080FFEBCF2091F3008091F20090E0922B64
:104F40006115710551F08830910538F42191209355
:104F5000F100615071090196F3CF21E0089709F043
:104F600020E08091E8008E778093E800CECF211179
:104F7000CFCF0AC08091B802882361F0853061F0FC
:104F80008091E80083FD0AC08091E80082FFF2CFA3
:104F900080E0089582E0089583E0089581E0089517
:104FA00078941F920F920FB60F9211248F939F93B4
:104FB000AF93BF938091CD039091CE03A091CF0387
:104FC000B091D0030196A11DB11D8093CD039093A4
:104FD000CE03A093CF03B093D003BF91AF919F9125
:104FE0008F910F900FBE0F901F9018959C014FB797
:104FF000F8948091CD039091CE03A091CF03B0910E
:10500000D0034FBF821B930B08952FB7F894609184
:10501000CD037091CE038091CF039091D0032FBF29
:1050200008952FB7F8948091CD039091CE03A0916D
:10503000CF03B091D0032FBF08951F920F920FB6E8
:105040000F9211248F939F93AF93BF938091CC03C2
:10505000811113C08091CD039091CE03A091CF0315
:10506000B091D0034196A11DB11D8093CD039093C3
:10507000CE03A093CF03B093D003BF91AF919F9184
:105080008F910F900FBE0F901F9018959C012A5F73
:105090003F4FFC014281461301C0128201968217E4
:1050A0009307B9F708959C01FC0132969FEF80E0C9
:1050B0004191461789F09F3F19F4411101C0982F83
:1050C0008F5F8630A9F79F3F39F0F901E90FF11D95
:1050D00097FDFA956283089508952091CA0330914F
:1050E000CB032817390771F09093CB038093CA0341
:1050F000E091C803F091C903309721F00084F18555
:10510000E02D099508952091C6033091C703281713
:10511000390771F09093C7038093C603E091C803E9
:10512000F091C903309721F00680F781E02D0995B1
:1051300008950E947819882359F0E091C803F091EE
:10514000C903309729F00190F081E02D0995089569
:1051500080E008950F931F93CF93DF93C42FD22F36
:10516000FC0182818823B1F04093C5030E9411287D
:105170009093C4038093C30380E28C0F883008F0BF
:105180004DC0C77081E001C0880FCA95EAF70E9440
:10519000921F44C08091C503481330C08091C3035F
:1051A0009091C4030E94F627883C910538F510E2DF
:1051B0001D0FCD17B9F080E28C0F883040F4C77016
:1051C00081E001C0880FCA95EAF70E948B1F183052
:1051D00010F581E09D2F977001C0880F9A95EAF72E
:1051E0000E94921F802F0E9417201830B8F4D770A9
:1051F00081E001C0880FDA95EAF70AC080E28C0FDF
:10520000883060F4C77081E001C0880FCA95EAF762
:105210000E948B1F03C0802F0E941720DF91CF9127
:105220001F910F910895893279F1E0F4843161F191
:10523000A0F4873009F075C01092BF0394E19093F9
:10524000F0018093EF018CE38093EE0188E080937E
:10525000ED0188E28093EC0164C092EE980F9A30E1
:10526000F0F05FC0803509F444C028F48F3409F0B1
:1052700058C08AE03FC0813529F0823509F051C01D
:1052800081E038C08FEF36C08091C203882379F166
:105290001092C2031092C1031092C00342C08D51FC
:1052A0008093C203833099F038F4813069F0823002
:1052B000D9F480EF91E00DC0853099F078F0863018
:1052C00099F48CEE91E005C08FEB93E002C08FEE75
:1052D00091E09093C1038093C00323C08EEE91E0D0
:1052E000F8CF8DEE91E0F5CF1092C2031AC080E0A6
:1052F000089586EFE091C003F091C103309789F0E3
:105300002081082E000C990B820F911D8F3F910573
:1053100019F014F08FEF04C097FF02C0108201C093
:10532000808381E008958B3109F469C058F58B3092
:1053300009F493C078F4863009F446C020F485302F
:1053400009F44CC08CC0873009F44BC0883009F494
:1053500084C085C0803109F465C068F48E3009F0DE
:105360007EC08091BE0382FB222720F991E0922724
:1053700090FB82F94DC0863109F46FC0893109F480
:105380006CC06DC08A32E9F060F4873209F45FC006
:1053900028F48E3108F463C08D514FC08932F1F08A
:1053A0005EC0833450F48A3308F046C0853309F474
:1053B0004EC0883309F451C052C0833409F447C049
:1053C0004EC00E94E01C49C08091BE03817F8E7F49
:1053D0008093BE0381E08093BD0308950E94E32281
:1053E0003CC08091BE03982F9095917090FB80F9FE
:1053F0008093BE03911131C0897F877F10C0809157
:10540000BE0381FB222720F991E0922790FB81F9CE
:105410008093BE03992309F18091BE03816080933C
:10542000BE031BC08091BE0383FB222720F991E0BD
:10543000922790FB83F9ECCF895321E030E0A9015A
:1054400002C0440F551F8A95E2F7CA0102C081E0ED
:1054500090E00E94481F0E946A1F81E0089580E04A
:105460000895452B41F06F3F41F491E08F3F09F0E3
:1054700090E0892F03C081E001C080E08170089531
:105480001092BC031092BB031092EB018091BA03FF
:105490008093B9030E946B2B0E94152B0895A0E006
:1054A000B0E0E5E5FAE20C944730C091B903E7E0DB
:1054B000FE2E01E010E0FCE02F2EAEEFEA2E8091F0
:1054C000BA03C81709F47AC0D0E0FE01EE0FFF1F3F
:1054D000EF54FC4F80819181F89EF001F99EF00D10
:1054E0001124E95DFE4F2481211165C060905003B5
:1054F000A1E5B3E020E030E0712C5F01261508F053
:1055000058C01A964D905C901B97F5018080918051
:105510004FEF5FEF312CC32CD12CF601EE0FFF1FA4
:10552000E80DF91D659174914616570609F4A60118
:10553000672B11F03394EFCF4F3FFFEF5F07A9F1D7
:10554000B80102C0660F771F4A95E2F7762AA801D4
:10555000032C02C0440F551F0A94E2F74150510931
:10556000672D70E046175707E1F4229EF001239E55
:10557000F00D1124EF5AFC4FF89ED001F99EB00DAA
:105580001124A95DBE4F12962D913C91139737833C
:105590002683E082E1829187808771E015967C9373
:1055A00008C014961C921E9213972F5F3F4F1C96B3
:1055B000A5CF0E94E72A2196C37081CF0E94152BA8
:1055C0000E946B2BCDB7DEB7E2E10C946330BC01D7
:1055D0004091B9038091BA03942F981729F1292F8C
:1055E00030E0F901EE0FFF1FEF54FC4F0190F08106
:1055F000E02DE617F70799F487E0869FF001879F73
:10560000F00D1124E95DFE4F81E0848394130CC0FA
:105610002F5F3F4F237033272093B90308952F5FE7
:105620003F4F922F9370D9CF0895EF92FF920F932F
:105630001F93CF93DF9380915003882309F446C0D2
:105640000091E8038CE0F82E809150030817D0F504
:10565000EE24E394E00EE092E80310E0F09EE00117
:10566000F19ED00D1124CF5ADC4F4B815C816981B2
:1056700088810E94312A811123C08E819F81892BCC
:1056800051F4888599858F3F2FEF920721F061E0D3
:105690000E94A0230AC0288139814A815B816C81E4
:1056A0007D818E819F810E94F921F09EF001F19E03
:1056B000F00D1124EF5AFC4F148213821092E7036D
:1056C0000E2DC2CF109250031092E803CDB7DEB773
:1056D000E6E00C946F301092E6031092E503E7E2E7
:1056E000F1E08581811102C014821682379681E033
:1056F000EB3EF807B1F70895A0E0B0E0E2E8FBE286
:105700000C945230E82FF0E0E55BF34FD490282F53
:1057100026952695269530E0F901E55CF34F049136
:10572000877010E0082E02C0159507950A94E2F7DD
:1057300001701127F901E55DF34FE490F12C082E7B
:1057400002C0F594E7940A94E2F791E0E922FF247D
:10575000F901E55EF34FC491D0E002C0D595C7953D
:105760008A95E2F7C170DD270115110519F081EE68
:105770000E94AF2DE114F10419F086EE0E94AF2DC6
:105780008D2D0E941720E114F10419F086EE0E947D
:105790009C1F0115110519F081EE0E949C1FCD2B55
:1057A00019F08CE20E941720CDB7DEB7E7E00C9429
:1057B0006E30EF92FF921F93CF93DF93EC011AE0CC
:1057C0008881882309F44AC0813009F043C0898167
:1057D000813041F47E0182E0E80EF11C8A810E9452
:1057E000172009C0823049F47E01E2E0EE0EF11C80
:1057F0008A810E94AF2DE7012FC0833041F47E01E2
:10580000F2E0EF0EF11C8A810E949C1FF4CF8430DD
:1058100011F0219621C02A81229680E090E030E0AC
:10582000205331092A30310558F4189FA001199FDF
:10583000500D1124C901840F951F21962881EFCFA7
:10584000009751F0EFE9FFE03197F1F700C0000059
:105850000197F6CF0E947C2B2196B2CFDF91CF919A
:105860001F91FF90EF9008956091E1038CE090E02C
:105870000E948C3008950E9411282091DD0321118F
:1058800004C02091DE03222321F09093DA03809359
:10589000D9032091DF03211104C02091E0032223CA
:1058A00021F09093D8038093D703E091C803F0913F
:1058B000C903309749F082E08093DB030480F581CF
:1058C000E02D8BED93E0099508958D3E39F490918C
:1058D000DE0397FF35C01092DE0359C08E3E29F4D7
:1058E0009091DE031916BCF32BC09091DD038F3E1F
:1058F00029F497FF25C01092DD0349C0803F19F4B9
:105900001916CCF31DC09091DF03893F29F41916B5
:10591000BCF41092DF033BC08A3F19F497FF10C01C
:10592000F8CF8B3F39F49091E00397FF09C01092B4
:10593000E0032DC08C3F21F49091E0031916BCF3D5
:105940009FE0980F983080F421E030E0A90102C078
:10595000440F551F9A95E2F7CA0180959091DC0398
:1059600089238093DC0313C08D3F21F48091D603FB
:105970008E7F0BC08E3F21F48091D6038D7F05C0B2
:105980008F3F29F48091D6038B7F8093D60380913B
:10599000DD03811106C08091DE03811102C01092E7
:1059A000D5038091DF03811106C08091E00381114E
:1059B00002C01092D40308958091D60380FF08C0DE
:1059C0006091ED0170E0759567957595679521C0BB
:1059D00081FF06C06091ED0170E07595679519C073
:1059E00082FF04C06091ED0170E010C09091D4037B
:1059F000992399F06091EC019617A0F78091ED0141
:105A0000899FC001112470E00E94C0306038710588
:105A100040F46115710519F406C061E070E0862F4D
:105A200008958FE7089581E008958091D60380FF5F
:105A300006C06091EF0170E0660F771F26C081FFFE
:105A400004C06091EF0184E005C082FF07C060914F
:105A5000EF0188E0689FB001112417C09091D50331
:105A60009923D1F06091EE01961788F72091EF010C
:105A700088E0289F90011124929FA001939F500DD0
:105A8000112470E0CA010E94C0306038710540F4F2
:105A90006115710519F406C068E070E0862F08955D
:105AA0008FE7089581E008958D3E21F40E94152D21
:105AB000819504C08E3E29F40E94152D8093DE034B
:105AC00008958F3E21F40E94152D819504C0803FDA
:105AD00029F40E94152D8093DD030895893F19F460
