:100000000C948A060C94112F0C94A7060C94A70646
:100010000C94A7060C94A7060C94A7060C94A706AC
:100020000C94A7060C94A7060C9435180C9477171B
:100030000C9408280C94A7060C94A7060C94A70609
:100040000C94A7060C94A7060C94A7060C94A7067C
:100050000C94A7060C94BB270C94A7060C94A70637
:100060000C94A7060C94A7060C94A7060C94A7065C
:100070000C94A7060C94A7060C94A7060C94A7064C
:100080000C94A7060C94A7060C94A7060C94A7063C
:100090000C94A7060C94A7060C94A7060C94A7062C
:1000A0000C94A7060C94A7060C94A706A40DA40D07
:1000B000D70DD70D490E650E950F950F700E000FD9
:1000C000120F120F9615BD155517BD1555170516AC
:1000D0002816551717172A17822388238E2394234F
:1000E0009A23A023A623AC23B223B823BE23C42380
:1000F000CA23D023D623DC23E223E823EE23F423F0
:10010000F923FE23032408240D24122417241C247D
:10011000212426242B2405010902A10185020901BD
:10012000A100050919012908150025019508750187
:1001300081020501093009311581257F9502750875
:10014000810609381581257F950175088106050C02
:100150000A38021581257F950175088106C0C00502
:10016000010980A101850319012AB700150126B7ED
:1001700000950175108100C0050C0901A1018504DD
:1001800019012AA002150126A0029501751081000F
:10019000C005010906A101050719E029E715002599
:1001A00001950875018102950175088101050719FE
:1001B0000029FF150026FF00950675088100050837
:1001C00019012905950575019102950175039101A4
:1001D000C009023B00020100A0FA0904000001036B
:1001E00001010009211101000122400007058103DE
:1001F00008000109040100010300000009211101A8
:100200000001227B00070582032000011201000289
:10021000000000084D4436350100010200012C03A6
:10022000440061006300740079006C002D004D00F3
:1002300061006E00750066006F0072006D002000A6
:100240002800350078003600290000000E037400F5
:10025000730068006F00720074000000040309045A
:100260002900104050064F060440AE002B00050048
:10027000B45D130012003400C65D040018000C00C9
:1002800008003600E00031001C001B003700361269
:1002900000000000B35D2F00C05DBB5D00000000EA
:1002A000E30009510651E20015040F40AA00A9001D
:1002B00011400F081A00190007000F000D001D0063
:1002C0000600170016001500110010000E001400A3
:1002D0000A000B000900C65D2C00BF5D30002E0037
:1002E000000000002A000351D45DE300000000007C
:1002F00001000100010001000100010001001400E3
:100300001A00080015001700E1000400160007009D
:1003100009000A0001001D001B000600190005006D
:100320000000000001003100010001000000000099
:1003300001000100010001000100010001000100B5
:10034000010001001C0018000C00120013002F0017
:100350000B000D000E000F003300340011001000E0
:10036000360037003800B25D0100010001000100D5
:100370000000000001000100010001000000000079
:1003800001001E001F00AD002100D35D01003602F8
:10039000B85DED00BC5DB55D01003702EF00EE0019
:1003A000F00001000100B75DF900F100FA00B65D50
:1003B00000000000361437140100010000000000A6
:1003C00001000E5301000100000040004100420006
:1003D000430044001E084B0052004A000000300059
:1003E0004A00500051004F004D00E5002A004E0029
:1003F00051004D004C00280008510100010062002E
:1004000000000000010001000100010000000000E8
:1004100046001E001F0020002100220045003A0077
:100420003B003C003D003E0045012A004C004300DB
:100430004400440245022A014C0228052C003E01DA
:1004400000000000E000370101000751000000003B
:100450000A52015200520D523F004000410042003A
:100460001504A5002D021E001F00200024142514D1
:1004700056002100220023002614271465002400C2
:1004800025002600350035022C03010027006300FB
:100490000000000001000100010001000000000058
:1004A00027160100010001000100010039001E02B1
:1004B0002402250226022702E10023021F02200255
:1004C000210222020100010001000100720001006E
:1004D0000000000001000100010001000000000018
:1004E000000000000000000001000100520C0100AB
:1004F00001000100D05D4B0152084E01CE5D0000AD
:10050000CC5D500051084F00CD5D0000D15D4E051F
:10051000CB5D4B05CF5D000001000100D25D6C009A
:1005200000000000000001000000000000000000CA
:100530004801010001000100010001000B0114014C
:100540001A01080115011701E10004001601070155
:1005500009010A011C011D011B0106011901050108
:1005600000000000B25D37010751010000000000EB
:100570000100010001000100010001000100010073
:10058000010001001C0118010C010F011301010001
:100590000B010D010E010F013601010011011001C7
:1005A0003601370101000100010001005701670118
:1005B0000000000001000100010001000000000037
:1005C0000100010001000100010001000100010023
:1005D0004B0052004A000100010050085000510039
:1005E0004F004F080100CA5D4E0051004D00280029
:1005F00000000000000000000000000000000000FB
:1006000000000000010001000000000000000000E8
:100610000000000000001E011F012001000000007A
:10062000000021012201230100000000000024013C
:100630002501E0010000000000000000270100008B
:1006400000000000000000000000000000000000AA
:10065000000000000000AD003D043E010B03140348
:100660001A030803150317034C02040316030703B8
:1006700009030A032C030000000006031903050305
:100680000000000000002C08010001000000000034
:10069000000000000000000000000000000000005A
:1006A00000000000000000000C0312031303000010
:1006B0000B0300000000000000000000000000002C
:1006C00000003703000000000100010000000000EE
:1006D000000000000000000000000000000000001A
:1006E00029001E011F012001210122012B00000011
:1006F000F200ED00F1000000E1000000EF00EE006C
:10070000F000000000000000F9000000FA00000006
:1007100000000000000000000000280500000000AC
:1007200000000000000000000000000000000000C9
:100730000000000000004B0352034E0300000000C5
:100740000B01500351034F030000000000000000A4
:100750005103000000000000010000000000000044
:100760000000000000000100010001000000000086
:100770002D00230024002500260027002F001C0048
:100780001E001F0020000000E10056002100220092
:1007900023003300E000CA5D240025002600380055
:1007A0000000000000002700000000000000000022
:1007B0000100010001000100000000000000000035
:1007C000000000001F082008210822082308240830
:1007D0001E08500900004F09000026080000000014
:1007E0000000000000000000000000000000000009
:1007F00000000000000000000000000000000000F9
:1008000029001E001F002000210022002B001400E0
:100810001A00080015001700E10004001600070088
:1008200009000A00E0001D001B0006001900050079
:100830000000000034000100010001000000000081
:1008400001000100010050002300240025002600C3
:1008500027002D001C0018000C00120013002F00B0
:100860000B000D000E000F003300350011001000CA
:1008700036003700330035005200010031002E00F1
:100880000000000000004F000100510000000000C7
:1008900001001E021F0220022102220201000100AB
:1008A00038120100010001000100010001000100F7
:1008B0000100BA5D010001000100010033020100E6
:1008C00000000000B35DB25D010001000000000007
:1008D000010001000100010001002402250226029E
:1008E00027022D02010001000100010001000100AA
:1008F00001000100010001000100010001000100F0
:1009000001000100010001000100010001000100DF
:1009100000000000010001000100010000000000D3
:1009200000000000000000000000000000000000C7
:1009300000000000000000000100000000000000B6
:1009400000000000E00000000000000000000000C7
:100950000000000000000000000000000000000097
:100960000000000000000000000000000000000087
:100970000000000000004B1252024E120000000066
:100980004A12500251024F024D12000000000000B6
:100990005102000000000000000001000000000003
:1009A0000000000000000000000000000000000047
:1009B000010001000100010001000100010001002F
:1009C000010001000100010001000100010001001F
:1009D000010001000100010001000100010001000F
:1009E00000000000010001000100280000000000DC
:1009F00001000100010001000100010001000100EF
:100A0000010001000100010052000100010001008D
:100A10000100500051004F000100010001000100E1
:100A200001000100010001000100010001000100BE
:100A300000000000010001000100010000000000B2
:100A40006262726167614070726F67692E636F6D79
:100A50000062696C6C792E627261676140002041AE
:100A60004E4420006B38730020213D20002D3E00B5
:100A7000203C3D2000203E3D200070726F7065726A
:100A80007469657300706970656C696E6500737573
:100A900062736372697074696F6E0050726F676918
:100AA0004F6E650070726F6769004070726F6769A2
:100AB0002E636F6D0061756A6F7572642768756962
:100AC0002000646F65736E27742000646F65736E19
:100AD00027742000636F6E666967006265617563E5
:100AE0006F75702000612D742D696C2000706F751A
:100AF0007271756F692000612D742D6F6E2000700A
:100B00006575782D74752000506575742D01012F61
:100B1000657472652000706575742D01012F657410
:100B20007265200061732D7475200065732D7475D6
:100B300020004573742D63652071752700657374FB
:100B40002D636520717527004573742D63652071D1
:100B5000756520006573742D6365207175652000CF
:100B6000050015000A00000005000C00150000003B
:100B700004001100070000000E0016000000050030
:100B80002E0000002F0006000000B35D2E000000C4
:100B90002F002E0000001300150012001700160091
:100BA0000000130008000F001100000016000500EF
:100BB00011000000130015001200110000001300C6
:100BC00015000A00000004001300060000000400E5
:100BD0000D000700000007001200110000000700D0
:100BE0001200170000000600120011000C000000A7
:100BF0000500060013000000040017000C000F00A1
:100C0000000013000E000000040017001200110085
:100C10000000130017001800000038001300170030
:100C20000800000013001700080000000400160070
:100C30001700180000000800160017001800000038
:100C40001600140012001300000016001400120019
:100C500000001600140008000C000000160014002C
:100C6000080000000000000000000000000000403C
:100C700001000000000000000000005000000028FB
:100C80000100007800000000FE0F0084FFFFFF97C6
:100C90000000000000000000000000002A2B2800D7
:100CA000000000000000000000000000000000291B
:100CB000000000002C1E3720212224362627252E56
:100CC000362D3735271E1F20212223242526333396
:100CD000362E37231F0405060708090A0B0C0D0ED4
:100CE0000F101112131415161718191A1B1C1D2694
:100CF00035272F2D2F0405060708090A0B0C0D0EAA
:100D00000F101112131415161718191A1B1C1D2475
:100D10003525304C11241FBECFEFDAE0DEBFCDBF4A
:100D200012E0A0E0B1E0E2EEF1E602C005900D9223
:100D3000A435B107D9F723E0A4E5B2E001C01D92C4
:100D4000AC3EB207E1F70E94E4100C94EF300C9433
:100D50000000A0E0B0E0EFEAF6E00C943A307C014D
:100D6000FC0143815481618180810E941C2A811190
:100D70000C94D20F61E0C7010E949822EC012091EF
:100D80005C02222391F1F7018281882331F1CF3B6C
:100D9000FDE5DF0709F438C3C932D10509F472C68D
:100DA000C63B2DE5D20729F485E092E00E94C42BD2
:100DB00003C08C2F0E94F01F88E092E00E94C42B99
:100DC000C63B4DE5D40709F45DC68C2F0E94F01F89
:100DD00083E192E00E94C42B55C6CF3B5DE5D50769
:100DE00009F412C310925C024DC6CC3B8DE5D807C6
:100DF00009F4B1C108F045C0C43BEDE5DE0709F4D4
:100E000068C120F5C03140E4D40709F4B7C088F4C4
:100E1000F7019281C430F0E4DF0709F4D6C0CF3087
:100E200040E4D40709F48BC0C53AD10509F067C086
:100E300073C0C23B5DE5D50709F453C108F061C139
:100E4000C13190E4D90709F488C059C0C83BEDE529
:100E5000DE0709F470C140F4C63B2DE5D20709F462
:100E60005DC108F451C162C1CA3B5DE5D50709F413
:100E70002BC1F7018281CB3BFDE5DF0708F463C19D
:100E8000CAC0F7018281CD3CFDE5DF0709F458C2F5
:100E9000E8F4C93C4DE5D40709F4B4C078F4C03C8B
:100EA0009DE5D90709F4BCC2C63CEDE5DE0709F4AF
:100EB000FFC0CF3BFDE5DF0711F5A6C2CB3C2DE51A
:100EC000D20709F497C108F44EC15DC2C13D5DE58A
:100ED000D50709F4AFC140F4CF3CEDE5DE0709F4D6
:100EE000CCC108F40DC2ECC1C33D2DE5D20709F415
:100EF000A7C208F46BC2C43D5DE5D50711F081E0DF
:100F0000A0C2882329F082EE0E949A2D89E081C236
:100F100089E00E94FF1E7DC0992309F4B3C580912A
:100F20008F0290919002009739F033E09695879563
:100F30003A95E1F7282F217020935B0281C2992313
:100F400009F47EC2F701858182958F7011F080E5EA
:100F500075C262E370E08CEA0EC0F70182818823DB
:100F600009F46EC2858182958F7011F08FE466C29C
:100F700062E370E08BEA0E94D81F62C2F7018281AF
:100F8000882309F45DC2858182958F7071F082EEAD
:100F90000E949A2D83EE0E949A2D8EE00E94F01FEF
:100FA00083EE0E94751F82EE0DC080EE0E949A2D86
:100FB00083EE0E949A2D80E50E94F01F83EE0E942E
:100FC000751F80EE0E94751F5DC5992309F438C214
:100FD000F701858182958F7039F082EE0E949A2DFB
:100FE00085E10E94F01F15C080EE0E949A2D83EECD
:100FF0000E949A2D8FE40E94F01F83EE0E94751FBD
:1010000080EEFFC1882329F082EE0E949A2D80ECA9
:1010100015C282EEF6C1882339F180915A028823E5
:1010200081F080915802909159020E94E127883CFA
:10103000910538F488E20E949A2D81E0809357024E
:101040000CC08091C502809581708093560280EE1D
:101050000E949A2D85E00E94111F0E94FC27909308
:10106000590280935802ECC188E20E94751F80915A
:101070005602882319F080EE0E94751F85E00E94B9
:10108000FF1E80915702811110C080915A0288235F
:1010900061F080915802909159020E94E127883CAA
:1010A000910518F488E20E94F01F10925702C8C1FF
:1010B000882329F081EE0E949A2D8BE0AAC181EE4F
:1010C0000E94751F8BE0A9C140E050E063E370E02F
:1010D00046C0F7018281882311F088E337C088E396
:1010E00090C1F7018281882339F081EE0E949A2D08
:1010F000C7010E945314A4C1C7010E94531481EE7A
:1011000080C148E150E014C0F7018281882309F4CE
:1011100097C18DE092E00E94C42B92C1F7018281B9
:1011200081118EC181E080935C028AC14CE250E063
:101130006FE270E004C04CE250E060E370E0C70191
:101140000E9461237DC1882321F08FE20E949A2DA5
:1011500077C18FE256C145E350E066EE70E0C7010B
:101160000E9430236DC1882309F46AC180EE0E9479
:101170009A2D81EE0E949A2D8CE20E949A2D8CE28B
:101180000E94751F80EE0E94751F81EE0E94751FE0
:1011900080EE0E949A2D89E10E949A2D89E10E9499
:1011A000751F80EE0E94751F80EE0E949A2D80E5CB
:1011B0000E949A2D80E50E94751F80EE0E94751F87
:1011C00080EE0E949A2D8AE20E949A2D8AE20E9465
:1011D000751F80EE0E94751FFFEF24E34CE0F15075
:1011E00020404040E1F700C0000088E20E949A2DB4
:1011F00088E207C1882309F423C183EE0E949A2D57
:101200008DE10E94F01F83EE0E94751F5FEF81EE5B
:1012100094E0515080409040E1F700C0000083E22C
:101220000E94F01FEFEFF1EE24E0E150F04020408B
:10123000E1F7A5C0882309F403C183EE0E949A2D2B
:101240008DE10E94F01F83EE0E94751F4FEF51EE5B
:1012500084E0415050408040E1F700C0000082E24D
:101260000E94F01F9FEFE1EEF4E09150E040F0406B
:10127000E1F700C0000080E2E1C0882309F4E0C08B
:1012800083EE0E949A2D8DE10E94F01F83EE0E9452
:10129000751F2FEF41EE54E0215040405040E1F7E0
:1012A00000C0000082E20E94F01F8FEF91EEE4E0A8
:1012B00081509040E040E1F700C0000081E2BEC0F4
:1012C000882309F4BDC083EE0E949A2D8DE10E940F
:1012D000F01F83EE0E94751FFFEF21EE44E0F150F6
:1012E00020404040E1F700C0000082E20E94F01F71
:1012F0005FEF81EE94E0515080409040E1F762C092
:10130000882309F49DC083EE0E949A2D8DE10E94EE
:10131000F01F83EE0E94751FEFEFF1EE24E0E15025
:10132000F0402040E1F700C0000082E20E94F01F80
:101330004FEF51EE84E0415050408040E1F71FC034
:10134000882309F47DC083EE0E949A2D8DE10E94CE
:10135000F01F83EE0E94751F9FEFE1EEF4E09150C5
:10136000E040F040E1F700C000008EE10E94F01F75
:101370002FEF41EE54E0215040405040E1F700C0D3
:1013800000008FE15BC0882309F45AC083EE0E94FD
:101390009A2D8DE10E94F01F83EE0E94751F8FEF42
:1013A00091EEE4E081509040E040E1F700C00000A1
:1013B0008EE10E94F01FFFEF21EE44E0F15020404B
:1013C0004040E1F700C000008EE138C08823C1F141
:1013D00083EE0E949A2D82EE0E949A2D81E50E9452
:1013E000F01F5FEF81EE94E0515080409040E1F7B4
:1013F00000C0000081E50E94F01F82EE0E94751F70
:1014000083EE0E94751F1CC0F7018281882321F0A2
:1014100082E00E94111F14C082E00E94FF1E10C0D3
:10142000882311F083E0F5CF83E00E94FF1E8091B6
:101430005B02882329F010925B0285EA0E94F01F6C
:1014400080E0F7019281992329F191E0CB3BFDE502
:10145000DF0709F090E090935A02882309F412C341
:10146000C43E2CE5D207E1F050F4C23E5CE5D5075E
:10147000A1F0C33E8CE5D807E1F481E016C0C63E7A
:101480009CE5D90789F070F0C13BFDE5DF0789F4E1
:1014900085E00BC081110DC0F5C21092E40307C0B6
:1014A00082E003C083E001C084E08093E4030E94F3
:1014B0001F2CD7FFCEC0F7018281882309F4C9C051
:1014C0000E9484288695817080935F020E94842800
:1014D000817080935E028091E403813039F48091C1
:1014E0005F02882319F089E30E94F01F8091C502F2
:1014F00080935D021092C5021092EA038091E4038A
:10150000823019F148F48823E1F08130C9F560E0B8
:1015100070E088E193E032C0843049F1853081F594
:1015200060E070E08BE191E00E94D82260E070E022
:1015300085E290E00E94D82260E070E088E290E0CE
:101540001DC082EE0E949A2D1BC080915E02811107
:1015500003C083E50E94F01F82EE0E949A2D8FE364
:101560009CE90197F1F700C0000087E504C086EE12
:101570000E94F01F88E10E94F01F02C00E94D82242
:10158000EFE3FCE93197F1F700C000006E01E89449
:10159000D7F80CE010E02AE0A22EB12CC601002EF4
:1015A00002C0969587950A94E2F78F709091E403B4
:1015B000923069F48A3038F490E00996B5010E94BF
:1015C000AB30875A01C086500E94F01F09C096EFC9
:1015D000980F963010F0805D01C0895A0E94672BE9
:1015E000045011090C3FFFEF1F07C1F68091E4037F
:1015F0008230F1F028F4882371F0813081F025C029
:10160000843009F1853009F560E070E088E290E00F
:101610000E94D8221AC082EE0E94751F16C08CE26A
:101620000E94F01F80915F02882379F089E308C04F
:1016300082EE0E94751F80915E02811106C083E5D3
:101640000E94F01F02C088E2FBCF80915D02809370
:10165000C502C43F2CE5D20741F190F4C93D5CE5D9
:10166000D507E9F0CA3D8CE5D80789F1C83D9CE56E
:10167000D907B1F506E221EE41EE68ED7CE52CC01C
:10168000C63FECE5DE07E9F0B0F0C73F2CE5D20736
:1016900039F507E225EE46EE67EF7CE51DC007E26F
:1016A00025EE45EE69ED7CE517C006E221EE40EE41
:1016B00064EF7CE511C007E225EE44EE65EF7CE5C2
:1016C0000BC006E221EE42EE66EF7CE505C008E2C3
:1016D00021E045EE6AED7CE5C7010E949528D2C164
:1016E000F7018281882309F490C11092C803C430A5
:1016F000FDE5DF0758F4CB3F2CE5D207C0F4CE015F
:1017000082509C45449708F06AC111C0C63A4DE525
:10171000D40769F030F4C2368DE5D80709F05FC10F
:1017200006C0CE018E5A9D45039708F058C10E940D
:10173000A81C9093920280939102C2319CE5D90734
:1017400009F405C108F04BC0C930FCE5DF0709F416
:10175000D2C000F5C5304CE5D40709F4B9C078F41F
:10176000C3308CE5D80709F4AAC008F0AEC0C23077
:10177000DC4509F024C1809191028160A3C0C7308B
:10178000FCE5DF0709F4AFC008F0B1C08091910219
:10179000806198C0CD304CE5D40709F4C2C058F43C
:1017A000CB308CE5D80709F4B0C008F0B6C0809102
:1017B00091028860A6C0CF30ECE5DE0709F4BFC017
:1017C00008F4B2C0C0312CE5D20709F4BCC0C13165
:1017D000DC4509F0F4C0809191028F7B73C0C11584
:1017E0005DE5D50709F4BEC088F5CB3F9CE5D90778
:1017F00009F472C0B8F4C431FCE5DF0709F4C1C0D4
:1018000008F4ABC0C531DC4509F0D9C08091910224
:1018100082FB222720F991E0922790FB82F990FB2E
:1018200083F950C0CD3F5CE5D50709F481C008F4C9
:1018300056C0CE3F9CE5D90709F47DC0CF3FDC45BB
:1018400009F0BDC08091920282605DC0C236FDE5A4
:10185000DF0709F4A8C068F4C2304DE5D40709F4E5
:101860009CC008F484C0C330DD4509F0A8C060E026
:1018700095C0CE3A9DE5D907F1F058F4C63ADD455A
:1018800009F09DC080919102982F909590FB80F96E
:1018900019C0CF3A2DE5D207E1F1C03BDD4509F093
:1018A0008EC08091920283FB222720F991E092273B
:1018B00090FB83F982C08091920288607EC0809103
:1018C00091028260809391027AC08091910219C046
:1018D000809191028860F6CF8091920214C080912D
:1018E000920282606AC0809191028062EBCF809107
:1018F00091028064E7CF0E94431F8091910280682B
:10190000E1CF8460DFCF816058C0809191028E7FEB
:10191000D9CF80919202877F50C0809191028D7FB4
:10192000D1CF809191021CC080919102877FCACF54
:10193000809192021AC0809192028D7F3EC0809168
:1019400091028F7EBFCF809191028F7DBBCF0E948D
:10195000431F809191028F77B5CF80919102877F4D
:101960008B7FB0CF809192028D7F8E7F26C0809139
:101970009202982F909591708E7F892B90FB81F920
:101980001CC00E94431F8091910287FB222720F9EF
:1019900091E0922790FB87F995CF61E08EE090E08F
:1019A0000E9477300CC08091910284FB222720F99D
:1019B00091E0922790FB84F985CF80939202609109
:1019C0009102C091920284E090E00E9477306C2FE7
:1019D00082E290E00E9477300E94431F53C0C631DC
:1019E000FCE5DF0719F58091C5028A7A91E009F4D8
:1019F00090E090936002882311F065E301C069E2F2
:101A000086EC92E00E943E280EC0C631DC4509F00B
:101A10004BC080916002882309F4C2C265E386EC62
:101A200092E00E9431280E942E1D2CC0CB355DE52E
:101A3000D50711F150F4C1159CE5D90779F0CF3DD8
:101A4000DC4591F50E94B91C0CC0CD35FDE5DF07E2
:101A500059F0A0F0C83ADD4521F026C00E94BC2212
:101A600011C00E94A6220EC08091920282FB88279C
:101A700080F991E0892703C081E001C080E00E94E5
:101A8000871D12C080911803877009F48BC2F7017B
:101A90008281882309F486C28091920282FF82C2E9
:101AA00082E00E946A1D7EC2F701868197810097BD
:101AB000B9F4F7018281C081D181882349F0CE0138
:101AC0000E944E1E182F682FCE010E94C21E04C015
:101AD000CE010E948F1E182FBE01812F0E94F31A83
:101AE0000E940C1BEC01F7010281D580D2949FE08B
:101AF000D922809118038770B9F00023A9F08D2FA7
:101B0000807F803421F080E28C0F883068F08091F3
:101B1000920282FF09C082E00E946A1D8091180330
:101B20008770CC24C3948111C12CBD2EB2948FE058
:101B3000B8228B2D90E08C30910508F0F6C1FC01A5
:101B4000EA5AFF4F0C94BF301D2F1F708D2F807FDE
:101B500011F01295107F0023B9F0112309F4D2C1BE
:101B600080E28C0F883010F0C11106C08091C50250
:101B7000182B1093C50205C08091EA03182B10930F
:101B8000EA030E942E1DBEC18C2F0E94751F1123D7
:101B900009F4CBC180E28C0F883078F1CC2369F155
:101BA00010958091EA0318231093EA0329C01D2F92
:101BB0001F708D2F807F803211F01295107FCC2303
:101BC00019F0C130D9F149C08091920282FD1BC049
:101BD000002369F0112339F08091C502182B10936E
:101BE000C5020E942E1D80E00E949A2D9EC180E0B9
:101BF0000E94751F112309F498C1812F0E94271D8F
:101C00000E942E1D92C1002381F080912103DD20CE
:101C100051F0F1E0DF1207C0182B181709F485C145
:101C20001093210382C1812B10C0DD2021F021E01F
:101C3000D21609F47AC10E94211D27C0002341F069
:101C400042E04D1508F471C1812F0E946B1F6DC1D8
:101C500051E05D1508F469C118C0002349F0DD208A
:101C600099F3F701858180FF4DC18F708583ECCF9B
:101C7000DD2059F0C93309F055C1FFEF27EE43E0ED
:101C8000F15020404040E1F74BC1812F0E94641F7A
:101C90004CC18D2F86958695837019F0813059F04F
:101CA00044C1002319F0CE01937002C080E090E09F
:101CB0000E946E2840C1002319F0CE01937002C02B
:101CC00080E090E00E94582836C18C2F002319F044
:101CD0000E943F2D02C00E94502C0E94262C2BC136
:101CE0008D2F837009F042C0011123C13C2F329522
:101CF00036953770330F330F8C2F8F7090E0032E93
:101D000002C0880F991F0A94E2F7C4FF0BC04FE08E
:101D100050E002C0440F551F3A95E2F79A01209512
:101D2000309502C020E030E04D2F46954695437037
:101D3000423099F068F4609122037091230341309E
:101D400029F0822B932B8623972304C0862B972B75
:101D5000822B932B0E94211FECC0822B932B20916E
:101D600022033091230382279327F4CF002319F015
:101D70008D2F817001C08695882309F4DAC03C2F2D
:101D8000329536953770330F330F8C2F8F7090E06C
:101D9000032E02C0880F991F0A94E2F7C4FF0BC0FC
:101DA0004FE050E002C0440F551F3A95E2F79A0108
:101DB0002095309502C020E030E04D2F46954695A5
:101DC0004370423079F0B8F460918F0270919002C4
:101DD000413029F0822B932B862397230EC0862B2C
:101DE000972B09C0822B932B20918F023091900268
:101DF0008227932702C0822B932B0E94F61E99C044
:101E00001D2F1F70002339F0812F0E94111F8C2F6E
:101E10000E946B1F8EC08C2F0E94641F812F0E9416
:101E2000FF1E87C0C23F79F128F4C03F41F0C13F97
:101E300029F163C0C33F71F1C43FE1F05EC00023EC
:101E4000A1F051E05D1508F470C02D2F2F7181E0D5
:101E500090E002C0880F991F2A95E2F720918F0227
:101E6000309190028227932725C082E08D1508F4D7
:101E70005CC0EBCF8091920282FD1FC0002329F04D
:101E80008D2F8F712DC00023D9F38D2F8F710E945C
:101E9000FF1E4BC0002361F021E030E09D2F9F71B9
:101EA000F90102C0EE0FFF1F9A95E2F7CF0102C0C1
:101EB00080E090E00E94F61E38C00023A1F01D2FA4
:101EC0001F71812F0E94111F8091920282FF07C013
:101ED000F8E01F9FC0011124836080931803812FB5
:101EE0000E94111F22C081E00E946A1D21E02D1571
:101EF000E0F482E00E946A1D18C0002329F0DD2072
:101F000009F4BECF8C2F70CEDD2009F4BECFC933CB
:101F100049F44FEF57EE83E0415050408040E1F7E5
:101F200000C000008C2F0E94751F88EF8B0D84303D
:101F300010F40E948428CE010E94281F882381F07B
:101F4000002319F0D1100CC00FC0D11009C020E03F
:101F5000F701408151816281738184810E947522E1
:101F60001092620210926102CC20A9F080911803B5
:101F700080FD11C0F70112828595859585950E9497
:101F8000111FC7010E94A9068091180385958595A8
:101F900085950E94FF1E60E0C7010E94982202C042
:101FA00069E23DCDCDB7DEB7EAE00C945630A4E04F
:101FB000B0E0EDEDFFE00C9440304091780250919C
:101FC000790260917A0270917B022FB7F894809128
:101FD000D0039091D103A091D203B091D3032FBF2E
:101FE000841B950BA60BB70B84369105A105B10593
:101FF00008F441C00E945119882319F00E94F0276B
:102000000EC00E94F02700917D0210917E02209167
:102010007F0230918002600F711F821F931FDC01CD
:10202000CB010296A11DB11D89839A83AB83BC832A
:10203000809111019091120183599D4F409110019F
:1020400050E04530510510F044E050E0BE016F5FB4
:102050007F4F0E94E63082E090E00E94B72F8823F5
:1020600059F00E94F0276093780270937902809370
:102070007A0290937B0281E02496E4E00C945C3039
:10208000EF92FF921F93CF93DF93CDB7DEB72797E1
:102090000FB6F894DEBF0FBECDBF7B0180E090E0AD
:1020A0000E94B72F882309F463C04091030150E0D8
:1020B0004115510511F041E050E06091040170912B
:1020C000050163597D4FCE0107960E94E63040918D
:1020D000690250916A0260916B0270916C022FB795
:1020E000F8948091D0039091D103A091D203B09144
:1020F000D3032FBF841B950BA60BB70B843691051A
:10210000A105B10538F48EE692E00E9474149F8117
:10211000891781F181E090E00E94B72F182F882362
:1021200091F040910B0150E04730510510F046E02E
:1021300050E060910C0170910D0163597D4FCE010B
:1021400001960E94E6308EE692E00E94741491E0BF
:102150002F81281390E0192311F10E94F02760933A
:10216000690270936A0280936B0290936C020CC0B8
:1021700010E001C011E086E0EEE6F2E0DE0111962B
:1021800001900D928A95E1F7112349F086E0FE0156
:102190003196A3E6B2E001900D928A95E1F786E0D0
:1021A000E3E6F2E0D70101900D928A95E1F7812FE5
:1021B00027960FB6F894DEBF0FBECDBFDF91CF914B
:1021C0001F91FF90EF900895A0E1B0E0EAEEF0E1FA
:1021D0000C94343085B7806885BF85B7806885BF2B
:1021E00084B7877F84BF0FB6F894A895809160006C
:1021F000886180936000109260000FBE90E080E8DC
:102200000FB6F89480936100909361000FBE8CE04C
:1022100099E190935502809354020E94BB170E944B
:10222000DA178091E20084608093E20078948091D4
:10223000BB028823A1F01091E9001F709091EC007F
:10224000892F817090FD80E8182B1092E900809111
:10225000E80083FD0E94B5141F701093E90082E02E
:1022600084BD93E095BD9AEF97BD80936E00109268
:102270007D0210927E0210927F02109280020E94D4
:102280005119809318010E94511981110E94CC2E7E
:102290008091180180911801811102C096E001C05F
:1022A00090E090938E0286E0891B80938D0207E177
:1022B00012E0D8018D918D018F3F11F00E947419A9
:1022C000B2E00D311B07A9F70DE112E0F801819191
:1022D0008F018F3F11F00E947419F2E003321F0743
:1022E000A9F78CE0E5E9F2E0DF01282F1D922A959D
:1022F000E9F7E1E8F2E0DF011D928A95E9F780E075
:1023000090E00E947130883E9E4F11F00E94B91CEF
:1023100082E090E00E9469308093C1030E94A81C73
:10232000909392028093910283E090E00E94693042
:1023300090E00E94211F8CE090E00E94693090E0C4
:10234000A0E0B0E08093E4039093E503A093E6035C
:10235000B093E7030E945119811102C00E94CF2E51
:1023600089E191E09093CC038093CB0308E110E0E6
:1023700040E4E42EFF24F3948091BB02853009F001
:1023800042C020E1C22E32E1D32E8091BB028530C3
:1023900009F035C08091BB02843009F11092CF035F
:1023A0000FB6F894A895009360000FBEE09260000D
:1023B00083B7817F846083BF83B7816083BF789454
:1023C000889583B78E7F83BF0FB6F894A8958091C8
:1023D0006000886180936000109260000FBE809161
:1023E000BA02882391F20E948B19E5E9F2E081910B
:1023F0008111ACC122E0E13AF207C9F7C6CF0E94D1
:10240000431F0E9484280E948B1981EAA82E82E033
:10241000B82E95E9892E92E0992ED401F50191917B
:102420008D91892732E0ED3AF30719F08823B9F34B
:1024300022C0811120C00E94FC276C018091930270
:1024400090919402C816D90609F44CC08FEF8F837F
:10245000888719860E94FC278160782F9B878A874E
:102460004F81588569858B850E943224D0929402D1
:10247000C092930237C00E945119482ED12CD4012A
:102480005D904D01F5016080652419F1C12C772420
:102490007394862D8721B1F04420A1F0CC86DD868F
:1024A00091E0852D872109F490E09E870E94FC270A
:1024B0008160782F988B8F874C855D856E858889A4
:1024C0000E943224C394770CF6E0CF12E2CFD501FC
:1024D0005C92D394BFEFAB1ABB0AECE0DE12CFCF15
:1024E0000E94F0270E945119882361F18091FF0119
:1024F000882341F18091BE039091BF03009711F1B1
:102500000E94E1272091E8033091E9032817390759
:10251000C8F49091BC038091BD03981759F00E94B4
:102520003A2A1092E9031092E8031092BF03109226
:10253000BE0308C00E94002B1092BF031092BE037E
:102540000E94562B86E0EEEDF3E0DE01119601903D
:102550000D928A95E1F71092E0031092E103109238
:10256000E2031092E3038B81811104C08C818823E4
:1025700009F45DC08091DC039091DD030E94E127A6
:10258000AC019091D803992339F02091040230E0F6
:102590002417350758F04BC02091C203FAE02F9F53
:1025A000900111242417350718F041C09F3F19F0FE
:1025B0009F5F9093D803DB80DD2061F00E94002DA7
:1025C0001D1414F09FEF01C091E0899F802D11240C
:1025D0008093E003DC80DD2061F00E94002D1D145B
:1025E00014F09FEF01C091E0899F802D112480930A
:1025F000E1033091E0033323D1F02091E103222362
:10260000B1F045EB3403C0011124992319F09093E4
:10261000E00302C0F092E00335EB2303C001112474
:10262000992319F09093E10302C0F092E1038D81A8
:10263000811104C08E81882309F451C08091DA038E
:102640009091DB030E94E1279C019091D70399238D
:1026500009F492C02135310508F441C09F3F19F0BB
:102660009F5F9093D703DD80DD2061F00E94C72C2F
:102670001D1414F09FEF01C091E0899F802D11245B
:102680008093E203DE80DD2061F00E94C72C1D14E0
:1026900014F09FEF01C091E0899F802D1124809359
:1026A000E3033091E2033323D1F02091E3032223AB
:1026B000B1F045EB3403C0011124992319F0909334
:1026C000E20302C0F092E20335EB2303C0011124C0
:1026D000992319F09093E30302C0F092E30346E0DC
:1026E00050E0BE016F5F7F4F8EED93E00E94D930C6
:1026F000892BA9F48091E00381110FC08091E1033F
:1027000081110BC08091E203811107C081E090919B
:10271000E303911103C080E001C081E080FD0E94CD
:10272000262C86E0FE013196AEEDB3E001900D92CD
:102730008A95E1F70E9484289091AD02891709F4E7
:102740001BCE8093AD020E94F02716CEC9BCD9BC27
:1027500009B400FEFDCF8091D8008F7D8093D80012
:102760008091E00082608093E0008091E00081FD34
:10277000FCCF0E94431F09CE232B09F071CFAFCFAE
:10278000A0E0B0E0E6ECF3E10C943A307C015B01B0
:102790006A0180917C028A3018F001E010E002C0EA
:1027A0000AE010E0C1E0D0E0B501C701F6010995EB
:1027B000811115C021960C171D0794F0CC9F900134
:1027C000CD9F300D300D112480E090E045E34A9517
:1027D000F1F70000019682179307C1F7E5CF81E07A
:1027E000CDB7DEB7EAE00C945630FF920F931F93FB
:1027F000CF93DF938C018AE0F82EF801849188232F
:1028000009F44CC0813009F042C0E8012196FE0174
:102810008491813031F42196FE0184910E94F01F51
:1028200039C0823039F4E8012296FE0184910E9479
:102830009A2D30C0833039F4E8012296FE0184914C
:102840000E94751F27C0843029F5E8012296FE01F9
:10285000249180E090E030E0205331092A303105A6
:1028600060F4F89EA001F99E500D1124C901840F57
:10287000951F2196FE012491EECF009759F0EFE9C4
:10288000FFE03197F1F700C000000197F6CF0E94FA
:10289000672BE8018E010F5F1F4FAFCFCDB7DEB7BB
:1028A000E5E00C945B300F931F93CF938C018091E4
:1028B000C502C82FC17080FF03C080EE0E94751F43
:1028C000F8018281882321F08FE20E949A2D03C0B3
:1028D0008FE20E94751FCC2319F080EE0E949A2D82
:1028E000CF911F910F910895FC01AC014A5F5F4F9A
:1028F0008FEF91E32191822728E030E087FF03C02A
:10290000880F892701C0880F21503109B9F7E417D2
:10291000F50781F70895EF92FF920F931F93CF93DE
:10292000DF937C018B010E94D626811119C0E7013B
:1029300001151105A1F08091E80085FD0AC0809184
:10294000E8008E778093E8000E94D626882381F3E2
:1029500007C089918093F10001501109E9CF80E00F
:10296000CDB7DEB7E6E00C945A30AAE2B0E0EBEB6C
:10297000F4E10C944130EDEBF2E085EC92E0209133
:10298000F10021938E179F07D1F78091BE0283300B
:1029900009F461C030F4813071F0823009F49BC0D9
:1029A000B2C08A3009F487C08B3009F46CC089301A
:1029B00009F0A9C020C08091BD02813A09F0A3C0EE
:1029C0008091E800877F8093E8008091C102909118
:1029D000C202892B21F468E081EB92E003C060E041
:1029E00080E090E070E00E945D278091E8008B77A6
:1029F0008093E80088C08091BD02813209F083C0D5
:102A00008091C1029091C202029708F07CC080912F
:102A1000E800877F8093E8008091E80082FD05C090
:102A20008091BB028111F8CF6EC02091F30080919C
:102A3000F20090E0922B029731F48091F100813006
:102A400011F0863021F48091F1008093B0028091E2
:102A5000E8008B7754C08091BD02813A09F053C0E1
:102A60008091C1029091C202892B09F04CC08091E3
:102A7000E800877F8093E8008091E80080FFFCCF2A
:102A80008091250137C08091BD028132E1F58091AE
:102A9000C1029091C202892BB1F58091E800877F35
:102AA0008093E8000E9409278091BF02809325014E
:102AB0000E94431F28C08091BD02813221F5809180
:102AC000E800877F8093E8000E9409278091C00278
:102AD0008093AF0218C08091BD02813AA1F4809129
:102AE000E800877F8093E8008091E80080FFFCCFBA
:102AF0008091AF028093F1008091E8008E778093FF
:102B0000E8000E9409278091E80083FFCEC18091F0
:102B1000BD029091BE02492F50E04A30510508F0A5
:102B2000C4C1FA01EE59FF4F0C94BF30803821F038
:102B3000823809F0BAC108C08091B9029091BA02F6
:102B4000992389F082600FC08091C1028F70873015
:102B500008F0ABC18093E9008091EB0085FB8827EA
:102B600080F91092E9009091E800977F9093E80037
:102B70008093F1001092F10065C1282F2D7F09F09C
:102B800094C1882319F0823061F08FC18091BF0217
:102B9000813009F08AC1933009F080E08093BA0255
:102BA0002EC08091BF0281112AC08091C1028F7016
:102BB0002FEF280F263008F078C18093E90020918C
:102BC000EB0020FF1CC0933021F48091EB00806269
:102BD00014C09091EB0090619093EB0021E030E005
:102BE000A90102C0440F551F8A95E2F74093EA00FD
:102BF0001092EA008091EB0088608093EB001092C5
:102C0000E9008091E800877F20C181114EC11091B9
:102C1000BF021F778091E3008078812B8093E300CF
:102C20008091E800877F8093E8000E9409278091C7
:102C3000E80080FFFCCF8091E30080688093E30090
:102C4000111102C082E001C083E08093BB022DC15C
:102C50008058823008F029C18091BF029091C00253
:102C60008C3D53E0950779F583E08A838AE2898376
:102C70004FB7F894DE01139620E03EE051E2E32FD7
:102C8000F0E050935700E49120FF03C0E295EF700D
:102C90003F5FEF708E2F90E0EA3010F0C79601C0D2
:102CA000C0968D939D932F5F243149F74FBF80913C
:102CB000E800877F8093E8006AE270E0CE01019629
:102CC0000E945D27AEC04091C1025091C202292FDF
:102CD000332723303105A9F068F42130310509F498
:102CE000F3C02230310509F0E0C08BE390E0E1ED64
:102CF000F1E044C02132310521F12232310571F178
:102D0000D4C0992781309105A1F058F0029709F0BD
:102D1000CCC0EEE1F2E0E4918E2F90E0EEE1F2E043
:102D20002AC0ECE5F2E0E4918E2F90E0ECE5F2E0D1
:102D300022C0ECE4F2E0E4918E2F90E0ECE4F2E0CB
:102D40001AC04115510509F4C4C04130510509F0BC
:102D5000ACC089E090E0ECEFF1E010C04115510506
:102D600009F4BCC04130510509F09FC08BE790E0E9
:102D7000E6E1F1E003C0009709F497C02091E80074
:102D8000277F2093E8002091C3023091C40282176C
:102D9000930708F49C0140E02115310589F18091E9
:102DA000BB02882309F43DC08530D9F18091E80049
:102DB00083FD37C08091E80082FD2FC08091E8003C
:102DC00080FFEACF4091F3008091F20090E0942BD5
:102DD0002115310559F08830910540F44491409314
:102DE000F1003196215031090196F2CF41E0089768
:102DF00009F040E08091E8008E778093E800CCCF26
:102E00004111CDCF0AC08091BB02882351F085309B
:102E100041F08091E80083FD04C08091E80082FFCA
:102E2000F2CF8091E8008B778093E8003EC0803835
:102E3000E1F58091E800877F8093E8008091BC02F3
:102E40008093F1008091E8008E778093E8000E94E3
:102E500009272BC0811129C08091BF029091C00227
:102E60009927029714F58091E800877F8093E80006
:102E70001091BF021093BC020E940927111106C0D5
:102E80008091E30087FD02C081E001C084E080936F
:102E9000BB0242E061EC81E00E94282742E261EC43
:102EA00082E00E9428278091BB028091E80083FF86
:102EB0001AC08091E800877F8093E8008091EB0042
:102EC00080628093EB000FC082E190E0ECE0F2E0E2
:102ED00055CF89E090E0E3EEF1E050CF80E490E060
:102EE000E1E9F1E04BCFAA96E3E00C945D301F924C
:102EF0000F920FB60F9211242F933F934F935F932E
:102F00006F937F938F939F93AF93BF93CF93DF93F1
:102F1000EF93FF93C091E900CF708091EC00D82F20
:102F2000D17080FDD0E81092E9008091F000877F99
:102F30008093F00078940E94B5141092E90080917B
:102F4000F00088608093F000CD2BCF70C093E90033
:102F5000FF91EF91DF91CF91BF91AF919F918F91B1
:102F60007F916F915F914F913F912F910F900FBE85
:102F70000F901F901895E8EDF0E080818E7F8083A0
:102F80001092E2001092DA001092E100A0EEB0E0A0
:102F90008C9181608C9380818F77808319BCA7EDA1
:102FA000B0E08C918E7F8C9380818F7E8083109295
:102FB000AE020895A0E0B0E0E0EEF7E10C943C3002
:102FC000C8EDD0E088818F7E8883E7EDF0E08081D6
:102FD0008160808384E082BF81E08093AE0288813B
:102FE0008E7F888302EE10E0F80110821092DA00E2
:102FF00081EEC82ED12CF601108288818F778883CC
:1030000088818068888388818F7D888319BC10922D
:10301000BB021092BC021092BA021092B90290EE5A
:10302000E92EF12CF70180818B7F8083888181607C
:10303000888342E060E080E00E942827F6018081DA
:103040008E7F8083F80180818160808380818860A9
:103050008083F70180818E7F80838881806188836F
:10306000CDB7DEB7E8E00C9458301F920F920FB640
:103070000F9211242F933F934F935F936F937F93FE
:103080008F939F93AF93BF93EF93FF938091E10052
:1030900082FF09C08091E20082FF05C08091E100BB
:1030A0008B7F8093E1008091DA0080FF2AC08091BD
:1030B000D80080FF26C08091DA008E7F8093DA00EE
:1030C0008091D90080FF18C080E189BD82E189BD6F
:1030D00009B400FEFDCF81E08093BB028091AE0277
:1030E00081110FC00E94BB170E94DA178091E20085
:1030F00084608093E20005C019BC1092BB0210925C
:10310000AE028091E10080FF17C08091E20080FF55
:1031100013C08091E2008E7F8093E2008091E200F4
:1031200080618093E2008091D80080628093D80013
:1031300019BC85E08093BB028091E10084FF30C020
:103140008091E20084FF2CC080E189BD82E189BDCD
:1031500009B400FEFDCF8091D8008F7D8093D80008
:103160008091E1008F7E8093E1008091E2008F7E6C
:103170008093E2008091E20081608093E200809180
:10318000BC02882311F084E007C08091E30087FD32
:1031900002C081E001C083E08093BB028091BB024A
:1031A0008091E10083FF27C08091E20083FF23C06C
:1031B0008091E100877F8093E10082E08093BB02F1
:1031C0001092BC028091E1008E7F8093E10080919B
:1031D000E2008E7F8093E2008091E2008061809324
:1031E000E20042E060E080E00E9428278091F00049
:1031F00088608093F000FF91EF91BF91AF919F9114
:103200008F917F916F915F914F913F912F910F908F
:103210000FBE0F901F90189580E008959091910235
:1032200092FF0DC0282F2871283019F4877F846001
:1032300006C0282F2471243011F48B7F886093FFFF
:103240000DC0282F2871283119F4877E846106C0AB
:10325000282F2471243111F48B7E886120919202F1
:1032600020FF0DC0382F3871383019F4877F816006
:1032700006C0382F3171313011F48E7F886021FF04
:103280000DC0282F2871283119F4877E816106C06E
:10329000282F2171213111F48E7E886194FD877E63
:1032A000089580912E03811118C08091D80080610B
:1032B0008093D8008AE18A95F1F700C08091D90007
:1032C00080FD02C082E001C081E080932E03823045
:1032D00021F40E94BB171092BB0281E090912E0353
:1032E000913009F080E00895F894E82FE295EF70AE
:1032F000F0E031A1282F2F7081E090E001C0880F0D
:103300002A95EAF7982F9095932391A392A1892B60
:1033100082A378940895A2E1B0E0E1E9F9E10C9488
:103320003530AE014F5F5F4F7A018CE0DA011D92BC
:103330008A95E9F707E112E06A018DE1682E82E0E3
:10334000782EAA24A394B12C23E2822E22E0922E7E
:10335000F80180818F3F09F440C0F894E82FE2958E
:10336000EF70F0E021A18F70A50102C0440F551F3E
:103370008A95E2F7CA01922F982B91A392A180958A
:10338000892382A3789400C0EDE1F2E0512C31E072
:1033900021912F3F89F0A22FA295AF70B0E09096B7
:1033A0008C9190E02F7002C0959587952A95E2F751
:1033B00080FD02C0832F01C080E0582A330F8E1693
:1033C0009F0631F7D8018C918F3F11F00E9474193C
:1033D000B0EABA95F1F7F60150820F5F1F4FFFEF89
:1033E000CF1ADF0A6016710609F0B2CF4CE050E048
:1033F000B70181E892E00E94D930009741F02CE0BB
:10340000F701A1E8B2E001900D922A95E1F7009151
:103410008E02892B49F081E0809326030E94FC27CD
:10342000909325038093240380912603811102C089
:10343000F12C22C080912403909125030E94E12762
:103440000597B0F310E00B561D4F46E050E061E8E1
:1034500072E0C8010E94D930892B59F086E0E1E87A
:10346000F2E0D80101900D928A95E1F7FF24F394E0
:1034700001C0F12C109226030E945119E0918E0296
:10348000882309F458C06E012DE0C20ED11C86E0DD
:10349000D6011D928A95E9F70E2F10E00B561D4FAD
:1034A00080917C028A3048F440E450E1B601C801C2
:1034B0000E94C013882399F00AC08091270390913D
:1034C00028030E94E127843F914070F71AC047ED1E
:1034D0005FE0B601C8010E94C013811171C08091E4
:1034E0007C028F3F19F08F5F80937C0280917C0279
:1034F0008A3008F467C00E94FC27909328038093C9
:10350000270380912D03882309F454C086E0F60137
:1035100011928A95E9F710922D03A0918D02B0E0E7
:10352000AB56BD4F86E0FE013D9601900D928A9507
:10353000E1F781E040C0F0E0EB56FD4F86E0AEE6FB
:10354000B2E001900D928A95E1F78EE692E00E943A
:10355000741480936D028090740290907502A09014
:103560007602B09077028091290390912A03A0916E
:103570002B03B0912C0388169906AA06BB06D1F03E
:103580008092290390922A03A0922B03B0922C03DD
:103590000E94511981110EC00E94F027861A970AC5
:1035A000A80AB90A80927D0290927E02A0927F02C0
:1035B000B092800280E08F296296EFE00C94513047
:1035C00010927C0280918D0290E046E050E0B601BE
:1035D0008B569D4F0E94D93021E020932D03892BDB
:1035E00009F09BCFE7CF7C30A0F4663090F498E4EC
:1035F000899FF001112486E0789FE00DF11D1124D0
:10360000E60FF11DEE0FFF1FE05AFD4F85919491DB
:10361000089580E090E00895CF93DF93823891057C
:1036200069F1B0F48133910509F477C048F4893227
:10363000910509F469C08A32910509F473C092C0FA
:103640008533910509F45BC089339105B9F08AC0CF
:10365000833E910591F138F4803E9105D1F0823E90
:10366000910531F17FC0863E9105D9F1873E9105E4
:10367000E9F1843E910509F075C028C020919102BE
:1036800020FD5BC021FD59C02091920223FD61C045
:1036900069C08091910280FD4AC08091920280FFB2
:1036A0004CC08091910284FD4EC183EE90E04DC1EB
:1036B0008091910282FF3EC0F4CF8091910282FD01
:1036C00039C08091920280FD38C0EBCF8091920288
:1036D00081FF39C08091910284FD35C187EE90E071
:1036E00034C18091910283FF2BC0F4CF809191026D
:1036F00083FD26C08091920281FD25C0EBCF809191
:10370000910285FD26C022C08091910285FD1EC0D8
:103710008091920283FF1DC00AC08091910286FDB4
:103720001BC01DC08091910286FD19C015C089E3A0
:1037300090E00BC182EE90E008C180EE90E005C100
:1037400086EE90E002C184EE90E0FFC085E390E059
:10375000FCC089E290E0F9C08AE290E0F6C081E323
:1037600090E0F3C0811531E5930708F061C0811541
:1037700020E59207B0F09C012370332741E050E030
:1037800002C0440F551F2A95E2F7282F269526954B
:1037900080E2289F90011124CA01822B932B9D68FF
:1037A000D4C0883E910568F5803E910508F0CDC0F3
:1037B000883A9105B8F4853A910548F0855AE82F82
:1037C000F0E0ED5DFD4F808190E09064BEC08130FF
:1037D000910509F4B5C008F4B6C08430910508F429
:1037E000B2C0B3C08F3B910508F0ADC0885AE82F36
:1037F000F0E0EE0FFF1FEA5DFD4F80819181946440
:10380000A4C0811530E2930758F4811521E0920796
:1038100008F09BC08D3E910508F495C0906595C059
:10382000811530E4930708F48EC09F70906A8DC0B4
:10383000811525E5920708F042C0811534E593070C
:1038400028F0982F8827846F906A7FC0811523E520
:103850009207B0F09C012370332741E050E002C092
:10386000440F551F2A95E2F7282F2695269580E2CA
:10387000289F90011124CA01822B932B9A6865C05E
:10388000811532E5930728F4982F8827816F906A75
:103890005CC09C012370332741E050E002C0440F1C
:1038A000551F2A95E2F7282F2695269580E2289F16
:1038B00090011124CA01822B932B9C6846C0EC0115
:1038C000C11589E5D807B0F4C11528E5D20728F05D
:1038D0009C2F8827806F906A38C0C11536E5D307C2
:1038E00090F58C2F0E940E198F7190E0982F8827E9
:1038F00090622BC0C1158AE5D80790F48C2F8F7089
:103900000E940E1994E0D695C7959A95E1F7CF706D
:10391000D0E0DC2FCC27D0699E01282BC90115C02F
:10392000CE0190568115904270F48D2F8F710E94B8
:103930000E19282F2F71CE0199279062922B05C066
:1039400081E090E002C080E090E0DF91CF910895A7
:10395000CF9384E090E00E946930C82F82E290E02B
:103960000E9469302C2F30E0A901582BCA01CF9159
:10397000089568EE7EEF80E090E00E94953060E070
:1039800082E090E00E94773060E083E090E00E9467
:103990007730109223031092220360E084E090E0DD
:1039A0000E94773064E082E290E00E94773060E02D
:1039B00085E090E00E94773060E086E090E00E9431
:1039C00077306FEF87E090E00E94773040E050E082
:1039D000BA0188E090E00E94893060E08DE090E0DC
:1039E0000E94773040E050E0BA0188E190E00E9408
:1039F000893060E087E190E00E94773040E050E05D
:103A0000BA018CE190E00E94893060E070E080E2D1
:103A100090E00E94953040E050E0BA0188E190E0EB
:103A20000E94893040E050E0BA018FE090E00E94AF
:103A3000893040E050E0BA0183E190E00E94893093
:103A4000089580912103811110922103089580959A
:103A50009091C50289238093C50208959091C50273
:103A60008091EA03982B9093C602809121038823CA
:103A700089F0892B8093C602E8ECF2E097E080E0C1
:103A8000915029F021912223D9F38F5FF9CF811131
:103A90000E94211D48E050E069E173E086EC92E06D
:103AA0000E94D930892BA9F088E0E6ECF2E0A9E188
:103AB000B3E001900D928A95E1F7E091CB03F0918C
:103AC000CC03309731F00280F381E02D86EC92E058
:103AD00009950895209118038095822380931803F7
:103AE000982F977099F430E0482F082E000C550B52
:103AF0002417350759F09091920292FF07C08595DF
:103B0000859585950E94FF1E109218030895CF9306
:103B1000C0919202C2FB992790F9981791F080FB0F
:103B2000C2F9C09392026091910284E090E00E94F9
:103B300077306C2F82E290E00E94773082E00E9422
:103B40006A1DCF910895209117039091D6022917ED
:103B5000B1F030E0F90153E0EE0FFF1F5A95E1F7A5
:103B6000E952FD4F5181561306C05081581303C0CE
:103B70005281541306C02F5F3F4F2770E8CF80E07B
:103B8000089581E00895809117039091D6028917D6
:103B900019F08F5F8770FBCF0895EF92FF920F931C
:103BA0001F93CF93DF938091D30282958F7009F09A
:103BB00054C08091D002882309F44FC0C0911703EC
:103BC000E090D602D091CE02F090CF020091D102C7
:103BD0001091D202CE1509F440C0A8016F2D8D2F8F
:103BE0000E941C2A2C2F30E0811132C0F90183E0A1
:103BF000EE0FFF1F8A95E1F7DF01A952BD4F119625
:103C00008C9111978F1124C08C918D1321C0129625
:103C10008C91129781111CC013968D919C911497D1
:103C2000801B910B883C910598F48091D3028F7092
:103C300080618093D302E452FD4F80818F70806158
:103C400080838EEC92E00E94A9060E94C31D05C0ED
:103C50002F5F3F4FC22FC770BDCFCDB7DEB7E6E0B5
:103C60000C945A3080E090E00E946E2880E090E052
:103C70000E9458281092EA030E942E1DEEEDF3E0F8
:103C800086E0DF011D928A95E9F71092D803109221
:103C9000D7031092D9030E94262C0895A0E0B0E02B
:103CA000E4E5FEE10C943B307C0100918F02109121
:103CB00090028091220390912303082B192BCFE0CF
:103CC000D0E0CC24C394D12CC6010C2E02C0880FA6
:103CD000991F0A94E2F780239123892B21F42197DD
:103CE00098F7B12C09C0BC2EB7018C2F0E94F31A93
:103CF0000E940C1B019799F38B2DCDB7DEB7E9E03D
:103D00000C945730CF93DF93EC010E944E1EBE01FE
:103D10000E94F31A0E940C1BDF91CF9108959C30F2
:103D200078F5863068F5E82FF0E086E0989FE00DA2
:103D3000F11D11249E2F977083E0F695E7958A95E3
:103D4000E1F7EE0FFF1FEE0FFF1FE15DFC4F40E0BC
:103D500050E080E0219130E0092E02C03695279591
:103D60000A94E2F721703327042E01C0220F0A942F
:103D7000EAF7822B4F5F5F4F4430510559F70895A2
:103D800080E008959C3088F5863078F5E82FF0E0E3
:103D900086E0989FE00DF11D11248E2F877051E071
:103DA00001C0550F8A95EAF783E0F695E7958A9565
:103DB000E1F7EE0FFF1FEE0FFF1FE15DFC4F20E06C
:103DC00030E070E04081CB01022E02C096958795CD
:103DD0000A94E2F781708195842785238427819353
:103DE0002F5F3F4F2430310569F708950E941D234E
:103DF0009093900280938F020E94321E089521E0DA
:103E000030E002C0220F331F8A95E2F720953095EB
:103E100080918F0290919002822393230E94F61E3C
:103E2000089521E030E002C0220F331F8A95E2F7A7
:103E300080918F0290919002822B932B0E94F61E0C
:103E4000089590932303809322030E94321E0895C5
:103E500092959F70963079F010F4925001C09A506C
:103E6000923068F4803F69F018F4883E40F409C04D
:103E7000843F29F406C0883E20F0813F11F080E0A5
:103E8000089581E008951092C50286E0E8ECF2E022
:103E9000DF011D928A95E9F70E94321E089588235A
:103EA00041F080959091EA0389238093EA030E9470
:103EB0002E1D0895882339F09091EA03892B809371
:103EC000EA030E942E1D0895882321F00E94271DD9
:103ED0000E942E1D0895882339F09091C502892BE8
:103EE0008093C5020E942E1D0895882309F45FC0A7
:103EF000823869F40E94842881FF59C069E386EC06
:103F000092E00E943E280E942E1D69E30EC0833875
:103F100099F40E94842880FF4AC063E586EC92E011
:103F20000E943E280E942E1D63E586EC92E00E94CE
:103F300031280E942E1D0895843869F40E94842837
:103F400082FF35C067E486EC92E00E943E280E9422
:103F50002E1D67E4EACF9CEF980F913A10F4682F7A
:103F6000E4CF90E2980F983050F4877091E001C050
:103F7000990F8A95EAF7892F0E94271DDACF9BE5D2
:103F8000980F933028F480E090E00E946E28089506
:103F900098E5980F973128F480E090E00E94582827
:103FA00008958D3E20F00E94502C0E94262C0895EA
:103FB0001F93CF93DF93182FEB010E949A2D209728
:103FC00041F08FE99FE00197F1F700C000002197D1
:103FD000F6CF812F0E94751FDF91CF911F91089519
:103FE000893319F060E070E002C060E570E00E9483
:103FF000D81F0895CF93DF93EC014B815C816981D9
:1040000088810E941C2A81110EC08E819F81009799
:1040100019F00E940C1B04C0888199810E94821EA5
:104020000E94281F01C080E0DF91CF910895A5E193
:10403000B0E0EDE1F0E20C9433308C0185E0F80162
:10404000DE01519601900D928A95E1F7D801129602
:10405000EC908EECA82E82E0B82E5090CE024090CC
:10406000CF028090D1029090D202A401642D852DC0
:104070000E941C2AF82E811174C1F80170806180A1
:10408000C380D4803090D00296012819390933209A
:1040900009F419C18091D302982F907F283C3105F3
:1040A00008F0D3C0911179C046101AC0571018C03B
:1040B0004091D4025091D50226813781421753078F
:1040C00079F4E1100DC08F7080618093D302C50137
:1040D0000E94A9068091D302D80115968C935DC1E8
:1040E000A601662D872D0E941C2AD82E811103C09F
:1040F00081E08E2502C080E090E080FF07C04E2D59
:10410000662D872D0E94A31D81113EC0D11003C0D2
:1041100081E08E2502C080E090E0B82FB170DB2EE8
:1041200080FF2AC04E2D662D872D0E94A31DC82E0C
:10413000811122C0798A6A8A89899A890E94821E9D
:10414000292F22952F70223018F0243078F405C0E2
:104150009F7049F0811107C00DC09F7021F0F801D8
:104160009581907F39F0805E883020F0C8010E94F0
:10417000A906CD2CFC2C11C1EE2009F40DC18091B3
:10418000D30281608093D3028EEC92E00E94A90654
:10419000EEECF2E088E0DF01E0C046101BC05710F3
:1041A00019C04091D4025091D502F801268137817F
:1041B0004217530779F4E1100DC08583C8010E94AE
:1041C000A90688E0F801AEECB2E001900D928A9564
:1041D000E1F759C0C8010E94FA1F882381F1EE203F
:1041E00071F12091D302822F82958F7090E0029717
:1041F000A4F08091CE029091CF029A8789871B8686
:10420000DD86CC862E878091D4029091D502988B42
:104210008F87CE0109960E94A90688E0F801AEECCE
:10422000B2E001900D928A95E1F70E94CD1D0AC07F
:10423000461491F0C8010E94FA1F811126C0C801DE
:104240000E94A906FF24F394A8C09111F1CF8EEC2F
:1042500092E00E94A9067FC05710ECCF4091D40293
:104260005091D502F801268137814217530711F783
:10427000E110E0CF8583C8010E94A90688E0D5013E
:104280001D928A95E9F7F32C88C0EE20C1F22091A7
:10429000D302822F82958F7090E002970CF4BDCFED
:1042A0008091CE029091CF029A8389831B82DD8216
:1042B000CC822E838091D4029091D50298878F83EF
:1042C000CE010196A8CF283C310508F044C0FE2C51
:1042D000EE2009F4B4CF461030C057102EC0209104
:1042E000D4023091D502F8018681978128173907C9
:1042F00021F59091D30290FD17C0892F82958F7080
:10430000282F30E02115310579F095832F303105C4
:1043100041F08F5F982F9295907F85818F70892BC8
:104320008583C8010E94A90688E0F801AEECB2E0DE
:1043300001900D928A95E1F730C0C8010E94FA1FE2
:1043400081116BCF8091D30281608093D302C80129
:104350000E94A90622C088E0D5011D928A95E9F73E
:104360001CC0EE2009F46BCFC8010E94FA1FF82E82
:10437000882309F464CF88E0F801AEECB2E0019044
:104380000D928A95E1F78091CE029091CF020E9422
:10439000821E0E94CD1D01C0F12C8F2D6596E1E19A
:1043A0000C944F30A0E1B0E0E8EDF1E20C943E3027
:1043B00029873A874B875C876D877E878F87988BA5
:1043C000CE0109960E94172081114AC088E0FE01A3
:1043D0003996DE01119601900D928A95E1F7E984F4
:1043E000FA840C851D85A8016F2D8E2D0E941C2A34
:1043F000811136C0A091D602B0E0CD010196877040
:1044000099272091170330E08217930781F1E98201
:10441000FA821D830C8393E0AA0FBB1F9A95E1F7E4
:10442000A952BD4F98E0FE01319601900D929A95E8
:10443000E1F78093D6020E94C31D12C028E0829F3C
:10444000C001112489529D4F0E9417208823E1F05A
:104450008091170390E00196877099278093170346
:10446000809117039091D6028913E8CF0DC00E9466
:10447000431F1092D60210921703EEECF2E088E090
:10448000DF011D928A95E9F76096E6E00C945A30B8
:104490009C013A9521153F4130F5BC0166277270A9
:1044A000AC01442754709C012227387094FF0FC040
:1044B00090FF02C080E101C080E0672B09F08062BC
:1044C000452B09F08064232B79F080680895892FAB
:1044D0008170672B09F08260452B09F08460232BE3
:1044E00019F08860089580E00895A5E0B0E0EBE75A
:1044F000F2E20C94413049835A8389819A81662380
:1045000059F0222349F00E944E1E182F682F8981EE
:104510009A810E94C21E03C00E948F1E182F6981BB
:104520007A81812F0E94F31A2596E3E00C945D3086
:10453000FC0186819781009741F4262F40815181AB
:104540006281738184810E94752208950E94431FB5
:104550002FEF84E39CE0215080409040E1F700C0C1
:1045600000009AE088E10FB6F894A8958093600067
:104570000FBE90936000FFCF0E94431F2FEF84E394
:104580009CE0215080409040E1F700C0000087E7A8
:1045900097E790930108809300089AE088E10FB6AE
:1045A000F894A895809360000FBE90936000FFCFB1
:1045B000EF92FF920F931F93CF93DF93EC018B0148
:1045C0007C0180EEE81AF10898E0E916F10410F099
:1045D000209731F4CE010E9448220E946B1F05C033
:1045E000CE010E9448220E945A1F8C2F0E949A2DB1
:1045F0000115110549F08FE99FE00197F1F700C01F
:10460000000001501109F4CF8C2F0E94751F98E013
:10461000E916F10410F0209731F4CE010E944822EF
:104620000E94641F05C0CE010E9448220E944F1FB5
:10463000CDB7DEB7E6E00C945A309C012C703327DE
:104640002C30310511F4806101C08F7E9C012470F3
:1046500038702430384011F4906108959F7E089599
:10466000EF92FF920F931F93CF93DF937C01162F4E
:10467000EA018091C502082F027081FF03C081EE1C
:104680000E94751FF7018281882349F0812F0E94C3
:104690009A2D209761F08C2F0E949A2D08C0812FAF
:1046A0000E94751F209719F08C2F0E94751F002300
:1046B00019F081EE0E949A2DCDB7DEB7E6E00C949A
:1046C0005A300F931F93CF938C01C42FAB0166EE2A
:1046D00070E00E943023F8018281811106C08C2F86
:1046E0000E949A2D8C2F0E94751FCF911F910F91C0
:1046F00008958F31910508F0B4C0FC01E459FF4FD3
:104700000C94BF30662309F4ACC084E59BE0A7C0DD
:10471000662309F4A6C088E49BE0A1C0662309F4DF
:10472000A0C08DE39BE09BC0662309F49AC082E39E
:104730009BE095C0662309F494C08BE29BE08FC098
:10474000662309F48EC084E29BE089C0662309F4E5
:1047500088C086E19BE083C0662309F482C088E0BC
:104760009BE07DC0662309F47CC08FEF9AE077C0A0
:10477000662309F476C087EF9AE071C0662309F4D6
:1047800070C08DEE9AE06BC0662309F46AC085EEB6
:104790009AE065C0662309F464C08BED9AE05FC0BF
:1047A000662309F45EC084ED9AE059C0662309F4DB
:1047B00058C08BEC9AE053C0662309F452C082ECD7
:1047C0009AE04DC0662309F44CC085EB9AE047C0DF
:1047D000662309F446C08AEA9AE041C0662309F4D8
:1047E00040C084EA9AE03BC06623D9F18BE99AE0A5
:1047F00036C06623B1F18EE89AE031C0662389F1B4
:1048000085E89AE02CC0662361F18AE79AE027C028
:10481000662339F185E79AE022C0662311F180E72B
:104820009AE01DC06623E9F08DE69AE018C0662381
:10483000C1F088E69AE013C0662399F084E69AE016
:104840000EC0662371F08EE59AE009C0662349F038
:1048500081E59AE004C0662321F080E49AE00E949A
:10486000F5130895ABE1B0E0E8E3F4E20C943230E4
:10487000942F498B252F5A8B6B8B7C8B8D8B4C897E
:104880005D89622F892F0E941C2A811109C08091A5
:10489000610290916202019690936202809361029C
:1048A0008B8981111092EA038E01075F1F4F88E008
:1048B000F80111928A95E9F785E0FE017196D80119
:1048C00001900D928A95E1F74C855D856A85898511
:1048D0000E941C2A8111D8C161E0C8010E9498225F
:1048E0005C01883FFCE59F0739F48B858823A1F0A4
:1048F00081E08093FF01C8C1893F2CE5920731F424
:104900008B85882349F00E942B2ABEC18A3F9C4593
:1049100019F48B85811111C006E211E0712CC12CB4
:10492000D12C88248394912C55245394CE01019644
:104930009F8B8E8B77E0472E38C08091FF018823B4
:10494000B9F2E1CFFFEFEF16FF0609F44BC1F80112
:104950006481611145C02091FF01822F81706B84B9
:10496000F80135812681662009F4DCC0882309F42A
:10497000D9C03323C1F1940102C0220F331F9A958D
:10498000E2F721503109F801868190E028173907B4
:1049900009F440C07628FFEFCF1ADF0A095F1F4FE6
:1049A0002FE1C216D10409F41FC1F8012081318121
:1049B0006FEF8FEF90E0E92EF12CF701EE0FFF1F64
:1049C000E20FF31F45915491A416B50611F0E62E9F
:1049D000F82E452B09F4B6CF9F5F6E2D8F2DEBCFB0
:1049E00020E030E0BACFA4010E2C01C0440F0A949D
:1049F000EAF7242B26832091E8033091E903223340
:104A0000310508F0B8CF22E330E03093E90320937A
:104A1000E803B1CF8091BE039091BF03009729F0C6
:104A20000E94E127C39708F02CC18091BC03B0918C
:104A3000BD03982FE0E0F0E08B1709F45FC0282F4A
:104A400030E0F901EE0FFF1FEC54FC4FE080F180E5
:104A50004E9CF0014F9CF00D1124EA5DFE4F408109
:104A60004A8F41814B8FA0E060E070E0EA8DFB8DC2
:104A7000E70FF11DE70FF11D25903490211431044B
:104A8000D1F0F801F081F88FF801F181F98F60E041
:104A9000E88DF98DE60FF11DE60FF11D459154915A
:104AA0004115510531F02416350609F4A1E06F5F78
:104AB000EFCF7F5FDBCFAA23D1F0671708F4DBC00D
:104AC0004E9CF0014F9CF00D1124EA5DFE4F309793
:104AD00081F05482E017F10719F49093BC035ACF88
:104AE000891307C0C9010196982F937002C0E0E0B6
:104AF000F0E02F5F3F4F822F83709ECF9093BC03D7
:104B0000E017F10709F446CF90E0FC01EE0FFF1F1C
:104B1000EC54FC4FD182C082019683709927809318
:104B2000BD0338CF311114C0A40102C0440F551F7A
:104B30009A95E2F74150510930E04217530709F0C6
:104B400043C0662309F441C0C6010E94D22A3CC07A
:104B5000822F90E09C0121503109282339230E2C0B
:104B600002C0959587950A94E2F7232B59F580FFAB
:104B700029C0F80182819381892BE1F088E0EE89D8
:104B8000FF8911928A95E9F78EEF89838A830E94C3
:104B9000FC278160582F9D838C83F801828193814B
:104BA0008F83988729813A814B816D817E810E9414
:104BB000D22104C060E0C6010E947923F801158269
:104BC00081E003C0817001C080E094010E2C01C01F
:104BD000220F0A94EAF72095F8019681292326836B
:104BE000682ED8CE612CD6CE8B85882381F1772094
:104BF00071F10E94FC279093BF038093BE038091C4
:104C00005303883008F04AC091E0980F9093530303
:104C100098E0FE013996DE01119601900D929A9569
:104C2000E1F74CE0849FC00111248C5A9C4F28E08E
:104C3000FE013196DC0101900D922A95E1F72FEFEC
:104C40003FEFFC0131872087B386A28627C0909171
:104C5000BC038091BD03981719F00E943A2A08C03E
:104C60000E94002B1092BF031092BE030E94562B8D
:104C7000772051F013C00115110509F438CF909336
:104C8000BC03F801548286CE29853A854B855C8524
:104C90006D857E858F8598890E94D2216B96E2E191
:104CA0000C944E3008958091B00208958093D403FF
:104CB0007093D6036093D5038091BB02843001F5D5
:104CC00082E08093E9008FEF9091E800815095FD9C
:104CD00006C095ED9A95F1F700008111F5CF80910E
:104CE000E80085FF0DC040E050E063E070E084ED37
:104CF00093E00E948B148091E8008E778093E80007
:104D00000895BC0184E00E9456260895BC0183E00A
:104D10000E945626089522E02093E9002FEF30915B
:104D2000E800215035FD06C035ED3A95F1F7000059
:104D30002111F5CF2091E80025FF0BC040E050E0A5
:104D400066E070E00E948B148091E8008E7780937B
:104D5000E8000895CF93DF9321E02093E9002FEF3F
:104D60003091E800215035FD06C035ED3A95F1F758
:104D700000002111F5CF2091E80025FF14C0EC01BF
:104D800040E050E068E070E00E948B148091E80001
:104D90008E778093E80088E0FE01A1EBB2E00190FD
:104DA0000D928A95E1F7DF91CF9108952091E4006B
:104DB0003091E50095E64091EC00842F817040FF32
:104DC00023C08091E80080FD1DC08091BB02882334
:104DD00099F0853099F08091EB0085FD11C04091EC
:104DE000E4005091E5002417350729F3915011F0A4
:104DF0009A01E1CF84E0089582E0089583E0089568
:104E000081E0089580E008954091E80042FFDDCF01
:104E100008958091BD0287FF11C08091E80082FD56
:104E200005C08091BB028111F8CF11C08091E800CC
:104E30008B770BC08091BB02882349F08091E800FA
:104E400080FFF8CF8091E8008E778093E800089586
:104E5000982F973068F59093E900981739F0709182
:104E6000EC002091ED005091F00003C0242F762F2C
:104E700050E021FD02C09F5FECCF3091EB003E7F00
:104E80003093EB003091ED003D7F3093ED00309199
:104E9000EB0031603093EB007093EC002093ED0059
:104EA0005093F0002091EE0027FDE5CF80E00895BB
:104EB0008F708093E90081E008952091C3023091C2
:104EC000C4022617370748F06115710539F420919F
:104ED000E8002E772093E80001C0B901FC0120E032
:104EE0006115710579F18091BB028823F1F185305C
:104EF000F1F18091E80083FD3CC08091E80082FDE3
:104F00002EC08091E80080FFEBCF2091F3008091CC
:104F1000F20090E0922B6115710551F088309105F7
:104F200038F421912093F100615071090196F3CF7B
:104F300021E0089709F020E08091E8008E778093C7
:104F4000E800CECF2111CFCF0AC08091BB028823C9
:104F500061F0853061F08091E80083FD0AC08091A6
:104F6000E80082FFF2CF80E0089582E0089583E0B8
:104F7000089581E0089578941F920F920FB60F92D2
:104F800011248F939F93AF93BF938091D0039091FF
:104F9000D103A091D203B091D3030196A11DB11DFD
:104FA0008093D0039093D103A093D203B093D30303
:104FB000BF91AF919F918F910F900FBE0F901F9057
:104FC00018959C014FB7F8948091D0039091D1032C
:104FD000A091D203B091D3034FBF821B930B0895CE
:104FE0002FB7F8946091D0037091D1038091D203D0
:104FF0009091D3032FBF08952FB7F8948091D003D9
:105000009091D103A091D203B091D3032FBF089503
:105010001F920F920FB60F9211248F939F93AF930D
:10502000BF938091CF03811113C08091D0039091E1
:10503000D103A091D203B091D3034196A11DB11D1C
:105040008093D0039093D103A093D203B093D30362
:10505000BF91AF919F918F910F900FBE0F901F90B6
:1050600018959C012A5F3F4FFC014281461301C005
:105070001282019682179307B9F708959C01FC01EB
:1050800032969FEF80E04191461789F09F3F19F4D7
:10509000411101C0982F8F5F8630A9F79F3F39F0EB
:1050A000F901E90FF11D97FDFA95628308950895BE
:1050B0002091CD033091CE032817390771F09093DA
:1050C000CE038093CD03E091CB03F091CC033097D6
:1050D00021F00084F185E02D099508952091C90300
:1050E0003091CA032817390771F09093CA0380934F
:1050F000C903E091CB03F091CC03309721F00680F7
:10510000F781E02D099508950E945119882359F0DF
:10511000E091CB03F091CC03309729F00190F0811E
:10512000E02D0995089580E008950F931F93CF9384
:10513000DF93C42FD22FFC0182818823B1F04093EA
:10514000C8030E94FC279093C7038093C60380E2A4
:105150008C0F883008F04DC0C77081E001C0880F07
:10516000CA95EAF70E946B1F44C08091C803481398
:1051700030C08091C6039091C7030E94E127883C0C
:10518000910538F510E21D0FCD17B9F080E28C0FB4
:10519000883040F4C77081E001C0880FCA95EAF7F3
:1051A0000E94641F183010F581E09D2F977001C098
:1051B000880F9A95EAF70E946B1F802F0E94F01FBC
:1051C0001830B8F4D77081E001C0880FDA95EAF79B
:1051D0000AC080E28C0F883060F4C77081E001C0A3
:1051E000880FCA95EAF70E94641F03C0802F0E94AF
:1051F000F01FDF91CF911F910F910895893279F1BE
:10520000E0F4843161F1A0F4873009F075C01092A8
:10521000C20394E190930402809303028CE3809391
:10522000020288E08093010288E28093000264C059
:1052300092EE980F9A30F0F05FC0803509F444C0C8
:1052400028F48F3409F058C08AE03FC0813529F036
:10525000823509F051C081E038C08FEF36C08091AF
:10526000C503882379F11092C5031092C4031092EC
:10527000C30342C08D518093C503833099F038F445
:10528000813069F08230D9F484E092E00DC085303D
:1052900099F078F0863099F480E092E005C082ECD5
:1052A00093E002C083E092E09093C4038093C30331
:1052B00023C082E092E0F8CF81E092E0F5CF109237
:1052C000C5031AC080E0089586EFE091C303F09112
:1052D000C403309789F02081082E000C990B820FAF
:1052E000911D8F3F910519F014F08FEF04C097FFC7
:1052F00002C0108201C0808381E008958B3109F4DF
:1053000069C058F58B3009F493C078F4863009F4FD
:1053100046C020F4853009F44CC08CC0873009F4B5
:105320004BC0883009F484C085C0803109F465C061
:1053300068F48E3009F07EC08091C10382FB222781
:1053400020F991E0922790FB82F94DC0863109F453
:105350006FC0893109F46CC06DC08A32E9F060F425
:10536000873209F45FC028F48E3108F463C08D5190
:105370004FC08932F1F05EC0833450F48A3308F0B4
:1053800046C0853309F44EC0883309F451C052C079
:10539000833409F447C04EC00E94B91C49C08091B3
:1053A000C103817F8E7F8093C10381E08093C0031E
:1053B00008950E94BC223CC08091C103982F909513
:1053C000917090FB80F98093C103911131C0897F66
:1053D000877F10C08091C10381FB222720F991E0D3
:1053E000922790FB81F98093C103992309F1809161
:1053F000C10381608093C1031BC08091C10383FB03
:10540000222720F991E0922790FB83F9ECCF895372
:1054100021E030E0A90102C0440F551F8A95E2F750
:10542000CA0102C081E090E00E94211F0E94431F38
:1054300081E0089580E00895452B41F06F3F41F4ED
:1054400091E08F3F09F090E0892F03C081E001C017
:1054500080E0817008951092BF031092BE031092F5
:10546000FF018091BD038093BC030E94562B0E94D4
:10547000002B0895A0E0B0E0E0E4FAE20C943230B2
:10548000C091BC03E7E0FE2E01E010E0FCE02F2E0F
:10549000AEEFEA2E8091BD03C81709F47AC0D0E0C0
:1054A000FE01EE0FFF1FEC54FC4F80819181F89EAE
:1054B000F001F99EF00D1124EA5DFE4F24812111C7
:1054C00065C060905303A4E5B3E020E030E0712CA8
:1054D0005F01261508F058C01A964D905C901B97F6
:1054E000F501808091804FEF5FEF312CC32CD12CE0
:1054F000F601EE0FFF1FE80DF91D65917491461638
:10550000570609F4A601672B11F03394EFCF4F3FF4
:10551000FFEF5F07A9F1B80102C0660F771F4A9538
:10552000E2F7762AA801032C02C0440F551F0A9403
:10553000E2F741505109672D70E046175707E1F433
:10554000229EF001239EF00D1124EC5AFC4FF89E90
:10555000D001F99EB00D1124AA5DBE4F12962D9177
:105560003C91139737832683E082E182918780877D
:1055700071E015967C9308C014961C921E921397A6
:105580002F5F3F4F1C96A5CF0E94D22A2196C37051
:1055900081CF0E94002B0E94562BCDB7DEB7E2E1EF
:1055A0000C944E30BC014091BC038091BD03942FFC
:1055B000981729F1292F30E0F901EE0FFF1FEC5465
:1055C000FC4F0190F081E02DE617F70799F487E092
:1055D000869FF001879FF00D1124EA5DFE4F81E068
:1055E000848394130CC02F5F3F4F23703327209385
:1055F000BC0308952F5F3F4F922F9370D9CF08952A
:10560000EF92FF920F931F93CF93DF9380915303F9
:10561000882309F446C00091EB038CE0F82E8091BA
:1056200053030817D0F5EE24E394E00EE092EB0369
:1056300010E0F09EE001F19ED00D1124CC5ADC4F19
:105640004B815C81698188810E941C2A811123C061
:105650008E819F81892B51F4888599858F3F2FEF0B
:10566000920721F061E00E9479230AC028813981E4
:105670004A815B816C817D818E819F810E94D221D4
:10568000F09EF001F19EF00D1124EC5AFC4F1482B3
:1056900013821092EA030E2DC2CF10925303109280
:1056A000EB03CDB7DEB7E6E00C945A301092E90375
:1056B0001092E803E6E2F1E08581811102C01482D4
:1056C0001682379681E0EF3FF807B1F70895A0E022
:1056D000B0E0EDE6FBE20C943D30E82FF0E0EC5654
:1056E000F34FD490282F26952695269530E0F90182
:1056F000EC57F34F0491877010E0082E02C0159507
:1057000007950A94E2F701701127F901EC58F34F5D
:10571000E490F12C082E02C0F594E7940A94E2F785
:1057200091E0E922FF24F901EC59F34FC491D0E054
:1057300002C0D595C7958A95E2F7C170DD2701159E
:10574000110519F081EE0E949A2DE114F10419F06F
:1057500086EE0E949A2D8D2D0E94F01FE114F10417
:1057600019F086EE0E94751F0115110519F081EEE2
:105770000E94751FCD2B19F08CE20E94F01FCDB74F
:10578000DEB7E7E00C945930EF92FF921F93CF936E
:10579000DF93EC011AE08881882309F44AC0813044
:1057A00009F043C08981813041F47E0182E0E80E36
:1057B000F11C8A810E94F01F09C0823049F47E01E9
:1057C000E2E0EE0EF11C8A810E949A2DE7012FC0C3
:1057D000833041F47E01F2E0EF0EF11C8A810E94D9
:1057E000751FF4CF843011F0219621C02A812296B2
:1057F00080E090E030E0205331092A30310558F440
:10580000189FA001199F500D1124C901840F951FE5
:1058100021962881EFCF009751F0EFE9FFE0319713
:10582000F1F700C000000197F6CF0E94672B219688
:10583000B2CFDF91CF911F91FF90EF9008956091CB
:10584000E4038CE090E00E94773008950E94FC27EA
:105850002091E003211104C02091E103222321F0D3
:105860009093DD038093DC032091E203211104C0B7
:105870002091E303222321F09093DB038093DA034A
:10588000E091CB03F091CC03309749F082E0809314
:10589000DE030480F581E02D8EED93E009950895F7
:1058A0008D3E39F49091E10397FF35C01092E103EA
:1058B00059C08E3E29F49091E1031916BCF32BC018
:1058C0009091E0038F3E29F497FF25C01092E003EA
:1058D00049C0803F19F41916CCF31DC09091E20322
:1058E000893F29F41916BCF41092E2033BC08A3FA9
:1058F00019F497FF10C0F8CF8B3F39F49091E30370
:1059000097FF09C01092E3032DC08C3F21F49091C2
:10591000E3031916BCF39FE0980F983080F421E060
:1059200030E0A90102C0440F551F9A95E2F7CA0161
:1059300080959091DF0389238093DF0313C08D3F0F
:1059400021F48091D9038E7F0BC08E3F21F480918A
:10595000D9038D7F05C08F3F29F48091D9038B7FB8
:105960008093D9038091E003811106C08091E10307
:10597000811102C01092D8038091E203811106C008
:105980008091E303811102C01092D70308958091A2
:10599000D90380FF08C06091010270E0759567959A
:1059A0007595679521C081FF06C06091010270E086
:1059B0007595679519C082FF04C06091010270E07F
:1059C00010C09091D703992399F060910002961727
:1059D000A0F780910102899FC001112470E00E940C
:1059E000AB306038710540F46115710519F406C0DB
:1059F00061E070E0862F08958FE7089581E00895B3
:105A00008091D90380FF06C06091030270E0660FA9
:105A1000771F26C081FF04C06091030284E005C0A7
:105A200082FF07C06091030288E0689FB0011124E3
:105A300017C09091D8039923D1F060910202961774
:105A400088F72091030288E0289F90011124929FFB
:105A5000A001939F500D112470E0CA010E94AB3049
:105A60006038710540F46115710519F406C068E0ED
:105A700070E0862F08958FE7089581E008958D3EA8
:105A800021F40E94002D819504C08E3E29F40E94CD
:105A9000002D8093E10308958F3E21F40E94002D94
:105AA000819504C0803F29F40E94002D8093E0037B
:105AB0000895893F19F40E94C72C05C08A3F31F42C
:105AC0000E94C72C81958093E20308958B3F21F4B7
:105AD0000E94C72C819504C08C3F29F40E94C72CDA
