:100000000C9472060C94382F0C948F060C948F0667
:100010000C948F060C948F060C948F060C948F060C
:100020000C948F060C948F060C9468180C94AA17E5
:100030000C942F280C948F060C948F060C948F062A
:100040000C948F060C948F060C948F060C948F06DC
:100050000C948F060C94E2270C948F060C948F0658
:100060000C948F060C948F060C948F060C948F06BC
:100070000C948F060C948F060C948F060C948F06AC
:100080000C948F060C948F060C948F060C948F069C
:100090000C948F060C948F060C948F060C948F068C
:1000A0000C948F060C948F060C948F06D70DD70DE9
:1000B0000A0E0A0E7C0E980EC80FC80FA30E330F3F
:1000C000450F450FC915F0158817F0158817381614
:1000D0005B1688174A175D17B523BB23C123C723B7
:1000E000CD23D323D923DF23E523EB23F123F723E8
:1000F000FD23032409240F2415241B242024252454
:100100002A242F24342439243E24432448244D24F3
:10011000522405010902A10185020901A100050976
:1001200019012908150025019508750181020501AD
:10013000093009311581257F950275088106093836
:100140001581257F950175088106050C0A38021571
:1001500081257F950175088106C0C005010980A130
:1001600001850319012AB700150126B7009501750D
:10017000108100C0050C0901A101850419012AA004
:1001800002150126A002950175108100C005010924
:1001900006A101050719E029E71500250195087555
:1001A0000181029501750881010507190029FF15D4
:1001B0000026FF009506750881000508190129052C
:1001C000950575019102950175039101C009023BE6
:1001D00000020100A0FA0904000001030101000966
:1001E00021110100012240000705810308000109D7
:1001F0000401000103000000092111010001227B1C
:10020000000705820320000112010002000000081F
:100210004D4436350100010200012C034400610009
:100220006300740079006C002D004D0061006E00C9
:10023000750066006F0072006D0020002800350018
:1002400078003600290000000E0374007300680077
:100250006F007200740000000403090429001040BC
:1002600050064F060440AE002B000500B45D13009D
:1002700012003400C65D040018000C0008003600AF
:10028000E00031001C001B003700361200000000A7
:10029000B35D2F00C05DBB5D00000000E3000951AD
:1002A0000651E20015040F40AA00A90011400F08F2
:1002B0001A00190007000F000D001D0006001700AE
:1002C00016001500110010000E0014000A000B00AB
:1002D0000900C65D2C00BF5D30002E00000000004C
:1002E0002A000351D45DE30000000000010001007A
:1002F0000100010001000100010014001A000800C3
:1003000015001700E10004001600070009000A00AC
:1003100001001D001B000600190005000000000080
:100320000100310001000100000000000100010097
:1003300001000100010001000100010001000100B5
:100340001C0018000C00120013002F000B000D0001
:100350000E000F003300340011001000360037008B
:100360003800B25D01000100010001000000000042
:1003700001000100010001000000000001001E005A
:100380001F00AD002100D35D01003602B85DED0015
:10039000BC5DB55D01003702EF00EE00F00001002A
:1003A0000100B75DF9000100FA00B65D0000000031
:1003B00036143714010001000000000001000E5344
:1003C00001000100000040004100420043004400E1
:1003D0001E084B0052004A00000030004A00500046
:1003E00051004F004D00E5002A004E0051004D0025
:1003F0004C002800085101000100620000000000CC
:1004000001000100010001000000000046001E0084
:100410001F0020002100220045003A003B003C0064
:100420003D003E0045012A004C00430044004402C8
:1004300045022A014C0228052C003E010000000064
:10044000E000370101000751000000000A5201528C
:1004500000520D523F004000410042001504A5002B
:100460002D021E001F002000241425145600210018
:1004700022002300261427146500240025002600EE
:10048000350035022C030100270063000000000046
:10049000010001000100010000000000271601001A
:1004A000010001000100010039001E0224022502A2
:1004B00026022702E10023021F022002210222025B
:1004C00001000100010001007200010000000000B5
:1004D0000100010001000100000000000000000018
:1004E0000000000001000100520C010001000100A9
:1004F000D05D4B0152084E01CE5D0000CC5D500036
:1005000051084F00CD5D0000D15D4E05CB5D4B0520
:10051000CF5D000001000100D25D6C000000000012
:100520000000010000000000000000004801010080
:1005300001000100010001000B0114011A01080172
:1005400015011701E10004001601070109010A0164
:100550001C011D011B01060119010501000000001D
:10056000B25D3701075101000000000001000100E9
:100570000100010001000100010001000100010073
:100580001C0118010C010F01130101000B010D01E9
:100590000E010F0136010100110110013601370172
:1005A0000100010001000100570167010000000087
:1005B0000100010001000100000000000100010035
:1005C0000100010001000100010001004B00520088
:1005D0004A00010001005008500051004F004F0830
:1005E0000100CA5D4E0051004D00280000000000CF
:1005F00000000000000000000000000000000000FB
:1006000001000100000000000000000000000000E8
:1006100000001E011F012001000000000000210158
:100620002201230100000000000024012501E00157
:100630000000000000000000270100000000000092
:1006400000000000000000000000000000000000AA
:100650000000AD003D043E010B0314031A03080320
:10066000150317034C0204031603070309030A03C7
:100670002C0300000000060319030503000000001E
:1006800000002C0801000100000000000000000034
:10069000000000000000000000000000000000005A
:1006A000000000000C031203130300000B03000002
:1006B0000000000000000000000000000000370300
:1006C0000000000001000100000000000000000028
:1006D00000000000000000000000000029001E01D2
:1006E0001F012001210122012B000000F200ED007A
:1006F000F1000000E1000000EF00EE00F00000005B
:1007000000000000F9000000FA00000000000000F6
:1007100000000000000028050000000000000000AC
:1007200000000000000000000000000000000000C9
:1007300000004B0352034E03000000000B01500366
:1007400051034F03000000000000000051030000AF
:100750000000000001000000000000000000000098
:100760000000010001000100000000002D00230036
:1007700024002500260027002F001C001E001F005B
:1007800020000000E1005600210022002300330079
:10079000E000CA5D240025002600380000000000AB
:1007A0000000270000000000000000000100010020
:1007B0000100010000000000000000000000000037
:1007C0001F08200821082208230824081E085009B1
:1007D00000004F0900002608000000000000000093
:1007E0000000000000000000000000000000000009
:1007F00000000000000000000000000029001E00B2
:100800001F002000210022002B0014001A00080005
:1008100015001700E10004001600070009000A0097
:10082000E0001D001B00060019000500000000008C
:10083000340001000100010000000000010001007F
:1008400001005000230024002500260027002D0071
:100850001C0018000C00120013002F000B000D00EC
:100860000E000F0033003500110010003600370075
:10087000330035005200010031002E00000000005E
:1008800000004F00010051000000000001001E02A6
:100890001F02200221022202010001003812010081
:1008A0000100010001000100010001000100BA5D2A
:1008B00001000100010001003302010000000000FE
:1008C000B35DB25D01000100000000000100010005
:1008D00001000100010024022502260227022D0248
:1008E0000100010001000100010001000100010000
:1008F00001000100010001000100010001000100F0
:1009000001000100010001000100010000000000E1
:1009100001000100010001000000000000000000D3
:1009200000000000000000000000000000000000C7
:1009300000000000010000000000000000000000B6
:10094000E0000000000000000000000000000000C7
:100950000000000000000000000000000000000097
:100960000000000000000000000000000000000087
:1009700000004B1252024E12000000004A125002B8
:1009800051024F024D120000000000005102000011
:100990000000000000000100000000000000000056
:1009A0000000000000000000000000000100010045
:1009B000010001000100010001000100010001002F
:1009C000010001000100010001000100010001001F
:1009D0000100010001000100010001000000000011
:1009E00001000100010028000000000001000100DA
:1009F00001000100010001000100010001000100EF
:100A0000010001005200010001000100010050003E
:100A100051004F0001000100010001000100010030
:100A200001000100010001000100010000000000C0
:100A3000010001000100010000000000626272611B
:100A400067614070726F67692E636F6D0062696CD9
:100A50006C792E6272616761400020414E44200033
:100A60006B38730020213D20002D3E00203C3D20AE
:100A700000203E3D200070726F706572746965736E
:100A800000706970656C696E65007375627363727E
:100A9000697074696F6E0050726F67694F6E6500A0
:100AA00070726F6769004070726F67692E636F6D57
:100AB0000061756A6F757264276875692000646FDC
:100AC00065736E27742000646F65736E2774200051
:100AD000636F6E6669670062656175636F7570202C
:100AE00000612D742D696C2000706F757271756FC7
:100AF000692000612D742D6F6E2000706575782D52
:100B000074752000706575742D01012F6574726510
:100B1000200061732D7475200065732D747520009D
:100B20006573742D636520717527006573742D637B
:100B300065207175276F6E20006573742D636520C5
:100B40007175652000050015000A00000005000C05
:100B5000001500000004001100070000000E001640
:100B600000000005002E0000002F0006000000B36A
:100B70005D2E0000002F002E000000130015001253
:100B800000170016000000130008000F00110000FD
:100B900000160005001100000013001500120011DE
:100BA000000000130015000A0000000400130006F6
:100BB00000000004000D00070000000700120011F3
:100BC00000000007001200170000000600120011CC
:100BD000000C0000000500060013000000040017D0
:100BE000000C000F00000013000E000000040017AE
:100BF000001200110000001300170018000000137D
:100C0000001700080000000400160017001800007C
:100C10000008001600170018000000080006001861
:100C20000000001600140012000000160014000856
:100C30000000000000000000000000000000400173
:100C4000000000000000000000005000000028012B
:100C500000007800000000FE0F0084FFFFFF9700F7
:100C600000000000000000000000002A2B28000007
:100C7000000000000000000000000000000029004B
:100C80000000002C1E3720212224362627252E3650
:100C90002D3735271E1F20212223242526333336C6
:100CA0002E37231F0405060708090A0B0C0D0E0F2B
:100CB000101112131415161718191A1B1C1D26359E
:100CC000272F2D2F0405060708090A0B0C0D0E0F00
:100CD000101112131415161718191A1B1C1D243580
:100CE00025304C0011241FBECFEFDAE0DEBFCDBFB0
:100CF00012E0A0E0B1E0E0E3F2E602C005900D9260
:100D0000A235B107D9F723E0A2E5B2E001C01D92F8
:100D1000A13FB207E1F70E9417110C9416310C9411
:100D20000000A0E0B0E0E7E9F6E00C9461307C015F
:100D3000FC0143815481618180810E94432A811199
:100D40000C94051061E0C7010E94CB22EC010497CE
:100D50004A9708F044C0809100018F5F80930001A2
:100D6000833008F03FC0E82FF0E0EE0FFF1FE45A99
:100D7000FD4FD183C0838230A9F58FEF80930001AE
:100D800081E080935B0280915C0290915D024497C8
:100D900061F480915E0290915F02449731F48091FA
:100DA000600290916102419711F010925B02809174
:100DB0005B028823B9F062E370E08AE20E940B20B4
:100DC00062E370E08AE20E940B2062E370E08AE254
:100DD0000E940B2088EF91E00E94EB2B03C08FEF65
:100DE0008093000120915A02222391F1F701828120
:100DF000882331F1CF3BFDE5DF0709F438C3C93261
:100E0000D10509F472C6C63B2DE5D20729F482E06C
:100E100092E00E94EB2B03C08C2F0E94232085E0E0
:100E200092E00E94EB2BC63B4DE5D40709F45DC66A
:100E30008C2F0E94232080E192E00E94EB2B55C66C
:100E4000CF3B5DE5D50709F412C310925A024DC697
:100E5000CC3B8DE5D80709F4B1C108F045C0C43BCF
:100E6000EDE5DE0709F468C120F5C03140E4D407A0
:100E700009F4B7C088F4F7019281C430F0E4DF07C9
:100E800009F4D6C0CF3040E4D40709F48BC0C53A8A
:100E9000D10509F067C073C0C23B5DE5D50709F411
:100EA00053C108F061C1C13190E4D90709F488C089
:100EB00059C0C83BEDE5DE0709F470C140F4C63BFC
:100EC0002DE5D20709F45DC108F451C162C1CA3BE6
:100ED0005DE5D50709F42BC1F7018281CB3BFDE528
:100EE000DF0708F463C1CAC0F7018281CD3CFDE58C
:100EF000DF0709F458C2E8F4C93C4DE5D40709F40A
:100F0000B4C078F4C03C9DE5D90709F4BCC2C63C26
:100F1000EDE5DE0709F4FFC0CF3BFDE5DF0711F586
:100F2000A6C2CB3C2DE5D20709F497C108F44EC107
:100F30005DC2C13D5DE5D50709F4AFC140F4CF3CCA
:100F4000EDE5DE0709F4CCC108F40DC2ECC1C33DE8
:100F50002DE5D20709F4A7C208F46BC2C43D5DE5D4
:100F6000D50711F081E0A0C2882329F082EE0E940B
:100F7000C12D89E081C289E00E94321F7DC0992382
:100F800009F4B3C58091940290919502009739F0CD
:100F900033E0969587953A95E1F7282F21702093B5
:100FA000590281C2992309F47EC2F7018581829595
:100FB0008F7011F080E575C262E370E08CEA0EC0BC
:100FC000F7018281882309F46EC2858182958F7032
:100FD00011F08FE466C262E370E08BEA0E940B209E
:100FE00062C2F7018281882309F45DC285818295FE
:100FF0008F7071F082EE0E94C12D83EE0E94C12D90
:101000008EE00E94232083EE0E94A81F82EE0DC076
:1010100080EE0E94C12D83EE0E94C12D80E50E94CA
:10102000232083EE0E94A81F80EE0E94A81F5DC5AA
:10103000992309F438C2F701858182958F7039F0C0
:1010400082EE0E94C12D85E10E94232015C080EE12
:101050000E94C12D83EE0E94C12D8FE40E942320A7
:1010600083EE0E94A81F80EEFFC1882329F082EE44
:101070000E94C12D80EC15C282EEF6C1882339F1A1
:1010800080915802882381F08091560290915702F6
:101090000E940828883C910538F488E20E94C12DFE
:1010A00081E0809355020CC08091CA0280958170C6
:1010B0008093540280EE0E94C12D85E00E94441F5F
:1010C0000E9423289093570280935602ECC188E235
:1010D0000E94A81F80915402882319F080EE0E947C
:1010E000A81F85E00E94321F80915502811110C017
:1010F00080915802882361F08091560290915702A6
:101100000E940828883C910518F488E20E94232058
:1011100010925502C8C1882329F081EE0E94C12D8A
:101120008BE0AAC181EE0E94A81F8BE0A9C140E01C
:1011300050E063E370E046C0F7018281882311F03C
:1011400088E337C088E390C1F7018281882339F0B2
:1011500081EE0E94C12DC7010E948614A4C1C7015F
:101160000E94861481EE80C148E150E014C0F7016E
:101170008281882309F497C18AE092E00E94EB2BD8
:1011800092C1F701828181118EC181E080935A0260
:101190008AC14CE250E06FE270E004C04CE250E0E3
:1011A00060E370E0C7010E9494237DC1882321F091
:1011B0008FE20E94C12D77C18FE256C145E350E016
:1011C00066EE70E0C7010E9463236DC1882309F4B5
:1011D0006AC180EE0E94C12D81EE0E94C12D8CE279
:1011E0000E94C12D8CE20E94A81F80EE0E94A81FC1
:1011F00081EE0E94A81F80EE0E94C12D89E10E940D
:10120000C12D89E10E94A81F80EE0E94A81F80EED8
:101210000E94C12D80E50E94C12D80E50E94A81F7B
:1012200080EE0E94A81F80EE0E94C12D8AE20E94DB
:10123000C12D8AE20E94A81F80EE0E94A81FFFEF26
:1012400024E34CE0F15020404040E1F700C00000B2
:1012500088E20E94C12D88E207C1882309F423C1D6
:1012600083EE0E94C12D8DE10E94232083EE0E9417
:10127000A81F5FEF81EE94E0515080409040E1F76D
:1012800000C0000083E20E942320EFEFF1EE24E093
:10129000E150F0402040E1F7A5C0882309F403C1E4
:1012A00083EE0E94C12D8DE10E94232083EE0E94D7
:1012B000A81F4FEF51EE84E0415050408040E1F7CD
:1012C00000C0000082E20E9423209FEFE1EEF4E0E4
:1012D0009150E040F040E1F700C0000080E2E1C042
:1012E000882309F4E0C083EE0E94C12D8DE10E94A5
:1012F000232083EE0E94A81F2FEF41EE54E02150DF
:1013000040405040E1F700C0000082E20E942320EC
:101310008FEF91EEE4E081509040E040E1F700C0B3
:10132000000081E2BEC0882309F4BDC083EE0E94A4
:10133000C12D8DE10E94232083EE0E94A81FFFEFA4
:1013400021EE44E0F15020404040E1F700C00000B1
:1013500082E20E9423205FEF81EE94E051508040B2
:101360009040E1F762C0882309F49DC083EE0E949B
:10137000C12D8DE10E94232083EE0E94A81FEFEF74
:10138000F1EE24E0E150F0402040E1F700C0000021
:1013900082E20E9423204FEF51EE84E04150504002
:1013A0008040E1F71FC0882309F47DC083EE0E94CE
:1013B000C12D8DE10E94232083EE0E94A81F9FEF84
:1013C000E1EEF4E09150E040F040E1F700C00000B1
:1013D0008EE10E9423202FEF41EE54E02150404047
:1013E0005040E1F700C000008FE15BC0882309F4A2
:1013F0005AC083EE0E94C12D8DE10E94232083EE0E
:101400000E94A81F8FEF91EEE4E081509040E040F1
:10141000E1F700C000008EE10E942320FFEF21EEE3
:1014200044E0F15020404040E1F700C000008EE170
:1014300038C08823C1F183EE0E94C12D82EE0E9444
:10144000C12D81E50E9423205FEF81EE94E0515091
:1014500080409040E1F700C0000081E50E94232019
:1014600082EE0E94A81F83EE0E94A81F1CC0F701F5
:101470008281882321F082E00E94441F14C082E010
:101480000E94321F10C0882311F083E0F5CF83E063
:101490000E94321F80915902882329F0109259022C
:1014A00085EA0E94232080E0F7019281992329F1A7
:1014B00091E0CB3BFDE5DF0709F090E09093580207
:1014C000882309F412C3C43E2CE5D207E1F050F49E
:1014D000C23E5CE5D507A1F0C33E8CE5D807E1F438
:1014E00081E016C0C63E9CE5D90789F070F0C13B8B
:1014F000FDE5DF0789F485E00BC081110DC0F5C261
:101500001092E90307C082E003C083E001C084E0D9
:101510008093E9030E94462CD7FFCEC0F701828159
:10152000882309F4C9C00E94AB28869581708093F6
:1015300064020E94AB288170809363028091E9036A
:10154000813039F480916402882319F089E30E9484
:1015500023208091CA02809362021092CA021092E4
:10156000EF038091E903823019F148F48823E1F018
:101570008130C9F560E070E088E193E032C08430EA
:1015800049F1853081F560E070E08BE191E00E94E7
:101590000B2360E070E085E290E00E940B2360E0A6
:1015A00070E088E290E01DC082EE0E94C12D1BC059
:1015B00080916302811103C083E50E94232082EEA3
:1015C0000E94C12D8FE39CE90197F1F700C0000054
:1015D00087E504C086EE0E94232088E10E94232034
:1015E00002C00E940B23EFE3FCE93197F1F700C042
:1015F00000006E01E894D7F80CE010E02AE0A22E7B
:10160000B12CC601002E02C0969587950A94E2F788
:101610008F709091E903923069F48A3038F490E049
:101620000996B5010E94D230875A01C086500E94A7
:10163000232009C096EF980F963010F0805D01C00E
:10164000895A0E948E2B045011090C3FFFEF1F078F
:10165000C1F68091E9038230F1F028F4882371F01B
:10166000813081F025C0843009F1853009F560E0D2
:1016700070E088E290E00E940B231AC082EE0E9484
:10168000A81F16C08CE20E94232080916402882348
:1016900079F089E308C082EE0E94A81F809163025E
:1016A000811106C083E50E94232002C088E2FBCF9F
:1016B000809162028093CA02C43F2CE5D20741F1B7
:1016C00090F4C93D5CE5D507E9F0CA3D8CE5D80743
:1016D00089F1C83D9CE5D907B1F506E221EE41EE5E
:1016E00068ED7CE52CC0C63FECE5DE07E9F0B0F024
:1016F000C73F2CE5D20739F507E225EE46EE67EF46
:101700007CE51DC007E225EE45EE69ED7CE517C0DE
:1017100006E221EE40EE64EF7CE511C007E225EE23
:1017200044EE65EF7CE50BC006E221EE42EE66EF8B
:101730007CE505C008E221E045EE6AED7CE5C701E5
:101740000E94BC28D2C1F7018281882309F490C18C
:101750001092CD03C430FDE5DF0758F4CB3F2CE5F4
:10176000D207C0F4CE0182509C45449708F06AC16C
:1017700011C0C63A4DE5D40769F030F4C2368DE5A4
:10178000D80709F05FC106C0CE018E5A9D45039768
:1017900008F058C10E94DB1C909397028093960238
:1017A000C2319CE5D90709F405C108F04BC0C93026
:1017B000FCE5DF0709F4D2C000F5C5304CE5D407DD
:1017C00009F4B9C078F4C3308CE5D80709F4AAC08D
:1017D00008F0AEC0C230DC4509F024C18091960209
:1017E0008160A3C0C730FCE5DF0709F4AFC008F093
:1017F000B1C080919602806198C0CD304CE5D4078D
:1018000009F4C2C058F4CB308CE5D80709F4B0C055
:1018100008F0B6C0809196028860A6C0CF30ECE593
:10182000DE0709F4BFC008F4B2C0C0312CE5D2070E
:1018300009F4BCC0C131DC4509F0F4C080919602C6
:101840008F7B73C0C1155DE5D50709F4BEC088F56F
:10185000CB3F9CE5D90709F472C0B8F4C431FCE56C
:10186000DF0709F4C1C008F4ABC0C531DC4509F09D
:10187000D9C08091960282FB222720F991E092271D
:1018800090FB82F990FB83F950C0CD3F5CE5D50712
:1018900009F481C008F456C0CE3F9CE5D90709F48D
:1018A0007DC0CF3FDC4509F0BDC0809197028260CA
:1018B0005DC0C236FDE5DF0709F4A8C068F4C23098
:1018C0004DE5D40709F49CC008F484C0C330DD455D
:1018D00009F0A8C060E095C0CE3A9DE5D907F1F0C7
:1018E00058F4C63ADD4509F09DC080919602982FC4
:1018F000909590FB80F919C0CF3A2DE5D207E1F120
:10190000C03BDD4509F08EC08091970283FB222702
:1019100020F991E0922790FB83F982C08091970291
:1019200088607EC0809196028260809396027AC021
:101930008091960219C0809196028860F6CF8091BE
:10194000970214C08091970282606AC080919602CB
:101950008062EBCF809196028064E7CF0E94761F71
:10196000809196028068E1CF8460DFCF816058C0AB
:10197000809196028E7FD9CF80919702877F50C049
:10198000809196028D7FD1CF809196021CC080916C
:101990009602877FCACF809197021AC080919702E2
:1019A0008D7F3EC0809196028F7EBFCF8091960240
:1019B0008F7DBBCF0E94761F809196028F77B5CF27
:1019C00080919602877F8B7FB0CF809197028D7F29
:1019D0008E7F26C080919702982F909591708E7F70
:1019E000892B90FB81F91CC00E94761F8091960282
:1019F00087FB222720F991E0922790FB87F995CF6A
:101A000061E08EE090E00E949E300CC080919602D2
:101A100084FB222720F991E0922790FB84F985CF5F
:101A20008093970260919602C091970284E090E0C3
:101A30000E949E306C2F82E290E00E949E300E94B5
:101A4000761F53C0C631FCE5DF0719F58091CA0245
:101A50008A7A91E009F490E090936502882311F06E
:101A600065E301C069E28BEC92E00E9465280EC03C
:101A7000C631DC4509F04BC080916502882309F42A
:101A8000C2C265E38BEC92E00E9458280E94611D5F
:101A90002CC0CB355DE5D50711F150F4C1159CE59F
:101AA000D90779F0CF3DDC4591F50E94EC1C0CC0C4
:101AB000CD35FDE5DF0759F0A0F0C83ADD4521F04E
:101AC00026C00E94EF2211C00E94D9220EC0809130
:101AD000970282FB882780F991E0892703C081E083
:101AE00001C080E00E94BA1D12C080911D03877062
:101AF00009F48BC2F7018281882309F486C28091A0
:101B0000970282FF82C282E00E949D1D7EC2F70181
:101B1000868197810097B9F4F7018281C081D181D4
:101B2000882349F0CE010E94811E182F682FCE0114
:101B30000E94F51E04C0CE010E94C21E182FBE01D5
:101B4000812F0E94261B0E943F1BEC01F70102819E
:101B5000D580D2949FE0D92280911D038770B9F07F
:101B60000023A9F08D2F807F803421F080E28C0F3C
:101B7000883068F08091970282FF09C082E00E945D
:101B80009D1D80911D038770CC24C3948111C12CAD
:101B9000BD2EB2948FE0B8228B2D90E08C30910551
:101BA00008F0F6C1FC01EA5AFF4F0C94E6301D2FF5
:101BB0001F708D2F807F11F01295107F0023B9F0D8
:101BC000112309F4D2C180E28C0F883010F0C111CA
:101BD00006C08091CA02182B1093CA0205C08091DA
:101BE000EF03182B1093EF030E94611DBEC18C2FD1
:101BF0000E94A81F112309F4CBC180E28C0F88300A
:101C000078F1CC2369F110958091EF03182310939C
:101C1000EF0329C01D2F1F708D2F807F803211F0A0
:101C20001295107FCC2319F0C130D9F149C08091B1
:101C3000970282FD1BC0002369F0112339F08091C7
:101C4000CA02182B1093CA020E94611D80E00E94F4
:101C5000C12D9EC180E00E94A81F112309F498C1E4
:101C6000812F0E945A1D0E94611D92C1002381F0A4
:101C700080912603DD2051F0F1E0DF1207C0182B20
:101C8000181709F485C11093260382C1812B10C057
:101C9000DD2021F021E0D21609F47AC10E94541D02
:101CA00027C0002341F042E04D1508F471C1812F97
:101CB0000E949E1F6DC151E05D1508F469C118C0F6
:101CC000002349F0DD2099F3F701858180FF4DC1A4
:101CD0008F708583ECCFDD2059F0C93309F055C1F1
:101CE000FFEF27EE43E0F15020404040E1F74BC1C9
:101CF000812F0E94971F4CC18D2F869586958370EA
:101D000019F0813059F044C1002319F0CE019370CD
:101D100002C080E090E00E94952840C1002319F0A5
:101D2000CE01937002C080E090E00E947F2836C10F
:101D30008C2F002319F00E94662D02C00E94772C80
:101D40000E944D2C2BC18D2F837009F042C00111D0
:101D500023C13C2F329536953770330F330F8C2FBC
:101D60008F7090E0032E02C0880F991F0A94E2F74B
:101D7000C4FF0BC04FE050E002C0440F551F3A951E
:101D8000E2F79A012095309502C020E030E04D2F17
:101D9000469546954370423099F068F46091270368
:101DA00070912803413029F0822B932B86239723AF
:101DB00004C0862B972B822B932B0E94541FECC0C0
:101DC000822B932B2091270330912803822793277E
:101DD000F4CF002319F08D2F817001C086958823E0
:101DE00009F4DAC03C2F329536953770330F330F34
:101DF0008C2F8F7090E0032E02C0880F991F0A94D9
:101E0000E2F7C4FF0BC04FE050E002C0440F551F83
:101E10003A95E2F79A012095309502C020E030E033
:101E20004D2F469546954370423079F0B8F4609155
:101E3000940270919502413029F0822B932B8623D6
:101E400097230EC0862B972B09C0822B932B2091B2
:101E50009402309195028227932702C0822B932B04
:101E60000E94291F99C01D2F1F70002339F0812F58
:101E70000E94441F8C2F0E949E1F8EC08C2F0E9498
:101E8000971F812F0E94321F87C0C23F79F128F42B
:101E9000C03F41F0C13F29F163C0C33F71F1C43F6E
:101EA000E1F05EC00023A1F051E05D1508F470C0C0
:101EB0002D2F2F7181E090E002C0880F991F2A9585
:101EC000E2F720919402309195028227932725C052
:101ED00082E08D1508F45CC0EBCF8091970282FD03
:101EE0001FC0002329F08D2F8F712DC00023D9F33F
:101EF0008D2F8F710E94321F4BC0002361F021E0B3
:101F000030E09D2F9F71F90102C0EE0FFF1F9A95DF
:101F1000E2F7CF0102C080E090E00E94291F38C0A4
:101F20000023A1F01D2F1F71812F0E94441F80915B
:101F3000970282FF07C0F8E01F9FC0011124836051
:101F400080931D03812F0E94441F22C081E00E94C4
:101F50009D1D21E02D15E0F482E00E949D1D18C01A
:101F6000002329F0DD2009F4BECF8C2F70CEDD20B8
:101F700009F4BECFC93349F44FEF57EE83E0415027
:101F800050408040E1F700C000008C2F0E94A81F45
:101F900088EF8B0D843010F40E94AB28CE010E9494
:101FA0005B1F882381F0002319F0D1100CC00FC0F3
:101FB000D11009C020E0F701408151816281738115
:101FC00084810E94A8221092670210926602CC209F
:101FD000A9F080911D0380FD11C0F7011282859543
:101FE000859585950E94441FC7010E9491068091A6
:101FF0001D038595859585950E94321F60E0C70178
:102000000E94CB2202C069E23DCDCDB7DEB7EAE047
:102010000C947D30A4E0B0E0E0E1F0E10C94673096
:1020200040917D0250917E0260917F02709180020A
:102030002FB7F8948091D5039091D603A091D70340
:10204000B091D8032FBF841B950BA60BB70B84361A
:102050009105A105B10508F441C00E9484198823A7
:1020600019F00E9417280EC00E94172800918202C2
:10207000109183022091840230918502600F711FBC
:10208000821F931FDC01CB010296A11DB11D898324
:102090009A83AB83BC8380911201909113018E5877
:1020A0009D4F4091110150E04530510510F044E042
:1020B00050E0BE016F5F7F4F0E940D3182E090E0E3
:1020C0000E94DE2F882359F00E94172860937D021A
:1020D00070937E0280937F029093800281E0249629
:1020E000E4E00C948330EF92FF921F93CF93DF9341
:1020F000CDB7DEB727970FB6F894DEBF0FBECDBFC2
:102100007B0180E090E00E94DE2F882309F463C009
:102110004091040150E04115510511F041E050E0BB
:1021200060910501709106016E587D4FCE010796B2
:102130000E940D3140916E0250916F0260917002C9
:10214000709171022FB7F8948091D5039091D603C6
:10215000A091D703B091D8032FBF841B950BA60B7A
:10216000B70B84369105A105B10538F483E792E0F9
:102170000E94A7149F81891781F181E090E00E945D
:10218000DE2F182F882391F040910C0150E047304A
:10219000510510F046E050E060910D0170910E0184
:1021A0006E587D4FCE0101960E940D3183E792E07B
:1021B0000E94A71491E02F81281390E0192311F1B8
:1021C0000E94172860936E0270936F0280937002D2
:1021D000909371020CC010E001C011E086E0E3E7CB
:1021E000F2E0DE01119601900D928A95E1F711233C
:1021F00049F086E0FE013196A8E6B2E001900D922A
:102200008A95E1F786E0E8E6F2E0D70101900D92C9
:102210008A95E1F7812F27960FB6F894DEBF0FBE9F
:10222000CDBFDF91CF911F91FF90EF900895A0E176
:10223000B0E0EDE1F1E10C945B3085B7806885BFDB
:1022400085B7806885BF84B7877F84BF0FB6F89451
:10225000A895809160008861809360001092600072
:102260000FBE90E080E80FB6F894809361009093E1
:1022700061000FBE8FE399E1909353028093520265
:102280000E94EE170E940D188091E20084608093F6
:10229000E20078948091C0028823A1F01091E900B7
:1022A0001F709091EC00892F817090FD80E8182BB1
:1022B0001092E9008091E80083FD0E94E8141F70ED
:1022C0001093E90082E084BD93E095BD9AEF97BD3D
:1022D00080936E0010928202109283021092840208
:1022E000109285020E948419809319010E9484191A
:1022F00081110E94F32E80911901809119018111A1
:1023000002C096E001C090E09093930286E0891BA2
:102310008093920204E112E0D8018D918D018F3FEC
:1023200011F00E94A719B2E00A311B07A9F70AE1D0
:1023300012E0F80181918F018F3F11F00E94A719DF
:10234000F2E000321F07A9F78CE0EAE9F2E0DF01D2
:10235000282F1D922A95E9F7E6E8F2E0DF011D92A9
:102360008A95E9F780E090E00E949830883E9E4F81
:1023700011F00E94EC1C82E090E00E94903080936B
:10238000C6030E94DB1C909397028093960283E021
:1023900090E00E94903090E00E94541F8CE090E00A
:1023A0000E94903090E0A0E0B0E08093E903909329
:1023B000EA03A093EB03B093EC030E94841981110C
:1023C00002C00E94F62E8AE191E09093D10380939F
:1023D000D00308E110E040E4E42EFF24F394809160
:1023E000C002853009F042C020E1C22E32E1D32E76
:1023F0008091C002853009F035C08091C0028430E0
:1024000009F11092D4030FB6F894A89500936000D8
:102410000FBEE092600083B7817F846083BF83B783
:10242000816083BF7894889583B78E7F83BF0FB612
:10243000F894A89580916000886180936000109264
:1024400060000FBE8091BF02882391F20E94BE19E6
:10245000EAE9F2E081918111ACC122E0E63AF207AB
:10246000C9F7C6CF0E94761F0E94AB280E94BE19F2
:1024700086EAA82E82E0B82E9AE9892E92E0992E5B
:10248000D401F50191918D91892732E0E23BF30768
:1024900019F08823B9F322C0811120C00E9423289B
:1024A0006C018091980290919902C816D90609F49E
:1024B0004CC08FEF8F83888719860E942328816004
:1024C000782F9B878A874F81588569858B850E94E5
:1024D0005924D0929902C092980237C00E94841960
:1024E000482ED12CD4015D904D01F501608065240A
:1024F00019F1C12C77247394862D8721B1F04420E3
:10250000A1F0CC86DD8691E0852D872109F490E04D
:102510009E870E9423288160782F988B8F874C8517
:102520005D856E8588890E945924C394770CF6E0F6
:10253000CF12E2CFD5015C92D394BFEFAB1ABB0AA6
:10254000ECE0DE12CFCF0E9417280E948419882366
:1025500061F18091F201882341F18091C303909150
:10256000C403009711F10E9408282091ED033091D7
:10257000EE0328173907C8F49091C1038091C20374
:10258000981759F00E94612A1092EE031092ED0301
:102590001092C4031092C30308C00E94272B10920C
:1025A000C4031092C3030E947D2B86E0E3EEF3E0A8
:1025B000DE01119601900D928A95E1F71092E503E4
:1025C0001092E6031092E7031092E8038B818111C9
:1025D00004C08C81882309F45DC08091E10390914F
:1025E000E2030E940828AC019091DD03992339F0A1
:1025F0002091F70130E02417350758F04BC02091A7
:10260000C703FAE02F9F900111242417350718F013
:1026100041C09F3F19F09F5F9093DD03DB80DD2079
:1026200061F00E94272D1D1414F09FEF01C091E06E
:10263000899F802D11248093E503DC80DD2061F0EB
:102640000E94272D1D1414F09FEF01C091E0899F77
:10265000802D11248093E6033091E5033323D1F0DC
:102660002091E6032223B1F045EB3403C00111248D
:10267000992319F09093E50302C0F092E50335EB3E
:102680002303C0011124992319F09093E60302C09B
:10269000F092E6038D81811104C08E81882309F4B4
:1026A00051C08091DF039091E0030E9408289C01B3
:1026B0009091DC03992309F492C02135310508F487
:1026C00041C09F3F19F09F5F9093DC03DD80DD20C8
:1026D00061F00E94EE2C1D1414F09FEF01C091E0F8
:1026E000899F802D11248093E703DE80DD2061F037
:1026F0000E94EE2C1D1414F09FEF01C091E0899F01
:10270000802D11248093E8033091E7033323D1F027
:102710002091E8032223B1F045EB3403C0011124DA
:10272000992319F09093E70302C0F092E70335EB89
:102730002303C0011124992319F09093E80302C0E8
:10274000F092E80346E050E0BE016F5F7F4F83EEFA
:1027500093E00E940031892BA9F48091E503811157
:102760000FC08091E60381110BC08091E7038111B6
:1027700007C081E09091E803911103C080E001C09F
:1027800081E080FD0E944D2C86E0FE013196A3EE93
:10279000B3E001900D928A95E1F70E94AB289091E9
:1027A000B202891709F41BCE8093B2020E94172847
:1027B00016CEC9BCD9BC09B400FEFDCF8091D800AB
:1027C0008F7D8093D8008091E00082608093E0004C
:1027D0008091E00081FDFCCF0E94761F09CE232B63
:1027E00009F071CFAFCFA0E0B0E0E9EFF3E10C94D6
:1027F00061307C015B016A01809181028A3018F0AE
:1028000001E010E002C00AE010E0C1E0D0E0B50154
:10281000C701F6010995811115C021960C171D07F6
:1028200094F0CC9F9001CD9F300D300D112480E0AD
:1028300090E045E34A95F1F700000196821793076F
:10284000C1F7E5CF81E0CDB7DEB7EAE00C947D308B
:10285000FF920F931F93CF93DF938C018AE0F82EA2
:10286000F8018491882309F44CC0813009F042C0FA
:10287000E8012196FE018491813031F42196FE0118
:1028800084910E94232039C0823039F4E8012296D5
:10289000FE0184910E94C12D30C0833039F4E801DB
:1028A0002296FE0184910E94A81F27C0843029F53A
:1028B000E8012296FE01249180E090E030E0205370
:1028C00031092A30310560F4F89EA001F99E500DBF
:1028D0001124C901840F951F2196FE012491EECF8A
:1028E000009759F0EFE9FFE03197F1F700C00000E1
:1028F0000197F6CF0E948E2BE8018E010F5F1F4FCC
:10290000AFCFCDB7DEB7E5E00C9482300F931F93C5
:10291000CF938C018091CA02C82FC17080FF03C081
:1029200080EE0E94A81FF8018281882321F08FE2A7
:102930000E94C12D03C08FE20E94A81FCC2319F072
:1029400080EE0E94C12DCF911F910F910895FC013F
:10295000AC014A5F5F4F8FEF91E32191822728E01E
:1029600030E087FF03C0880F892701C0880F2150FE
:102970003109B9F7E417F50781F70895EF92FF924F
:102980000F931F93CF93DF937C018B010E94FD2651
:10299000811119C0E70101151105A1F08091E8002E
:1029A00085FD0AC08091E8008E778093E8000E9440
:1029B000FD26882381F307C089918093F10001509F
:1029C0001109E9CF80E0CDB7DEB7E6E00C948130A5
:1029D000AAE2B0E0EEEEF4E10C946830E2ECF2E052
:1029E0008AEC92E02091F10021938E179F07D1F796
:1029F0008091C302833009F461C030F4813071F0FA
:102A0000823009F49BC0B2C08A3009F487C08B3091
:102A100009F46CC0893009F0A9C020C08091C202BD
:102A2000813A09F0A3C08091E800877F8093E80095
:102A30008091C6029091C702892B21F468E086EB51
:102A400092E003C060E080E090E070E00E948427A4
:102A50008091E8008B778093E80088C08091C20263
:102A6000813209F083C08091C6029091C70202971B
:102A700008F07CC08091E800877F8093E800809117
:102A8000E80082FD05C08091C0028111F8CF6EC0C0
:102A90002091F3008091F20090E0922B029731F4A4
:102AA0008091F100813011F0863021F48091F100A5
:102AB0008093B5028091E8008B7754C08091C20268
:102AC000813A09F053C08091C6029091C702892BC8
:102AD00009F04CC08091E800877F8093E8008091E6
:102AE000E80080FFFCCF8091260137C08091C202B0
:102AF0008132E1F58091C6029091C702892BB1F530
:102B00008091E800877F8093E8000E9430278091C1
:102B1000C402809326010E94761F28C08091C202C1
:102B2000813221F58091E800877F8093E8000E9440
:102B300030278091C5028093B40218C08091C202F0
:102B4000813AA1F48091E800877F8093E80080912A
:102B5000E80080FFFCCF8091B4028093F100809167
:102B6000E8008E778093E8000E9430278091E8008B
:102B700083FFCEC18091C2029091C302492F50E0E1
:102B80004A30510508F0C4C1FA01EE59FF4F0C94C8
:102B9000E630803821F0823809F0BAC108C080914F
:102BA000BE029091BF02992389F082600FC080918C
:102BB000C6028F70873008F0ABC18093E900809126
:102BC000EB0085FB882780F91092E9009091E800DE
:102BD000977F9093E8008093F1001092F10065C117
:102BE000282F2D7F09F094C1882319F0823061F0DD
:102BF0008FC18091C402813009F08AC1933009F0FD
:102C000080E08093BF022EC08091C40281112AC04F
:102C10008091C6028F702FEF280F263008F078C100
:102C20008093E9002091EB0020FF1CC0933021F439
:102C30008091EB00806214C09091EB0090619093C2
:102C4000EB0021E030E0A90102C0440F551F8A9536
:102C5000E2F74093EA001092EA008091EB0088606E
:102C60008093EB001092E9008091E800877F20C1FB
:102C700081114EC11091C4021F778091E3008078CA
:102C8000812B8093E3008091E800877F8093E800A8
:102C90000E9430278091E80080FFFCCF8091E30004
:102CA00080688093E300111102C082E001C083E0DC
:102CB0008093C0022DC18058823008F029C18091D4
:102CC000C4029091C5028C3D53E0950779F583E0ED
:102CD0008A838AE289834FB7F894DE01139620E055
:102CE0003EE051E2E32FF0E050935700E49120FFE3
:102CF00003C0E295EF703F5FEF708E2F90E0EA30F7
:102D000010F0C79601C0C0968D939D932F5F24311C
:102D100049F74FBF8091E800877F8093E8006AE21F
:102D200070E0CE0101960E948427AEC04091C60299
:102D30005091C702292F332723303105A9F068F4B9
:102D40002130310509F4F3C02230310509F0E0C02B
:102D50008BE390E0EDECF1E044C02132310521F14C
:102D60002232310571F1D4C0992781309105A1F04B
:102D700058F0029709F0CCC0EAE1F2E0E4918E2F1E
:102D800090E0EAE1F2E02AC0E8E5F2E0E4918E2F7B
:102D900090E0E8E5F2E022C0E8E4F2E0E4918E2F72
:102DA00090E0E8E4F2E01AC04115510509F4C4C00E
:102DB0004130510509F0ACC089E090E0E8EFF1E066
:102DC00010C04115510509F4BCC04130510509F04E
:102DD0009FC08BE790E0E2E1F1E003C0009709F4C7
:102DE00097C02091E800277F2093E8002091C80237
:102DF0003091C9028217930708F49C0140E0211525
:102E0000310589F18091C002882309F43DC08530E5
:102E1000D9F18091E80083FD37C08091E80082FD00
:102E20002FC08091E80080FFEACF4091F3008091AD
:102E3000F20090E0942B2115310559F0883091056E
:102E400040F444914093F1003196215031090196AC
:102E5000F2CF41E0089709F040E08091E8008E77DA
:102E60008093E800CCCF4111CDCF0AC08091C00241
:102E7000882351F0853041F08091E80083FD04C043
:102E80008091E80082FFF2CF8091E8008B778093F9
:102E9000E8003EC08038E1F58091E800877F8093AC
:102EA000E8008091C1028093F1008091E8008E7764
:102EB0008093E8000E9430272BC0811129C08091A7
:102EC000C4029091C5029927029714F58091E800F9
:102ED000877F8093E8001091C4021093C1020E9482
:102EE0003027111106C08091E30087FD02C081E008
:102EF00001C084E08093C00242E061EC81E00E9466
:102F00004F2742E261EC82E00E944F278091C0028D
:102F10008091E80083FF1AC08091E800877F80934A
:102F2000E8008091EB0080628093EB000FC082E1AB
:102F300090E0E8E0F2E055CF89E090E0EFEDF1E0DD
:102F400050CF80E490E0EDE8F1E04BCFAA96E3E0CB
:102F50000C9484301F920F920FB60F9211242F936E
:102F60003F934F935F936F937F938F939F93AF9311
:102F7000BF93CF93DF93EF93FF93C091E900CF709E
:102F80008091EC00D82FD17080FDD0E81092E9003C
:102F90008091F000877F8093F00078940E94E8147D
:102FA0001092E9008091F00088608093F000CD2BB2
:102FB000CF70C093E900FF91EF91DF91CF91BF9166
:102FC000AF919F918F917F916F915F914F913F91C1
:102FD0002F910F900FBE0F901F901895E8EDF0E025
:102FE00080818E7F80831092E2001092DA0010922E
:102FF000E100A0EEB0E08C9181608C9380818F77AE
:10300000808319BCA7EDB0E08C918E7F8C9380817A
:103010008F7E80831092B3020895A0E0B0E0E3E1D8
:10302000F8E10C946330C8EDD0E088818F7E88830E
:10303000E7EDF0E080818160808384E082BF81E001
:103040008093B30288818E7F888302EE10E0F801BE
:1030500010821092DA0081EEC82ED12CF601108277
:1030600088818F77888388818068888388818F7D35
:10307000888319BC1092C0021092C1021092BF0244
:103080001092BE0290EEE92EF12CF70180818B7F29
:10309000808388818160888342E060E080E00E94D4
:1030A0004F27F60180818E7F8083F80180818160C7
:1030B0008083808188608083F70180818E7F808318
:1030C000888180618883CDB7DEB7E8E00C947F30DB
:1030D0001F920F920FB60F9211242F933F934F938D
:1030E0005F936F937F938F939F93AF93BF93EF9370
:1030F000FF938091E10082FF09C08091E20082FF8E
:1031000005C08091E1008B7F8093E1008091DA001F
:1031100080FF2AC08091D80080FF26C08091DA000D
:103120008E7F8093DA008091D90080FF18C080E103
:1031300089BD82E189BD09B400FEFDCF81E08093A5
:10314000C0028091B30281110FC00E94EE170E944D
:103150000D188091E20084608093E20005C019BCE4
:103160001092C0021092B3028091E10080FF17C05C
:103170008091E20080FF13C08091E2008E7F8093F7
:10318000E2008091E20080618093E2008091D800AB
:1031900080628093D80019BC85E08093C002809142
:1031A000E10084FF30C08091E20084FF2CC080E108
:1031B00089BD82E189BD09B400FEFDCF8091D800B0
:1031C0008F7D8093D8008091E1008F7E8093E10015
:1031D0008091E2008F7E8093E2008091E200816026
:1031E0008093E2008091C102882311F084E007C03F
:1031F0008091E30087FD02C081E001C083E08093FD
:10320000C0028091C0028091E10083FF27C08091BD
:10321000E20083FF23C08091E100877F8093E1007B
:1032200082E08093C0021092C1028091E1008E7F03
:103230008093E1008091E2008E7F8093E200809194
:10324000E20080618093E20042E060E080E00E9462
:103250004F278091F00088608093F000FF91EF91FC
:10326000BF91AF919F918F917F916F915F914F919E
:103270003F912F910F900FBE0F901F90189580E0F7
:1032800008959091960292FF0DC0282F2871283042
:1032900019F4877F846006C0282F2471243011F42C
:1032A0008B7F886093FF0DC0282F2871283119F477
:1032B000877E846106C0282F2471243111F48B7E0F
:1032C00088612091970220FF0DC0382F3871383067
:1032D00019F4877F816006C0382F3171313011F4C5
:1032E0008E7F886021FF0DC0282F2871283119F4A6
:1032F000877E816106C0282F2171213111F48E7ED5
:10330000886194FD877E089580913303811118C0F0
:103310008091D80080618093D8008AE18A95F1F786
:1033200000C08091D90080FD02C082E001C081E030
:1033300080933303823021F40E94EE171092C00272
:1033400081E090913303913009F080E00895F89482
:10335000E82FE295EF70F0E031A1282F2F7081E087
:1033600090E001C0880F2A95EAF7982F9095932353
:1033700091A392A1892B82A378940895A2E1B0E051
:10338000E4ECF9E10C945C30AE014F5F5F4F7A01E1
:103390008CE0DA011D928A95E9F704E112E06A01F6
:1033A0008AE1682E82E0782EAA24A394B12C20E230
:1033B000822E22E0922EF80180818F3F09F440C0D6
:1033C000F894E82FE295EF70F0E021A18F70A5014D
:1033D00002C0440F551F8A95E2F7CA01922F982B1D
:1033E00091A392A18095892382A3789400C0EAE1F9
:1033F000F2E0512C31E021912F3F89F0A22FA295CC
:10340000AF70B0E090968C9190E02F7002C09595CF
:1034100087952A95E2F780FD02C0832F01C080E0E6
:10342000582A330F8E169F0631F7D8018C918F3FA3
:1034300011F00E94A719B0EABA95F1F7F60150828F
:103440000F5F1F4FFFEFCF1ADF0A6016710609F0FA
:10345000B2CF4CE050E0B70186E892E00E94003124
:10346000009741F02CE0F701A6E8B2E001900D9240
:103470002A95E1F700919302892B49F081E080932E
:103480002B030E94232890932A0380932903809181
:103490002B03811102C0F12C22C08091290390914D
:1034A0002A030E9408280597B0F310E006561D4F26
:1034B00046E050E066E872E0C8010E940031892BC6
:1034C00059F086E0E6E8F2E0D80101900D928A9585
:1034D000E1F7FF24F39401C0F12C10922B030E941A
:1034E0008419E0919302882309F458C06E012DE0FD
:1034F000C20ED11C86E0D6011D928A95E9F70E2FE7
:1035000010E006561D4F809181028A3048F443E74F
:1035100050E1B601C8010E94F313882399F00AC054
:1035200080912C0390912D030E940828843F9140A4
:1035300070F71AC04AE050E1B601C8010E94F313C7
:10354000811171C0809181028F3F19F08F5F80934C
:103550008102809181028A3008F467C00E9423288A
:1035600090932D0380932C0380913203882309F4D8
:1035700054C086E0F60111928A95E9F71092320361
:10358000A0919202B0E0A656BD4F86E0FE013D96A6
:1035900001900D928A95E1F781E040C0F0E0E65697
:1035A000FD4F86E0A3E7B2E001900D928A95E1F726
:1035B00083E792E00E94A7148093720280907902C0
:1035C00090907A02A0907B02B0907C0280912E03B2
:1035D00090912F03A0913003B09131038816990682
:1035E000AA06BB06D1F080922E0390922F03A092E0
:1035F0003003B09231030E94841981110EC00E94E1
:103600001728861A970AA80AB90A8092820290920D
:103610008302A0928402B092850280E08F29629694
:10362000EFE00C947830109281028091920290E049
:1036300046E050E0B60186569D4F0E94003121E0E1
:1036400020933203892B09F09BCFE7CF7C30A0F485
:10365000663090F498E4899FF001112486E0789F09
:10366000E00DF11D1124E60FF11DEE0FFF1FE45ACE
:10367000FD4F85919491089580E090E00895CF9357
:10368000DF938238910569F1B0F48133910509F433
:1036900077C048F48932910509F469C08A329105EE
:1036A00009F473C092C08533910509F45BC0893376
:1036B0009105B9F08AC0833E910591F138F4803EBE
:1036C0009105D1F0823E910531F17FC0863E910592
:1036D000D9F1873E9105E9F1843E910509F075C065
:1036E00028C02091960220FD5BC021FD59C0209189
:1036F000970223FD61C069C08091960280FD4AC097
:103700008091970280FF4CC08091960284FD4EC14B
:1037100083EE90E04DC18091960282FF3EC0F4CFCF
:103720008091960282FD39C08091970280FD38C059
:10373000EBCF8091970281FF39C08091960284FD82
:1037400035C187EE90E034C18091960283FF2BC093
:10375000F4CF8091960283FD26C08091970281FD6F
:1037600025C0EBCF8091960285FD26C022C08091B6
:10377000960285FD1EC08091970283FF1DC00AC07E
:103780008091960286FD1BC01DC08091960286FD29
:1037900019C015C089E390E00BC182EE90E008C12A
:1037A00080EE90E005C186EE90E002C184EE90E0EC
:1037B000FFC085E390E0FCC089E290E0F9C08AE2B6
:1037C00090E0F6C081E390E0F3C0811531E5930706
:1037D00008F061C0811520E59207B0F09C012370CC
:1037E000332741E050E002C0440F551F2A95E2F70D
:1037F000282F2695269580E2289F90011124CA0142
:10380000822B932B9D68D4C0883E910568F5803E3D
:10381000910508F0CDC0883A9105B8F4853A910534
:1038200048F0855AE82FF0E0E05EFD4F808190E09F
:103830009064BEC08130910509F4B5C008F4B6C0EB
:103840008430910508F4B2C0B3C08F3B910508F0F5
:10385000ADC0885AE82FF0E0EE0FFF1FED5DFD4F81
:10386000808191819464A4C0811530E2930758F45B
:10387000811521E0920708F09BC08D3E910508F468
:1038800095C0906595C0811530E4930708F48EC00B
:103890009F70906A8DC0811525E5920708F042C09F
:1038A000811534E5930728F0982F8827846F906A54
:1038B0007FC0811523E59207B0F09C012370332768
:1038C00041E050E002C0440F551F2A95E2F7282F2F
:1038D0002695269580E2289F90011124CA01822B0B
:1038E000932B9A6865C0811532E5930728F4982FC9
:1038F0008827816F906A5CC09C012370332741E068
:1039000050E002C0440F551F2A95E2F7282F269554
:10391000269580E2289F90011124CA01822B932BC7
:103920009C6846C0EC01C11589E5D807B0F4C11503
:1039300028E5D20728F09C2F8827806F906A38C02E
:10394000C11536E5D30790F58C2F0E9441198F7170
:1039500090E0982F882790622BC0C1158AE5D80780
:1039600090F48C2F8F700E94411994E0D695C795E2
:103970009A95E1F7CF70D0E0DC2FCC27D0699E017B
:10398000282BC90115C0CE0190568115904270F4C4
:103990008D2F8F710E944119282F2F71CE019927E9
:1039A0009062922B05C081E090E002C080E090E040
:1039B000DF91CF910895CF9384E090E00E94903002
:1039C000C82F82E290E00E9490302C2F30E0A901B5
:1039D000582BCA01CF91089568EE7EEF80E090E009
:1039E0000E94BC3060E082E090E00E949E3060E087
:1039F00083E090E00E949E301092280310922703EB
:103A000060E084E090E00E949E3064E082E290E01A
:103A10000E949E3060E085E090E00E949E3060E071
:103A200086E090E00E949E306FEF87E090E00E9479
:103A30009E3040E050E0BA0188E090E00E94B03053
:103A400060E08DE090E00E949E3040E050E0BA01DE
:103A500088E190E00E94B03060E087E190E00E9451
:103A60009E3040E050E0BA018CE190E00E94B0301E
:103A700060E070E080E290E00E94BC3040E050E006
:103A8000BA0188E190E00E94B03040E050E0BA0115
:103A90008FE090E00E94B03040E050E0BA0183E156
:103AA00090E00E94B0300895809126038111109219
:103AB0002603089580959091CA0289238093CA02B3
:103AC00008959091CA028091EF03982B9093CB02B6
:103AD00080912603882389F0892B8093CB02EDEC1B
:103AE000F2E097E080E0915029F021912223D9F370
:103AF0008F5FF9CF81110E94541D48E050E06EE1C4
:103B000073E08BEC92E00E940031892BA9F088E0F1
:103B1000EBECF2E0AEE1B3E001900D928A95E1F7B3
:103B2000E091D003F091D103309731F00280F3811E
:103B3000E02D8BEC92E00995089520911D0380956E
:103B4000822380931D03982F977099F430E0482FBB
:103B5000082E000C550B2417350759F09091970249
:103B600092FF07C08595859585950E94321F10921A
:103B70001D030895CF93C0919702C2FB992790F936
:103B8000981791F080FBC2F9C0939702609196025A
:103B900084E090E00E949E306C2F82E290E00E94D0
:103BA0009E3082E00E949D1DCF91089520911C03BC
:103BB0009091DB022917B1F030E0F90153E0EE0FEC
:103BC000FF1F5A95E1F7E452FD4F5181561306C08D
:103BD0005081581303C05281541306C02F5F3F4FCA
:103BE0002770E8CF80E0089581E0089580911C035C
:103BF0009091DB02891719F08F5F8770FBCF0895D2
:103C0000EF92FF920F931F93CF93DF938091D8028F
:103C100082958F7009F054C08091D502882309F4F1
:103C20004FC0C0911C03E090DB02D091D302F09012
:103C3000D4020091D6021091D702CE1509F440C0EB
:103C4000A8016F2D8D2F0E94432A2C2F30E0811167
:103C500032C0F90183E0EE0FFF1F8A95E1F7DF0123
:103C6000A452BD4F11968C9111978F1124C08C9145
:103C70008D1321C012968C91129781111CC013963E
:103C80008D919C911497801B910B883C910598F421
:103C90008091D8028F7080618093D802EF51FD4FE0
:103CA00080818F708061808383ED92E00E94910615
:103CB0000E94F61D05C02F5F3F4FC22FC770BDCFBA
:103CC000CDB7DEB7E6E00C94813080E090E00E9452
:103CD000952880E090E00E947F281092EF030E94D8
:103CE000611DE3EEF3E086E0DF011D928A95E9F7BE
:103CF0001092DD031092DC031092DE030E944D2C23
:103D00000895A0E0B0E0E7E8FEE10C9462307C01A9
:103D100000919402109195028091270390912803BD
:103D2000082B192BCFE0D0E0CC24C394D12CC601B2
:103D30000C2E02C0880F991F0A94E2F7802391236A
:103D4000892B21F4219798F7B12C09C0BC2EB7011B
:103D50008C2F0E94261B0E943F1B019799F38B2DED
:103D6000CDB7DEB7E9E00C947E30CF93DF93EC0162
:103D70000E94811EBE010E94261B0E943F1BDF91F4
:103D8000CF9108959C3078F5863068F5E82FF0E003
:103D900086E0989FE00DF11D11249E2F977083E01F
:103DA000F695E7958A95E1F7EE0FFF1FEE0FFF1FDF
:103DB000EC5CFC4F40E050E080E0219130E0092EC7
:103DC00002C0369527950A94E2F721703327042E16
:103DD00001C0220F0A94EAF7822B4F5F5F4F4430F5
:103DE000510559F7089580E008959C3088F5863094
:103DF00078F5E82FF0E086E0989FE00DF11D1124A2
:103E00008E2F877051E001C0550F8A95EAF783E045
:103E1000F695E7958A95E1F7EE0FFF1FEE0FFF1F6E
:103E2000EC5CFC4F20E030E070E04081CB01022EE2
:103E300002C0969587950A94E2F781708195842750
:103E40008523842781932F5F3F4F2430310569F705
:103E500008950E94502390939502809394020E94AB
:103E6000651E089521E030E002C0220F331F8A95BD
:103E7000E2F72095309580919402909195028223EB
:103E800093230E94291F089521E030E002C0220FF1
:103E9000331F8A95E2F78091940290919502822BCC
:103EA000932B0E94291F0895909328038093270342
:103EB0000E94651E089592959F70963079F010F4D7
:103EC000925001C09A50923068F4803F69F018F423
:103ED000883E40F409C0843F29F406C0883E20F0A3
:103EE000813F11F080E0089581E008951092CA02A8
:103EF00086E0EDECF2E0DF011D928A95E9F70E9481
:103F0000651E0895882341F080959091EF038923E1
:103F10008093EF030E94611D0895882339F09091EA
:103F2000EF03892B8093EF030E94611D089588237E
:103F300021F00E945A1D0E94611D0895882339F0C6
:103F40009091CA02892B8093CA020E94611D089534
:103F5000882309F45FC0823869F40E94AB2881FF8E
:103F600059C069E38BEC92E00E9465280E94611DB4
:103F700069E30EC0833899F40E94AB2880FF4AC0E1
:103F800063E58BEC92E00E9465280E94611D63E569
:103F90008BEC92E00E9458280E94611D089584389D
:103FA00069F40E94AB2882FF35C067E48BEC92E095
:103FB0000E9465280E94611D67E4EACF9CEF980F7C
:103FC000913A10F4682FE4CF90E2980F983050F4B3
:103FD000877091E001C0990F8A95EAF7892F0E94B6
:103FE0005A1DDACF9BE5980F933028F480E090E0DB
:103FF0000E949528089598E5980F973128F480E05D
:1040000090E00E947F2808958D3E20F00E94772C3A
:104010000E944D2C08951F93CF93DF93182FEB012F
:104020000E94C12D209741F08FE99FE00197F1F7A1
:1040300000C000002197F6CF812F0E94A81FDF91BA
:10404000CF911F910895893319F060E070E002C0AC
:1040500060E570E00E940B200895CF93DF93EC01A0
:104060004B815C81698188810E94432A81110EC045
:104070008E819F81009719F00E943F1B04C08881A8
:1040800099810E94B51E0E945B1F01C080E0DF91F4
:10409000CF910895A5E1B0E0E0E5F0E20C945A304C
:1040A0008C0185E0F801DE01519601900D928A9510
:1040B000E1F7D8011296EC9083EDA82E82E0B82E9D
:1040C0005090D3024090D4028090D6029090D702B4
:1040D000A401642D852D0E94432AF82E811174C1FC
:1040E000F80170806180C380D4803090D502960141
:1040F00028193909332009F419C18091D802982F61
:10410000907F283C310508F0D3C0911179C046104A
:104110001AC0571018C04091D9025091DA02268176
:1041200037814217530779F4E1100DC08F70806119
:104130008093D802C5010E9491068091D802D801CF
:1041400015968C935DC1A601662D872D0E94432A8A
:10415000D82E811103C081E08E2502C080E090E05E
:1041600080FF07C04E2D662D872D0E94D61D811120
:104170003EC0D11003C081E08E2502C080E090E0F7
:10418000B82FB170DB2E80FF2AC04E2D662D872DF3
:104190000E94D61DC82E811122C0798A6A8A898917
:1041A0009A890E94B51E292F22952F70223018F06F
:1041B000243078F405C09F7049F0811107C00DC00C
:1041C0009F7021F0F8019581907F39F0805E8830F2
:1041D00020F0C8010E949106CD2CFC2C11C1EE20CC
:1041E00009F40DC18091D80281608093D80283EDDB
:1041F00092E00E949106E3EDF2E088E0DF01E0C08A
:1042000046101BC0571019C04091D9025091DA02D4
:10421000F801268137814217530779F4E1100DC068
:104220008583C8010E94910688E0F801A3EDB2E001
:1042300001900D928A95E1F759C0C8010E942D2086
:10424000882381F1EE2071F12091D802822F82958E
:104250008F7090E00297A4F08091D3029091D402E5
:104260009A8789871B86DD86CC862E878091D90226
:104270009091DA02988B8F87CE0109960E94910661
:1042800088E0F801A3EDB2E001900D928A95E1F784
:104290000E94001E0AC0461491F0C8010E942D2001
:1042A000811126C0C8010E949106FF24F394A8C082
:1042B0009111F1CF83ED92E00E9491067FC05710DB
:1042C000ECCF4091D9025091DA02F8012681378172
:1042D0004217530711F7E110E0CF8583C8010E9410
:1042E000910688E0D5011D928A95E9F7F32C88C0E4
:1042F000EE20C1F22091D802822F82958F7090E03B
:1043000002970CF4BDCF8091D3029091D4029A838E
:1043100089831B82DD82CC822E838091D902909189
:10432000DA0298878F83CE010196A8CF283C310509
:1043300008F044C0FE2CEE2009F4B4CF461030C083
:1043400057102EC02091D9023091DA02F8018681EF
:1043500097812817390721F59091D80290FD17C051
:10436000892F82958F70282F30E02115310579F043
:1043700095832F30310541F08F5F982F9295907F74
:1043800085818F70892B8583C8010E94910688E002
:10439000F801A3EDB2E001900D928A95E1F730C0EB
:1043A000C8010E942D2081116BCF8091D8028160BD
:1043B0008093D802C8010E94910622C088E0D501EE
:1043C0001D928A95E9F71CC0EE2009F46BCFC80155
:1043D0000E942D20F82E882309F464CF88E0F8018C
:1043E000A3EDB2E001900D928A95E1F78091D3029E
:1043F0009091D4020E94B51E0E94001E01C0F12CB3
:104400008F2D6596E1E10C947630A0E1B0E0EBE011
:10441000F2E20C94653029873A874B875C876D8779
:104420007E878F87988BCE0109960E944A20811142
:104430004AC088E0FE013996DE01119601900D9286
:104440008A95E1F7E984FA840C851D85A8016F2D12
:104450008E2D0E94432A811136C0A091DB02B0E06C
:10446000CD0101968770992720911C0330E08217B7
:10447000930781F1E982FA821D830C8393E0AA0FEE
:10448000BB1F9A95E1F7A452BD4F98E0FE0131960B
:1044900001900D929A95E1F78093DB020E94F61D40
:1044A00012C028E0829FC001112484529D4F0E94B7
:1044B0004A208823E1F080911C0390E001968770E8
:1044C000992780931C0380911C039091DB02891330
:1044D000E8CF0DC00E94761F1092DB0210921C03E1
:1044E000E3EDF2E088E0DF011D928A95E9F760963E
:1044F000E6E00C9481309C013A9521153F4130F55E
:10450000BC0166277270AC01442754709C012227BD
:10451000387094FF0FC090FF02C080E101C080E0BE
:10452000672B09F08062452B09F08064232B79F01A
:1045300080680895892F8170672B09F08260452B70
:1045400009F08460232B19F08860089580E00895B5
:10455000A5E0B0E0EEEAF2E20C94683049835A83B9
:1045600089819A81662359F0222349F00E94811E95
:10457000182F682F89819A810E94F51E03C00E941E
:10458000C21E182F69817A81812F0E94261B2596D1
:10459000E3E00C948430FC0186819781009741F41C
:1045A000262F408151816281738184810E94A822DB
:1045B00008950E94761F2FEF84E39CE021508040F5
:1045C0009040E1F700C000009AE088E10FB6F8944F
:1045D000A895809360000FBE90936000FFCF0E946B
:1045E000761F2FEF84E39CE0215080409040E1F75C
:1045F00000C0000087E797E79093010880930008C8
:104600009AE088E10FB6F894A895809360000FBEF9
:1046100090936000FFCFEF92FF920F931F93CF9381
:10462000DF93EC018B017C0180EEE81AF10898E041
:10463000E916F10410F0209731F4CE010E947B229C
:104640000E949E1F05C0CE010E947B220E948D1FEA
:104650008C2F0E94C12D0115110549F08FE99FE0B3
:104660000197F1F700C0000001501109F4CF8C2F21
:104670000E94A81F98E0E916F10410F0209731F489
:10468000CE010E947B220E94971F05C0CE010E948E
:104690007B220E94821FCDB7DEB7E6E00C9481300A
:1046A0009C012C7033272C30310511F4806101C03E
:1046B0008F7E9C01247038702430384011F4906152
:1046C00008959F7E0895EF92FF920F931F93CF93CB
:1046D000DF937C01162FEA018091CA02082F027035
:1046E00081FF03C081EE0E94A81FF7018281882309
:1046F00049F0812F0E94C12D209761F08C2F0E94DC
:10470000C12D08C0812F0E94A81F209719F08C2F5F
:104710000E94A81F002319F081EE0E94C12DCDB781
:10472000DEB7E6E00C9481300F931F93CF938C019A
:10473000C42FAB0166EE70E00E946323F801828112
:10474000811106C08C2F0E94C12D8C2F0E94A81FA2
:10475000CF911F910F9108958D31910508F0A8C058
:10476000FC01E459FF4F0C94E630662309F4A0C025
:1047700089E39BE09BC0662309F49AC08BE29BE02F
:1047800095C0662309F494C080E29BE08FC0662345
:1047900009F48EC089E19BE089C0662309F488C0D2
:1047A00082E19BE083C0662309F482C084E09BE041
:1047B0007DC0662309F47CC08BEF9AE077C0662346
:1047C00009F476C083EF9AE071C0662309F470C0E3
:1047D00089EE9AE06BC0662309F46AC081EE9AE024
:1047E00065C0662309F464C087ED9AE05FC0662364
:1047F00009F45EC080ED9AE059C0662309F458C000
:1048000087EC9AE053C0662309F452C08EEB9AE01D
:104810004DC0662309F44CC081EB9AE047C0662383
:1048200009F446C086EA9AE041C0662309F440C014
:1048300080EA9AE03BC06623D9F187E99AE036C066
:104840006623B1F18AE89AE031C0662389F181E8F4
:104850009AE02CC0662361F186E79AE027C06623C0
:1048600039F181E79AE022C0662311F18CE69AE0E3
:104870001DC06623E9F089E69AE018C06623C1F0FE
:1048800084E69AE013C0662399F080E69AE00EC0B1
:10489000662371F08AE59AE009C0662349F08DE449
:1048A0009AE004C0662321F08CE39AE00E94281469
:1048B0000895ABE1B0E0EFE5F4E20C945930942FA9
:1048C000498B252F5A8B6B8B7C8B8D8B4C895D890B
:1048D000622F892F0E94432A811109C080916602AC
:1048E00090916702019690936702809366028B898C
:1048F00081111092EF038E01075F1F4F88E0F801CE
:1049000011928A95E9F785E0FE017196D801019030
:104910000D928A95E1F74C855D856A8589850E94AF
:10492000432A8111D8C161E0C8010E94CB225C01F9
:10493000883FFCE59F0739F48B858823A1F081E04F
:104940008093F201C8C1893F2CE5920731F48B8531
:10495000882349F00E94522ABEC18A3F9C4519F41F
:104960008B85811111C007E211E0712CC12CD12C73
:1049700088248394912C55245394CE0101969F8BC7
:104980008E8B77E0472E38C08091F2018823B9F2F0
:10499000E1CFFFEFEF16FF0609F44BC1F801648188
:1049A000611145C02091F201822F81706B84F80162
:1049B00035812681662009F4DCC0882309F4D9C03A
:1049C0003323C1F1940102C0220F331F9A95E2F7FD
:1049D00021503109F801868190E02817390709F440
:1049E00040C07628FFEFCF1ADF0A095F1F4F2DE185
:1049F000C216D10409F41FC1F801208131816FEF83
:104A00008FEF90E0E92EF12CF701EE0FFF1FE20F80
:104A1000F31F45915491A416B50611F0E62EF82E19
:104A2000452B09F4B6CF9F5F6E2D8F2DEBCF20E085
:104A300030E0BACFA4010E2C01C0440F0A94EAF76B
:104A4000242B26832091ED033091EE032233310590
:104A500008F0B8CF22E330E03093EE032093ED036B
:104A6000B1CF8091C3039091C403009729F00E94B5
:104A70000828C39708F02CC18091C103B091C203EC
:104A8000982FE0E0F0E08B1709F45FC0282F30E0AA
:104A9000F901EE0FFF1FE754FC4FE080F1804E9CC0
:104AA000F0014F9CF00D1124E95DFE4F40814A8FCB
:104AB00041814B8FA0E060E070E0EA8DFB8DE70F55
:104AC000F11DE70FF11D2590349021143104D1F030
:104AD000F801F081F88FF801F181F98F60E0E88D3D
:104AE000F98DE60FF11DE60FF11D45915491411529
:104AF000510531F02416350609F4A1E06F5FEFCFC0
:104B00007F5FDBCFAA23D1F0671708F4DBC04E9C90
:104B1000F0014F9CF00D1124E95DFE4F309781F0BC
:104B20005482E017F10719F49093C1035ACF891307
:104B300007C0C9010196982F937002C0E0E0F0E031
:104B40002F5F3F4F822F83709ECF9093C103E0175A
:104B5000F10709F446CF90E0FC01EE0FFF1FE75488
:104B6000FC4FD182C0820196837099278093C20343
:104B700038CF311114C0A40102C0440F551F9A95BB
:104B8000E2F74150510930E04217530709F043C0A2
:104B9000662309F441C0C6010E94F92A3CC0822F55
:104BA00090E09C0121503109282339230E2C02C0AA
:104BB000959587950A94E2F7232B59F580FF29C034
:104BC000F80182819381892BE1F088E0EE89FF89E9
:104BD00011928A95E9F78EEF89838A830E942328B0
:104BE0008160582F9D838C83F801828193818F830C
:104BF000988729813A814B816D817E810E940522AF
:104C000004C060E0C6010E94AC23F801158281E077
:104C100003C0817001C080E094010E2C01C0220FFE
:104C20000A94EAF72095F801968129232683682EB5
:104C3000D8CE612CD6CE8B85882381F1772071F177
:104C40000E9423289093C4038093C3038091580348
:104C5000883008F04AC091E0980F9093580398E08C
:104C6000FE013996DE01119601900D929A95E1F7B9
:104C70004CE0849FC0011124875A9C4F28E0FE011C
:104C80003196DC0101900D922A95E1F72FEF3FEF6D
:104C9000FC0131872087B386A28627C09091C1038B
:104CA0008091C203981719F00E94612A08C00E94DF
:104CB000272B1092C4031092C3030E947D2B7720F0
:104CC00051F013C00115110509F438CF9093C103B9
:104CD000F801548286CE29853A854B855C856D85A1
:104CE0007E858F8598890E9405226B96E2E10C945F
:104CF000753008958091B50208958093D90370931B
:104D0000DB036093DA038091C002843001F582E016
:104D10008093E9008FEF9091E800815095FD06C0E7
:104D200095ED9A95F1F700008111F5CF8091E8009B
:104D300085FF0DC040E050E063E070E089ED93E056
:104D40000E94BE148091E8008E778093E800089559
:104D5000BC0184E00E947D260895BC0183E00E948E
:104D60007D26089522E02093E9002FEF3091E8009E
:104D7000215035FD06C035ED3A95F1F700002111BF
:104D8000F5CF2091E80025FF0BC040E050E066E041
:104D900070E00E94BE148091E8008E778093E80056
:104DA0000895CF93DF9321E02093E9002FEF309116
:104DB000E800215035FD06C035ED3A95F1F70000C9
:104DC0002111F5CF2091E80025FF14C0EC0140E04F
:104DD00050E068E070E00E94BE148091E8008E7799
:104DE0008093E80088E0FE01A6EBB2E001900D920E
:104DF0008A95E1F7DF91CF9108952091E4003091F9
:104E0000E50095E64091EC00842F817040FF23C0BF
:104E10008091E80080FD1DC08091C002882399F038
:104E2000853099F08091EB0085FD11C04091E40040
:104E30005091E5002417350729F3915011F09A019C
:104E4000E1CF84E0089582E0089583E0089581E051
:104E5000089580E008954091E80042FFDDCF089575
:104E60008091C20287FF11C08091E80082FD05C0D9
:104E70008091C0028111F8CF11C08091E8008B773A
:104E80000BC08091C002882349F08091E80080FF28
:104E9000F8CF8091E8008E778093E8000895982FEE
:104EA000973068F59093E900981739F07091EC000D
:104EB0002091ED005091F00003C0242F762F50E098
:104EC00021FD02C09F5FECCF3091EB003E7F30931D
:104ED000EB003091ED003D7F3093ED003091EB0021
:104EE00031603093EB007093EC002093ED00509311
:104EF000F0002091EE0027FDE5CF80E008958F704F
:104F00008093E90081E008952091C8023091C902A0
:104F10002617370748F06115710539F42091E8002C
:104F20002E772093E80001C0B901FC0120E0611553
:104F3000710579F18091C0028823F1F18530F1F19A
:104F40008091E80083FD3CC08091E80082FD2EC086
:104F50008091E80080FFEBCF2091F3008091F20078
:104F600090E0922B6115710551F08830910538F46D
:104F700021912093F100615071090196F3CF21E056
:104F8000089709F020E08091E8008E778093E80090
:104F9000CECF2111CFCF0AC08091C002882361F00B
:104FA000853061F08091E80083FD0AC08091E800BF
:104FB00082FFF2CF80E0089582E0089583E00895B3
:104FC00081E0089578941F920F920FB60F921124EA
:104FD0008F939F93AF93BF938091D5039091D60306
:104FE000A091D703B091D8030196A11DB11D809364
:104FF000D5039093D603A093D703B093D803BF9162
:10500000AF919F918F910F900FBE0F901F901895A9
:105010009C014FB7F8948091D5039091D603A0914D
:10502000D703B091D8034FBF821B930B08952FB7BE
:10503000F8946091D5037091D6038091D703909135
:10504000D8032FBF08952FB7F8948091D50390917E
:10505000D603A091D703B091D8032FBF08951F9214
:105060000F920FB60F9211248F939F93AF93BF931C
:105070008091D403811113C08091D5039091D60300
:10508000A091D703B091D8034196A11DB11D809383
:10509000D5039093D603A093D703B093D803BF91C1
:1050A000AF919F918F910F900FBE0F901F90189509
:1050B0009C012A5F3F4FFC014281461301C01282CE
:1050C000019682179307B9F708959C01FC01329667
:1050D0009FEF80E04191461789F09F3F19F44111FD
:1050E00001C0982F8F5F8630A9F79F3F39F0F901F3
:1050F000E90FF11D97FDFA956283089508952091B7
:10510000D2033091D3032817390771F09093D3035A
:105110008093D203E091D003F091D103309721F036
:105120000084F185E02D099508952091CE033091FA
:10513000CF032817390771F09093CF038093CE03E4
:10514000E091D003F091D103309721F00680F781F0
:10515000E02D099508950E948419882359F0E09163
:10516000D003F091D103309729F00190F081E02D28
:105170000995089580E008950F931F93CF93DF93CF
:10518000C42FD22FFC0182818823B1F04093CD033C
:105190000E9423289093CC038093CB0380E28C0F52
:1051A000883008F04DC0C77081E001C0880FCA95F3
:1051B000EAF70E949E1F44C08091CD03481330C07F
:1051C0008091CB039091CC030E940828883C9105E4
:1051D00038F510E21D0FCD17B9F080E28C0F883042
:1051E00040F4C77081E001C0880FCA95EAF70E94B9
:1051F000971F183010F581E09D2F977001C0880F20
:105200009A95EAF70E949E1F802F0E942320183053
:10521000B8F4D77081E001C0880FDA95EAF70AC0C8
:1052200080E28C0F883060F4C77081E001C0880F85
:10523000CA95EAF70E94971F03C0802F0E9423207F
:10524000DF91CF911F910F910895893279F1E0F4A8
:10525000843161F1A0F4873009F075C01092C70362
:1052600094E19093F7018093F6018CE38093F5012C
:1052700088E08093F40188E28093F30164C092EEA9
:10528000980F9A30F0F05FC0803509F444C028F4DC
:105290008F3409F058C08AE03FC0813529F082354B
:1052A00009F051C081E038C08FEF36C08091CA0349
:1052B000882379F11092CA031092C9031092C8038F
:1052C00042C08D518093CA03833099F038F4813005
:1052D00069F08230D9F487EF91E00DC0853099F004
:1052E00078F0863099F483EF91E005C087EC93E085
:1052F00002C086EF91E09093C9038093C80323C056
:1053000085EF91E0F8CF84EF91E0F5CF1092CA03DA
:105310001AC080E0089586EFE091C803F091C903B8
:10532000309789F02081082E000C990B820F911D77
:105330008F3F910519F014F08FEF04C097FF02C062
:10534000108201C0808381E008958B3109F469C027
:1053500058F58B3009F493C078F4863009F446C0D0
:1053600020F4853009F44CC08CC0873009F44BC060
:10537000883009F484C085C0803109F465C068F4C0
:105380008E3009F07EC08091C60382FB222720F96F
:1053900091E0922790FB82F94DC0863109F46FC0ED
:1053A000893109F46CC06DC08A32E9F060F487324B
:1053B00009F45FC028F48E3108F463C08D514FC0EA
:1053C0008932F1F05EC0833450F48A3308F046C06D
:1053D000853309F44EC0883309F451C052C0833478
:1053E00009F447C04EC00E94EC1C49C08091C6031E
:1053F000817F8E7F8093C60381E08093C5030895EB
:105400000E94EF223CC08091C603982F9095917026
:1054100090FB80F98093C603911131C0897F877F0B
:1054200010C08091C60381FB222720F991E09227CA
:1054300090FB81F98093C603992309F18091C603FB
:1054400081608093C6031BC08091C60383FB222723
:1054500020F991E0922790FB83F9ECCF895321E06A
:1054600030E0A90102C0440F551F8A95E2F7CA0136
:1054700002C081E090E00E94541F0E94761F81E0EC
:10548000089580E00895452B41F06F3F41F491E08D
:105490008F3F09F090E0892F03C081E001C080E0D8
:1054A000817008951092C4031092C3031092F20108
:1054B0008091C2038093C1030E947D2B0E94272B01
:1054C0000895A0E0B0E0E7E6FAE20C945930C0910C
:1054D000C103E7E0FE2E01E010E0FCE02F2EAEEF6E
:1054E000EA2E8091C203C81709F47AC0D0E0FE0109
:1054F000EE0FFF1FE754FC4F80819181F89EF00171
:10550000F99EF00D1124E95DFE4F2481211165C043
:1055100060905803A9E5B3E020E030E0712C5F0112
:10552000261508F058C01A964D905C901B97F5010F
:10553000808091804FEF5FEF312CC32CD12CF6018E
:10554000EE0FFF1FE80DF91D659174914616570681
:1055500009F4A601672B11F03394EFCF4F3FFFEF13
:105560005F07A9F1B80102C0660F771F4A95E2F7FD
:10557000762AA801032C02C0440F551F0A94E2F7B3
:1055800041505109672D70E046175707E1F4229EFC
:10559000F001239EF00D1124E75AFC4FF89ED00134
:1055A000F99EB00D1124A95DBE4F12962D913C912C
:1055B000139737832683E082E1829187808771E0A9
:1055C00015967C9308C014961C921E9213972F5F19
:1055D0003F4F1C96A5CF0E94F92A2196C37081CF18
:1055E0000E94272B0E947D2BCDB7DEB7E2E10C9401
:1055F0007530BC014091C1038091C203942F98176C
:1056000029F1292F30E0F901EE0FFF1FE754FC4F7D
:105610000190F081E02DE617F70799F487E0869F67
:10562000F001879FF00D1124E95DFE4F81E0848336
:1056300094130CC02F5F3F4F237033272093C10377
:1056400008952F5F3F4F922F9370D9CF0895EF9217
:10565000FF920F931F93CF93DF938091580388237A
:1056600009F446C00091F0038CE0F82E80915803B5
:105670000817D0F5EE24E394E00EE092F00310E07A
:10568000F09EE001F19ED00D1124C75ADC4F4B81F2
:105690005C81698188810E94432A811123C08E81A7
:1056A0009F81892B51F4888599858F3F2FEF920731
:1056B00021F061E00E94AC230AC0288139814A812F
:1056C0005B816C817D818E819F810E940522F09E8D
:1056D000F001F19EF00D1124E75AFC4F1482138261
:1056E0001092EF030E2DC2CF109258031092F003C8
:1056F000CDB7DEB7E6E00C9481301092EE03109245
:10570000ED03E7E2F1E08581811102C01482168287
:10571000379681E0E23FF807B1F70895A0E0B0E0E6
:10572000E4E9FBE20C946430E82FF0E0ED59F34F2C
:10573000D490282F26952695269530E0F901ED5A2C
:10574000F34F0491877010E0082E02C0159507955D
:105750000A94E2F701701127F901ED5BF34FE49031
:10576000F12C082E02C0F594E7940A94E2F791E038
:10577000E922FF24F901ED5CF34FC491D0E002C0AF
:10578000D595C7958A95E2F7C170DD2701151105FA
:1057900019F081EE0E94C12DE114F10419F086EE9A
:1057A0000E94C12D8D2D0E942320E114F10419F0D7
:1057B00086EE0E94A81F0115110519F081EE0E94C6
:1057C000A81FCD2B19F08CE20E942320CDB7DEB7A5
:1057D000E7E00C948030EF92FF921F93CF93DF931A
:1057E000EC011AE08881882309F44AC0813009F06D
:1057F00043C08981813041F47E0182E0E80EF11CD2
:105800008A810E94232009C0823049F47E01E2E0AF
:10581000EE0EF11C8A810E94C12DE7012FC083305A
:1058200041F47E01F2E0EF0EF11C8A810E94A81F74
:10583000F4CF843011F0219621C02A81229680E095
:1058400090E030E0205331092A30310558F4189F98
:10585000A001199F500D1124C901840F951F219695
:105860002881EFCF009751F0EFE9FFE03197F1F792
:1058700000C000000197F6CF0E948E2B2196B2CF78
:10588000DF91CF911F91FF90EF9008956091E90310
:105890008CE090E00E949E3008950E942328209181
:1058A000E503211104C02091E603222321F0909307
:1058B000E2038093E1032091E703211104C02091CA
:1058C000E803222321F09093E0038093DF03E0912B
:1058D000D003F091D103309749F082E08093E30345
:1058E0000480F581E02D83EE93E0099508958D3EC7
:1058F00039F49091E60397FF35C01092E60359C042
:105900008E3E29F49091E6031916BCF32BC09091BA
:10591000E5038F3E29F497FF25C01092E50349C0A7
:10592000803F19F41916CCF31DC09091E703893F0D
:1059300029F41916BCF41092E7033BC08A3F19F40E
:1059400097FF10C0F8CF8B3F39F49091E80397FF91
:1059500009C01092E8032DC08C3F21F49091E80318
:105960001916BCF39FE0980F983080F421E030E0E6
:10597000A90102C0440F551F9A95E2F7CA0180950C
:105980009091E40389238093E40313C08D3F21F4B5
:105990008091DE038E7F0BC08E3F21F48091DE0369
:1059A0008D7F05C08F3F29F48091DE038B7F80932C
:1059B000DE038091E503811106C08091E603811129
:1059C00002C01092DD038091E703811106C080912F
:1059D000E803811102C01092DC0308958091DE0378
:1059E00080FF08C06091F40170E07595679575952A
:1059F000679521C081FF06C06091F40170E0759544
:105A0000679519C082FF04C06091F40170E010C076
:105A10009091DC03992399F06091F3019617A0F718
:105A20008091F401899FC001112470E00E94D2305E
:105A30006038710540F46115710519F406C061E024
:105A400070E0862F08958FE7089581E00895809192
:105A5000DE0380FF06C06091F60170E0660F771FDD
:105A600026C081FF04C06091F60184E005C082FF7A
:105A700007C06091F60188E0689FB001112417C04B
:105A80009091DD039923D1F06091F501961788F785
:105A90002091F60188E0289F90011124929FA00197
:105AA000939F500D112470E0CA010E94D2306038DB
:105AB000710540F46115710519F406C068E070E0E5
:105AC000862F08958FE7089581E008958D3E21F493
:105AD0000E94272D819504C08E3E29F40E94272D17
