:100000000C9495060C94822F0C94B2060C94B206B4
:100010000C94B2060C94B2060C94B2060C94B20680
:100020000C94B2060C94B2060C94A0180C94E2172F
:100030000C9479280C94B2060C94B2060C94B20677
:100040000C94B2060C94B2060C94B2060C94B20650
:100050000C94B2060C942C280C94B2060C94B206A4
:100060000C94B2060C94B2060C94B2060C94B20630
:100070000C94B2060C94B2060C94B2060C94B20620
:100080000C94B2060C94B2060C94B2060C94B20610
:100090000C94B2060C94B2060C94B2060C94B20600
:1000A0000C94B2060C94B2060C94B206FF0DFF0D30
:1000B000320E320EA40EC00EF00FF00FCB0E5B0FFF
:1000C0006D0F6D0F01162816C0172816C017701671
:1000D0009316C01782179517ED23F323F923FF23F7
:1000E00005240B24112417241D24232429242F2420
:1000F00035243B24412447244D24532459245F2490
:1001000065246A246F24742479247E24832488241B
:100110008D24922497249C2405010902A1018502C3
:100120000901A100050919012908150025019508F3
:10013000750181020501093009311581257F95027C
:100140007508810609381581257F95017508810696
:10015000050C0A38021581257F950175088106C0B6
:10016000C005010980A101850319012AB700150105
:1001700026B700950175108100C0050C0901A10189
:10018000850419012AA002150126A0029501751007
:100190008100C005010906A101050719E029E7153D
:1001A00000250195087501810295017508810105F9
:1001B00007190029FF150026FF0095067508810024
:1001C0000508190129059505750191029501750329
:1001D0009101C009023B00020100A0FA09040000DD
:1001E000010301010009211101000122400007055E
:1001F0008103080001090401000103000000092136
:1002000011010001227B0007058203200001120179
:100210000002000000084D443635010001020001D3
:100220002C03440061006300740079006C002D0011
:100230004D0061006E00750066006F0072006D0079
:1002400020002800350078003600290000000E0349
:100250007400730068006F007200740000000403F3
:1002600009042900104050064F060440AE002B0040
:100270000500B45D130012003400C65D04001800D0
:100280000C0008003600E00031001C001B003700A5
:10029000361200000000B35D2F00C05DBB5D0000A2
:1002A0000000E30009510651E20015040F40AA00C6
:1002B000A90011400F081A00190007000F000D00D7
:1002C0001D000600170016001500110010000E009A
:1002D00014000A000B000900C65D2C00BF5D300051
:1002E0002E00000000002A000351D45DE30000004E
:1002F00000000100010001000100010001000100F7
:1003000014001A00080015001700E1000400160090
:10031000070009000A0001001D001B00060019006B
:100320000500000000000100310001000100000094
:1003300000000100010001000100010001000100B6
:100340000100010001001C0018000C001200130045
:100350002F000B000D000E000F00330034001100C1
:100360001000360037003800B25D010001000100C6
:100370000100000000000100010001000100000078
:10038000000001001E001F00AD002100D35D010030
:100390003602B85DED00BC5DB55D01003702EF00CF
:1003A000EE00F00001000100B75DF900F100FA0075
:1003B000B65D000000003614371401000100000093
:1003C000000001000E530100010000004000410048
:1003D0004200430044001E084B0052004A00000047
:1003E00030004A00500051004F004D00E5002A0047
:1003F0004E0051004D004C00280008510100010042
:100400006200000000000100010001000100000086
:10041000000046001E001F002000210022004500B1
:100420003A003B003C003D003E0045012A004C00E4
:1004300043004400440245022A014C0228052C00D6
:100440003E0100000000E0003701010007510000FC
:1004500000000A52015200520D523F00400041007C
:1004600042001504A5002D021E001F0020002414C8
:1004700025145600210022002300261427146500AD
:10048000240025002600350035022C03010027003A
:100490003700000000000100010001000100000021
:1004A00000002716010001000100010001003900D1
:1004B0001E022402250226022702E10023021F0257
:1004C000200221022202010001000100010072004D
:1004D0000100000000000100010001000100000017
:1004E0000000000000000000000001000100520CAC
:1004F000010001000100D05D4B0152084E01CE5DAC
:100500000000CC5D500051084F00CD5D0000D15D72
:100510004E05CB5D4B05CF5D000001000100D25DB3
:100520006C0000000000000001000000000000005E
:1005300000004801010001000100010001000B0161
:1005400014011A01080115011701E1000400160148
:10055000070109010A011C011D011B010601190106
:10056000050100000000B25D3701075101000000E5
:100570000000010001000100010001000100010074
:100580000100010001001C0118010C010F01130101
:1005900001000B010D010E010F01360101001101D7
:1005A000100136013701010001000100010057016F
:1005B00067010000000001000100010001000000CF
:1005C0000000010001000100010001000100010024
:1005D00001004B0052004A00010001005008500089
:1005E00051004F004F080100CA5D4E0051004D0000
:1005F00028000000000000000000000000000000D3
:1006000000000000000001000100000000000000E8
:1006100000000000000000001E011F01200100007A
:100620000000000021012201230100000000000061
:1006300024012501E0010000000000000000270166
:1006400000000000000000000000000000000000AA
:100650000000000000000000AD003D043E010B035F
:1006600014031A030803150317034C0204031603AB
:10067000070309030A032C03000000000603190303
:1006800005030000000000002C080100010000002C
:10069000000000000000000000000000000000005A
:1006A000000000000000000000000C031203130310
:1006B00000000B030000000000000000000000002C
:1006C00000000000370300000000010001000000EE
:1006D000000000000000000000000000000000001A
:1006E000000029001E011F012001210122012B0011
:1006F0000000F200ED00F1000000E1000000EF005A
:10070000EE00F000000000000000F9000000FA0018
:1007100000000000000000000000000028050000AC
:1007200000000000000000000000000000000000C9
:1007300000000000000000004B0352034E030000C5
:1007400000000B01500351034F03000000000000A4
:100750000000510300000000000001000000000044
:100760000000000000000000010001000100000086
:1007700000002D00230024002500260027002F0064
:100780001C001E001F0020000000E1005600210098
:10079000220023003300E000CA5D2400250026006B
:1007A00038000000000000002700000000000000EA
:1007B0000000010001000100010000000000000035
:1007C0000000000000001F0820082108220823085C
:1007D00024081E08500900004F09000026080000E8
:1007E0000000000000000000000000000000000009
:1007F00000000000000000000000000000000000F9
:10080000000029001E001F002000210022002B00F4
:1008100014001A00080015001700E100040016007B
:10082000070009000A00E0001D001B000600190077
:10083000050000000000340001000100010000007C
:1008400000000100010001005000230024002500E9
:10085000260027002D001C0018000C0012001300B9
:100860002F000B000D000E000F00330035001100AB
:10087000100036003700330035005200010031000F
:100880002E000000000000004F0001005100000099
:10089000000001001E021F022002210222020100AC
:1008A00001003812010001000100010001000100F7
:1008B00001000100BA5D01000100010001003302E6
:1008C000010000000000B35DB25D01000100000006
:1008D00000000100010001000100010024022502C6
:1008E000260227022D020100010001000100010083
:1008F00001000100010001000100010001000100F0
:1009000001000100010001000100010001000100DF
:1009100001000000000001000100010001000000D2
:1009200000000000000000000000000000000000C7
:1009300000000000000000000000010000000000B6
:10094000000000000000E0000000000000000000C7
:100950000000000000000000000000000000000097
:100960000000000000000000000000000000000087
:1009700000000000000000004B1252024E12000066
:1009800000004A12500251024F024D1200000000B6
:100990000000510200000000000000000100000003
:1009A0000000000000000000000000000000000047
:1009B0000000010001000100010001000100010030
:1009C000010001000100010001000100010001001F
:1009D000010001000100010001000100010001000F
:1009E00001000000000001000100010028000000DB
:1009F00000000100010001000100010001000100F0
:100A0000010001000100010001005200010001008D
:100A100001000100500051004F00010001000100E1
:100A200001000100010001000100010001000100BE
:100A300001000000000001000100010001000000B1
:100A400000006262726167614070726F67692E6355
:100A50006F6D0062696C6C792E6272616761400033
:100A600020414E4420006B38730020213D20002D92
:100A70003E00203C3D2000203E3D200070726F7003
:100A800065727469657300706970656C696E650084
:100A9000737562736372697074696F6E0050726F00
:100AA00067694F6E650070726F6769004070726FA2
:100AB00067692E636F6D0061756A6F757264276870
:100AC00075692000646F65736E27742000646F651C
:100AD000736E27742000636F6E66696700626561DC
:100AE00075636F75702000612D742D696C20007026
:100AF0006F757271756F692000612D742D6F6E2096
:100B000000706575782D74752000506575742D0121
:100B1000012F657472652000706575742D01012FB9
:100B200065747265200061732D7475200045732D06
:100B30007475200065732D747520004573742D63E2
:100B40006520717527006573742D636520717527A5
:100B5000004573742D63652071756520006573749D
:100B60002D6365207175652000050015000A0000E1
:100B70000005000C00150000000400110007000033
:100B8000000E001600000005002E0000002F0006D9
:100B9000000000B35D2E0000002F002E00000013A7
:100BA0000015001200170016000000130008000FC7
:100BB00000110000001600050011000000130015D0
:100BC00000120011000000130015000A00000004CC
:100BD0000013000600000004000D000700000007DD
:100BE00000120011000000070012001700000006AC
:100BF00000120011000C00000005000600130000A8
:100C000000040017000C000F00000013000E00008D
:100C10000004001700120011000000130017001854
:100C20000000003800130017000800000013001730
:100C3000000800000004001600170018000000085B
:100C4000000C00160017001800000008001600171E
:100C50000018000000160014001200130000001617
:100C6000001400120000001600140008000C000020
:100C70000016001400080000000000000000000042
:100C80000000000040010000000000000000000023
:100C900050000000280100007800000000FE0F0056
:100CA00084FFFFFF9700000000000000000000002C
:100CB000002A2B28000000000000000000000000B7
:100CC0000000000029000000002C1E3720212224F3
:100CD000362627252E362D3735271E1F2021222385
:100CE0002425263333362E37231F0405060708092B
:100CF0000A0B0C0D0E0F10111213141516171819DC
:100D00001A1B1C1D2635272F2D2F04050607080941
:100D10000A0B0C0D0E0F10111213141516171819BB
:100D20001A1B1C1D243525304C0011241FBECFEF8B
:100D3000DAE0DEBFCDBF12E0A0E0B1E0E4ECF2E625
:100D400002C005900D92A636B107D9F724E0A6E6B9
:100D5000B2E001C01D92A630B207E1F70E944F1128
:100D60000C9460310C940000A0E0B0E0EAEBF6E0F7
:100D70000C94AB307C01FC01438154816181808102
:100D80000E948D2A81110C943D1061E0C7010E94E0
:100D90000323EC01F7018281811141C0CE01049748
:100DA0004A9720F08FEF8093000139C080910001B5
:100DB0008F5F80930001833090F5E82FF0E0EE0F15
:100DC000FF1FE659FD4FD183C083811107C00E94E8
:100DD0006D28909369028093680221C08230F9F4F3
:100DE0008FEF8093000180916802909169020E94C8
:100DF0005228853F914098F480916A0290916B024D
:100E0000449769F480916C0290916D02449739F493
:100E100080916E0290916F02419709F43BC6209138
:100E200076022223B1F1F7018281882349F1CF3B79
:100E3000FDE5DF0709F443C3C932D10511F40C9471
:100E40002B10C63B2DE5D20729F48DE092E00E94DD
:100E5000352C03C08C2F0E945B2080E192E00E9421
:100E6000352CC63B4DE5D40711F40C942B108C2F78
:100E70000E945B208BE192E00E94352C0C942B1099
:100E8000CF3B5DE5D50709F41AC3109276020C94A6
:100E90002B10CC3B8DE5D80709F4B8C108F045C04C
:100EA000C43BEDE5DE0709F46FC120F5C03140E435
:100EB000D40709F4B8C088F4F7019281C430F0E493
:100EC000DF0709F4DDC0CF3040E4D40709F48CC05B
:100ED000C53AD10509F067C073C0C23B5DE5D507CF
:100EE00009F45AC108F068C1C13190E4D90709F486
:100EF00089C059C0C83BEDE5DE0709F477C140F46D
:100F0000C63B2DE5D20709F464C108F458C169C194
:100F1000CA3B5DE5D50709F432C1F7018281CB3BBD
:100F2000FDE5DF0708F46AC1D1C0F7018281CD3C3D
:100F3000FDE5DF0709F45FC2E8F4C93C4DE5D407DD
:100F400009F4BBC078F4C03C9DE5D90709F4C3C2DD
:100F5000C63CEDE5DE0709F406C1CF3BFDE5DF0742
:100F600011F5ADC2CB3C2DE5D20709F49EC108F4C2
:100F700055C164C2C13D5DE5D50709F4B6C140F471
:100F8000CF3CEDE5DE0709F4D3C108F414C2F3C188
:100F9000C33D2DE5D20709F4AEC208F472C2C43DC8
:100FA0005DE5D50711F081E0A7C2882329F082EE24
:100FB0000E940B2E89E088C289E00E946A1F84C0CB
:100FC000992311F40C942B108091A9029091AA02FC
:100FD000009739F033E0969587953A95E1F7282FF9
:100FE00021702093750287C2992309F484C2F70106
:100FF000858182958F7011F080E57BC262E370E09D
:101000008CEA0EC0F7018281882309F474C28581BD
:1010100082958F7011F08FE46CC262E370E08BEA0E
:101020000E94432068C2F7018281882309F463C2C9
:10103000858182958F70A1F082EE0E940B2E81EE49
:101040000E940B2E80EE0E940B2E80E10E945B20FE
:1010500080EE0E94E01F81EE0E94E01F82EE0DC034
:1010600080EE0E940B2E83EE0E940B2E80E50E94E4
:101070005B2083EE0E94E01F80EE0E94E01FEBC722
:10108000992309F438C2F701858182958F7039F070
:1010900082EE0E940B2E85E10E945B2015C080EE3F
:1010A0000E940B2E83EE0E940B2E8FE40E945B2089
:1010B00083EE0E94E01F80EEFFC1882329F082EEBC
:1010C0000E940B2E80EC15C282EEF6C1882339F106
:1010D00080917402882381F0809172029091730252
:1010E0000E945228883C910538F488E20E940B2E19
:1010F00081E0809371020CC08091DF028095817045
:101100008093700280EE0E940B2E85E00E947C1F6F
:101110000E946D289093730280937202ECC188E262
:101120000E94E01F80917002882319F080EE0E94D7
:10113000E01F85E00E946A1F80917102811110C03A
:1011400080917402882361F0809172029091730201
:101150000E945228883C910518F488E20E945B2086
:1011600010927102C8C1882329F081EE0E940B2ED3
:101170008BE0AAC181EE0E94E01F8BE0A9C140E094
:1011800050E063E370E046C0F7018281882311F0EC
:1011900088E337C088E390C1F7018281882339F062
:1011A00081EE0E940B2EC7010E94BE14A4C1C7018C
:1011B0000E94BE1481EE80C148E150E014C0F701E6
:1011C0008281882309F497C185E192E00E94352C41
:1011D00092C1F701828181118EC181E080937602F4
:1011E0008AC14CE250E06FE270E004C04CE250E093
:1011F00060E370E0C7010E94CC237DC1882321F009
:101200008FE20E940B2E77C18FE256C145E350E07A
:1012100066EE70E0C7010E949B236DC1882309F42C
:101220006AC180EE0E940B2E81EE0E940B2E8CE292
:101230000E940B2E8CE20E94E01F80EE0E94E01FB5
:1012400081EE0E94E01F80EE0E940B2E89E10E9439
:101250000B2E89E10E94E01F80EE0E94E01F80EECD
:101260000E940B2E80E50E940B2E80E50E94E01F5D
:1012700080EE0E94E01F80EE0E940B2E8AE20E9408
:101280000B2E8AE20E94E01F80EE0E94E01FFFEF1B
:1012900024E34CE0F15020404040E1F700C0000062
:1012A00088E20E940B2E88E207C1882309F423C13B
:1012B00083EE0E940B2E8DE10E945B2083EE0E9444
:1012C000E01F5FEF81EE94E0515080409040E1F7E5
:1012D00000C0000083E20E945B20EFEFF1EE24E00B
:1012E000E150F0402040E1F7A5C0882309F403C194
:1012F00083EE0E940B2E8DE10E945B2083EE0E9404
:10130000E01F4FEF51EE84E0415050408040E1F744
:1013100000C0000082E20E945B209FEFE1EEF4E05B
:101320009150E040F040E1F700C0000080E2E1C0F1
:10133000882309F4E0C083EE0E940B2E8DE10E9409
:101340005B2083EE0E94E01F2FEF41EE54E021501E
:1013500040405040E1F700C0000082E20E945B2064
:101360008FEF91EEE4E081509040E040E1F700C063
:10137000000081E2BEC0882309F4BDC083EE0E9454
:101380000B2E8DE10E945B2083EE0E94E01FFFEF99
:1013900021EE44E0F15020404040E1F700C0000061
:1013A00082E20E945B205FEF81EE94E0515080402A
:1013B0009040E1F762C0882309F49DC083EE0E944B
:1013C0000B2E8DE10E945B2083EE0E94E01FEFEF69
:1013D000F1EE24E0E150F0402040E1F700C00000D1
:1013E00082E20E945B204FEF51EE84E0415050407A
:1013F0008040E1F71FC0882309F47DC083EE0E947E
:101400000B2E8DE10E945B2083EE0E94E01F9FEF78
:10141000E1EEF4E09150E040F040E1F700C0000060
:101420008EE10E945B202FEF41EE54E021504040BE
:101430005040E1F700C000008FE15BC0882309F451
:101440005AC083EE0E940B2E8DE10E945B2083EE3A
:101450000E94E01F8FEF91EEE4E081509040E04069
:10146000E1F700C000008EE10E945B20FFEF21EE5B
:1014700044E0F15020404040E1F700C000008EE120
:1014800038C08823C1F183EE0E940B2E82EE0E94A9
:101490000B2E81E50E945B205FEF81EE94E05150BE
:1014A00080409040E1F700C0000081E50E945B2091
:1014B00082EE0E94E01F83EE0E94E01F1CC0F70135
:1014C0008281882321F082E00E947C1F14C082E088
:1014D0000E946A1F10C0882311F083E0F5CF83E0DB
:1014E0000E946A1F80917502882329F0109275026C
:1014F00085EA0E945B2080E0F7019281992329F11F
:1015000091E0CB3BFDE5DF0709F090E0909374029A
:10151000882309F4A0C5C43E2CE5D207E1F050F4BD
:10152000C23E5CE5D507A1F0C33E8CE5D807E1F4E7
:1015300081E016C0C63E9CE5D90789F070F0C13B3A
:10154000FDE5DF0789F485E00BC081110DC083C57F
:101550001092FE0307C082E003C083E001C084E074
:101560008093FE030E94902CD7FFCEC0F7018281AA
:10157000882309F4C9C00E94F5288695817080935C
:1015800079020E94F5288170809378028091FE0391
:10159000813039F480917902882319F089E30E941F
:1015A0005B208091DF02809377021092DF0210921D
:1015B00004048091FE03823019F148F48823E1F09D
:1015C0008130C9F560E070E088E193E032C084309A
:1015D00049F1853081F560E070E08BE191E00E9497
:1015E000432360E070E085E290E00E94432360E0E6
:1015F00070E088E290E01DC082EE0E940B2E1BC0BE
:1016000080917802811103C083E50E945B2082EE05
:101610000E940B2E8FE39CE90197F1F700C00000B8
:1016200087E504C086EE0E945B2088E10E945B2073
:1016300002C00E944323EFE3FCE93197F1F700C0B9
:1016400000006E01E894D7F80CE010E02AE0A22E2A
:10165000B12CC601002E02C0969587950A94E2F738
:101660008F709091FE03923069F48A3038F490E0E4
:101670000996B5010E941C31875A01C086500E940C
:101680005B2009C096EF980F963010F0805D01C086
:10169000895A0E94D82B045011090C3FFFEF1F07F5
:1016A000C1F68091FE038230F1F028F4882371F0B6
:1016B000813081F025C0843009F1853009F560E082
:1016C00070E088E290E00E9443231AC082EE0E94FC
:1016D000E01F16C08CE20E945B2080917902882373
:1016E00079F089E308C082EE0E94E01F80917802C1
:1016F000811106C083E50E945B2002C088E2FBCF17
:10170000809177028093DF02C43F2CE5D20741F13C
:1017100090F4C93D5CE5D507E9F0CA3D8CE5D807F2
:1017200089F1C83D9CE5D907B1F506E221EE41EE0D
:1017300068ED7CE52CC0C63FECE5DE07E9F0B0F0D3
:10174000C73F2CE5D20739F507E225EE46EE67EFF5
:101750007CE51DC007E225EE45EE69ED7CE517C08E
:1017600006E221EE40EE64EF7CE511C007E225EED3
:1017700044EE65EF7CE50BC006E221EE42EE66EF3B
:101780007CE505C008E221E045EE6AED7CE5C70195
:101790000E94062960C4F7018281882309F4A4C14C
:1017A0001092E203C430FDE5DF0758F4CB3F2CE58F
:1017B000D207C0F4CE0182509C45449708F07EC108
:1017C00011C0C63A4DE5D40769F030F4C2368DE554
:1017D000D80709F073C106C0CE018E5A9D45039704
:1017E00008F06CC10E94131D9093AC028093AB0271
:1017F000C2319CE5D90709F405C108F04BC0C930D6
:10180000FCE5DF0709F4D2C000F5C5304CE5D4078C
:1018100009F4B9C078F4C3308CE5D80709F4AAC03C
:1018200008F0AEC0C230DC4509F024C18091AB02A3
:101830008160A3C0C730FCE5DF0709F4AFC008F042
:10184000B1C08091AB02806198C0CD304CE5D40727
:1018500009F4C2C058F4CB308CE5D80709F4B0C005
:1018600008F0B6C08091AB028860A6C0CF30ECE52E
:10187000DE0709F4BFC008F4B2C0C0312CE5D207BE
:1018800009F4BCC0C131DC4509F0F4C08091AB0261
:101890008F7B73C0C1155DE5D50709F4BEC088F51F
:1018A000CB3F9CE5D90709F472C0B8F4C431FCE51C
:1018B000DF0709F4C1C008F4ABC0C531DC4509F04D
:1018C000D9C08091AB0282FB222720F991E09227B8
:1018D00090FB82F990FB83F950C0CD3F5CE5D507C2
:1018E00009F481C008F456C0CE3F9CE5D90709F43D
:1018F0007DC0CF3FDC4509F0BDC08091AC02826065
:101900005DC0C236FDE5DF0709F4A8C068F4C23047
:101910004DE5D40709F49CC008F484C0C330DD450C
:1019200009F0A8C060E095C0CE3A9DE5D907F1F076
:1019300058F4C63ADD4509F09DC08091AB02982F5E
:10194000909590FB80F919C0CF3A2DE5D207E1F1CF
:10195000C03BDD4509F08EC08091AC0283FB22279D
:1019600020F991E0922790FB83F982C08091AC022C
:1019700088607EC08091AB0282608093AB027AC0A7
:101980008091AB0219C08091AB028860F6CF809144
:10199000AC0214C08091AC0282606AC08091AB023C
:1019A0008062EBCF8091AB028064E7CF0E94AE1FD4
:1019B0008091AB028068E1CF8460DFCF816058C046
:1019C0008091AB028E7FD9CF8091AC02877F50C0CF
:1019D0008091AB028D7FD1CF8091AB021CC08091F2
:1019E000AB02877FCACF8091AC021AC08091AC0253
:1019F0008D7F3EC08091AB028F7EBFCF8091AB02C6
:101A00008F7DBBCF0E94AE1F8091AB028F77B5CF89
:101A10008091AB02877F8B7FB0CF8091AC028D7FAE
:101A20008E7F26C08091AC02982F909591708E7F0A
:101A3000892B90FB81F91CC00E94AE1F8091AB02E4
:101A400087FB222720F991E0922790FB87F995CF19
:101A500061E08EE090E00E94E8300CC08091AB0223
:101A600084FB222720F991E0922790FB84F985CF0F
:101A70008093AC026091AB02C091AC0284E090E034
:101A80000E94E8306C2F82E290E00E94E8300E94D1
:101A9000AE1FE1C260E070E08AE20E94432060E095
:101AA00070E08AE20E94432060E070E08AE20E94D7
:101AB00043208DE192E00E94352CB1C9C631FCE58E
:101AC000DF0711F58091DF028A7A91E009F490E056
:101AD00090937A02882311F065E301C069E280EEF9
:101AE00092E00E94AF280DC0C631DC45C1F580915F
:101AF0007A02882309F4BFC265E380EE92E00E9477
:101B0000A2280E94991DA7C2CB355DE5D50711F12A
:101B100050F4C1159CE5D90779F0CF3DDC45F9F4C7
:101B20000E94241D0CC0CD35FDE5DF0759F0A0F063
:101B3000C83ADD4521F013C00E9427238CC20E94C1
:101B4000112389C28091AC0282FB882780F991E041
:101B5000892703C081E001C080E00E94F21DF701E7
:101B6000868197810097B9F4F7018281C081D18184
:101B7000882349F0CE010E94B91E182F682FCE018C
:101B80000E942D1F04C0CE010E94FA1E182FBE0114
:101B9000812F0E945E1B0E94771BEC01F7010281DE
:101BA000D580D2949FE0D922809132038770B9F01A
:101BB0000023A9F08D2F807F803421F080E28C0FEC
:101BC000883068F08091AC0282FF09C082E00E94F8
:101BD000D51D809132038770CC24C3948111C12C10
:101BE000BD2EB2948FE0B8228B2D90E08C30910501
:101BF00008F0F6C1FC01EA5AFF4F0C9430311D2F5A
:101C00001F708D2F807F11F01295107F0023B9F087
:101C1000112309F4D2C180E28C0F883010F0C11179
:101C200006C08091DF02182B1093DF0205C080915F
:101C30000404182B109304040E94991DBEC18C2F1C
:101C40000E94E01F112309F4CBC180E28C0F883081
:101C500078F1CC2369F11095809104041823109336
:101C6000040429C01D2F1F708D2F807F803211F03A
:101C70001295107FCC2319F0C130D9F149C0809161
:101C8000AC0282FD1BC0002369F0112339F0809162
:101C9000DF02182B1093DF020E94991D80E00E9442
:101CA0000B2E9EC180E00E94E01F112309F498C111
:101CB000812F0E94921D0E94991D92C1002381F0E4
:101CC00080913B03DD2051F0F1E0DF1207C0182BBB
:101CD000181709F485C110933B0382C1812B10C0F2
:101CE000DD2021F021E0D21609F47AC10E948C1D7A
:101CF00027C0002341F042E04D1508F471C1812F47
:101D00000E94D61F6DC151E05D1508F469C118C06D
:101D1000002349F0DD2099F3F701858180FF4DC153
:101D20008F708583ECCFDD2059F0C93309F055C1A0
:101D3000FFEF27EE43E0F15020404040E1F74BC178
:101D4000812F0E94CF1F4CC18D2F86958695837061
:101D500019F0813059F044C1002319F0CE0193707D
:101D600002C080E090E00E94DF2840C1002319F00B
:101D7000CE01937002C080E090E00E94C92836C175
:101D80008C2F002319F00E94B02D02C00E94C12C9C
:101D90000E94972C2BC18D2F837009F042C0011136
:101DA00023C13C2F329536953770330F330F8C2F6C
:101DB0008F7090E0032E02C0880F991F0A94E2F7FB
:101DC000C4FF0BC04FE050E002C0440F551F3A95CE
:101DD000E2F79A012095309502C020E030E04D2FC7
:101DE000469546954370423099F068F460913C0303
:101DF00070913D03413029F0822B932B862397234A
:101E000004C0862B972B822B932B0E948C1FECC037
:101E1000822B932B20913C0330913D038227932703
:101E2000F4CF002319F08D2F817001C0869588238F
:101E300009F4DAC03C2F329536953770330F330FE3
:101E40008C2F8F7090E0032E02C0880F991F0A9488
:101E5000E2F7C4FF0BC04FE050E002C0440F551F33
:101E60003A95E2F79A012095309502C020E030E0E3
:101E70004D2F469546954370423079F0B8F4609105
:101E8000A9027091AA02413029F0822B932B86235C
:101E900097230EC0862B972B09C0822B932B209162
:101EA000A9023091AA028227932702C0822B932B8A
:101EB0000E94611F99C01D2F1F70002339F0812FD0
:101EC0000E947C1F8C2F0E94D61F8EC08C2F0E94D8
:101ED000CF1F812F0E946A1F87C0C23F79F128F46B
:101EE000C03F41F0C13F29F163C0C33F71F1C43F1E
:101EF000E1F05EC00023A1F051E05D1508F470C070
:101F00002D2F2F7181E090E002C0880F991F2A9534
:101F1000E2F72091A9023091AA028227932725C0D7
:101F200082E08D1508F45CC0EBCF8091AC0282FD9D
:101F30001FC0002329F08D2F8F712DC00023D9F3EE
:101F40008D2F8F710E946A1F4BC0002361F021E02A
:101F500030E09D2F9F71F90102C0EE0FFF1F9A958F
:101F6000E2F7CF0102C080E090E00E94611F38C01C
:101F70000023A1F01D2F1F71812F0E947C1F8091D3
:101F8000AC0282FF07C0F8E01F9FC00111248360EC
:101F900080933203812F0E947C1F22C081E00E9427
:101FA000D51D21E02D15E0F482E00E94D51D18C05A
:101FB000002329F0DD2009F4BECF8C2F70CEDD2068
:101FC00009F4BECFC93349F44FEF57EE83E04150D7
:101FD00050408040E1F700C000008C2F0E94E01FBD
:101FE00088EF8B0D843010F40E94F528CE010E94FA
:101FF000931F882381F0002319F0D1100CC00FC06B
:10200000D11009C020E0F7014081518162817381C4
:1020100084810E94E02210927C0210927B02CC20EC
:10202000A9F08091320380FD11C0F70112828595DD
:10203000859585950E947C1FC7010E94B4068091FA
:1020400032038595859585950E946A1F60E0C701DA
:102050000E94032312C080913203877071F0F70150
:102060008281882351F08091AC0282FF06C082E019
:102070000E94D51D02C069E240CDCDB7DEB7EAE0CF
:102080000C94C730A4E0B0E0E8E4F0E10C94B13087
:102090004091920250919302609194027091950246
:1020A0002FB7F8948091EA039091EB03A091EC0391
:1020B000B091ED032FBF841B950BA60BB70B843695
:1020C0009105A105B10508F441C00E94BC198823FF
:1020D00019F00E9461280EC00E94612800919702A9
:1020E000109198022091990230919A02600F711F0D
:1020F000821F931FDC01CB010296A11DB11D8983B4
:102100009A83AB83BC83809112019091130189570C
:102110009D4F4091110150E04530510510F044E0D1
:1021200050E0BE016F5F7F4F0E94573182E090E028
:102130000E942830882359F00E94612860939202FF
:1021400070939302809394029093950281E0249679
:10215000E4E00C94CD30EF92FF921F93CF93DF9386
:10216000CDB7DEB727970FB6F894DEBF0FBECDBF51
:102170007B0180E090E00E942830882309F463C04E
:102180004091040150E04115510511F041E050E04B
:10219000609105017091060169577D4FCE01079648
:1021A0000E945731409183025091840260918502D0
:1021B000709186022FB7F8948091EA039091EB0317
:1021C000A091EC03B091ED032FBF841B950BA60BE0
:1021D000B70B84369105A105B10538F488E892E083
:1021E0000E94DF149F81891781F181E090E00E94B5
:1021F0002830182F882391F040910C0150E047308F
:10220000510510F046E050E060910D0170910E0113
:1022100069577D4FCE0101960E94573188E892E0C0
:102220000E94DF1491E02F81281390E0192311F10F
:102230000E946128609383027093840280938502D8
:10224000909386020CC010E001C011E086E0E8E83F
:10225000F2E0DE01119601900D928A95E1F71123CB
:1022600049F086E0FE013196ADE7B2E001900D92B3
:102270008A95E1F786E0EDE7F2E0D70101900D9253
:102280008A95E1F7812F27960FB6F894DEBF0FBE2F
:10229000CDBFDF91CF911F91FF90EF900895A0E106
:1022A000B0E0E5E5F1E10C94A53085B7806885BF25
:1022B00085B7806885BF84B7877F84BF0FB6F894E1
:1022C000A895809160008861809360001092600002
:1022D0000FBE90E080E80FB6F89480936100909371
:1022E00061000FBE87E799E19093670280936602D1
:1022F0000E9426180E9445188091E2008460809315
:10230000E20078948091D5028823A1F01091E90031
:102310001F709091EC00892F817090FD80E8182B40
:102320001092E9008091E80083FD0E9420151F7043
:102330001093E90082E084BD93E095BD9AEF97BDCC
:1023400080936E0010929702109298021092990258
:1023500010929A020E94BC19809319010E94BC1924
:1023600081110E943D2F80911901809119018111E5
:1023700002C096E001C090E09093A80286E0891B1D
:102380008093A70209E212E0D8018D918D018F3F61
:1023900011F00E94DF19B2E00F321B07A9F70FE21C
:1023A00012E0F80181918F018F3F11F00E94DF1937
:1023B000F2E005331F07A9F78CE0EFEAF2E0DF0156
:1023C000282F1D922A95E9F7EBE9F2E0DF011D9233
:1023D0008A95E9F780E090E00E94E230883E9E4FC7
:1023E00011F00E94241D82E090E00E94DA30809378
:1023F000DB030E94131D9093AC028093AB0283E039
:1024000090E00E94DA3090E00E948C1F8CE090E017
:102410000E94DA3090E0A0E0B0E08093FE03909359
:10242000FF03A0930004B09301040E94BC19811122
:1024300002C00E94402F8AE191E09093E6038093CE
:10244000E50308E110E040E4E42EFF24F3948091DA
:10245000D502853009F042C020E1C22E32E1D32EF0
:102460008091D502853009F035C08091D502843045
:1024700009F11092E9030FB6F894A8950093600053
:102480000FBEE092600083B7817F846083BF83B713
:10249000816083BF7894889583B78E7F83BF0FB6A2
:1024A000F894A895809160008861809360001092F4
:1024B00060000FBE8091D402882391F20E94F61929
:1024C000EFEAF2E081918111ACC122E0EB3BF2072F
:1024D000C9F7C6CF0E94AE1F0E94F5280E94F619C8
:1024E0008BEBA82E82E0B82E9FEA892E92E0992EDF
:1024F000D401F50191918D91892732E0E73CF307F2
:1025000019F08823B9F322C0811120C00E946D28E0
:102510006C018091AD029091AE02C816D90609F403
:102520004CC08FEF8F83888719860E946D28816049
:10253000782F9B878A874F81588569858B850E9474
:10254000A324D092AE02C092AD0237C00E94BC1943
:10255000482ED12CD4015D904D01F5016080652499
:1025600019F1C12C77247394862D8721B1F0442072
:10257000A1F0CC86DD8691E0852D872109F490E0DD
:102580009E870E946D288160782F988B8F874C855D
:102590005D856E8588890E94A324C394770CF6E03C
:1025A000CF12E2CFD5015C92D394BFEFAB1ABB0A36
:1025B000ECE0DE12CFCF0E9461280E94BC19882374
:1025C00061F180910702882341F18091D8039091B5
:1025D000D903009711F10E945228209102043091F2
:1025E000030428173907C8F49091D6038091D703C4
:1025F000981759F00E94AB2A10920304109202041B
:102600001092D9031092D80308C00E94712B109227
:10261000D9031092D8030E94C72B86E0E8EFF3E0BD
:10262000DE01119601900D928A95E1F71092FA035E
:102630001092FB031092FC031092FD038B81811119
:1026400004C08C81882309F45DC08091F6039091C9
:10265000F7030E945228AC019091F203992339F0BC
:1026600020910C0230E02417350758F04BC0209120
:10267000DC03FAE02F9F900111242417350718F08E
:1026800041C09F3F19F09F5F9093F203DB80DD20F4
:1026900061F00E94712D1D1414F09FEF01C091E0B4
:1026A000899F802D11248093FA03DC80DD2061F066
:1026B0000E94712D1D1414F09FEF01C091E0899FBD
:1026C000802D11248093FB033091FA033323D1F042
:1026D0002091FB032223B1F045EB3403C001112408
:1026E000992319F09093FA0302C0F092FA0335EBA4
:1026F0002303C0011124992319F09093FB0302C016
:10270000F092FB038D81811104C08E81882309F42E
:1027100051C08091F4039091F5030E9452289C01CE
:102720009091F103992309F492C02135310508F401
:1027300041C09F3F19F09F5F9093F103DD80DD2042
:1027400061F00E94382D1D1414F09FEF01C091E03C
:10275000899F802D11248093FC03DE80DD2061F0B1
:102760000E94382D1D1414F09FEF01C091E0899F45
:10277000802D11248093FD033091FC033323D1F08D
:102780002091FD032223B1F045EB3403C001112455
:10279000992319F09093FC0302C0F092FC0335EBEF
:1027A0002303C0011124992319F09093FD0302C063
:1027B000F092FD0346E050E0BE016F5F7F4F88EF6F
:1027C00093E00E944A31892BA9F48091FA03811188
:1027D0000FC08091FB0381110BC08091FC0381111C
:1027E00007C081E09091FD03911103C080E001C01A
:1027F00081E080FD0E94972C86E0FE013196A8EFD3
:10280000B3E001900D928A95E1F70E94F52890912E
:10281000C702891709F41BCE8093C7020E94612862
:1028200016CEC9BCD9BC09B400FEFDCF8091D8003A
:102830008F7D8093D8008091E00082608093E000DB
:102840008091E00081FDFCCF0E94AE1F09CE232BBA
:1028500009F071CFAFCFA0E0B0E0E1E3F4E10C9478
:10286000AB307C015B016A01809196028A3018F0DE
:1028700001E010E002C00AE010E0C1E0D0E0B501E4
:10288000C701F6010995811115C021960C171D0786
:1028900094F0CC9F9001CD9F300D300D112480E03D
:1028A00090E045E34A95F1F70000019682179307FF
:1028B000C1F7E5CF81E0CDB7DEB7EAE00C94C730D1
:1028C000FF920F931F93CF93DF938C018AE0F82E32
:1028D000F8018491882309F44CC0813009F042C08A
:1028E000E8012196FE018491813031F42196FE01A8
:1028F00084910E945B2039C0823039F4E80122962D
:10290000FE0184910E940B2E30C0833039F4E8011F
:102910002296FE0184910E94E01F27C0843029F591
:10292000E8012296FE01249180E090E030E02053FF
:1029300031092A30310560F4F89EA001F99E500D4E
:102940001124C901840F951F2196FE012491EECF19
:10295000009759F0EFE9FFE03197F1F700C0000070
:102960000197F6CF0E94D82BE8018E010F5F1F4F11
:10297000AFCFCDB7DEB7E5E00C94CC300F931F930B
:10298000CF938C018091DF02C82FC17080FF03C0FC
:1029900080EE0E94E01FF8018281882321F08FE2FF
:1029A0000E940B2E03C08FE20E94E01FCC2319F07F
:1029B00080EE0E940B2ECF911F910F910895FC0184
:1029C000AC014A5F5F4F8FEF91E32191822728E0AE
:1029D00030E087FF03C0880F892701C0880F21508E
:1029E0003109B9F7E417F50781F70895EF92FF92DF
:1029F0000F931F93CF93DF937C018B010E94472796
:102A0000811119C0E70101151105A1F08091E800BD
:102A100085FD0AC08091E8008E778093E8000E94CF
:102A20004727882381F307C089918093F1000150E3
:102A30001109E9CF80E0CDB7DEB7E6E00C94CB30EA
:102A4000AAE2B0E0E6E2F5E10C94B230E7EDF2E0A4
:102A50008FED92E02091F10021938E179F07D1F71F
:102A60008091D802833009F461C030F4813071F074
:102A7000823009F49BC0B2C08A3009F487C08B3021
:102A800009F46CC0893009F0A9C020C08091D70238
:102A9000813A09F0A3C08091E800877F8093E80025
:102AA0008091DB029091DC02892B21F468E08BECB1
:102AB00092E003C060E080E090E070E00E94CE27EA
:102AC0008091E8008B778093E80088C08091D702DE
:102AD000813209F083C08091DB029091DC02029781
:102AE00008F07CC08091E800877F8093E8008091A7
:102AF000E80082FD05C08091D5028111F8CF6EC03B
:102B00002091F3008091F20090E0922B029731F433
:102B10008091F100813011F0863021F48091F10034
:102B20008093CA028091E8008B7754C08091D702CD
:102B3000813A09F053C08091DB029091DC02892B2D
:102B400009F04CC08091E800877F8093E800809175
:102B5000E80080FFFCCF8091260137C08091D7022A
:102B60008132E1F58091DB029091DC02892BB1F595
:102B70008091E800877F8093E8000E947A27809107
:102B8000D902809326010E94AE1F28C08091D702EF
:102B9000813221F58091E800877F8093E8000E94D0
:102BA0007A278091DA028093C90218C08091D702F7
:102BB000813AA1F48091E800877F8093E8008091BA
:102BC000E80080FFFCCF8091C9028093F1008091E2
:102BD000E8008E778093E8000E947A278091E800D1
:102BE00083FFCEC18091D7029091D802492F50E047
:102BF0004A30510508F0C4C1FA01EE59FF4F0C9458
:102C00003031803821F0823809F0BAC108C0809193
:102C1000D3029091D402992389F082600FC08091F1
:102C2000DB028F70873008F0ABC18093E9008091A0
:102C3000EB0085FB882780F91092E9009091E8006D
:102C4000977F9093E8008093F1001092F10065C1A6
:102C5000282F2D7F09F094C1882319F0823061F06C
:102C60008FC18091D902813009F08AC1933009F077
:102C700080E08093D4022EC08091D90281112AC0B5
:102C80008091DB028F702FEF280F263008F078C17B
:102C90008093E9002091EB0020FF1CC0933021F4C9
:102CA0008091EB00806214C09091EB009061909352
:102CB000EB0021E030E0A90102C0440F551F8A95C6
:102CC000E2F74093EA001092EA008091EB008860FE
:102CD0008093EB001092E9008091E800877F20C18B
:102CE00081114EC11091D9021F778091E300807845
:102CF000812B8093E3008091E800877F8093E80038
:102D00000E947A278091E80080FFFCCF8091E30049
:102D100080688093E300111102C082E001C083E06B
:102D20008093D5022DC18058823008F029C180914E
:102D3000D9029091DA028C3D53E0950779F583E052
:102D40008A838AE289834FB7F894DE01139620E0E4
:102D50003EE051E2E32FF0E050935700E49120FF72
:102D600003C0E295EF703F5FEF708E2F90E0EA3086
:102D700010F0C79601C0C0968D939D932F5F2431AC
:102D800049F74FBF8091E800877F8093E8006AE2AF
:102D900070E0CE0101960E94CE27AEC04091DB02CA
:102DA0005091DC02292F332723303105A9F068F434
:102DB0002130310509F4F3C02230310509F0E0C0BB
:102DC0008BE390E0E3EDF1E044C02132310521F1E5
:102DD0002232310571F1D4C0992781309105A1F0DB
:102DE00058F0029709F0CCC0E0E2F2E0E4918E2FB7
:102DF00090E0E0E2F2E02AC0EEE5F2E0E4918E2F0E
:102E000090E0EEE5F2E022C0EEE4F2E0E4918E2FF5
:102E100090E0EEE4F2E01AC04115510509F4C4C097
:102E20004130510509F0ACC089E090E0EEEFF1E0EF
:102E300010C04115510509F4BCC04130510509F0DD
:102E40009FC08BE790E0E8E1F1E003C0009709F450
:102E500097C02091E800277F2093E8002091DD02B1
:102E60003091DE028217930708F49C0140E021159F
:102E7000310589F18091D502882309F43DC0853060
:102E8000D9F18091E80083FD37C08091E80082FD90
:102E90002FC08091E80080FFEACF4091F30080913D
:102EA000F20090E0942B2115310559F088309105FE
:102EB00040F444914093F10031962150310901963C
:102EC000F2CF41E0089709F040E08091E8008E776A
:102ED0008093E800CCCF4111CDCF0AC08091D502BC
:102EE000882351F0853041F08091E80083FD04C0D3
:102EF0008091E80082FFF2CF8091E8008B77809389
:102F0000E8003EC08038E1F58091E800877F80933B
:102F1000E8008091D6028093F1008091E8008E77DE
:102F20008093E8000E947A272BC0811129C08091EC
:102F3000D9029091DA029927029714F58091E8005E
:102F4000877F8093E8001091D9021093D6020E94E7
:102F50007A27111106C08091E30087FD02C081E04D
:102F600001C084E08093D50242E061EC81E00E94E0
:102F7000992742E261EC82E00E9499278091D50274
:102F80008091E80083FF1AC08091E800877F8093DA
:102F9000E8008091EB0080628093EB000FC082E13B
:102FA00090E0EEE0F2E055CF89E090E0E5EEF1E070
:102FB00050CF80E490E0E3E9F1E04BCFAA96E3E064
:102FC0000C94CE301F920F920FB60F9211242F93B4
:102FD0003F934F935F936F937F938F939F93AF93A1
:102FE000BF93CF93DF93EF93FF93C091E900CF702E
:102FF0008091EC00D82FD17080FDD0E81092E900CC
:103000008091F000877F8093F00078940E942015D3
:103010001092E9008091F00088608093F000CD2B41
:10302000CF70C093E900FF91EF91DF91CF91BF91F5
:10303000AF919F918F917F916F915F914F913F9150
:103040002F910F900FBE0F901F901895E8EDF0E0B4
:1030500080818E7F80831092E2001092DA001092BD
:10306000E100A0EEB0E08C9181608C9380818F773D
:10307000808319BCA7EDB0E08C918E7F8C9380810A
:103080008F7E80831092C8020895A0E0B0E0EBE448
:10309000F8E10C94AD30C8EDD0E088818F7E888354
:1030A000E7EDF0E080818160808384E082BF81E091
:1030B0008093C80288818E7F888302EE10E0F80139
:1030C00010821092DA0081EEC82ED12CF601108207
:1030D00088818F77888388818068888388818F7DC5
:1030E000888319BC1092D5021092D6021092D40295
:1030F0001092D30290EEE92EF12CF70180818B7FA4
:10310000808388818160888342E060E080E00E9463
:103110009927F60180818E7F8083F801808181600C
:103120008083808188608083F70180818E7F8083A7
:10313000888180618883CDB7DEB7E8E00C94C93020
:103140001F920F920FB60F9211242F933F934F931C
:103150005F936F937F938F939F93AF93BF93EF93FF
:10316000FF938091E10082FF09C08091E20082FF1D
:1031700005C08091E1008B7F8093E1008091DA00AF
:1031800080FF2AC08091D80080FF26C08091DA009D
:103190008E7F8093DA008091D90080FF18C080E193
:1031A00089BD82E189BD09B400FEFDCF81E0809335
:1031B000D5028091C80281110FC00E9426180E947A
:1031C00045188091E20084608093E20005C019BC3C
:1031D0001092D5021092C8028091E10080FF17C0C2
:1031E0008091E20080FF13C08091E2008E7F809387
:1031F000E2008091E20080618093E2008091D8003B
:1032000080628093D80019BC85E08093D5028091BC
:10321000E10084FF30C08091E20084FF2CC080E197
:1032200089BD82E189BD09B400FEFDCF8091D8003F
:103230008F7D8093D8008091E1008F7E8093E100A4
:103240008091E2008F7E8093E2008091E2008160B5
:103250008093E2008091D602882311F084E007C0B9
:103260008091E30087FD02C081E001C083E080938C
:10327000D5028091D5028091E10083FF27C0809123
:10328000E20083FF23C08091E100877F8093E1000B
:1032900082E08093D5021092D6028091E1008E7F69
:1032A0008093E1008091E2008E7F8093E200809124
:1032B000E20080618093E20042E060E080E00E94F2
:1032C00099278091F00088608093F000FF91EF9142
:1032D000BF91AF919F918F917F916F915F914F912E
:1032E0003F912F910F900FBE0F901F90189580E087
:1032F00008959091AB0292FF0DC0282F28712830BD
:1033000019F4877F846006C0282F2471243011F4BB
:103310008B7F886093FF0DC0282F2871283119F406
:10332000877E846106C0282F2471243111F48B7E9E
:1033300088612091AC0220FF0DC0382F38713830E1
:1033400019F4877F816006C0382F3171313011F454
:103350008E7F886021FF0DC0282F2871283119F435
:10336000877E816106C0282F2171213111F48E7E64
:10337000886194FD877E089580914803811118C06B
:103380008091D80080618093D8008AE18A95F1F716
:1033900000C08091D90080FD02C082E001C081E0C0
:1033A00080934803823021F40E9426181092D5029F
:1033B00081E090914803913009F080E00895F894FD
:1033C000E82FE295EF70F0E031A1282F2F7081E017
:1033D00090E001C0880F2A95EAF7982F90959323E3
:1033E00091A392A1892B82A378940895A2E1B0E0E1
:1033F000ECEFF9E10C94A630AE014F5F5F4F7A011C
:103400008CE0DA011D928A95E9F709E212E06A017F
:103410008FE2682E82E0782EAA24A394B12C25E3B3
:10342000822E22E0922EF80180818F3F09F440C065
:10343000F894E82FE295EF70F0E021A18F70A501DC
:1034400002C0440F551F8A95E2F7CA01922F982BAC
:1034500091A392A18095892382A3789400C0EFE282
:10346000F2E0512C31E021912F3F89F0A22FA2955B
:10347000AF70B0E090968C9190E02F7002C095955F
:1034800087952A95E2F780FD02C0832F01C080E076
:10349000582A330F8E169F0631F7D8018C918F3F33
:1034A00011F00E94DF19B0EABA95F1F7F6015082E7
:1034B0000F5F1F4FFFEFCF1ADF0A6016710609F08A
:1034C000B2CF4CE050E0B7018BE992E00E944A3164
:1034D000009741F02CE0F701ABE9B2E001900D92CA
:1034E0002A95E1F70091A802892B49F081E08093A9
:1034F00040030E946D2890933F0380933E03809188
:103500004003811102C0F12C22C080913E039091B2
:103510003F030E9452280597B0F310E001551D4F5C
:1035200046E050E06BE972E0C8010E944A31892B05
:1035300059F086E0EBE9F2E0D80101900D928A950E
:10354000E1F7FF24F39401C0F12C109240030E9494
:10355000BC19E091A802882309F458C06E012DE03F
:10356000C20ED11C86E0D6011D928A95E9F70E2F76
:1035700010E001551D4F809196028A3048F44BEAC5
:1035800050E1B601C8010E942B14882399F00AC0AB
:1035900080914103909142030E945228843F9140C0
:1035A00070F71AC042E450E1B601C8010E942B1422
:1035B000811171C0809196028F3F19F08F5F8093C7
:1035C0009602809196028A3008F467C00E946D28A6
:1035D000909342038093410380914703882309F429
:1035E00054C086E0F60111928A95E9F710924703DC
:1035F000A091A702B0E0A155BD4F86E0FE013D9627
:1036000001900D928A95E1F781E040C0F0E0E1552C
:10361000FD4F86E0A8E8B2E001900D928A95E1F7AF
:1036200088E892E00E94DF148093870280908E02E7
:1036300090908F02A0909002B090910280914303ED
:1036400090914403A0914503B091460388169906D2
:10365000AA06BB06D1F08092430390924403A09245
:103660004503B09246030E94BC1981110EC00E940E
:103670006128861A970AA80AB90A8092970290923E
:103680009802A0929902B0929A0280E08F296296E5
:10369000EFE00C94C230109296028091A70290E065
:1036A00046E050E0B60181559D4F0E944A3121E02D
:1036B00020934703892B09F09BCFE7CF7C30A0F400
:1036C000663090F498E4899FF001112486E0789F99
:1036D000E00DF11D1124E60FF11DEE0FFF1FEE5955
:1036E000FD4F85919491089580E090E00895CF93E7
:1036F000DF938238910569F1B0F48133910509F4C3
:1037000077C048F48932910509F469C08A3291057D
:1037100009F473C092C08533910509F45BC0893305
:103720009105B9F08AC0833E910591F138F4803E4D
:103730009105D1F0823E910531F17FC0863E910521
:10374000D9F1873E9105E9F1843E910509F075C0F4
:1037500028C02091AB0220FD5BC021FD59C0209103
:10376000AC0223FD61C069C08091AB0280FD4AC0FC
:103770008091AC0280FF4CC08091AB0284FD4EC1B1
:1037800083EE90E04DC18091AB0282FF3EC0F4CF4A
:103790008091AB0282FD39C08091AC0280FD38C0BF
:1037A000EBCF8091AC0281FF39C08091AB0284FDE8
:1037B00035C187EE90E034C18091AB0283FF2BC00E
:1037C000F4CF8091AB0283FD26C08091AC0281FDD5
:1037D00025C0EBCF8091AB0285FD26C022C0809131
:1037E000AB0285FD1EC08091AC0283FF1DC00AC0E4
:1037F0008091AB0286FD1BC01DC08091AB0286FD8F
:1038000019C015C089E390E00BC182EE90E008C1B9
:1038100080EE90E005C186EE90E002C184EE90E07B
:10382000FFC085E390E0FCC089E290E0F9C08AE245
:1038300090E0F6C081E390E0F3C0811531E5930795
:1038400008F061C0811520E59207B0F09C0123705B
:10385000332741E050E002C0440F551F2A95E2F79C
:10386000282F2695269580E2289F90011124CA01D1
:10387000822B932B9D68D4C0883E910568F5803ECD
:10388000910508F0CDC0883A9105B8F4853A9105C4
:1038900048F0855AE82FF0E0EB5CFD4F808190E026
:1038A0009064BEC08130910509F4B5C008F4B6C07B
:1038B0008430910508F4B2C0B3C08F3B910508F085
:1038C000ADC0885AE82FF0E0EE0FFF1FE85CFD4F17
:1038D000808191819464A4C0811530E2930758F4EB
:1038E000811521E0920708F09BC08D3E910508F4F8
:1038F00095C0906595C0811530E4930708F48EC09B
:103900009F70906A8DC0811525E5920708F042C02E
:10391000811534E5930728F0982F8827846F906AE3
:103920007FC0811523E59207B0F09C0123703327F7
:1039300041E050E002C0440F551F2A95E2F7282FBE
:103940002695269580E2289F90011124CA01822B9A
:10395000932B9A6865C0811532E5930728F4982F58
:103960008827816F906A5CC09C012370332741E0F7
:1039700050E002C0440F551F2A95E2F7282F2695E4
:10398000269580E2289F90011124CA01822B932B57
:103990009C6846C0EC01C11589E5D807B0F4C11593
:1039A00028E5D20728F09C2F8827806F906A38C0BE
:1039B000C11536E5D30790F58C2F0E9479198F71C8
:1039C00090E0982F882790622BC0C1158AE5D80710
:1039D00090F48C2F8F700E94791994E0D695C7953A
:1039E0009A95E1F7CF70D0E0DC2FCC27D0699E010B
:1039F000282BC90115C0CE0190568115904270F454
:103A00008D2F8F710E947919282F2F71CE01992740
:103A10009062922B05C081E090E002C080E090E0CF
:103A2000DF91CF910895CF9384E090E00E94DA3047
:103A3000C82F82E290E00E94DA302C2F30E0A901FA
:103A4000582BCA01CF91089568EE7EEF80E090E098
:103A50000E94063160E082E090E00E94E83060E081
:103A600083E090E00E94E83010923D0310923C0306
:103A700060E084E090E00E94E83064E082E290E060
:103A80000E94E83060E085E090E00E94E83060E06D
:103A900086E090E00E94E8306FEF87E090E00E94BF
:103AA000E83040E050E0BA0188E090E00E94FA304F
:103AB00060E08DE090E00E94E83040E050E0BA0124
:103AC00088E190E00E94FA3060E087E190E00E9497
:103AD000E83040E050E0BA018CE190E00E94FA301A
:103AE00060E070E080E290E00E94063140E050E04B
:103AF000BA0188E190E00E94FA3040E050E0BA015B
:103B00008FE090E00E94FA3040E050E0BA0183E19B
:103B100090E00E94FA30089580913B038111109249
:103B20003B03089580959091DF0289238093DF0203
:103B300008959091DF0280910404982B9093E00205
:103B400080913B03882389F0892B8093E002E2EE89
:103B5000F2E097E080E0915029F021912223D9F3FF
:103B60008F5FF9CF81110E948C1D48E050E063E324
:103B700073E080EE92E00E944A31892BA9F088E040
:103B8000E0EEF2E0A3E3B3E001900D928A95E1F755
:103B9000E091E503F091E603309731F00280F38184
:103BA000E02D80EE92E009950895209132038095F2
:103BB000822380933203982F977099F430E0482F36
:103BC000082E000C550B2417350759F09091AC02C4
:103BD00092FF07C08595859585950E946A1F109272
:103BE00032030895CF93C091AC02C2FB992790F99C
:103BF000981791F080FBC2F9C093AC026091AB02C0
:103C000084E090E00E94E8306C2F82E290E00E9415
:103C1000E83082E00E94D51DCF91089520913103B4
:103C20009091F0022917B1F030E0F90153E0EE0F66
:103C3000FF1F5A95E1F7EF50FD4F5181561306C013
:103C40005081581303C05281541306C02F5F3F4F59
:103C50002770E8CF80E0089581E0089580913103D6
:103C60009091F002891719F08F5F8770FBCF08954C
:103C7000EF92FF920F931F93CF93DF938091ED020A
:103C800082958F7009F054C08091EA02882309F46C
:103C90004FC0C0913103E090F002D091E802F09063
:103CA000E9020091EB021091EC02CE1509F440C03C
:103CB000A8016F2D8D2F0E948D2A2C2F30E08111AD
:103CC00032C0F90183E0EE0FFF1F8A95E1F7DF01B3
:103CD000AF50BD4F11968C9111978F1124C08C91CC
:103CE0008D1321C012968C91129781111CC01396CE
:103CF0008D919C911497801B910B883C910598F4B1
:103D00008091ED028F7080618093ED02EA50FD4F4B
:103D100080818F708061808388EE92E00E94B4067B
:103D20000E942E1E05C02F5F3F4FC22FC770BDCF10
:103D3000CDB7DEB7E6E00C94CB3080E090E00E9497
:103D4000DF2880E090E00E94C928109204040E94BD
:103D5000991DE8EFF3E086E0DF011D928A95E9F70F
:103D60001092F2031092F1031092F3030E94972C29
:103D70000895A0E0B0E0EFEBFEE10C94AC307C01E4
:103D80000091A9021091AA0280913C0390913D03F9
:103D9000082B192BCFE0D0E0CC24C394D12CC60142
:103DA0000C2E02C0880F991F0A94E2F780239123FA
:103DB000892B21F4219798F7B12C09C0BC2EB701AB
:103DC0008C2F0E945E1B0E94771B019799F38B2D0D
:103DD000CDB7DEB7E9E00C94C830CF93DF93EC01A8
:103DE0000E94B91EBE010E945E1B0E94771BDF91DC
:103DF000CF9108959C3078F5863068F5E82FF0E093
:103E000086E0989FE00DF11D11249E2F977083E0AE
:103E1000F695E7958A95E1F7EE0FFF1FEE0FFF1F6E
:103E2000E75BFC4F40E050E080E0219130E0092E5C
:103E300002C0369527950A94E2F721703327042EA5
:103E400001C0220F0A94EAF7822B4F5F5F4F443084
:103E5000510559F7089580E008959C3088F5863023
:103E600078F5E82FF0E086E0989FE00DF11D112431
:103E70008E2F877051E001C0550F8A95EAF783E0D5
:103E8000F695E7958A95E1F7EE0FFF1FEE0FFF1FFE
:103E9000E75BFC4F20E030E070E04081CB01022E78
:103EA00002C0969587950A94E2F7817081958427E0
:103EB0008523842781932F5F3F4F2430310569F795
:103EC00008950E9488239093AA028093A9020E94D9
:103ED0009D1E089521E030E002C0220F331F8A9515
:103EE000E2F7209530958091A9029091AA02822351
:103EF00093230E94611F089521E030E002C0220F49
:103F0000331F8A95E2F78091A9029091AA02822B31
:103F1000932B0E94611F089590933D0380933C036F
:103F20000E949D1E089592959F70963079F010F42E
:103F3000925001C09A50923068F4803F69F018F4B2
:103F4000883E40F409C0843F29F406C0883E20F032
:103F5000813F11F080E0089581E008951092DF0222
:103F600086E0E2EEF2E0DF011D928A95E9F70E9419
:103F70009D1E0895882341F0809590910404892323
:103F8000809304040E94991D0895882339F090912C
:103F90000404892B809304040E94991D08958823AA
:103FA00021F00E94921D0E94991D0895882339F0E6
:103FB0009091DF02892B8093DF020E94991D089562
:103FC000882309F45FC0823869F40E94F52881FFD4
:103FD00059C069E380EE92E00E94AF280E94991DCB
:103FE00069E30EC0833899F40E94F52880FF4AC027
:103FF00063E580EE92E00E94AF280E94991D63E580
:1040000080EE92E00E94A2280E94991D08958438B3
:1040100069F40E94F52882FF35C067E480EE92E0E3
:104020000E94AF280E94991D67E4EACF9CEF980F89
:10403000913A10F4682FE4CF90E2980F983050F442
:10404000877091E001C0990F8A95EAF7892F0E9445
:10405000921DDACF9BE5980F933028F480E090E032
:104060000E94DF28089598E5980F973128F480E0A2
:1040700090E00E94C92808958D3E20F00E94C12C36
:104080000E94972C08951F93CF93DF93182FEB0175
:104090000E940B2E209741F08FE99FE00197F1F7E6
:1040A00000C000002197F6CF812F0E94E01FDF9112
:1040B000CF911F910895893319F060E070E002C03C
:1040C00060E570E00E9443200895CF93DF93EC01F8
:1040D0004B815C81698188810E948D2A81110EC08B
:1040E0008E819F81009719F00E94771B04C0888100
:1040F00099810E94ED1E0E94931F01C080E0DF9114
:10410000CF910895A5E1B0E0E8E8F0E20C94A43086
:104110008C0185E0F801DE01519601900D928A959F
:10412000E1F7D8011296EC9088EEA82E82E0B82E26
:104130005090E8024090E9028090EB029090EC02EF
:10414000A401642D852D0E948D2AF82E811174C141
:10415000F80170806180C380D4803090EA029601BB
:1041600028193909332009F419C18091ED02982FDB
:10417000907F283C310508F0D3C0911179C04610DA
:104180001AC0571018C04091EE025091EF022681DC
:1041900037814217530779F4E1100DC08F708061A9
:1041A0008093ED02C5010E94B4068091ED02D80112
:1041B00015968C935DC1A601662D872D0E948D2AD0
:1041C000D82E811103C081E08E2502C080E090E0EE
:1041D00080FF07C04E2D662D872D0E940E1E811177
:1041E0003EC0D11003C081E08E2502C080E090E087
:1041F000B82FB170DB2E80FF2AC04E2D662D872D83
:104200000E940E1EC82E811122C0798A6A8A89896D
:104210009A890E94ED1E292F22952F70223018F0C6
:10422000243078F405C09F7049F0811107C00DC09B
:104230009F7021F0F8019581907F39F0805E883081
:1042400020F0C8010E94B406CD2CFC2C11C1EE2038
:1042500009F40DC18091ED0281608093ED0288EE3A
:1042600092E00E94B406E8EEF2E088E0DF01E0C0F0
:1042700046101BC0571019C04091EE025091EF023A
:10428000F801268137814217530779F4E1100DC0F8
:104290008583C8010E94B40688E0F801A8EEB2E068
:1042A00001900D928A95E1F759C0C8010E946520DE
:1042B000882381F1EE2071F12091ED02822F829509
:1042C0008F7090E00297A4F08091E8029091E9024B
:1042D0009A8789871B86DD86CC862E878091EE02A1
:1042E0009091EF02988B8F87CE0109960E94B406B9
:1042F00088E0F801A8EEB2E001900D928A95E1F70E
:104300000E94381E0AC0461491F0C8010E94652020
:10431000811126C0C8010E94B406FF24F394A8C0EE
:104320009111F1CF88EE92E00E94B4067FC0571041
:10433000ECCF4091EE025091EF02F80126813781D7
:104340004217530711F7E110E0CF8583C8010E949F
:10435000B40688E0D5011D928A95E9F7F32C88C050
:10436000EE20C1F22091ED02822F82958F7090E0B5
:1043700002970CF4BDCF8091E8029091E9029A83F4
:1043800089831B82DD82CC822E838091EE02909104
:10439000EF0298878F83CE010196A8CF283C310584
:1043A00008F044C0FE2CEE2009F4B4CF461030C013
:1043B00057102EC02091EE023091EF02F801868155
:1043C00097812817390721F59091ED0290FD17C0CC
:1043D000892F82958F70282F30E02115310579F0D3
:1043E00095832F30310541F08F5F982F9295907F04
:1043F00085818F70892B8583C8010E94B40688E06F
:10440000F801A8EEB2E001900D928A95E1F730C074
:10441000C8010E94652081116BCF8091ED028160FF
:104420008093ED02C8010E94B40622C088E0D50145
:104430001D928A95E9F71CC0EE2009F46BCFC801E4
:104440000E946520F82E882309F464CF88E0F801E3
:10445000A8EEB2E001900D928A95E1F78091E80212
:104460009091E9020E94ED1E0E94381E01C0F12CBD
:104470008F2D6596E1E10C94C030A0E1B0E0E3E45B
:10448000F2E20C94AF3029873A874B875C876D87BF
:104490007E878F87988BCE0109960E94822081119A
:1044A0004AC088E0FE013996DE01119601900D9216
:1044B0008A95E1F7E984FA840C851D85A8016F2DA2
:1044C0008E2D0E948D2A811136C0A091F002B0E09D
:1044D000CD010196877099272091310330E0821732
:1044E000930781F1E982FA821D830C8393E0AA0F7E
:1044F000BB1F9A95E1F7AF50BD4F98E0FE01319692
:1045000001900D929A95E1F78093F0020E942E1E81
:1045100012C028E0829FC00111248F509D4F0E943D
:1045200082208823E1F08091310390E0019687702A
:10453000992780933103809131039091F002891380
:10454000E8CF0DC00E94AE1F1092F002109231030E
:10455000E8EEF2E088E0DF011D928A95E9F76096C7
:10456000E6E00C94CB309C013A9521153F4130F5A3
:10457000BC0166277270AC01442754709C0122274D
:10458000387094FF0FC090FF02C080E101C080E04E
:10459000672B09F08062452B09F08064232B79F0AA
:1045A00080680895892F8170672B09F08260452B00
:1045B00009F08460232B19F08860089580E0089545
:1045C000A5E0B0E0E6EEF2E20C94B23049835A8303
:1045D00089819A81662359F0222349F00E94B91EED
:1045E000182F682F89819A810E942D1F03C00E9475
:1045F000FA1E182F69817A81812F0E945E1B2596F1
:10460000E3E00C94CE30FC0186819781009741F461
:10461000262F408151816281738184810E94E02232
:1046200008950E94AE1F2FEF84E39CE0215080404C
:104630009040E1F700C000009AE088E10FB6F894DE
:10464000A895809360000FBE90936000FFCF0E94FA
:10465000AE1F2FEF84E39CE0215080409040E1F7B3
:1046600000C0000087E797E7909301088093000857
:104670009AE088E10FB6F894A895809360000FBE89
:1046800090936000FFCFEF92FF920F931F93CF9311
:10469000DF93EC018B017C0180EEE81AF10898E0D1
:1046A000E916F10410F0209731F4CE010E94B322F4
:1046B0000E94D61F05C0CE010E94B3220E94C51FD2
:1046C0008C2F0E940B2E0115110549F08FE99FE0F8
:1046D0000197F1F700C0000001501109F4CF8C2FB1
:1046E0000E94E01F98E0E916F10410F0209731F4E1
:1046F000CE010E94B3220E94CF1F05C0CE010E94AE
:10470000B3220E94BA1FCDB7DEB7E6E00C94CB30DF
:104710009C012C7033272C30310511F4806101C0CD
:104720008F7E9C01247038702430384011F49061E1
:1047300008959F7E0895EF92FF920F931F93CF935A
:10474000DF937C01162FEA018091DF02082F0270AF
:1047500081FF03C081EE0E94E01FF7018281882360
:1047600049F0812F0E940B2E209761F08C2F0E9420
:104770000B2E08C0812F0E94E01F209719F08C2F6C
:104780000E94E01F002319F081EE0E940B2ECDB78E
:10479000DEB7E6E00C94CB300F931F93CF938C01E0
:1047A000C42FAB0166EE70E00E949B23F80182816A
:1047B000811106C08C2F0E940B2E8C2F0E94E01FAF
:1047C000CF911F910F9108958032910508F0BAC0E2
:1047D000FC01E459FF4F0C943031662309F4B2C058
:1047E0008DE59BE0ADC0662309F4ACC081E59BE09C
:1047F000A7C0662309F4A6C086E49BE0A1C0662397
:1048000009F4A0C08BE39BE09BC0662309F49AC027
:1048100084E39BE095C0662309F494C08DE29BE09D
:104820008FC0662309F48EC086E29BE089C06623B0
:1048300009F488C088E19BE083C0662309F482C044
:104840008AE09BE07DC0662309F47CC081E09BE0A8
:1048500077C0662309F476C089EF9AE071C06623B9
:1048600009F470C08FEE9AE06BC0662309F46AC049
:1048700087EE9AE065C0662309F464C08DED9AE086
:104880005FC0662309F45EC086ED9AE059C06623D6
:1048900009F458C08DEC9AE053C0662309F452C065
:1048A00084EC9AE04DC0662309F44CC087EB9AE093
:1048B00047C0662309F446C08CEA9AE041C06623EB
:1048C00009F440C086EA9AE03BC06623D9F18DE93D
:1048D0009AE036C06623B1F180E99AE031C06623E0
:1048E00089F187E89AE02CC0662361F18CE79AE0B1
:1048F00027C0662339F187E79AE022C0662311F1C9
:1049000082E79AE01DC06623E9F08FE69AE018C0BE
:104910006623C1F08AE69AE013C0662399F086E622
:104920009AE00EC0662371F080E69AE009C0662323
:1049300049F083E59AE004C0662321F082E49AE01E
:104940000E9460140895ABE1B0E0E9EAF4E20C944F
:10495000A330942F498B252F5A8B6B8B7C8B8D8B9F
:104960004C895D89622F892F0E948D2A811109C08F
:1049700080917B0290917C02019690937C028093BF
:104980007B028B898111109204048E01075F1F4FF7
:1049900088E0F80111928A95E9F785E0FE017196A9
:1049A000D80101900D928A95E1F74C855D856A8565
:1049B00089850E948D2A8111D8C161E0C8010E94B9
:1049C00003235C01883FFCE59F0739F48B8588232E
:1049D000A1F081E080930702C8C1893F2CE59207CE
:1049E00031F48B85882349F00E949C2ABEC18A3FFE
:1049F0009C4519F48B85811111C007E211E0712CDF
:104A0000C12CD12C88248394912C55245394CE010D
:104A100001969F8B8E8B77E0472E38C080910702DE
:104A20008823B9F2E1CFFFEFEF16FF0609F44BC17F
:104A3000F8016481611145C020910702822F8170C5
:104A40006B84F80135812681662009F4DCC0882357
:104A500009F4D9C03323C1F1940102C0220F331FDE
:104A60009A95E2F721503109F801868190E02817E4
:104A7000390709F440C07628FFEFCF1ADF0A095F33
:104A80001F4F20E2C216D10409F41FC1F801208192
:104A900031816FEF8FEF90E0E92EF12CF701EE0FEF
:104AA000FF1FE20FF31F45915491A416B50611F0B4
:104AB000E62EF82E452B09F4B6CF9F5F6E2D8F2D75
:104AC000EBCF20E030E0BACFA4010E2C01C0440FA0
:104AD0000A94EAF7242B26832091020430910304E0
:104AE0002233310508F0B8CF22E330E030930304DD
:104AF00020930204B1CF8091D8039091D9030097FD
:104B000029F00E945228C39708F02CC18091D60347
:104B1000B091D703982FE0E0F0E08B1709F45FC065
:104B2000282F30E0F901EE0FFF1FE253FC4FE08029
:104B3000F1804E9CF0014F9CF00D1124E95DFE4F79
:104B400040814A8F41814B8FA0E060E070E0EA8DA8
:104B5000FB8DE70FF11DE70FF11D25903490211417
:104B60003104D1F0F801F081F88FF801F181F98F6B
:104B700060E0E88DF98DE60FF11DE60FF11D45911E
:104B800054914115510531F02416350609F4A1E080
:104B90006F5FEFCF7F5FDBCFAA23D1F0671708F4F9
:104BA000DBC04E9CF0014F9CF00D1124E95DFE4FDF
:104BB000309781F05482E017F10719F49093D603EF
:104BC0005ACF891307C0C9010196982F937002C06C
:104BD000E0E0F0E02F5F3F4F822F83709ECF9093F5
:104BE000D603E017F10709F446CF90E0FC01EE0F81
:104BF000FF1FE253FC4FD182C08201968370992738
:104C00008093D70338CF311114C0A40102C0440FE0
:104C1000551F9A95E2F74150510930E0421753076A
:104C200009F043C0662309F441C0C6010E94432B2A
:104C30003CC0822F90E09C01215031092823392368
:104C40000E2C02C0959587950A94E2F7232B59F50F
:104C500080FF29C0F80182819381892BE1F088E0EF
:104C6000EE89FF8911928A95E9F78EEF89838A830D
:104C70000E946D288160582F9D838C83F80182816A
:104C800093818F83988729813A814B816D817E81C1
:104C90000E943D2204C060E0C6010E94E423F801A6
:104CA000158281E003C0817001C080E094010E2C68
:104CB00001C0220F0A94EAF72095F8019681292372
:104CC0002683682ED8CE612CD6CE8B85882381F1A1
:104CD000772071F10E946D289093D9038093D803B7
:104CE00080916D03883008F04AC091E0980F90934E
:104CF0006D0398E0FE013996DE01119601900D9248
:104D00009A95E1F74CE0849FC001112482599C4F91
:104D100028E0FE013196DC0101900D922A95E1F721
:104D20002FEF3FEFFC0131872087B386A28627C093
:104D30009091D6038091D703981719F00E94AB2A5F
:104D400008C00E94712B1092D9031092D8030E94C0
:104D5000C72B772051F013C00115110509F438CF86
:104D60009093D603F801548286CE29853A854B85E7
:104D70005C856D857E858F8598890E943D226B9626
:104D8000E2E10C94BF3008958091CA0208958093A7
:104D9000EE037093F0036093EF038091D5028430AB
:104DA00001F582E08093E9008FEF9091E800815057
:104DB00095FD06C095ED9A95F1F700008111F5CFAC
:104DC0008091E80085FF0DC040E050E063E070E0B6
:104DD0008EEE93E00E94F6148091E8008E77809327
:104DE000E8000895BC0184E00E94C7260895BC0134
:104DF00083E00E94C726089522E02093E9002FEF68
:104E00003091E800215035FD06C035ED3A95F1F7B7
:104E100000002111F5CF2091E80025FF0BC040E0F4
:104E200050E066E070E00E94F6148091E8008E7712
:104E30008093E8000895CF93DF9321E02093E90069
:104E40002FEF3091E800215035FD06C035ED3A9541
:104E5000F1F700002111F5CF2091E80025FF14C0E3
:104E6000EC0140E050E068E070E00E94F6148091B0
:104E7000E8008E778093E80088E0FE01ABECB2E0BA
:104E800001900D928A95E1F7DF91CF9108952091DD
:104E9000E4003091E50095E64091EC00842F8170AC
:104EA00040FF23C08091E80080FD1DC08091D502A5
:104EB000882399F0853099F08091EB0085FD11C031
:104EC0004091E4005091E5002417350729F39150F3
:104ED00011F09A01E1CF84E0089582E0089583E023
:104EE000089581E0089580E008954091E80042FF30
:104EF000DDCF08958091D70287FF11C08091E8002F
:104F000082FD05C08091D5028111F8CF11C080913A
:104F1000E8008B770BC08091D502882349F08091FF
:104F2000E80080FFF8CF8091E8008E778093E8005A
:104F30000895982F973068F59093E900981739F005
:104F40007091EC002091ED005091F00003C0242FEF
:104F5000762F50E021FD02C09F5FECCF3091EB0037
:104F60003E7F3093EB003091ED003D7F3093ED00BC
:104F70003091EB0031603093EB007093EC002093A4
:104F8000ED005093F0002091EE0027FDE5CF80E08A
:104F900008958F708093E90081E008952091DD02EB
:104FA0003091DE022617370748F06115710539F494
:104FB0002091E8002E772093E80001C0B901FC01A0
:104FC00020E06115710579F18091D5028823F1F116
:104FD0008530F1F18091E80083FD3CC08091E800CC
:104FE00082FD2EC08091E80080FFEBCF2091F3007E
:104FF0008091F20090E0922B6115710551F088309C
:10500000910538F421912093F100615071090196C6
:10501000F3CF21E0089709F020E08091E8008E7737
:105020008093E800CECF2111CFCF0AC08091D50266
:10503000882361F0853061F08091E80083FD0AC02B
:105040008091E80082FFF2CF80E0089582E0089529
:1050500083E0089581E0089578941F920F920FB62F
:105060000F9211248F939F93AF93BF938091EA0384
:105070009091EB03A091EC03B091ED030196A11D7B
:10508000B11D8093EA039093EB03A093EC03B093DC
:10509000ED03BF91AF919F918F910F900FBE0F9035
:1050A0001F9018959C014FB7F8948091EA03909156
:1050B000EB03A091EC03B091ED034FBF821B930B68
:1050C00008952FB7F8946091EA037091EB038091F3
:1050D000EC039091ED032FBF08952FB7F8948091C2
:1050E000EA039091EB03A091EC03B091ED032FBF85
:1050F00008951F920F920FB60F9211248F939F93D2
:10510000AF93BF938091E903811113C08091EA03AB
:105110009091EB03A091EC03B091ED034196A11D9A
:10512000B11D8093EA039093EB03A093EC03B0933B
:10513000ED03BF91AF919F918F910F900FBE0F9094
:105140001F9018959C012A5F3F4FFC014281461336
:1051500001C01282019682179307B9F708959C0146
:10516000FC0132969FEF80E04191461789F09F3F06
:1051700019F4411101C0982F8F5F8630A9F79F3F26
:1051800039F0F901E90FF11D97FDFA956283089551
:1051900008952091E7033091E8032817390771F04B
:1051A0009093E8038093E703E091E503F091E60331
:1051B000309721F00084F185E02D09950895209124
:1051C000E3033091E4032817390771F09093E40367
:1051D0008093E303E091E503F091E603309721F03B
:1051E0000680F781E02D099508950E94BC19882357
:1051F00059F0E091E503F091E603309729F0019032
:10520000F081E02D0995089580E008950F931F9394
:10521000CF93DF93C42FD22FFC0182818823B1F07A
:105220004093E2030E946D289093E1038093E00392
:1052300080E28C0F883008F04DC0C77081E001C05B
:10524000880FCA95EAF70E94D61F44C08091E203F6
:10525000481330C08091E0039091E1030E945228EE
:10526000883C910538F510E21D0FCD17B9F080E2AA
:105270008C0F883040F4C77081E001C0880FCA9558
:10528000EAF70E94CF1F183010F581E09D2F97702C
:1052900001C0880F9A95EAF70E94D61F802F0E94BE
:1052A0005B201830B8F4D77081E001C0880FDA9520
:1052B000EAF70AC080E28C0F883060F4C77081E0A2
:1052C00001C0880FCA95EAF70E94CF1F03C0802F44
:1052D0000E945B20DF91CF911F910F910895893239
:1052E00079F1E0F4843161F1A0F4873009F075C000
:1052F0001092DC0394E190930C0280930B028CE3F8
:1053000080930A0288E08093090288E28093080271
:1053100064C092EE980F9A30F0F05FC0803509F4C7
:1053200044C028F48F3409F058C08AE03FC081356A
:1053300029F0823509F051C081E038C08FEF36C0C6
:105340008091DF03882379F11092DF031092DE034E
:105350001092DD0342C08D518093DF03833099F0BA
:1053600038F4813069F08230D9F48CE092E00DC0DD
:10537000853099F078F0863099F488E092E005C0A5
:105380008CED93E002C08BE092E09093DE0380937B
:10539000DD0323C08AE092E0F8CF89E092E0F5CF08
:1053A0001092DF031AC080E0089586EFE091DD03DC
:1053B000F091DE03309789F02081082E000C990BC4
:1053C000820F911D8F3F910519F014F08FEF04C0EB
:1053D00097FF02C0108201C0808381E008958B3165
:1053E00009F469C058F58B3009F493C078F486301D
:1053F00009F446C020F4853009F44CC08CC08730D5
:1054000009F44BC0883009F484C085C0803109F4A8
:1054100065C068F48E3009F07EC08091DB0382FBAA
:10542000222720F991E0922790FB82F94DC0863126
:1054300009F46FC0893109F46CC06DC08A32E9F09B
:1054400060F4873209F45FC028F48E3108F463C039
:105450008D514FC08932F1F05EC0833450F48A33ED
:1054600008F046C0853309F44EC0883309F451C0B2
:1054700052C0833409F447C04EC00E94241D49C065
:105480008091DB03817F8E7F8093DB0381E08093BB
:10549000DA0308950E9427233CC08091DB03982FF4
:1054A0009095917090FB80F98093DB03911131C04E
:1054B000897F877F10C08091DB0381FB222720F941
:1054C00091E0922790FB81F98093DB03992309F106
:1054D0008091DB0381608093DB031BC08091DB0341
:1054E00083FB222720F991E0922790FB83F9ECCFF0
:1054F000895321E030E0A90102C0440F551F8A956D
:10550000E2F7CA0102C081E090E00E948C1F0E9475
:10551000AE1F81E0089580E00895452B41F06F3F74
:1055200041F491E08F3F09F090E0892F03C081E0C2
:1055300001C080E0817008951092D9031092D803C1
:10554000109207028091D7038093D6030E94C72B45
:105550000E94712B0895A0E0B0E0E1EBFAE20C9418
:10556000A330C091D603E7E0FE2E01E010E0FCE09E
:105570002F2EAEEFEA2E8091D703C81709F47AC018
:10558000D0E0FE01EE0FFF1FE253FC4F80819181BE
:10559000F89EF001F99EF00D1124E95DFE4F248183
:1055A000211165C060906D03AEE6B3E020E030E00D
:1055B000712C5F01261508F058C01A964D905C902A
:1055C0001B97F501808091804FEF5FEF312CC32C4A
:1055D000D12CF601EE0FFF1FE80DF91D65917491B6
:1055E0004616570609F4A601672B11F03394EFCF46
:1055F0004F3FFFEF5F07A9F1B80102C0660F771FA9
:105600004A95E2F7762AA801032C02C0440F551FE1
:105610000A94E2F741505109672D70E04617570789
:10562000E1F4229EF001239EF00D1124E259FC4F7B
:10563000F89ED001F99EB00D1124A95DBE4F1296BF
:105640002D913C91139737832683E082E1829187E5
:10565000808771E015967C9308C014961C921E9268
:1056600013972F5F3F4F1C96A5CF0E94432B219687
:10567000C37081CF0E94712B0E94C72BCDB7DEB7BC
:10568000E2E10C94BF30BC014091D6038091D70376
:10569000942F981729F1292F30E0F901EE0FFF1F01
:1056A000E253FC4F0190F081E02DE617F70799F4E3
:1056B00087E0869FF001879FF00D1124E95DFE4F82
:1056C00081E0848394130CC02F5F3F4F23703327F6
:1056D0002093D60308952F5F3F4F922F9370D9CF19
:1056E0000895EF92FF920F931F93CF93DF938091D2
:1056F0006D03882309F446C0009105048CE0F82E60
:1057000080916D030817D0F5EE24E394E00EE0924B
:10571000050410E0F09EE001F19ED00D1124C25965
:10572000DC4F4B815C81698188810E948D2A8111C7
:1057300023C08E819F81892B51F4888599858F3F65
:105740002FEF920721F061E00E94E4230AC0288134
:1057500039814A815B816C817D818E819F810E942C
:105760003D22F09EF001F19EF00D1124E259FC4F14
:1057700014821382109204040E2DC2CF10926D0376
:1057800010920504CDB7DEB7E6E00C94CB30109252
:10579000030410920204E7E2F1E08581811102C066
:1057A00014821682379682E0E730F807B1F7089541
:1057B000A0E0B0E0EEEDFBE20C94AE30E82FF0E0BC
:1057C000E755F34FD490282F26952695269530E05F
:1057D000F901E756F34F0491877010E0082E02C0DC
:1057E000159507950A94E2F701701127F901E7571B
:1057F000F34FE490F12C082E02C0F594E7940A943C
:10580000E2F791E0E922FF24F901E758F34FC49150
:10581000D0E002C0D595C7958A95E2F7C170DD2723
:105820000115110519F081EE0E940B2EE114F1040F
:1058300019F086EE0E940B2E8D2D0E945B20E11444
:10584000F10419F086EE0E94E01F0115110519F010
:1058500081EE0E94E01FCD2B19F08CE20E945B20AC
:10586000CDB7DEB7E7E00C94CA30EF92FF921F93FA
:10587000CF93DF93EC011AE08881882309F44AC0B2
:10588000813009F043C08981813041F47E0182E09A
:10589000E80EF11C8A810E945B2009C0823049F425
:1058A0007E01E2E0EE0EF11C8A810E940B2EE701E0
:1058B0002FC0833041F47E01F2E0EF0EF11C8A81AB
:1058C0000E94E01FF4CF843011F0219621C02A817C
:1058D000229680E090E030E0205331092A303105F3
:1058E00058F4189FA001199F500D1124C901840F6D
:1058F000951F21962881EFCF009751F0EFE9FFE047
:105900003197F1F700C000000197F6CF0E94D82B25
:105910002196B2CFDF91CF911F91FF90EF90089524
:105920006091FE038CE090E00E94E83008950E94B0
:105930006D282091FA03211104C02091FB0322233A
:1059400021F09093F7038093F6032091FC0321113B
:1059500004C02091FD03222321F09093F50380934E
:10596000F403E091E503F091E603309749F082E01B
:105970008093F8030480F581E02D88EF93E009958A
:1059800008958D3E39F49091FB0397FF35C0109236
:10599000FB0359C08E3E29F49091FB031916BCF30A
:1059A0002BC09091FA038F3E29F497FF25C01092E7
:1059B000FA0349C0803F19F41916CCF31DC0909129
:1059C000FC03893F29F41916BCF41092FC033BC078
:1059D0008A3F19F497FF10C0F8CF8B3F39F49091AC
:1059E000FD0397FF09C01092FD032DC08C3F21F4E9
:1059F0009091FD031916BCF39FE0980F983080F446
:105A000021E030E0A90102C0440F551F9A95E2F74A
:105A1000CA0180959091F90389238093F90313C0FB
:105A20008D3F21F48091F3038E7F0BC08E3F21F4D4
:105A30008091F3038D7F05C08F3F29F48091F3039C
:105A40008B7F8093F3038091FA03811106C08091CC
:105A5000FB03811102C01092F2038091FC038111BB
:105A600006C08091FD03811102C01092F1030895D8
:105A70008091F30380FF08C06091090270E0759582
:105A800067957595679521C081FF06C060910902F1
:105A900070E07595679519C082FF04C06091090296
:105AA00070E010C09091F103992399F06091080281
:105AB0009617A0F780910902899FC001112470E018
:105AC0000E941C316038710540F46115710519F4AC
:105AD00006C061E070E0862F08958FE7089581E0A9
