:100000000C948A060C946B2F0C94A7060C94A706EC
:100010000C94A7060C94A7060C94A7060C94A706AC
:100020000C94A7060C94A7060C948F180C94D11767
:100030000C9462280C94A7060C94A7060C94A706AF
:100040000C94A7060C94A7060C94A7060C94A7067C
:100050000C94A7060C9415280C94A7060C94A706DC
:100060000C94A7060C94A7060C94A7060C94A7065C
:100070000C94A7060C94A7060C94A7060C94A7064C
:100080000C94A7060C94A7060C94A7060C94A7063C
:100090000C94A7060C94A7060C94A7060C94A7062C
:1000A0000C94A7060C94A7060C94A706EE0DEE0D73
:1000B000210E210E930EAF0EDF0FDF0FBA0E4A0F87
:1000C0005C0F5C0FF0151716AF171716AF175F16FA
:1000D0008216AF1771178417DC23E223E823EE237F
:1000E000F423FA23002406240C24122418241E24AA
:1000F00024242A24302436243C24422448244E2418
:10010000532458245D24622467246C2471247624AB
:100110007B248024852405010902A10185020901AF
:10012000A100050919012908150025019508750187
:1001300081020501093009311581257F9502750875
:10014000810609381581257F950175088106050C02
:100150000A38021581257F950175088106C0C00502
:10016000010980A101850319012AB700150126B7ED
:1001700000950175108100C0050C0901A1018504DD
:1001800019012AA002150126A0029501751081000F
:10019000C005010906A101050719E029E715002599
:1001A00001950875018102950175088101050719FE
:1001B0000029FF150026FF00950675088100050837
:1001C00019012905950575019102950175039101A4
:1001D000C009023B00020100A0FA0904000001036B
:1001E00001010009211101000122400007058103DE
:1001F00008000109040100010300000009211101A8
:100200000001227B00070582032000011201000289
:10021000000000084D4436350100010200012C03A6
:10022000440061006300740079006C002D004D00F3
:1002300061006E00750066006F0072006D002000A6
:100240002800350078003600290000000E037400F5
:10025000730068006F00720074000000040309045A
:100260002900104050064F060440AE002B00050048
:10027000B45D130012003400C65D040018000C00C9
:1002800008003600E00031001C001B003700361269
:1002900000000000B35D2F00C05DBB5D00000000EA
:1002A000E30009510651E20015040F40AA00A9001D
:1002B00011400F081A00190007000F000D001D0063
:1002C0000600170016001500110010000E001400A3
:1002D0000A000B000900C65D2C00BF5D30002E0037
:1002E000000000002A000351D45DE300000000007C
:1002F00001000100010001000100010001001400E3
:100300001A00080015001700E1000400160007009D
:1003100009000A0001001D001B000600190005006D
:100320000000000001003100010001000000000099
:1003300001000100010001000100010001000100B5
:10034000010001001C0018000C00120013002F0017
:100350000B000D000E000F003300340011001000E0
:10036000360037003800B25D0100010001000100D5
:100370000000000001000100010001000000000079
:1003800001001E001F00AD002100D35D01003602F8
:10039000B85DED00BC5DB55D01003702EF00EE0019
:1003A000F00001000100B75DF900F100FA00B65D50
:1003B00000000000361437140100010000000000A6
:1003C00001000E5301000100000040004100420006
:1003D000430044001E084B0052004A000000300059
:1003E0004A00500051004F004D00E5002A004E0029
:1003F00051004D004C00280008510100010062002E
:1004000000000000010001000100010000000000E8
:1004100046001E001F0020002100220045003A0077
:100420003B003C003D003E0045012A004C004300DB
:100430004400440245022A014C0228052C003E01DA
:1004400000000000E000370101000751000000003B
:100450000A52015200520D523F004000410042003A
:100460001504A5002D021E001F00200024142514D1
:1004700056002100220023002614271465002400C2
:1004800025002600350035022C03010027006300FB
:100490000000000001000100010001000000000058
:1004A00027160100010001000100010039001E02B1
:1004B0002402250226022702E10023021F02200255
:1004C000210222020100010001000100720001006E
:1004D0000000000001000100010001000000000018
:1004E000000000000000000001000100520C0100AB
:1004F00001000100D05D4B0152084E01CE5D0000AD
:10050000CC5D500051084F00CD5D0000D15D4E051F
:10051000CB5D4B05CF5D000001000100D25D6C009A
:1005200000000000000001000000000000000000CA
:100530004801010001000100010001000B0114014C
:100540001A01080115011701E10004001601070155
:1005500009010A011C011D011B0106011901050108
:1005600000000000B25D37010751010000000000EB
:100570000100010001000100010001000100010073
:10058000010001001C0118010C010F011301010001
:100590000B010D010E010F013601010011011001C7
:1005A0003601370101000100010001005701670118
:1005B0000000000001000100010001000000000037
:1005C0000100010001000100010001000100010023
:1005D0004B0052004A000100010050085000510039
:1005E0004F004F080100CA5D4E0051004D00280029
:1005F00000000000000000000000000000000000FB
:1006000000000000010001000000000000000000E8
:100610000000000000001E011F012001000000007A
:10062000000021012201230100000000000024013C
:100630002501E0010000000000000000270100008B
:1006400000000000000000000000000000000000AA
:10065000000000000000AD003D043E010B03140348
:100660001A030803150317034C02040316030703B8
:1006700009030A032C030000000006031903050305
:100680000000000000002C08010001000000000034
:10069000000000000000000000000000000000005A
:1006A00000000000000000000C0312031303000010
:1006B0000B0300000000000000000000000000002C
:1006C00000003703000000000100010000000000EE
:1006D000000000000000000000000000000000001A
:1006E00029001E011F012001210122012B00000011
:1006F000F200ED00F1000000E1000000EF00EE006C
:10070000F000000000000000F9000000FA00000006
:1007100000000000000000000000280500000000AC
:1007200000000000000000000000000000000000C9
:100730000000000000004B0352034E0300000000C5
:100740000B01500351034F030000000000000000A4
:100750005103000000000000010000000000000044
:100760000000000000000100010001000000000086
:100770002D00230024002500260027002F001C0048
:100780001E001F0020000000E10056002100220092
:1007900023003300E000CA5D240025002600380055
:1007A0000000000000002700000000000000000022
:1007B0000100010001000100000000000000000035
:1007C000000000001F082008210822082308240830
:1007D0001E08500900004F09000026080000000014
:1007E0000000000000000000000000000000000009
:1007F00000000000000000000000000000000000F9
:1008000029001E001F002000210022002B001400E0
:100810001A00080015001700E10004001600070088
:1008200009000A00E0001D001B0006001900050079
:100830000000000034000100010001000000000081
:1008400001000100010050002300240025002600C3
:1008500027002D001C0018000C00120013002F00B0
:100860000B000D000E000F003300350011001000CA
:1008700036003700330035005200010031002E00F1
:100880000000000000004F000100510000000000C7
:1008900001001E021F0220022102220201000100AB
:1008A00038120100010001000100010001000100F7
:1008B0000100BA5D010001000100010033020100E6
:1008C00000000000B35DB25D010001000000000007
:1008D000010001000100010001002402250226029E
:1008E00027022D02010001000100010001000100AA
:1008F00001000100010001000100010001000100F0
:1009000001000100010001000100010001000100DF
:1009100000000000010001000100010000000000D3
:1009200000000000000000000000000000000000C7
:1009300000000000000000000100000000000000B6
:1009400000000000E00000000000000000000000C7
:100950000000000000000000000000000000000097
:100960000000000000000000000000000000000087
:100970000000000000004B1252024E120000000066
:100980004A12500251024F024D12000000000000B6
:100990005102000000000000000001000000000003
:1009A0000000000000000000000000000000000047
:1009B000010001000100010001000100010001002F
:1009C000010001000100010001000100010001001F
:1009D000010001000100010001000100010001000F
:1009E00000000000010001000100280000000000DC
:1009F00001000100010001000100010001000100EF
:100A0000010001000100010052000100010001008D
:100A10000100500051004F000100010001000100E1
:100A200001000100010001000100010001000100BE
:100A300000000000010001000100010000000000B2
:100A40006262726167614070726F67692E636F6D79
:100A50000062696C6C792E627261676140002041AE
:100A60004E4420006B38730020213D20002D3E00B5
:100A7000203C3D2000203E3D200070726F7065726A
:100A80007469657300706970656C696E6500737573
:100A900062736372697074696F6E0050726F676918
:100AA0004F6E650070726F6769004070726F6769A2
:100AB0002E636F6D0061756A6F7572642768756962
:100AC0002000646F65736E27742000646F65736E19
:100AD00027742000636F6E666967006265617563E5
:100AE0006F75702000612D742D696C2000706F751A
:100AF0007271756F692000612D742D6F6E2000700A
:100B00006575782D74752000506575742D01012F61
:100B1000657472652000706575742D01012F657410
:100B20007265200061732D7475200065732D7475D6
:100B300020004573742D63652071752700657374FB
:100B40002D636520717527004573742D63652071D1
:100B5000756520006573742D6365207175652000CF
:100B6000050015000A00000005000C00150000003B
:100B700004001100070000000E0016000000050030
:100B80002E0000002F0006000000B35D2E000000C4
:100B90002F002E0000001300150012001700160091
:100BA0000000130008000F001100000016000500EF
:100BB00011000000130015001200110000001300C6
:100BC00015000A00000004001300060000000400E5
:100BD0000D000700000007001200110000000700D0
:100BE0001200170000000600120011000C000000A7
:100BF0000500060013000000040017000C000F00A1
:100C0000000013000E000000040017001200110085
:100C10000000130017001800000038001300170030
:100C20000800000013001700080000000400160070
:100C30001700180000000800160017001800000038
:100C40001600140012001300000016001400120019
:100C500000001600140008000C000000160014002C
:100C6000080000000000000000000000000000403C
:100C700001000000000000000000005000000028FB
:100C80000100007800000000FE0F0084FFFFFF97C6
:100C90000000000000000000000000002A2B2800D7
:100CA000000000000000000000000000000000291B
:100CB000000000002C1E3720212224362627252E56
:100CC000362D3735271E1F20212223242526333396
:100CD000362E37231F0405060708090A0B0C0D0ED4
:100CE0000F101112131415161718191A1B1C1D2694
:100CF00035272F2D2F0405060708090A0B0C0D0EAA
:100D00000F101112131415161718191A1B1C1D2475
:100D10003525304C11241FBECFEFDAE0DEBFCDBF4A
:100D200012E0A0E0B1E0E6E9F2E602C005900D9223
:100D3000A036B107D9F724E0A0E6B2E001C01D92C9
:100D4000A030B207E1F70E943E110C9449310C9497
:100D50000000A0E0B0E0EFEAF6E00C9494307C01F3
:100D6000FC0143815481618180810E94762A811136
:100D70000C942C1061E0C7010E94F222EC01F701F3
:100D80008281811141C0CE0104974A9720F08FEFF4
:100D90008093000139C0809100018F5F8093000132
:100DA000833090F5E82FF0E0EE0FFF1FEC59FD4F78
:100DB000D183C083811107C00E945628909363029B
:100DC0008093620221C08230F9F48FEF809300019A
:100DD00080916202909163020E943B28893C9105B8
:100DE00098F48091640290916502449769F480912F
:100DF000660290916702449739F48091680290915D
:100E00006902419709F435C6209170022223B1F19D
:100E1000F7018281882349F1CF3BFDE5DF0709F423
:100E20003DC3C932D10511F40C941A10C63B2DE50F
:100E3000D20729F486E092E00E941E2C03C08C2F7A
:100E40000E944A2089E092E00E941E2CC63B4DE59C
:100E5000D40711F40C941A108C2F0E944A2084E1BC
:100E600092E00E941E2C0C941A10CF3B5DE5D50732
:100E700009F414C3109270020C941A10CC3B8DE547
:100E8000D80709F4B2C108F045C0C43BEDE5DE0760
:100E900009F469C120F5C03140E4D40709F4B8C0B1
:100EA00088F4F7019281C430F0E4DF0709F4D7C079
:100EB000CF3040E4D40709F48CC0C53AD10509F01D
:100EC00067C073C0C23B5DE5D50709F454C108F0A3
:100ED00062C1C13190E4D90709F489C059C0C83B47
:100EE000EDE5DE0709F471C140F4C63B2DE5D207FC
:100EF00009F45EC108F452C163C1CA3B5DE5D50780
:100F000009F42CC1F7018281CB3BFDE5DF0708F432
:100F100064C1CBC0F7018281CD3CFDE5DF0709F458
:100F200059C2E8F4C93C4DE5D40709F4B5C078F4DA
:100F3000C03C9DE5D90709F4BDC2C63CEDE5DE071E
:100F400009F400C1CF3BFDE5DF0711F5A7C2CB3C9B
:100F50002DE5D20709F498C108F44FC15EC2C13D26
:100F60005DE5D50709F4B0C140F4CF3CEDE5DE07FF
:100F700009F4CDC108F40EC2EDC1C33D2DE5D20781
:100F800009F4A8C208F46CC2C43D5DE5D50711F0B0
:100F900081E0A1C2882329F082EE0E94F42D89E02D
:100FA00082C289E00E94591F7EC0992311F40C94DB
:100FB0001A108091A3029091A402009739F033E0B7
:100FC000969587953A95E1F7282F217020936F0227
:100FD00081C2992309F47EC2F701858182958F70C1
:100FE00011F080E575C262E370E08CEA0EC0F70193
:100FF0008281882309F46EC2858182958F7011F0F9
:101000008FE466C262E370E08BEA0E94322062C223
:10101000F7018281882309F45DC2858182958F70F2
:1010200071F082EE0E94F42D83EE0E94F42D8EE08A
:101030000E944A2083EE0E94CF1F82EE0DC080EEF8
:101040000E94F42D83EE0E94F42D80E50E944A2038
:1010500083EE0E94CF1F80EE0E94CF1FEBC7992323
:1010600009F438C2F701858182958F7039F082EEDC
:101070000E94F42D85E10E944A2015C080EE0E9456
:10108000F42D83EE0E94F42D8FE40E944A2083EE1B
:101090000E94CF1F80EEFFC1882329F082EE0E94BC
:1010A000F42D80EC15C282EEF6C1882339F18091CF
:1010B0006E02882381F080916C0290916D020E94F3
:1010C0003B28883C910538F488E20E94F42D81E0A9
:1010D00080936B020CC08091D902809581708093BF
:1010E0006A0280EE0E94F42D85E00E946B1F0E9430
:1010F000562890936D0280936C02ECC188E20E94A6
:10110000CF1F80916A02882319F080EE0E94CF1FC2
:1011100085E00E94591F80916B02811110C080915F
:101120006E02882361F080916C0290916D020E94A2
:101130003B28883C910518F488E20E944A201092CE
:101140006B02C8C1882329F081EE0E94F42D8BE048
:10115000AAC181EE0E94CF1F8BE0A9C140E050E000
:1011600063E370E046C0F7018281882311F088E3D1
:1011700037C088E390C1F7018281882339F081EE7E
:101180000E94F42DC7010E94AD14A4C1C7010E94A2
:10119000AD1481EE80C148E150E014C0F7018281B6
:1011A000882309F497C18EE092E00E941E2C92C120
:1011B000F701828181118EC181E0809370028AC122
:1011C0004CE250E06FE270E004C04CE250E060E3BB
:1011D00070E0C7010E94BB237DC1882321F08FE20C
:1011E0000E94F42D77C18FE256C145E350E066EED0
:1011F00070E0C7010E948A236DC1882309F46AC187
:1012000080EE0E94F42D81EE0E94F42D8CE20E946B
:10121000F42D8CE20E94CF1F80EE0E94CF1F81EE42
:101220000E94CF1F80EE0E94F42D89E10E94F42DD0
:1012300089E10E94CF1F80EE0E94CF1F80EE0E94A6
:10124000F42D80E50E94F42D80E50E94CF1F80EEF2
:101250000E94CF1F80EE0E94F42D8AE20E94F42D9E
:101260008AE20E94CF1F80EE0E94CF1FFFEF24E38F
:101270004CE0F15020404040E1F700C0000088E21F
:101280000E94F42D88E207C1882309F423C183EE6C
:101290000E94F42D8DE10E944A2083EE0E94CF1F10
:1012A0005FEF81EE94E0515080409040E1F700C044
:1012B000000083E20E944A20EFEFF1EE24E0E150CB
:1012C000F0402040E1F7A5C0882309F403C183EE74
:1012D0000E94F42D8DE10E944A2083EE0E94CF1FD0
:1012E0004FEF51EE84E0415050408040E1F700C0A4
:1012F000000082E20E944A209FEFE1EEF4E091506C
:10130000E040F040E1F700C0000080E2E1C0882347
:1013100009F4E0C083EE0E94F42D8DE10E944A2082
:1013200083EE0E94CF1F2FEF41EE54E0215040404A
:101330005040E1F700C0000082E20E944A208FEF97
:1013400091EEE4E081509040E040E1F700C0000001
:1013500081E2BEC0882309F4BDC083EE0E94F42D53
:101360008DE10E944A2083EE0E94CF1FFFEF21EE05
:1013700044E0F15020404040E1F700C0000082E22C
:101380000E944A205FEF81EE94E0515080409040EF
:10139000E1F762C0882309F49DC083EE0E94F42D1A
:1013A0008DE10E944A2083EE0E94CF1FEFEFF1EE05
:1013B00024E0E150F0402040E1F700C0000082E26C
:1013C0000E944A204FEF51EE84E04150504080404F
:1013D000E1F71FC0882309F47DC083EE0E94F42D3D
:1013E0008DE10E944A2083EE0E94CF1F9FEFE1EE25
:1013F000F4E09150E040F040E1F700C000008EE1E1
:101400000E944A202FEF41EE54E0215040405040CE
:10141000E1F700C000008FE15BC0882309F45AC0E7
:1014200083EE0E94F42D8DE10E944A2083EE0E94FB
:10143000CF1F8FEF91EEE4E081509040E040E1F764
:1014400000C000008EE10E944A20FFEF21EE44E040
:10145000F15020404040E1F700C000008EE138C06C
:101460008823C1F183EE0E94F42D82EE0E94F42DB8
:1014700081E50E944A205FEF81EE94E05150804068
:101480009040E1F700C0000081E50E944A2082EE12
:101490000E94CF1F83EE0E94CF1F1CC0F7018281E4
:1014A000882321F082E00E946B1F14C082E00E941A
:1014B000591F10C0882311F083E0F5CF83E00E940C
:1014C000591F80916F02882329F010926F0285EADC
:1014D0000E944A2080E0F7019281992329F191E04E
:1014E000CB3BFDE5DF0709F090E090936E02882387
:1014F00009F4A0C5C43E2CE5D207E1F050F4C23E89
:101500005CE5D507A1F0C33E8CE5D807E1F481E0A6
:1015100016C0C63E9CE5D90789F070F0C13BFDE5D9
:10152000DF0789F485E00BC081110DC083C51092DF
:10153000F80307C082E003C083E001C084E0809329
:10154000F8030E94792CD7FFCEC0F701828188234F
:1015500009F4C9C00E94DE288695817080937302C9
:101560000E94DE288170809372028091F80381309E
:1015700039F480917302882319F089E30E944A208C
:101580008091D902809371021092D9021092FE03C9
:101590008091F803823019F148F48823E1F081301A
:1015A000C9F560E070E088E193E032C0843049F131
:1015B000853081F560E070E08BE191E00E9432239C
:1015C00060E070E085E290E00E94322360E070E02D
:1015D00088E290E01DC082EE0E94F42D1BC0809135
:1015E0007202811103C083E50E944A2082EE0E94AC
:1015F000F42D8FE39CE90197F1F700C0000087E527
:1016000004C086EE0E944A2088E10E944A2002C05F
:101610000E943223EFE3FCE93197F1F700C00000AC
:101620006E01E894D7F80CE010E02AE0A22EB12C6D
:10163000C601002E02C0969587950A94E2F78F7036
:101640009091F803923069F48A3038F490E009966A
:10165000B5010E940531875A01C086500E944A2078
:1016600009C096EF980F963010F0805D01C0895A3E
:101670000E94C12B045011090C3FFFEF1F07C1F658
:101680008091F8038230F1F028F4882371F08130E2
:1016900081F025C0843009F1853009F560E070E003
:1016A00088E290E00E9432231AC082EE0E94CF1F8F
:1016B00016C08CE20E944A2080917302882379F040
:1016C00089E308C082EE0E94CF1F809172028111CF
:1016D00006C083E50E944A2002C088E2FBCF8091C9
:1016E00071028093D902C43F2CE5D20741F190F4F6
:1016F000C93D5CE5D507E9F0CA3D8CE5D80789F11D
:10170000C83D9CE5D907B1F506E221EE41EE68ED52
:101710007CE52CC0C63FECE5DE07E9F0B0F0C73F42
:101720002CE5D20739F507E225EE46EE67EF7CE5BA
:101730001DC007E225EE45EE69ED7CE517C006E227
:1017400021EE40EE64EF7CE511C007E225EE44EEA9
:1017500065EF7CE50BC006E221EE42EE66EF7CE52C
:1017600005C008E221E045EE6AED7CE5C7010E9474
:10177000EF2860C4F7018281882309F4A4C1109284
:10178000DC03C430FDE5DF0758F4CB3F2CE5D2077E
:10179000C0F4CE0182509C45449708F07EC111C030
:1017A000C63A4DE5D40769F030F4C2368DE5D80766
:1017B00009F073C106C0CE018E5A9D45039708F00B
:1017C0006CC10E94021D9093A6028093A502C231B3
:1017D0009CE5D90709F405C108F04BC0C930FCE508
:1017E000DF0709F4D2C000F5C5304CE5D40709F491
:1017F000B9C078F4C3308CE5D80709F4AAC008F062
:10180000AEC0C230DC4509F024C18091A5028160E0
:10181000A3C0C730FCE5DF0709F4AFC008F0B1C0D2
:101820008091A502806198C0CD304CE5D40709F4C1
:10183000C2C058F4CB308CE5D80709F4B0C008F02A
:10184000B6C08091A5028860A6C0CF30ECE5DE0767
:1018500009F4BFC008F4B2C0C0312CE5D20709F4C6
:10186000BCC0C131DC4509F0F4C08091A5028F7B7A
:1018700073C0C1155DE5D50709F4BEC088F5CB3F3F
:101880009CE5D90709F472C0B8F4C431FCE5DF0760
:1018900009F4C1C008F4ABC0C531DC4509F0D9C0BA
:1018A0008091A50282FB222720F991E0922790FBEC
:1018B00082F990FB83F950C0CD3F5CE5D50709F470
:1018C00081C008F456C0CE3F9CE5D90709F47DC01D
:1018D000CF3FDC4509F0BDC08091A60282605DC0AB
:1018E000C236FDE5DF0709F4A8C068F4C2304DE553
:1018F000D40709F49CC008F484C0C330DD4509F066
:10190000A8C060E095C0CE3A9DE5D907F1F058F443
:10191000C63ADD4509F09DC08091A502982F9095AB
:1019200090FB80F919C0CF3A2DE5D207E1F1C03B19
:10193000DD4509F08EC08091A60283FB222720F9A5
:1019400091E0922790FB83F982C08091A602886083
:101950007EC08091A50282608093A5027AC08091AA
:10196000A50219C08091A5028860F6CF8091A602D9
:1019700014C08091A60282606AC08091A502806234
:10198000EBCF8091A5028064E7CF0E949D1F8091DC
:10199000A5028068E1CF8460DFCF816058C080916C
:1019A000A5028E7FD9CF8091A602877F50C08091FB
:1019B000A5028D7FD1CF8091A5021CC08091A50288
:1019C000877FCACF8091A6021AC08091A6028D7F20
:1019D0003EC08091A5028F7EBFCF8091A5028F7DF2
:1019E000BBCF0E949D1F8091A5028F77B5CF8091BC
:1019F000A502877F8B7FB0CF8091A6028D7F8E7FDF
:101A000026C08091A602982F909591708E7F892B89
:101A100090FB81F91CC00E949D1F8091A50287FB4D
:101A2000222720F991E0922790FB87F995CF61E07A
:101A30008EE090E00E94D1300CC08091A50284FB22
:101A4000222720F991E0922790FB84F985CF80939B
:101A5000A6026091A502C091A60284E090E00E94D7
:101A6000D1306C2F82E290E00E94D1300E949D1F05
:101A7000E1C262E370E08AE20E94322062E370E039
:101A80008AE20E94322062E370E08AE20E94322001
:101A900086E192E00E941E2CB7C9C631FCE5DF0743
:101AA00011F58091D9028A7A91E009F490E090933F
:101AB0007402882311F065E301C069E28AED92E0C7
:101AC0000E9498280DC0C631DC45C1F58091740292
:101AD000882309F4BFC265E38AED92E00E948B2857
:101AE0000E94881DA7C2CB355DE5D50711F150F4E2
:101AF000C1159CE5D90779F0CF3DDC45F9F40E948A
:101B0000131D0CC0CD35FDE5DF0759F0A0F0C83A34
:101B1000DD4521F013C00E9416238CC20E940023D1
:101B200089C28091A60282FB882780F991E08927EB
:101B300003C081E001C080E00E94E11DF7018681C1
:101B400097810097B9F4F7018281C081D181882300
:101B500049F0CE010E94A81E182F682FCE010E94C6
:101B60001C1F04C0CE010E94E91E182FBE01812F48
:101B70000E944D1B0E94661BEC01F7010281D5807B
:101B8000D2949FE0D92280912C038770B9F0002372
:101B9000A9F08D2F807F803421F080E28C0F883077
:101BA00068F08091A60282FF09C082E00E94C41DF5
:101BB00080912C038770CC24C3948111C12CBD2E3D
:101BC000B2948FE0B8228B2D90E08C30910508F014
:101BD000F6C1FC01EA5AFF4F0C9419311D2F1F70FA
:101BE0008D2F807F11F01295107F0023B9F0112303
:101BF00009F4D2C180E28C0F883010F0C11106C008
:101C00008091D902182B1093D90205C08091FE0350
:101C1000182B1093FE030E94881DBEC18C2F0E94BA
:101C2000CF1F112309F4CBC180E28C0F883078F1EB
:101C3000CC2369F110958091FE0318231093FE03C5
:101C400029C01D2F1F708D2F807F803211F01295BB
:101C5000107FCC2319F0C130D9F149C08091A60280
:101C600082FD1BC0002369F0112339F08091D90255
:101C7000182B1093D9020E94881D80E00E94F42D39
:101C80009EC180E00E94CF1F112309F498C1812FCB
:101C90000E94811D0E94881D92C1002381F08091C5
:101CA0003503DD2051F0F1E0DF1207C0182B1817C3
:101CB00009F485C11093350382C1812B10C0DD204A
:101CC00021F021E0D21609F47AC10E947B1D27C0C1
:101CD000002341F042E04D1508F471C1812F0E94AC
:101CE000C51F6DC151E05D1508F469C118C000231E
:101CF00049F0DD2099F3F701858180FF4DC18F7098
:101D00008583ECCFDD2059F0C93309F055C1FFEFD1
:101D100027EE43E0F15020404040E1F74BC1812FD6
:101D20000E94BE1F4CC18D2F86958695837019F039
:101D3000813059F044C1002319F0CE01937002C0E4
:101D400080E090E00E94C82840C1002319F0CE0135
:101D5000937002C080E090E00E94B22836C18C2FC0
:101D6000002319F00E94992D02C00E94AA2C0E9403
:101D7000802C2BC18D2F837009F042C0011123C12B
:101D80003C2F329536953770330F330F8C2F8F7071
:101D900090E0032E02C0880F991F0A94E2F7C4FF57
:101DA0000BC04FE050E002C0440F551F3A95E2F7D8
:101DB0009A012095309502C020E030E04D2F4695E5
:101DC00046954370423099F068F460913603709103
:101DD0003703413029F0822B932B8623972304C0AD
:101DE000862B972B822B932B0E947B1FECC0822B80
:101DF000932B209136033091370382279327F4CF1A
:101E0000002319F08D2F817001C08695882309F475
:101E1000DAC03C2F329536953770330F330F8C2F45
:101E20008F7090E0032E02C0880F991F0A94E2F78A
:101E3000C4FF0BC04FE050E002C0440F551F3A955D
:101E4000E2F79A012095309502C020E030E04D2F56
:101E5000469546954370423079F0B8F46091A302FC
:101E60007091A402413029F0822B932B8623972373
:101E70000EC0862B972B09C0822B932B2091A30297
:101E80003091A4028227932702C0822B932B0E94B9
:101E9000501F99C01D2F1F70002339F0812F0E9401
:101EA0006B1F8C2F0E94C51F8EC08C2F0E94BE1FDF
:101EB000812F0E94591F87C0C23F79F128F4C03F8B
:101EC00041F0C13F29F163C0C33F71F1C43FE1F06C
:101ED0005EC00023A1F051E05D1508F470C02D2F05
:101EE0002F7181E090E002C0880F991F2A95E2F7D8
:101EF0002091A3023091A4028227932725C082E07B
:101F00008D1508F45CC0EBCF8091A60282FD1FC046
:101F1000002329F08D2F8F712DC00023D9F38D2F31
:101F20008F710E94591F4BC0002361F021E030E007
:101F30009D2F9F71F90102C0EE0FFF1F9A95E2F7E6
:101F4000CF0102C080E090E00E94501F38C0002303
:101F5000A1F01D2F1F71812F0E946B1F8091A6027F
:101F600082FF07C0F8E01F9FC001112483608093A7
:101F70002C03812F0E946B1F22C081E00E94C41D90
:101F800021E02D15E0F482E00E94C41D18C000235A
:101F900029F0DD2009F4BECF8C2F70CEDD2009F4AE
:101FA000BECFC93349F44FEF57EE83E04150504064
:101FB0008040E1F700C000008C2F0E94CF1F88EF07
:101FC0008B0D843010F40E94DE28CE010E94821F07
:101FD000882381F0002319F0D1100CC00FC0D1105C
:101FE00009C020E0F70140815181628173818481C1
:101FF0000E94CF221092760210927502CC20A9F096
:1020000080912C0380FD11C0F70112828595859582
:1020100085950E946B1FC7010E94A90680912C0321
:102020008595859585950E94591F60E0C7010E949E
:10203000F22212C080912C03877071F0F701828127
:10204000882351F08091A60282FF06C082E00E94A0
:10205000C41D02C069E240CDCDB7DEB7EAE00C9402
:10206000B030A4E0B0E0E7E3F0E10C949A304091A6
:102070008C0250918D0260918E0270918F022FB769
:10208000F8948091E4039091E503A091E603B09168
:10209000E7032FBF841B950BA60BB70B8436910566
:1020A000A105B10508F441C00E94AB19882319F0BD
:1020B0000E944A280EC00E944A2800919102109165
:1020C00092022091930230919402600F711F821F3F
:1020D000931FDC01CB010296A11DB11D89839A8358
:1020E000AB83BC8380911201909113018F579D4F58
:1020F0004091110150E04530510510F044E050E0AE
:10210000BE016F5F7F4F0E94403182E090E00E94ED
:102110001130882359F00E944A2860938C027093F2
:102120008D0280938E0290938F0281E02496E4E0EA
:102130000C94B630EF92FF921F93CF93DF93CDB7FD
:10214000DEB727970FB6F894DEBF0FBECDBF7B0179
:1021500080E090E00E941130882309F463C0409130
:10216000040150E04115510511F041E050E060914B
:102170000501709106016F577D4FCE0107960E94B1
:10218000403140917D0250917E0260917F027091BA
:1021900080022FB7F8948091E4039091E503A09119
:1021A000E603B091E7032FBF841B950BA60BB70B7B
:1021B00084369105A105B10538F482E892E00E94C9
:1021C000CE149F81891781F181E090E00E94113047
:1021D000182F882391F040910C0150E047305105B1
:1021E00010F046E050E060910D0170910E016F57C4
:1021F0007D4FCE0101960E94403182E892E00E941C
:10220000CE1491E02F81281390E0192311F10E9440
:102210004A2860937D0270937E0280937F029093A0
:1022200080020CC010E001C011E086E0E2E8F2E0BC
:10223000DE01119601900D928A95E1F7112349F084
:1022400086E0FE013196A7E7B2E001900D928A95F3
:10225000E1F786E0E7E7F2E0D70101900D928A9579
:10226000E1F7812F27960FB6F894DEBF0FBECDBFE2
:10227000DF91CF911F91FF90EF900895A0E1B0E022
:10228000E4E4F1E10C948E3085B7806885BF85B7B2
:10229000806885BF84B7877F84BF0FB6F894A89500
:1022A00080916000886180936000109260000FBE92
:1022B00090E080E80FB6F8948093610090936100FD
:1022C0000FBE86E699E190936102809360020E94BE
:1022D00015180E9434188091E20084608093E20017
:1022E00078948091CF028823A1F01091E9001F70AB
:1022F0009091EC00892F817090FD80E8182B10924E
:10230000E9008091E80083FD0E940F151F70109373
:10231000E90082E084BD93E095BD9AEF97BD80937C
:102320006E001092910210929202109293021092FB
:1023300094020E94AB19809319010E94AB1981117C
:102340000E94262F8091190180911901811102C0EC
:1023500096E001C090E09093A20286E0891B8093F2
:10236000A10202E212E0D8018D918D018F3F11F0A0
:102370000E94CE19B2E008321B07A9F708E212E06A
:10238000F80181918F018F3F11F00E94CE19F2E088
:102390000E321F07A9F78CE0E9EAF2E0DF01282FEF
:1023A0001D922A95E9F7E5E9F2E0DF011D928A9591
:1023B000E9F780E090E00E94CB30883E9E4F11F01C
:1023C0000E94131D82E090E00E94C3308093D503E9
:1023D0000E94021D9093A6028093A50283E090E0E4
:1023E0000E94C33090E00E947B1F8CE090E00E942E
:1023F000C33090E0A0E0B0E08093F8039093F9033D
:10240000A093FA03B093FB030E94AB19811102C0A1
:102410000E94292F8AE191E09093E0038093DF03EB
:1024200008E110E040E4E42EFF24F3948091CF0211
:10243000853009F042C020E1C22E32E1D32E8091D6
:10244000CF02853009F035C08091CF02843009F188
:102450001092E3030FB6F894A895009360000FBEA6
:10246000E092600083B7817F846083BF83B781601F
:1024700083BF7894889583B78E7F83BF0FB6F89417
:10248000A895809160008861809360001092600040
:102490000FBE8091CE02882391F20E94E519E9EAED
:1024A000F2E081918111ACC122E0E53BF207C9F76E
:1024B000C6CF0E949D1F0E94DE280E94E51985EB71
:1024C000A82E82E0B82E99EA892E92E0992ED401A6
:1024D000F50191918D91892732E0E13CF30719F0E4
:1024E0008823B9F322C0811120C00E9456286C01B4
:1024F0008091A7029091A802C816D90609F44CC091
:102500008FEF8F83888719860E9456288160782FE5
:102510009B878A874F81588569858B850E948C248B
:10252000D092A802C092A70237C00E94AB19482ED1
:10253000D12CD4015D904D01F5016080652419F125
:10254000C12C77247394862D8721B1F04420A1F00B
:10255000CC86DD8691E0852D872109F490E09E8769
:102560000E9456288160782F988B8F874C855D85D7
:102570006E8588890E948C24C394770CF6E0CF1274
:10258000E2CFD5015C92D394BFEFAB1ABB0AECE06B
:10259000DE12CFCF0E944A280E94AB19882361F136
:1025A00080910002882341F18091D2039091D3035E
:1025B000009711F10E943B282091FC033091FD030C
:1025C00028173907C8F49091D0038091D103981748
:1025D00059F00E94942A1092FD031092FC0310926D
:1025E000D3031092D20308C00E945A2B1092D30337
:1025F0001092D2030E94B02B86E0E2EFF3E0DE01FE
:10260000119601900D928A95E1F71092F4031092C1
:10261000F5031092F6031092F7038B81811104C029
:102620008C81882309F45DC08091F0039091F103BF
:102630000E943B28AC019091EC03992339F0209142
:10264000050230E02417350758F04BC02091D6031F
:10265000FAE02F9F900111242417350718F041C08C
:102660009F3F19F09F5F9093EC03DB80DD2061F0CA
:102670000E945A2D1D1414F09FEF01C091E0899F14
:10268000802D11248093F403DC80DD2061F00E9412
:102690005A2D1D1414F09FEF01C091E0899F802DE9
:1026A00011248093F5033091F4033323D1F020916A
:1026B000F5032223B1F045EB3403C0011124992323
:1026C00019F09093F40302C0F092F40335EB230366
:1026D000C0011124992319F09093F50302C0F092E0
:1026E000F5038D81811104C08E81882309F451C0C6
:1026F0008091EE039091EF030E943B289C01909102
:10270000EB03992309F492C02135310508F441C047
:102710009F3F19F09F5F9093EB03DD80DD2061F018
:102720000E94212D1D1414F09FEF01C091E0899F9C
:10273000802D11248093F603DE80DD2061F00E945D
:10274000212D1D1414F09FEF01C091E0899F802D71
:1027500011248093F7033091F6033323D1F02091B5
:10276000F7032223B1F045EB3403C0011124992370
:1027700019F09093F60302C0F092F60335EB2303B1
:10278000C0011124992319F09093F70302C0F0922D
:10279000F70346E050E0BE016F5F7F4F82EF93E0AA
:1027A0000E943331892BA9F48091F40381110FC069
:1027B0008091F50381110BC08091F603811107C050
:1027C00081E09091F703911103C080E001C081E0A6
:1027D00080FD0E94802C86E0FE013196A2EFB3E0DE
:1027E00001900D928A95E1F70E94DE289091C10236
:1027F000891709F41BCE8093C1020E944A2816CE85
:10280000C9BCD9BC09B400FEFDCF8091D8008F7D32
:102810008093D8008091E00082608093E0008091F6
:10282000E00081FDFCCF0E949D1F09CE232B09F003
:1028300071CFAFCFA0E0B0E0E0E2F4E10C949430CF
:102840007C015B016A01809190028A3018F001E0FE
:1028500010E002C00AE010E0C1E0D0E0B501C7011D
:10286000F6010995811115C021960C171D0794F0EA
:10287000CC9F9001CD9F300D300D112480E090E071
:1028800045E34A95F1F70000019682179307C1F7D7
:10289000E5CF81E0CDB7DEB7EAE00C94B030FF922F
:1028A0000F931F93CF93DF938C018AE0F82EF801EA
:1028B0008491882309F44CC0813009F042C0E801BA
:1028C0002196FE018491813031F42196FE0184919C
:1028D0000E944A2039C0823039F4E8012296FE0174
:1028E00084910E94F42D30C0833039F4E80122969F
:1028F000FE0184910E94CF1F27C0843029F5E80192
:102900002296FE01249180E090E030E020533109CE
:102910002A30310560F4F89EA001F99E500D112473
:10292000C901840F951F2196FE012491EECF0097D7
:1029300059F0EFE9FFE03197F1F700C0000001978F
:10294000F6CF0E94C12BE8018E010F5F1F4FAFCF62
:10295000CDB7DEB7E5E00C94B5300F931F93CF935E
:102960008C018091D902C82FC17080FF03C080EE16
:102970000E94CF1FF8018281882321F08FE20E94FC
:10298000F42D03C08FE20E94CF1FCC2319F080EEFC
:102990000E94F42DCF911F910F910895FC01AC017D
:1029A0004A5F5F4F8FEF91E32191822728E030E06B
:1029B00087FF03C0880F892701C0880F2150310984
:1029C000B9F7E417F50781F70895EF92FF920F9397
:1029D0001F93CF93DF937C018B010E9430278111DD
:1029E00019C0E70101151105A1F08091E80085FDEE
:1029F0000AC08091E8008E778093E8000E9430271B
:102A0000882381F307C089918093F1000150110957
:102A1000E9CF80E0CDB7DEB7E6E00C94B430AAE2AF
:102A2000B0E0E5E1F5E10C949B30E1EDF2E089EDF9
:102A300092E02091F10021938E179F07D1F78091AA
:102A4000D202833009F461C030F4813071F08230F9
:102A500009F49BC0B2C08A3009F487C08B3009F4F6
:102A60006CC0893009F0A9C020C08091D102813AA0
:102A700009F0A3C08091E800877F8093E8008091EF
:102A8000D5029091D602892B21F468E085EC92E082
:102A900003C060E080E090E070E00E94B727809182
:102AA000E8008B778093E80088C08091D102813262
:102AB00009F083C08091D5029091D602029708F068
:102AC0007CC08091E800877F8093E8008091E800D7
:102AD00082FD05C08091CF028111F8CF6EC0209198
:102AE000F3008091F20090E0922B029731F48091F4
:102AF000F100813011F0863021F48091F100809353
:102B0000C4028091E8008B7754C08091D102813A51
:102B100009F053C08091D5029091D602892B09F01B
:102B20004CC08091E800877F8093E8008091E800A6
:102B300080FFFCCF8091260137C08091D102813285
:102B4000E1F58091D5029091D602892BB1F5809163
:102B5000E800877F8093E8000E9463278091D3027A
:102B6000809326010E949D1F28C08091D10281324E
:102B700021F58091E800877F8093E8000E94632719
:102B80008091D4028093C30218C08091D102813A0F
:102B9000A1F48091E800877F8093E8008091E800AD
:102BA00080FFFCCF8091C3028093F1008091E80008
:102BB0008E778093E8000E9463278091E80083FF6E
:102BC000CEC18091D1029091D202492F50E04A307B
:102BD000510508F0C4C1FA01EE59FF4F0C941931A8
:102BE000803821F0823809F0BAC108C08091CD0246
:102BF0009091CE02992389F082600FC08091D50216
:102C00008F70873008F0ABC18093E9008091EB00B2
:102C100085FB882780F91092E9009091E800977F62
:102C20009093E8008093F1001092F10065C1282F85
:102C30002D7F09F094C1882319F0823061F08FC193
:102C40008091D302813009F08AC1933009F080E08D
:102C50008093CE022EC08091D30281112AC0809130
:102C6000D5028F702FEF280F263008F078C180939F
:102C7000E9002091EB0020FF1CC0933021F48091EB
:102C8000EB00806214C09091EB0090619093EB0098
:102C900021E030E0A90102C0440F551F8A95E2F7F8
:102CA0004093EA001092EA008091EB0088608093E4
:102CB000EB001092E9008091E800877F20C181112C
:102CC0004EC11091D3021F778091E3008078812B51
:102CD0008093E3008091E800877F8093E8000E9462
:102CE00063278091E80080FFFCCF8091E30080683B
:102CF0008093E300111102C082E001C083E0809361
:102D0000CF022DC18058823008F029C18091D302B2
:102D10009091D4028C3D53E0950779F583E08A8346
:102D20008AE289834FB7F894DE01139620E03EE0F3
:102D300051E2E32FF0E050935700E49120FF03C0ED
:102D4000E295EF703F5FEF708E2F90E0EA3010F069
:102D5000C79601C0C0968D939D932F5F243149F78C
:102D60004FBF8091E800877F8093E8006AE270E0BF
:102D7000CE0101960E94B727AEC04091D502509176
:102D8000D602292F332723303105A9F068F42130EA
:102D9000310509F4F3C02230310509F0E0C08BE3BE
:102DA00090E0E1EDF1E044C02132310521F1223221
:102DB000310571F1D4C0992781309105A1F058F007
:102DC000029709F0CCC0EEE1F2E0E4918E2F90E0A2
:102DD000EEE1F2E02AC0ECE5F2E0E4918E2F90E023
:102DE000ECE5F2E022C0ECE4F2E0E4918E2F90E01A
:102DF000ECE4F2E01AC04115510509F4C4C04130B9
:102E0000510509F0ACC089E090E0ECEFF1E010C0B2
:102E10004115510509F4BCC04130510509F09FC06E
:102E20008BE790E0E6E1F1E003C0009709F497C07A
:102E30002091E800277F2093E8002091D70230916D
:102E4000D8028217930708F49C0140E02115310550
:102E500089F18091CF02882309F43DC08530D9F1F2
:102E60008091E80083FD37C08091E80082FD2FC08B
:102E70008091E80080FFEACF4091F3008091F2005A
:102E800090E0942B2115310559F08830910540F4DC
:102E900044914093F1003196215031090196F2CFCF
:102EA00041E0089709F040E08091E8008E77809338
:102EB000E800CCCF4111CDCF0AC08091CF0288234A
:102EC00051F0853041F08091E80083FD04C080918D
:102ED000E80082FFF2CF8091E8008B778093E800D2
:102EE0003EC08038E1F58091E800877F8093E8005C
:102EF0008091D0028093F1008091E8008E778093DA
:102F0000E8000E9463272BC0811129C08091D30261
:102F10009091D4029927029714F58091E800877F59
:102F20008093E8001091D3021093D0020E9463278F
:102F3000111106C08091E30087FD02C081E001C04D
:102F400084E08093CF0242E061EC81E00E9482271E
:102F500042E261EC82E00E9482278091CF02809160
:102F6000E80083FF1AC08091E800877F8093E80023
:102F70008091EB0080628093EB000FC082E190E0D3
:102F8000ECE0F2E055CF89E090E0E3EEF1E050CFE5
:102F900080E490E0E1E9F1E04BCFAA96E3E00C9405
:102FA000B7301F920F920FB60F9211242F933F93B9
:102FB0004F935F936F937F938F939F93AF93BF9341
:102FC000CF93DF93EF93FF93C091E900CF7080918F
:102FD000EC00D82FD17080FDD0E81092E9008091EC
:102FE000F000877F8093F00078940E940F15109274
:102FF000E9008091F00088608093F000CD2BCF70C5
:10300000C093E900FF91EF91DF91CF91BF91AF9114
:103010009F918F917F916F915F914F913F912F91F0
:103020000F900FBE0F901F901895E8EDF0E0808193
:103030008E7F80831092E2001092DA001092E100FD
:10304000A0EEB0E08C9181608C9380818F7780833B
:1030500019BCA7EDB0E08C918E7F8C9380818F7E20
:1030600080831092C2020895A0E0B0E0EAE3F8E1A4
:103070000C949630C8EDD0E088818F7E8883E7ED90
:10308000F0E080818160808384E082BF81E0809372
:10309000C20288818E7F888302EE10E0F8011082E0
:1030A0001092DA0081EEC82ED12CF60110828881B0
:1030B0008F77888388818068888388818F7D8883E3
:1030C00019BC1092CF021092D0021092CE02109230
:1030D000CD0290EEE92EF12CF70180818B7F808369
:1030E00088818160888342E060E080E00E948227DE
:1030F000F60180818E7F8083F801808181608083EA
:10310000808188608083F70180818E7F80838881C1
:1031100080618883CDB7DEB7E8E00C94B2301F92AF
:103120000F920FB60F9211242F933F934F935F93FB
:103130006F937F938F939F93AF93BF93EF93FF937F
:103140008091E10082FF09C08091E20082FF05C00A
:103150008091E1008B7F8093E1008091DA0080FF15
:103160002AC08091D80080FF26C08091DA008E7F2F
:103170008093DA008091D90080FF18C080E189BD7A
:1031800082E189BD09B400FEFDCF81E08093CF02CA
:103190008091C20281110FC00E9415180E9434183C
:1031A0008091E20084608093E20005C019BC109217
:1031B000CF021092C2028091E10080FF17C080917F
:1031C000E20080FF13C08091E2008E7F8093E200D6
:1031D0008091E20080618093E2008091D80080625B
:1031E0008093D80019BC85E08093CF028091E100E4
:1031F00084FF30C08091E20084FF2CC080E189BD53
:1032000082E189BD09B400FEFDCF8091D8008F7D99
:103210008093D8008091E1008F7E8093E1008091BF
:10322000E2008F7E8093E2008091E20081608093D3
:10323000E2008091D002882311F084E007C08091E1
:10324000E30087FD02C081E001C083E08093CF02EC
:103250008091CF028091E10083FF27C08091E2003E
:1032600083FF23C08091E100877F8093E10082E0AB
:103270008093CF021092D0028091E1008E7F8093E4
:10328000E1008091E2008E7F8093E2008091E20075
:1032900080618093E20042E060E080E00E9482274B
:1032A0008091F00088608093F000FF91EF91BF91D2
:1032B000AF919F918F917F916F915F914F913F91CE
:1032C0002F910F900FBE0F901F90189580E00895DA
:1032D0009091A50292FF0DC0282F2871283019F473
:1032E000877F846006C0282F2471243011F48B7FDF
:1032F000886093FF0DC0282F2871283119F4877E2C
:10330000846106C0282F2471243111F48B7E8861DA
:103310002091A60220FF0DC0382F3871383019F4E3
:10332000877F816006C0382F3171313011F48E7F74
:10333000886021FF0DC0282F2871283119F4877E5D
:10334000816106C0282F2171213111F48E7E8861A0
:1033500094FD877E089580914203811118C0809169
:10336000D80080618093D8008AE18A95F1F700C087
:103370008091D90080FD02C082E001C081E080938D
:103380004203823021F40E9415181092CF0281E08E
:1033900090914203913009F080E00895F894E82F6D
:1033A000E295EF70F0E031A1282F2F7081E090E0DE
:1033B00001C0880F2A95EAF7982F9095932391A33F
:1033C00092A1892B82A378940895A2E1B0E0EBEE5C
:1033D000F9E10C948F30AE014F5F5F4F7A018CE0C2
:1033E000DA011D928A95E9F702E212E06A0188E2A9
:1033F000682E82E0782EAA24A394B12C2EE2822E8D
:1034000022E0922EF80180818F3F09F440C0F894A9
:10341000E82FE295EF70F0E021A18F70A50102C0C6
:10342000440F551F8A95E2F7CA01922F982B91A35A
:1034300092A18095892382A3789400C0E8E2F2E00B
:10344000512C31E021912F3F89F0A22FA295AF702E
:10345000B0E090968C9190E02F7002C09595879582
:103460002A95E2F780FD02C0832F01C080E0582A30
:10347000330F8E169F0631F7D8018C918F3F11F0D4
:103480000E94CE19B0EABA95F1F7F60150820F5FAB
:103490001F4FFFEFCF1ADF0A6016710609F0B2CF97
:1034A0004CE050E0B70185E992E00E94333100978B
:1034B00041F02CE0F701A5E9B2E001900D922A95C8
:1034C000E1F70091A202892B49F081E080933A0351
:1034D0000E945628909339038093380380913A03D1
:1034E000811102C0F12C22C08091380390913903E0
:1034F0000E943B280597B0F310E007551D4F46E0AA
:1035000050E065E972E0C8010E943331892B59F01F
:1035100086E0E5E9F2E0D80101900D928A95E1F7A5
:10352000FF24F39401C0F12C10923A030E94AB19CE
:10353000E091A202882309F458C06E012DE0C20E6A
:10354000D11C86E0D6011D928A95E9F70E2F10E076
:1035500007551D4F809190028A3048F44AE950E1A6
:10356000B601C8010E941A14882399F00AC08091FC
:103570003B0390913C030E943B28843F914070F7AD
:103580001AC041E350E1B601C8010E941A1481112A
:1035900071C0809190028F3F19F08F5F80939002ED
:1035A000809190028A3008F467C00E945628909358
:1035B0003C0380933B0380914103882309F454C06A
:1035C00086E0F60111928A95E9F710924103A091E5
:1035D000A102B0E0A755BD4F86E0FE013D960190E7
:1035E0000D928A95E1F781E040C0F0E0E755FD4F8C
:1035F00086E0A2E8B2E001900D928A95E1F782E8B8
:1036000092E00E94CE148093810280908802909074
:103610008902A0908A02B0908B0280913D03909124
:103620003E03A0913F03B091400388169906AA0675
:10363000BB06D1F080923D0390923E03A0923F03DF
:10364000B09240030E94AB1981110EC00E944A281B
:10365000861A970AA80AB90A809291029092920259
:10366000A0929302B092940280E08F296296EFE0DC
:103670000C94AB30109290028091A10290E046E051
:1036800050E0B60187559D4F0E94333121E02093D1
:103690004103892B09F09BCFE7CF7C30A0F4663043
:1036A00090F498E4899FF001112486E0789FE00D62
:1036B000F11D1124E60FF11DEE0FFF1FE05AFD4F23
:1036C00085919491089580E090E00895CF93DF93E1
:1036D0008238910569F1B0F48133910509F477C01E
:1036E00048F48932910509F469C08A32910509F4D8
:1036F00073C092C08533910509F45BC0893391058D
:10370000B9F08AC0833E910591F138F4803E91056D
:10371000D1F0823E910531F17FC0863E9105D9F10D
:10372000873E9105E9F1843E910509F075C028C0F6
:103730002091A50220FD5BC021FD59C02091A60269
:1037400023FD61C069C08091A50280FD4AC08091BF
:10375000A60280FF4CC08091A50284FD4EC183EE7D
:1037600090E04DC18091A50282FF3EC0F4CF8091D0
:10377000A50282FD39C08091A60280FD38C0EBCF42
:103780008091A60281FF39C08091A50284FD35C1D8
:1037900087EE90E034C18091A50283FF2BC0F4CF67
:1037A0008091A50283FD26C08091A60281FD25C0DF
:1037B000EBCF8091A50285FD26C022C08091A50295
:1037C00085FD1EC08091A60283FF1DC00AC08091A6
:1037D000A50286FD1BC01DC08091A50286FD19C0F3
:1037E00015C089E390E00BC182EE90E008C180EE45
:1037F00090E005C186EE90E002C184EE90E0FFC04B
:1038000085E390E0FCC089E290E0F9C08AE290E0B4
:10381000F6C081E390E0F3C0811531E5930708F02D
:1038200061C0811520E59207B0F09C012370332719
:1038300041E050E002C0440F551F2A95E2F7282FBF
:103840002695269580E2289F90011124CA01822B9B
:10385000932B9D68D4C0883E910568F5803E910504
:1038600008F0CDC0883A9105B8F4853A910548F042
:10387000855AE82FF0E0E25DFD4F808190E0906492
:10388000BEC08130910509F4B5C008F4B6C08430DB
:10389000910508F4B2C0B3C08F3B910508F0ADC0EC
:1038A000885AE82FF0E0EE0FFF1FEF5CFD4F80819C
:1038B00091819464A4C0811530E2930758F4811576
:1038C00021E0920708F09BC08D3E910508F495C059
:1038D000906595C0811530E4930708F48EC09F7001
:1038E000906A8DC0811525E5920708F042C08115C8
:1038F00034E5930728F0982F8827846F906A7FC05B
:10390000811523E59207B0F09C012370332741E035
:1039100050E002C0440F551F2A95E2F7282F269544
:10392000269580E2289F90011124CA01822B932BB7
:103930009A6865C0811532E5930728F4982F882787
:10394000816F906A5CC09C012370332741E050E096
:1039500002C0440F551F2A95E2F7282F2695269579
:1039600080E2289F90011124CA01822B932B9C682E
:1039700046C0EC01C11589E5D807B0F4C11528E5AA
:10398000D20728F09C2F8827806F906A38C0C11515
:1039900036E5D30790F58C2F0E9468198F7190E05F
:1039A000982F882790622BC0C1158AE5D80790F41C
:1039B0008C2F8F700E94681994E0D695C7959A95C0
:1039C000E1F7CF70D0E0DC2FCC27D0699E01282B07
:1039D000C90115C0CE0190568115904270F48D2F0B
:1039E0008F710E946819282F2F71CE01992790623C
:1039F000922B05C081E090E002C080E090E0DF9172
:103A0000CF910895CF9384E090E00E94C330C82FF7
:103A100082E290E00E94C3302C2F30E0A901582BA5
:103A2000CA01CF91089568EE7EEF80E090E00E9499
:103A3000EF3060E082E090E00E94D13060E083E00F
:103A400090E00E94D130109237031092360360E06C
:103A500084E090E00E94D13064E082E290E00E9435
:103A6000D13060E085E090E00E94D13060E086E0F7
:103A700090E00E94D1306FEF87E090E00E94D1305B
:103A800040E050E0BA0188E090E00E94E33060E05E
:103A90008DE090E00E94D13040E050E0BA0188E132
:103AA00090E00E94E33060E087E190E00E94D13036
:103AB00040E050E0BA018CE190E00E94E33060E029
:103AC00070E080E290E00E94EF3040E050E0BA0108
:103AD00088E190E00E94E33040E050E0BA018FE0DE
:103AE00090E00E94E33040E050E0BA0183E190E0D2
:103AF0000E94E330089580913503811110923503BF
:103B0000089580959091D90289238093D9020895D0
:103B10009091D9028091FE03982B9093DA028091C4
:103B20003503882389F0892B8093DA02ECEDF2E0EB
:103B300097E080E0915029F021912223D9F38F5F03
:103B4000F9CF81110E947B1D48E050E06DE273E0E7
:103B50008AED92E00E943331892BA9F088E0EAEDEA
:103B6000F2E0ADE2B3E001900D928A95E1F7E091C9
:103B7000DF03F091E003309731F00280F381E02D14
:103B80008AED92E00995089520912C038095822377
:103B900080932C03982F977099F430E0482F082ECB
:103BA000000C550B2417350759F09091A60292FF8F
:103BB00007C08595859585950E94591F10922C0305
:103BC0000895CF93C091A602C2FB992790F9981748
:103BD00091F080FBC2F9C093A6026091A50284E037
:103BE00090E00E94D1306C2F82E290E00E94D130B0
:103BF00082E00E94C41DCF91089520912B039091E3
:103C0000EA022917B1F030E0F90153E0EE0FFF1F8F
:103C10005A95E1F7E551FD4F5181561306C0508189
:103C2000581303C05281541306C02F5F3F4F2770B3
:103C3000E8CF80E0089581E0089580912B03909172
:103C4000EA02891719F08F5F8770FBCF0895EF9212
:103C5000FF920F931F93CF93DF938091E70282959A
:103C60008F7009F054C08091E402882309F44FC09A
:103C7000C0912B03E090EA02D091E202F090E302BF
:103C80000091E5021091E602CE1509F440C0A801AA
:103C90006F2D8D2F0E94762A2C2F30E0811132C09B
:103CA000F90183E0EE0FFF1F8A95E1F7DF01A551CF
:103CB000BD4F11968C9111978F1124C08C918D134B
:103CC00021C012968C91129781111CC013968D9170
:103CD0009C911497801B910B883C910598F48091DE
:103CE000E7028F7080618093E702E051FD4F808191
:103CF0008F708061808382EE92E00E94A9060E940C
:103D00001D1E05C02F5F3F4FC22FC770BDCFCDB75F
:103D1000DEB7E6E00C94B43080E090E00E94C82862
:103D200080E090E00E94B2281092FE030E94881D5D
:103D3000E2EFF3E086E0DF011D928A95E9F7109249
:103D4000EC031092EB031092ED030E94802C089577
:103D5000A0E0B0E0EEEAFEE10C9495307C01009129
:103D6000A3021091A4028091360390913703082B8F
:103D7000192BCFE0D0E0CC24C394D12CC6010C2E5B
:103D800002C0880F991F0A94E2F780239123892BA0
:103D900021F4219798F7B12C09C0BC2EB7018C2FC4
:103DA0000E944D1B0E94661B019799F38B2DCDB786
:103DB000DEB7E9E00C94B130CF93DF93EC010E94C1
:103DC000A81EBE010E944D1B0E94661BDF91CF9171
:103DD00008959C3078F5863068F5E82FF0E086E0AD
:103DE000989FE00DF11D11249E2F977083E0F695AA
:103DF000E7958A95E1F7EE0FFF1FEE0FFF1FED5BD2
:103E0000FC4F40E050E080E0219130E0092E02C0FC
:103E1000369527950A94E2F721703327042E01C0C6
:103E2000220F0A94EAF7822B4F5F5F4F443051050F
:103E300059F7089580E008959C3088F5863078F52C
:103E4000E82FF0E086E0989FE00DF11D11248E2F01
:103E5000877051E001C0550F8A95EAF783E0F69527
:103E6000E7958A95E1F7EE0FFF1FEE0FFF1FED5B61
:103E7000FC4F20E030E070E04081CB01022E02C018
:103E8000969587950A94E2F781708195842785231A
:103E9000842781932F5F3F4F2430310569F70895C0
:103EA0000E9477239093A4028093A3020E948C1E09
:103EB000089521E030E002C0220F331F8A95E2F717
:103EC000209530958091A3029091A40282239323A0
:103ED0000E94501F089521E030E002C0220F331FDE
:103EE0008A95E2F78091A3029091A402822B932BF2
:103EF0000E94501F089590933703809336030E94C9
:103F00008C1E089592959F70963079F010F492501F
:103F100001C09A50923068F4803F69F018F4883EEE
:103F200040F409C0843F29F406C0883E20F0813F58
:103F300011F080E0089581E008951092D90286E0A2
:103F4000ECEDF2E0DF011D928A95E9F70E948C1EEC
:103F50000895882341F080959091FE0389238093F2
:103F6000FE030E94881D0895882339F09091FE0376
:103F7000892B8093FE030E94881D0895882321F0D9
:103F80000E94811D0E94881D0895882339F0909118
:103F9000D902892B8093D9020E94881D0895882315
:103FA00009F45FC0823869F40E94DE2881FF59C09D
:103FB00069E38AED92E00E9498280E94881D69E3D7
:103FC0000EC0833899F40E94DE2880FF4AC063E562
:103FD0008AED92E00E9498280E94881D63E58AED90
:103FE00092E00E948B280E94881D0895843869F40D
:103FF0000E94DE2882FF35C067E48AED92E00E94CD
:1040000098280E94881D67E4EACF9CEF980F913AA8
:1040100010F4682FE4CF90E2980F983050F4877036
:1040200091E001C0990F8A95EAF7892F0E94811DBE
:10403000DACF9BE5980F933028F480E090E00E945F
:10404000C828089598E5980F973128F480E090E00B
:104050000E94B22808958D3E20F00E94AA2C0E9452
:10406000802C08951F93CF93DF93182FEB010E94AC
:10407000F42D209741F08FE99FE00197F1F700C000
:1040800000002197F6CF812F0E94CF1FDF91CF91A3
:104090001F910895893319F060E070E002C060E577
:1040A00070E00E9432200895CF93DF93EC014B81A2
:1040B0005C81698188810E94762A81110EC08E817F
:1040C0009F81009719F00E94661B04C08881998126
:1040D0000E94DC1E0E94821F01C080E0DF91CF9110
:1040E0000895A5E1B0E0E7E7F0E20C948D308C0193
:1040F00085E0F801DE01519601900D928A95E1F775
:10410000D8011296EC9082EEA82E82E0B82E509044
:10411000E2024090E3028090E5029090E602A40162
:10412000642D852D0E94762AF82E811174C1F80124
:1041300070806180C380D4803090E4029601281999
:104140003909332009F419C18091E702982F907F33
:10415000283C310508F0D3C0911179C046101AC02F
:10416000571018C04091E8025091E902268137812A
:104170004217530779F4E1100DC08F70806180936E
:10418000E702C5010E94A9068091E702D8011596B1
:104190008C935DC1A601662D872D0E94762AD82EAC
:1041A000811103C081E08E2502C080E090E080FF95
:1041B00007C04E2D662D872D0E94FD1D81113EC02A
:1041C000D11003C081E08E2502C080E090E0B82FBE
:1041D000B170DB2E80FF2AC04E2D662D872D0E94E8
:1041E000FD1DC82E811122C0798A6A8A89899A891F
:1041F0000E94DC1E292F22952F70223018F02430C7
:1042000078F405C09F7049F0811107C00DC09F7000
:1042100021F0F8019581907F39F0805E883020F0A0
:10422000C8010E94A906CD2CFC2C11C1EE2009F476
:104230000DC18091E70281608093E70282EE92E0F7
:104240000E94A906E2EEF2E088E0DF01E0C046103D
:104250001BC0571019C04091E8025091E902F801C3
:10426000268137814217530779F4E1100DC0858309
:10427000C8010E94A90688E0F801A2EEB2E0019010
:104280000D928A95E1F759C0C8010E9454208823F5
:1042900081F1EE2071F12091E702822F82958F70DB
:1042A00090E00297A4F08091E2029091E3029A8755
:1042B00089871B86DD86CC862E878091E8029091C7
:1042C000E902988B8F87CE0109960E94A90688E0A3
:1042D000F801A2EEB2E001900D928A95E1F70E94FA
:1042E000271E0AC0461491F0C8010E945420811173
:1042F00026C0C8010E94A906FF24F394A8C091110A
:10430000F1CF82EE92E00E94A9067FC05710ECCF59
:104310004091E8025091E902F80126813781421765
:10432000530711F7E110E0CF8583C8010E94A90669
:1043300088E0D5011D928A95E9F7F32C88C0EE201C
:10434000C1F22091E702822F82958F7090E0029750
:104350000CF4BDCF8091E2029091E3029A838983AD
:104360001B82DD82CC822E838091E8029091E9024B
:1043700098878F83CE010196A8CF283C310508F09D
:1043800044C0FE2CEE2009F4B4CF461030C05710C4
:104390002EC02091E8023091E902F80186819781D0
:1043A0002817390721F59091E70290FD17C0892F52
:1043B00082958F70282F30E02115310579F0958393
:1043C0002F30310541F08F5F982F9295907F858136
:1043D0008F70892B8583C8010E94A90688E0F801A7
:1043E000A2EEB2E001900D928A95E1F730C0C801CB
:1043F0000E94542081116BCF8091E70281608093ED
:10440000E702C8010E94A90622C088E0D5011D92DA
:104410008A95E9F71CC0EE2009F46BCFC8010E9411
:104420005420F82E882309F464CF88E0F801A2EE26
:10443000B2E001900D928A95E1F78091E2029091AD
:10444000E3020E94DC1E0E94271E01C0F12C8F2D6A
:104450006596E1E10C94A930A0E1B0E0E2E3F2E27C
:104460000C94983029873A874B875C876D877E87C5
:104470008F87988BCE0109960E94712081114AC0C6
:1044800088E0FE013996DE01119601900D928A9521
:10449000E1F7E984FA840C851D85A8016F2D8E2D26
:1044A0000E94762A811136C0A091EA02B0E0CD01C7
:1044B00001968770992720912B0330E0821793078C
:1044C00081F1E982FA821D830C8393E0AA0FBB1F5E
:1044D0009A95E1F7A551BD4F98E0FE013196019004
:1044E0000D929A95E1F78093EA020E941D1E12C078
:1044F00028E0829FC001112485519D4F0E947120A8
:104500008823E1F080912B0390E001968770992732
:1045100080932B0380912B039091EA028913E8CFBB
:104520000DC00E949D1F1092EA0210922B03E2EE32
:10453000F2E088E0DF011D928A95E9F76096E6E0F7
:104540000C94B4309C013A9521153F4130F5BC01E3
:1045500066277270AC01442754709C012227387082
:1045600094FF0FC090FF02C080E101C080E0672B84
:1045700009F08062452B09F08064232B79F0806874
:104580000895892F8170672B09F08260452B09F00F
:104590008460232B19F08860089580E00895A5E0D9
:1045A000B0E0E5EDF2E20C949B3049835A838981B7
:1045B0009A81662359F0222349F00E94A81E182FE1
:1045C000682F89819A810E941C1F03C00E94E91EE6
:1045D000182F69817A81812F0E944D1B2596E3E077
:1045E0000C94B730FC0186819781009741F4262F07
:1045F000408151816281738184810E94CF2208951C
:104600000E949D1F2FEF84E39CE02150804090404A
:10461000E1F700C000009AE088E10FB6F894A89591
:10462000809360000FBE90936000FFCF0E949D1F9B
:104630002FEF84E39CE0215080409040E1F700C0E0
:10464000000087E797E790930108809300089AE0BD
:1046500088E10FB6F894A895809360000FBE909300
:104660006000FFCFEF92FF920F931F93CF93DF93E2
:10467000EC018B017C0180EEE81AF10898E0E91664
:10468000F10410F0209731F4CE010E94A2220E9482
:10469000C51F05C0CE010E94A2220E94B41F8C2F0C
:1046A0000E94F42D0115110549F08FE99FE0019753
:1046B000F1F700C0000001501109F4CF8C2F0E94C7
:1046C000CF1F98E0E916F10410F0209731F4CE01E5
:1046D0000E94A2220E94BE1F05C0CE010E94A222FB
:1046E0000E94A91FCDB7DEB7E6E00C94B4309C0160
:1046F0002C7033272C30310511F4806101C08F7E7E
:104700009C01247038702430384011F49061089571
:104710009F7E0895EF92FF920F931F93CF93DF93A5
:104720007C01162FEA018091D902082F027081FFC7
:1047300003C081EE0E94CF1FF7018281882349F0D8
:10474000812F0E94F42D209761F08C2F0E94F42D70
:1047500008C0812F0E94CF1F209719F08C2F0E9434
:10476000CF1F002319F081EE0E94F42DCDB7DEB7E4
:10477000E6E00C94B4300F931F93CF938C01C42FB9
:10478000AB0166EE70E00E948A23F80182818111FC
:1047900006C08C2F0E94F42D8C2F0E94CF1FCF912A
:1047A0001F910F9108958F31910508F0B4C0FC015D
:1047B000E459FF4F0C941931662309F4ACC084E529
:1047C0009BE0A7C0662309F4A6C088E49BE0A1C0D3
:1047D000662309F4A0C08DE39BE09BC0662309F427
:1047E0009AC082E39BE095C0662309F494C08BE2F3
:1047F0009BE08FC0662309F48EC084E29BE089C0F1
:10480000662309F488C086E19BE083C0662309F42F
:1048100082C088E09BE07DC0662309F47CC08FEFF6
:104820009AE077C0662309F476C087EF9AE071C0FA
:10483000662309F470C08DEE9AE06BC0662309F41C
:104840006AC085EE9AE065C0662309F464C08BED0A
:104850009AE05FC0662309F45EC084ED9AE059C017
:10486000662309F458C08BEC9AE053C0662309F420
:1048700052C082EC9AE04DC0662309F44CC085EB2F
:104880009AE047C0662309F446C08AEA9AE041C02C
:10489000662309F440C084EA9AE03BC06623D9F15C
:1048A0008BE99AE036C06623B1F18EE89AE031C018
:1048B000662389F185E89AE02CC0662361F18AE7D6
:1048C0009AE027C0662339F185E79AE022C0662383
:1048D00011F180E79AE01DC06623E9F08DE69AE0C9
:1048E00018C06623C1F088E69AE013C0662399F0E9
:1048F00084E69AE00EC0662371F08EE59AE009C066
:10490000662349F081E59AE004C0662321F080E443
:104910009AE00E944F140895ABE1B0E0E2E9F4E2BE
:104920000C948C30942F498B252F5A8B6B8B7C8B5E
:104930008D8B4C895D89622F892F0E94762A811187
:1049400009C080917502909176020196909376024B
:10495000809375028B8981111092FE038E01075F8F
:104960001F4F88E0F80111928A95E9F785E0FE0172
:104970007196D80101900D928A95E1F74C855D857D
:104980006A8589850E94762A8111D8C161E0C801B3
:104990000E94F2225C01883FFCE59F0739F48B8579
:1049A0008823A1F081E080930002C8C1893F2CE5F3
:1049B000920731F48B85882349F00E94852ABEC175
:1049C0008A3F9C4519F48B85811111C007E211E0E3
:1049D000712CC12CD12C88248394912C5524539470
:1049E000CE0101969F8B8E8B77E0472E38C0809149
:1049F00000028823B9F2E1CFFFEFEF16FF0609F4BA
:104A00004BC1F8016481611145C020910002822FE1
:104A100081706B84F80135812681662009F4DCC041
:104A2000882309F4D9C03323C1F1940102C0220FB5
:104A3000331F9A95E2F721503109F801868190E001
:104A40002817390709F440C07628FFEFCF1ADF0A8C
:104A5000095F1F4F2FE1C216D10409F41FC1F801ED
:104A6000208131816FEF8FEF90E0E92EF12CF7017B
:104A7000EE0FFF1FE20FF31F45915491A416B506E8
:104A800011F0E62EF82E452B09F4B6CF9F5F6E2D60
:104A90008F2DEBCF20E030E0BACFA4010E2C01C067
:104AA000440F0A94EAF7242B26832091FC033091CB
:104AB000FD032233310508F0B8CF22E330E0309314
:104AC000FD032093FC03B1CF8091D2039091D303D7
:104AD000009729F00E943B28C39708F02CC18091D1
:104AE000D003B091D103982FE0E0F0E08B1709F4E8
:104AF0005FC0282F30E0F901EE0FFF1FE853FC4F95
:104B0000E080F1804E9CF0014F9CF00D1124E95D96
:104B1000FE4F40814A8F41814B8FA0E060E070E002
:104B2000EA8DFB8DE70FF11DE70FF11D2590349005
:104B300021143104D1F0F801F081F88FF801F181EE
:104B4000F98F60E0E88DF98DE60FF11DE60FF11D9C
:104B5000459154914115510531F02416350609F45B
:104B6000A1E06F5FEFCF7F5FDBCFAA23D1F06717A4
:104B700008F4DBC04E9CF0014F9CF00D1124E95D60
:104B8000FE4F309781F05482E017F10719F49093AB
:104B9000D0035ACF891307C0C9010196982F93708B
:104BA00002C0E0E0F0E02F5F3F4F822F83709ECF86
:104BB0009093D003E017F10709F446CF90E0FC0191
:104BC000EE0FFF1FE853FC4FD182C0820196837025
:104BD00099278093D10338CF311114C0A40102C0AA
:104BE000440F551F9A95E2F74150510930E04217A2
:104BF000530709F043C0662309F441C0C6010E946F
:104C00002C2B3CC0822F90E09C012150310928239D
:104C100039230E2C02C0959587950A94E2F7232B31
:104C200059F580FF29C0F80182819381892BE1F039
:104C300088E0EE89FF8911928A95E9F78EEF8983E2
:104C40008A830E9456288160582F9D838C83F801A7
:104C5000828193818F83988729813A814B816D81ED
:104C60007E810E942C2204C060E0C6010E94D323F2
:104C7000F801158281E003C0817001C080E09401D9
:104C80000E2C01C0220F0A94EAF72095F8019681B4
:104C900029232683682ED8CE612CD6CE8B858823F7
:104CA00081F1772071F10E9456289093D30380936D
:104CB000D20380916703883008F04AC091E0980FD2
:104CC0009093670398E0FE013996DE0111960190FA
:104CD0000D929A95E1F74CE0849FC0011124885908
:104CE0009C4F28E0FE013196DC0101900D922A953F
:104CF000E1F72FEF3FEFFC0131872087B386A286D3
:104D000027C09091D0038091D103981719F00E9489
:104D1000942A08C00E945A2B1092D3031092D203F7
:104D20000E94B02B772051F013C00115110509F432
:104D300038CF9093D003F801548286CE29853A85E6
:104D40004B855C856D857E858F8598890E942C2298
:104D50006B96E2E10C94A83008958091C402089506
:104D60008093E8037093EA036093E9038091CF0294
:104D7000843001F582E08093E9008FEF9091E800A4
:104D8000815095FD06C095ED9A95F1F700008111CF
:104D9000F5CF8091E80085FF0DC040E050E063E072
:104DA00070E088EE93E00E94E5148091E8008E7731
:104DB0008093E8000895BC0184E00E94B026089525
:104DC000BC0183E00E94B026089522E02093E90010
:104DD0002FEF3091E800215035FD06C035ED3A95B2
:104DE000F1F700002111F5CF2091E80025FF0BC05D
:104DF00040E050E066E070E00E94E5148091E80039
:104E00008E778093E8000895CF93DF9321E020937D
:104E1000E9002FEF3091E800215035FD06C035ED57
:104E20003A95F1F700002111F5CF2091E80025FF18
:104E300014C0EC0140E050E068E070E00E94E5142E
:104E40008091E8008E778093E80088E0FE01A5EC71
:104E5000B2E001900D928A95E1F7DF91CF9108952C
:104E60002091E4003091E50095E64091EC00842F1C
:104E7000817040FF23C08091E80080FD1DC08091BB
:104E8000CF02882399F0853099F08091EB0085FD61
:104E900011C04091E4005091E5002417350729F333
:104EA000915011F09A01E1CF84E0089582E00895D5
:104EB00083E0089581E0089580E008954091E8003E
:104EC00042FFDDCF08958091D10287FF11C080910C
:104ED000E80082FD05C08091CF028111F8CF11C09A
:104EE0008091E8008B770BC08091CF02882349F036
:104EF0008091E80080FFF8CF8091E8008E77809362
:104F0000E8000895982F973068F59093E900981776
:104F100039F07091EC002091ED005091F00003C049
:104F2000242F762F50E021FD02C09F5FECCF3091FF
:104F3000EB003E7F3093EB003091ED003D7F3093EE
:104F4000ED003091EB0031603093EB007093EC009A
:104F50002093ED005093F0002091EE0027FDE5CF67
:104F600080E008958F708093E90081E0089520919A
:104F7000D7023091D8022617370748F0611571051E
:104F800039F42091E8002E772093E80001C0B901A0
:104F9000FC0120E06115710579F18091CF02882331
:104FA000F1F18530F1F18091E80083FD3CC0809102
:104FB000E80082FD2EC08091E80080FFEBCF2091B9
:104FC000F3008091F20090E0922B6115710551F091
:104FD0008830910538F421912093F10061507109D6
:104FE0000196F3CF21E0089709F020E08091E800D6
:104FF0008E778093E800CECF2111CFCF0AC0809169
:10500000CF02882361F0853061F08091E80083FD54
:105010000AC08091E80082FFF2CF80E0089582E02C
:10502000089583E0089581E0089578941F920F9287
:105030000FB60F9211248F939F93AF93BF938091DC
:10504000E4039091E503A091E603B091E703019694
:10505000A11DB11D8093E4039093E503A093E603A3
:10506000B093E703BF91AF919F918F910F900FBEC7
:105070000F901F9018959C014FB7F8948091E4030E
:105080009091E503A091E603B091E7034FBF821B27
:10509000930B08952FB7F8946091E4037091E503A2
:1050A0008091E6039091E7032FBF08952FB7F894FE
:1050B0008091E4039091E503A091E603B091E703AA
:1050C0002FBF08951F920F920FB60F9211248F9346
:1050D0009F93AF93BF938091E303811113C080919D
:1050E000E4039091E503A091E603B091E7034196B4
:1050F000A11DB11D8093E4039093E503A093E60303
:10510000B093E703BF91AF919F918F910F900FBE26
:105110000F901F9018959C012A5F3F4FFC01428120
:10512000461301C01282019682179307B9F70895BA
:105130009C01FC0132969FEF80E04191461789F077
:105140009F3F19F4411101C0982F8F5F8630A9F756
:105150009F3F39F0F901E90FF11D97FDFA95628340
:10516000089508952091E1033091E203281739074B
:1051700071F09093E2038093E103E091DF03F091FB
:10518000E003309721F00084F185E02D0995089522
:105190002091DD033091DE032817390771F09093D9
:1051A000DE038093DD03E091DF03F091E0033097AD
:1051B00021F00680F781E02D099508950E94AB1932
:1051C000882359F0E091DF03F091E003309729F054
:1051D0000190F081E02D0995089580E008950F93E6
:1051E0001F93CF93DF93C42FD22FFC01828188239A
:1051F000B1F04093DC030E9456289093DB03809328
:10520000DA0380E28C0F883008F04DC0C77081E06F
:1052100001C0880FCA95EAF70E94C51F44C080915B
:10522000DC03481330C08091DA039091DB030E94C5
:105230003B28883C910538F510E21D0FCD17B9F0D9
:1052400080E28C0F883040F4C77081E001C0880F85
:10525000CA95EAF70E94BE1F183010F581E09D2F15
:10526000977001C0880F9A95EAF70E94C51F802F9A
:105270000E944A201830B8F4D77081E001C0880F2E
:10528000DA95EAF70AC080E28C0F883060F4C770C4
:1052900081E001C0880FCA95EAF70E94BE1F03C0D3
:1052A000802F0E944A20DF91CF911F910F91089586
:1052B000893279F1E0F4843161F1A0F4873009F0AA
:1052C00075C01092D60394E1909305028093040276
:1052D0008CE38093030288E08093020288E280934B
:1052E000010264C092EE980F9A30F0F05FC08035F2
:1052F00009F444C028F48F3409F058C08AE03FC054
:10530000813529F0823509F051C081E038C08FEF36
:1053100036C08091D903882379F11092D903109275
:10532000D8031092D70342C08D518093D9038330A4
:1053300099F038F4813069F08230D9F485E092E058
:105340000DC0853099F078F0863099F481E092E0D4
:1053500005C086ED93E002C084E092E09093D8030C
:105360008093D70323C083E092E0F8CF82E092E0FD
:10537000F5CF1092D9031AC080E0089586EFE0912E
:10538000D703F091D803309789F02081082E000CC4
:10539000990B820F911D8F3F910519F014F08FEF3B
:1053A00004C097FF02C0108201C0808381E008958D
:1053B0008B3109F469C058F58B3009F493C078F447
:1053C000863009F446C020F4853009F44CC08CC006
:1053D000873009F44BC0883009F484C085C080311F
:1053E00009F465C068F48E3009F07EC08091D50361
:1053F00082FB222720F991E0922790FB82F94DC091
:10540000863109F46FC0893109F46CC06DC08A32ED
:10541000E9F060F4873209F45FC028F48E3108F4B3
:1054200063C08D514FC08932F1F05EC0833450F4B7
:105430008A3308F046C0853309F44EC0883309F436
:1054400051C052C0833409F447C04EC00E94131D9E
:1054500049C08091D503817F8E7F8093D50381E001
:105460008093D40308950E9416233CC08091D503F5
:10547000982F9095917090FB80F98093D5039111AE
:1054800031C0897F877F10C08091D50381FB22279F
:1054900020F991E0922790FB81F98093D50399231D
:1054A00009F18091D50381608093D5031BC0809161
:1054B000D50383FB222720F991E0922790FB83F903
:1054C000ECCF895321E030E0A90102C0440F551F01
:1054D0008A95E2F7CA0102C081E090E00E947B1F3A
:1054E0000E949D1F81E0089580E00895452B41F0C2
:1054F0006F3F41F491E08F3F09F090E0892F03C0A6
:1055000081E001C080E0817008951092D303109271
:10551000D203109200028091D1038093D0030E94A5
:10552000B02B0E945A2B0895A0E0B0E0EAE9FAE21D
:105530000C948C30C091D003E7E0FE2E01E010E027
:10554000FCE02F2EAEEFEA2E8091D103C81709F4AC
:105550007AC0D0E0FE01EE0FFF1FE853FC4F8081C0
:105560009181F89EF001F99EF00D1124E95DFE4F46
:105570002481211165C060906703A8E6B3E020E0B4
:1055800030E0712C5F01261508F058C01A964D9036
:105590005C901B97F501808091804FEF5FEF312C7D
:1055A000C32CD12CF601EE0FFF1FE80DF91D6591FC
:1055B00074914616570609F4A601672B11F033942F
:1055C000EFCF4F3FFFEF5F07A9F1B80102C0660FB1
:1055D000771F4A95E2F7762AA801032C02C0440FF0
:1055E000551F0A94E2F741505109672D70E04617A4
:1055F0005707E1F4229EF001239EF00D1124E85993
:10560000FC4FF89ED001F99EB00D1124A95DBE4F4C
:1056100012962D913C91139737832683E082E18285
:105620009187808771E015967C9308C014961C9230
:105630001E9213972F5F3F4F1C96A5CF0E942C2BD5
:105640002196C37081CF0E945A2B0E94B02BCDB7F8
:10565000DEB7E2E10C94A830BC014091D003809108
:10566000D103942F981729F1292F30E0F901EE0F7B
:10567000FF1FE853FC4F0190F081E02DE617F7077C
:1056800099F487E0869FF001879FF00D1124E95D72
:10569000FE4F81E0848394130CC02F5F3F4F237033
:1056A00033272093D00308952F5F3F4F922F93709D
:1056B000D9CF0895EF92FF920F931F93CF93DF936B
:1056C00080916703882309F446C00091FF038CE0B2
:1056D000F82E809167030817D0F5EE24E394E00ECE
:1056E000E092FF0310E0F09EE001F19ED00D112446
:1056F000C859DC4F4B815C81698188810E94762A80
:10570000811123C08E819F81892B51F488859985D1
:105710008F3F2FEF920721F061E00E94D3230AC050
:10572000288139814A815B816C817D818E819F8155
:105730000E942C22F09EF001F19EF00D1124E859F8
:10574000FC4F148213821092FE030E2DC2CF1092D2
:1057500067031092FF03CDB7DEB7E6E00C94B430D8
:105760001092FD031092FC03E7E2F1E085818111C4
:1057700002C014821682379682E0E030F807B1F753
:105780000895A0E0B0E0E7ECFBE20C949730E82F3E
:10579000F0E0EC56F34FD490282F269526952695C9
:1057A00030E0F901EC57F34F0491877010E0082EB8
:1057B00002C0159507950A94E2F701701127F901C7
:1057C000EC58F34FE490F12C082E02C0F594E794C6
:1057D0000A94E2F791E0E922FF24F901EC59F34F32
:1057E000C491D0E002C0D595C7958A95E2F7C17003
:1057F000DD270115110519F081EE0E94F42DE11449
:10580000F10419F086EE0E94F42D8D2D0E944A209D
:10581000E114F10419F086EE0E94CF1F0115110565
:1058200019F081EE0E94CF1FCD2B19F08CE20E945F
:105830004A20CDB7DEB7E7E00C94B330EF92FF9289
:105840001F93CF93DF93EC011AE08881882309F43A
:105850004AC0813009F043C08981813041F47E0122
:1058600082E0E80EF11C8A810E944A2009C0823041
:1058700049F47E01E2E0EE0EF11C8A810E94F42DD3
:10588000E7012FC0833041F47E01F2E0EF0EF11CFE
:105890008A810E94CF1FF4CF843011F0219621C05D
:1058A0002A81229680E090E030E0205331092A30AE
:1058B000310558F4189FA001199F500D1124C901FA
:1058C000840F951F21962881EFCF009751F0EFE9C3
:1058D000FFE03197F1F700C000000197F6CF0E947A
:1058E000C12B2196B2CFDF91CF911F91FF90EF9006
:1058F00008956091F8038CE090E00E94D130089503
:105900000E9456282091F403211104C02091F50330
:10591000222321F09093F1038093F0032091F6036A
:10592000211104C02091F703222321F09093EF036B
:105930008093EE03E091DF03F091E003309749F0AC
:1059400082E08093F2030480F581E02D82EF93E002
:10595000099508958D3E39F49091F50397FF35C070
:105960001092F50359C08E3E29F49091F503191653
:10597000BCF32BC09091F4038F3E29F497FF25C010
:105980001092F40349C0803F19F41916CCF31DC0DE
:105990009091F603893F29F41916BCF41092F6038E
:1059A0003BC08A3F19F497FF10C0F8CF8B3F39F402
:1059B0009091F70397FF09C01092F7032DC08C3F19
:1059C00021F49091F7031916BCF39FE0980F9830DB
:1059D00080F421E030E0A90102C0440F551F9A95E0
:1059E000E2F7CA0180959091F30389238093F30332
:1059F00013C08D3F21F48091ED038E7F0BC08E3F4D
:105A000021F48091ED038D7F05C08F3F29F48091B3
:105A1000ED038B7F8093ED038091F403811106C029
:105A20008091F503811102C01092EC038091F6037E
:105A3000811106C08091F703811102C01092EB031F
:105A400008958091ED0380FF08C06091020270E02C
:105A5000759567957595679521C081FF06C0609122
:105A6000020270E07595679519C082FF04C06091CD
:105A7000020270E010C09091EB03992399F06091BD
:105A800001029617A0F780910202899FC00111249C
:105A900070E00E9405316038710540F461157105B0
:105AA00019F406C061E070E0862F08958FE708952D
:105AB00081E008958091ED0380FF06C060910402AB
:105AC00070E0660F771F26C081FF04C0609104025A
:105AD00084E005C082FF07C06091040288E0689FEF
