:100000000C9472060C94502F0C948F060C948F064F
:100010000C948F060C948F060C948F060C948F060C
:100020000C948F060C948F060C9480180C94C217B5
:100030000C9447280C948F060C948F060C948F0612
:100040000C948F060C948F060C948F060C948F06DC
:100050000C948F060C94FA270C948F060C948F0640
:100060000C948F060C948F060C948F060C948F06BC
:100070000C948F060C948F060C948F060C948F06AC
:100080000C948F060C948F060C948F060C948F069C
:100090000C948F060C948F060C948F060C948F068C
:1000A0000C948F060C948F060C948F06DF0DDF0DD9
:1000B000120E120E840EA00ED00FD00FAB0E3B0FFF
:1000C0004D0F4D0FE1150816A0170816A017501672
:1000D0007316A01762177517CD23D323D923DF23F7
:1000E000E523EB23F123F723FD23032409240F2425
:1000F00015241B24212427242D24332438243D2493
:10010000422447244C24512456245B246024652433
:100110006A2405010902A10185020901A10005095E
:1001200019012908150025019508750181020501AD
:10013000093009311581257F950275088106093836
:100140001581257F950175088106050C0A38021571
:1001500081257F950175088106C0C005010980A130
:1001600001850319012AB700150126B7009501750D
:10017000108100C0050C0901A101850419012AA004
:1001800002150126A002950175108100C005010924
:1001900006A101050719E029E71500250195087555
:1001A0000181029501750881010507190029FF15D4
:1001B0000026FF009506750881000508190129052C
:1001C000950575019102950175039101C009023BE6
:1001D00000020100A0FA0904000001030101000966
:1001E00021110100012240000705810308000109D7
:1001F0000401000103000000092111010001227B1C
:10020000000705820320000112010002000000081F
:100210004D4436350100010200012C034400610009
:100220006300740079006C002D004D0061006E00C9
:10023000750066006F0072006D0020002800350018
:1002400078003600290000000E0374007300680077
:100250006F007200740000000403090429001040BC
:1002600050064F06CD5DAE002B000500B45D1300B7
:1002700012003400C65D040018000C0008003600AF
:10028000E00031001C001B003700361200000000A7
:10029000B35D2F00C05DBB5D00000000E3000951AD
:1002A0000651E2001504CB5DAA00A900CC5D0F0841
:1002B0001A00190007000F000D001D0006001700AE
:1002C00016001500110010000E0014000A000B00AB
:1002D0000900C65D2C00BF5D30002E00000000004C
:1002E0002A000351D75DE300000000000100010077
:1002F0000100010001000100010014001A000800C3
:1003000015001700E10004001600070009000A00AC
:1003100001001D001B000600190005000000000080
:100320000100310001000100000000000100010097
:1003300001000100010001000100010001000100B5
:100340001C0018000C00120013002F000B000D0001
:100350000E000F003300340011001000360037008B
:100360003800B25D01000100010001000000000042
:1003700001000100010001000000000001001E005A
:100380001F00AD002100D65D01003602B85DED0012
:10039000BC5DB55D01003702EF00EE00F00001002A
:1003A0000100B75DF9000100FA00B65D0000000031
:1003B00036143714010001000000000001000E5344
:1003C00001000100000040004100420043004400E1
:1003D0001E084B0052004A00000030004A00500046
:1003E00051004F004D00E5002A004E0051004D0025
:1003F0004C002800085101000100620000000000CC
:1004000001000100010001000000000046001E0084
:100410001F0020002100220045003A003B003C0064
:100420003D003E0045012A004C00430044004402C8
:1004300045022A014C0228052C003E010000000064
:10044000E000370101000751000000000A5201528C
:1004500000520D523F004000410042001504A5002B
:100460002D021E001F002000241425145600210018
:1004700022002300261427146500240025002600EE
:10048000350035022C030100270063000000000046
:10049000010001000100010000000000271601001A
:1004A000010001000100010039001E0224022502A2
:1004B00026022702E10023021F022002210222025B
:1004C00001000100010001007200010000000000B5
:1004D0000100010001000100000000000000000018
:1004E0000000000001000100520C010001000100A9
:1004F000D35D4B0152084E01D15D0000CF5D50002D
:1005000051084F00D05D0000D45D4E05CE5D4B0517
:10051000D25D000001000100D55D6C00000000000C
:100520000000010000000000000000004801010080
:1005300001000100010001000B0114011A01080172
:1005400015011701E10004001601070109010A0164
:100550001C011D011B01060119010501000000001D
:10056000B25D3701075101000000000001000100E9
:100570000100010001000100010001000100010073
:100580001C0118010C010F01130101000B010D01E9
:100590000E010F0136010100110110013601370172
:1005A0000100010001000100570167010000000087
:1005B0000100010001000100000000000100010035
:1005C0000100010001000100010001004B00520088
:1005D0004A00010001005008500051004F004F0830
:1005E0000100CA5D4E0051004D00280000000000CF
:1005F00000000000000000000000000000000000FB
:1006000001000100000000000000000000000000E8
:1006100000001E011F012001000000000000210158
:100620002201230100000000000024012501E00157
:100630000000000000000000270100000000000092
:1006400000000000000000000000000000000000AA
:100650000000AD003D043E010B0314031A03080320
:10066000150317034C0204031603070309030A03C7
:100670002C0300000000060319030503000000001E
:1006800000002C0801000100000000000000000034
:10069000000000000000000000000000000000005A
:1006A000000000000C031203130300000B03000002
:1006B0000000000000000000000000000000370300
:1006C0000000000001000100000000000000000028
:1006D00000000000000000000000000029001E01D2
:1006E0001F012001210122012B000000F200ED007A
:1006F000F1000000E1000000EF00EE00F00000005B
:1007000000000000F9000000FA00000000000000F6
:1007100000000000000028050000000000000000AC
:1007200000000000000000000000000000000000C9
:1007300000004B0352034E03000000000B01500366
:1007400051034F03000000000000000051030000AF
:100750000000000001000000000000000000000098
:100760000000010001000100000000002D00230036
:1007700024002500260027002F001C001E001F005B
:1007800020000000E1005600210022002300330079
:10079000E000CA5D240025002600380000000000AB
:1007A0000000270000000000000000000100010020
:1007B0000100010000000000000000000000000037
:1007C0001F08200821082208230824081E085009B1
:1007D00000004F0900002608000000000000000093
:1007E0000000000000000000000000000000000009
:1007F00000000000000000000000000029001E00B2
:100800001F002000210022002B0014001A00080005
:1008100015001700E10004001600070009000A0097
:10082000E0001D001B00060019000500000000008C
:10083000340001000100010000000000010001007F
:1008400001005000230024002500260027002D0071
:100850001C0018000C00120013002F000B000D00EC
:100860000E000F0033003500110010003600370075
:10087000330035005200010031002E00000000005E
:1008800000004F00010051000000000001001E02A6
:100890001F02200221022202010001003812010081
:1008A0000100010001000100010001000100BA5D2A
:1008B00001000100010001003302010000000000FE
:1008C000B35DB25D01000100000000000100010005
:1008D00001000100010024022502260227022D0248
:1008E0000100010001000100010001000100010000
:1008F00001000100010001000100010001000100F0
:1009000001000100010001000100010000000000E1
:1009100001000100010001000000000000000000D3
:1009200000000000000000000000000000000000C7
:1009300000000000010000000000000000000000B6
:10094000E0000000000000000000000000000000C7
:100950000000000000000000000000000000000097
:100960000000000000000000000000000000000087
:1009700000004B1252024E12000000004A125002B8
:1009800051024F024D120000000000005102000011
:100990000000000000000100000000000000000056
:1009A0000000000000000000000000000100010045
:1009B000010001000100010001000100010001002F
:1009C000010001000100010001000100010001001F
:1009D0000100010001000100010001000000000011
:1009E00001000100010028000000000001000100DA
:1009F00001000100010001000100010001000100EF
:100A0000010001005200010001000100010050003E
:100A100051004F0001000100010001000100010030
:100A200001000100010001000100010000000000C0
:100A3000010001000100010000000000626272611B
:100A400067614070726F67692E636F6D0062696CD9
:100A50006C792E6272616761400020414E44200033
:100A60006B38730020213D20002D3E00203C3D20AE
:100A700000203E3D200070726F706572746965736E
:100A800000706970656C696E65007375627363727E
:100A9000697074696F6E0050726F67694F6E6500A0
:100AA00070726F6769004070726F67692E636F6D57
:100AB0000061756A6F757264276875692000646FDC
:100AC00065736E27742000646F65736E2774200051
:100AD000636F6E6669670062656175636F7570202C
:100AE00000612D742D696C2000706F757271756FC7
:100AF000692000612D742D6F6E2000706575782D52
:100B000074752000706575742D01012F6574726510
:100B1000200061732D7475200065732D747520009D
:100B20006573742D636520717527006573742D637B
:100B300065207175276F6E20006573742D636520C5
:100B40007175652000050015000A00000005000C05
:100B5000001500000004001100070000000E001640
:100B600000000005002E0000002F0006000000B36A
:100B70005D2E0000002F002E000000130015001253
:100B800000170016000000130008000F00110000FD
:100B900000160005001100000013001500120011DE
:100BA000000000130015000A0000000400130006F6
:100BB00000000004000D00070000000700120011F3
:100BC00000000007001200170000000600120011CC
:100BD000000C0000000500060013000000040017D0
:100BE000000C000F00000013000E000000040017AE
:100BF000001200110000001300170018000000137D
:100C0000001700080000000400160017001800007C
:100C10000008001600170018000000080006001861
:100C20000000001600140012000000160014000856
:100C30000000000000000000000000000000400173
:100C4000000000000000000000005000000028012B
:100C500000007800000000FE0F0084FFFFFF9700F7
:100C600000000000000000000000002A2B28000007
:100C7000000000000000000000000000000029004B
:100C80000000002C1E3720212224362627252E3650
:100C90002D3735271E1F20212223242526333336C6
:100CA0002E37231F0405060708090A0B0C0D0E0F2B
:100CB000101112131415161718191A1B1C1D26359E
:100CC000272F2D2F0405060708090A0B0C0D0E0F00
:100CD000101112131415161718191A1B1C1D243580
:100CE00025304C0011241FBECFEFDAE0DEBFCDBFB0
:100CF00012E0A0E0B1E0E0E6F2E602C005900D925D
:100D0000A235B107D9F723E0A2E5B2E001C01D92F8
:100D1000A73FB207E1F70E942F110C942E310C94DB
:100D20000000A0E0B0E0E7E9F6E00C9479307C0147
:100D3000FC0143815481618180810E945B2A811181
:100D40000C941D1061E0C7010E94E322EC0104979E
:100D50004A9708F044C0809100018F5F80930001A2
:100D6000833008F03FC0E82FF0E0EE0FFF1FEE5990
:100D7000FD4FD183C0838230A9F58FEF80930001AE
:100D800081E08093610280916202909163024497B6
:100D900061F48091640290916502449731F48091EE
:100DA000660290916702419711F010926102809162
:100DB00061028823B9F062E370E08AE20E94232096
:100DC00062E370E08AE20E94232062E370E08AE23C
:100DD0000E94232088EF91E00E94032C03C08FEF34
:100DE00080930001209160022223B1F1F7018281FA
:100DF000882349F1CF3BFDE5DF0709F452C3C9322F
:100E0000D10511F40C940B10C63B2DE5D20729F443
:100E100082E092E00E94032C03C08C2F0E943B20B2
:100E200085E092E00E94032CC63B4DE5D40711F407
:100E30000C940B108C2F0E943B2080E192E00E94CA
:100E4000032C0C940B10CF3B5DE5D50709F429C3A7
:100E5000109260020C940B10C63C8DE5D80709F483
:100E60007DC108F049C0C73BEDE5DE0709F4A9C123
:100E700010F5C33B4DE5D40709F492C1F701828117
:100E8000C43BFDE5DF0778F4C03140E4D40709F442
:100E9000C2C0C23B5DE5D50709F474C1C53AD105AE
:100EA00009F066C072C0C53B9DE5D90709F47BC156
:100EB00008F462C180C1CB3BFDE5DF0709F4FFC048
:100EC00060F4C93B4DE5D40709F488C108F47EC13C
:100ED00040E050E063E370E08FC1CF3B8DE5D80781
:100EE00009F4DFC2C03C9DE5D90709F4E6C2CC3B5A
:100EF000EDE5DE07E9F57CC1F7018281C03DFDE546
:100F0000DF0709F46DC2D8F4CC3C4DE5D40709F4F1
:100F100068C068F4CA3C9DE5D90709F471C108F0BE
:100F200048C0C93CFDE5DF0709F4C2C021C0CE3C82
:100F30002DE5D20709F4ABC108F492C071C2C43DDB
:100F40005DE5D50709F4C3C140F4C23DEDE5DE0718
:100F500009F4E0C108F421C200C2C63D2DE5D20764
:100F600009F4BDC208F47FC2C73D5DE5D50711F0A5
:100F700081E0B6C2882329F082EE0E94D92D89E053
:100F800095C289E00E944A1F83C0882311F40C9403
:100F90000B1080919A0290919B02009739F033E0F8
:100FA000969587953A95E1F7282F217020935F0257
:100FB00096C2882339F00E943B2890935E0280936A
:100FC0005D028DC280915D0290915E020E94202898
:100FD000883C910510F480E580C262E370E08CEA01
:100FE00017C0882339F00E943B2890935C028093BD
:100FF0005B0275C280915B0290915C020E94202886
:10100000883C910510F48FE468C262E370E08BEADB
:101010000E94232064C2882309F461C2F7018581FC
:10102000807F71F480EE0E94D92D83EE0E94D92D2D
:1010300080E50E943B2083EE0E94C01F80EE0DC021
:1010400082EE0E94D92D83EE0E94D92D8EE00E945F
:101050003B2083EE0E94C01F82EE0E94C01FDBC7B0
:10106000882339F00E943B2890935A0280935902BA
:1010700036C28091590290915A020E942028883CE1
:10108000910540F482EE0E94D92D85E10E943B201B
:1010900082EE04C280EE0E94D92D83EE0E94D92DEB
:1010A0008FE40E943B2083EE0E94C01F80EEF6C1B9
:1010B000882371F382EE0E94D92D80EC0EC2F701D5
:1010C0008281882339F180915802882381F08091B0
:1010D0005602909157020E942028883C910538F4CE
:1010E00088E20E94D92D81E0809355020CC0809146
:1010F000D002809581708093540280EE0E94D92D99
:1011000085E00E945C1F0E943B28909357028093C9
:101110005602E5C188E20E94C01F809154028823D4
:1011200019F080EE0E94C01F85E00E944A1F809146
:101130005502811110C080915802882361F080917E
:101140005602909157020E942028883C910518F47D
:1011500088E20E943B2010925502C1C1F7018281B2
:10116000882329F081EE0E94D92D8BE09FC181EE6A
:101170000E94C01F8BE09EC1882311F088E333C01A
:1011800088E38CC1882339F081EE0E94D92DC701F4
:101190000E949E14A4C1C7010E949E1481EE7EC1CC
:1011A00048E150E010C0882309F499C18AE092E038
:1011B0000E94032C94C1811192C181E0809360024E
:1011C0008EC14CE250E06FE270E004C04CE250E0AF
:1011D00060E370E0C7010E94AC2381C1F701828106
:1011E000882321F08FE20E94D92D79C18FE256C168
:1011F00045E350E066EE70E0C7010E947B236FC1BB
:10120000882309F46CC180EE0E94D92D81EE0E94E2
:10121000D92D8CE20E94D92D8CE20E94C01F80EE55
:101220000E94C01F81EE0E94C01F80EE0E94D92D37
:1012300089E10E94D92D89E10E94C01F80EE0E94A1
:10124000C01F80EE0E94D92D80E50E94D92D80E537
:101250000E94C01F80EE0E94C01F80EE0E94D92D08
:101260008AE20E94D92D8AE20E94C01F80EE0E946D
:10127000C01FFFEF24E34CE0F15020404040E1F775
:1012800000C0000088E20E94D92D88E207C18823AF
:1012900009F425C183EE0E94D92D8DE10E943B20E7
:1012A00083EE0E94C01F5FEF81EE94E051508040BA
:1012B0009040E1F700C0000083E20E943B20EFEF86
:1012C000F1EE24E0E150F0402040E1F785C08823B2
:1012D00009F405C183EE0E94D92D8DE10E943B20C7
:1012E00083EE0E94C01F4FEF51EE84E0415050400A
:1012F0008040E1F700C0000082E20E943B209FEFA7
:10130000E1EEF4E09150E040F040E1F700C0000071
:1013100080E2E3C0882309F4E2C083EE0E94D92D65
:101320008DE10E943B2083EE0E94C01F2FEF41EE13
:1013300054E0215040405040E1F700C0000082E2FC
:101340000E943B208FEF91EEE4E081509040E0401E
:10135000E1F700C0000081E2C0C0882309F4BFC0EB
:1013600083EE0E94D92D8DE10E943B2083EE0E94E6
:10137000C01FFFEF21EE44E0F15020404040E1F774
:1013800000C0000082E20E943B205FEF81EE94E00B
:10139000515080409040E1F762C0882309F49FC01B
:1013A00083EE0E94D92D8DE10E943B2083EE0E94A6
:1013B000C01FEFEFF1EE24E0E150F0402040E1F7F4
:1013C00000C0000082E20E943B204FEF51EE84E01B
:1013D000415050408040E1F700C000008FE17DC0E7
:1013E000882309F47CC083EE0E94D92D8DE10E94F0
:1013F0003B2083EE0E94C01F9FEFE1EEF4E091508E
:10140000E040F040E1F700C000008EE10E943B2088
:101410002FEF41EE54E0215040405040E1F7DCCF47
:10142000882309F45CC083EE0E94D92D8DE10E94CF
:101430003B2083EE0E94C01F8FEF91EEE4E08150CD
:101440009040E040E1F700C000008EE10E943B20A8
:10145000FFEF21EE44E0F15020404040E1F700C0B2
:1014600000008EE13AC08823D1F183EE0E94D92D8D
:1014700082EE0E94D92D81E50E943B205FEF81EE34
:1014800094E0515080409040E1F700C0000081E5B9
:101490000E943B2082EE0E94C01F83EE0E94C01F6C
:1014A0001EC0F7018281882321F082E00E945C1F28
:1014B00016C082E00E944A1F12C0F7018281882371
:1014C00011F083E0F3CF83E00E944A1F80915F0216
:1014D000882329F010925F0285EA0E943B2080E079
:1014E000F7019281992329F191E0CB3BFDE5DF07DC
:1014F00009F090E090935802882309F48CC5C43E0B
:101500002CE5D207E1F050F4C23E5CE5D507A1F02E
:10151000C33E8CE5D807E1F481E016C0C63E9CE5E9
:10152000D90789F070F0C13BFDE5DF0789F485E05C
:101530000BC081110DC06FC51092EF0307C082E090
:1015400003C083E001C084E08093EF030E945E2C1F
:10155000D7FFCEC0F7018281882309F4C9C00E9459
:10156000C3288695817080936A020E94C328817087
:10157000809369028091EF03813039F480916A028F
:10158000882319F089E30E943B208091D002809348
:1015900068021092D0021092F5038091EF0382301E
:1015A00019F148F48823E1F08130C9F560E070E07A
:1015B00088E193E032C0843049F1853081F560E004
:1015C00070E08BE191E00E94232360E070E085E20F
:1015D00090E00E94232360E070E088E290E01DC06C
:1015E00082EE0E94D92D1BC080916902811103C037
:1015F00083E50E943B2082EE0E94D92D8FE39CE977
:101600000197F1F700C0000087E504C086EE0E9454
:101610003B2088E10E943B2002C00E942323EFE38D
:10162000FCE93197F1F700C000006E01E894D7F8AB
:101630000CE010E02AE0A22EB12CC601002E02C060
:10164000969587950A94E2F78F709091EF03923008
:1016500069F48A3038F490E00996B5010E94EA30C6
:10166000875A01C086500E943B2009C096EF980F10
:10167000963010F0805D01C0895A0E94A62B04505C
:1016800011090C3FFFEF1F07C1F68091EF03823075
:10169000F1F028F4882371F0813081F025C0843086
:1016A00009F1853009F560E070E088E290E00E9481
:1016B00023231AC082EE0E94C01F16C08CE20E9433
:1016C0003B2080916A02882379F089E308C082EE8A
:1016D0000E94C01F80916902811106C083E50E94AB
:1016E0003B2002C088E2FBCF809168028093D00249
:1016F000C43F2CE5D20741F190F4C93D5CE5D50724
:10170000E9F0CA3D8CE5D80789F1C83D9CE5D907C9
:10171000B1F506E221EE41EE68ED7CE52CC0C63F56
:10172000ECE5DE07E9F0B0F0C73F2CE5D20739F56C
:1017300007E225EE46EE67EF7CE51DC007E225EEE9
:1017400045EE69ED7CE517C006E221EE40EE64EF60
:101750007CE511C007E225EE44EE65EF7CE50BC0A9
:1017600006E221EE42EE66EF7CE505C008E221E0EC
:1017700045EE6AED7CE5C7010E94D4284CC4F70110
:101780008281882309F490C11092D303C430FDE50F
:10179000DF0758F4CB3F2CE5D207C0F4CE018250CE
:1017A0009C45449708F06AC111C0C63A4DE5D4077C
:1017B00069F030F4C2368DE5D80709F05FC106C084
:1017C000CE018E5A9D45039708F058C10E94F31C24
:1017D00090939D0280939C02C2319CE5D90709F445
:1017E00005C108F04BC0C930FCE5DF0709F4D2C0E1
:1017F00000F5C5304CE5D40709F4B9C078F4C3301E
:101800008CE5D80709F4AAC008F0AEC0C230DC45A8
:1018100009F024C180919C028160A3C0C730FCE51F
:10182000DF0709F4AFC008F0B1C080919C0280616D
:1018300098C0CD304CE5D40709F4C2C058F4CB3081
:101840008CE5D80709F4B0C008F0B6C080919C02BE
:101850008860A6C0CF30ECE5DE0709F4BFC008F40D
:10186000B2C0C0312CE5D20709F4BCC0C131DC459F
:1018700009F0F4C080919C028F7B73C0C1155DE5B7
:10188000D50709F4BEC088F5CB3F9CE5D90709F41C
:1018900072C0B8F4C431FCE5DF0709F4C1C008F434
:1018A000ABC0C531DC4509F0D9C080919C0282FBF8
:1018B000222720F991E0922790FB82F990FB83F98F
:1018C00050C0CD3F5CE5D50709F481C008F456C08F
:1018D000CE3F9CE5D90709F47DC0CF3FDC4509F038
:1018E000BDC080919D0282605DC0C236FDE5DF070C
:1018F00009F4A8C068F4C2304DE5D40709F49CC0CF
:1019000008F484C0C330DD4509F0A8C060E095C08C
:10191000CE3A9DE5D907F1F058F4C63ADD4509F015
:101920009DC080919C02982F909590FB80F919C0E2
:10193000CF3A2DE5D207E1F1C03BDD4509F08EC07D
:1019400080919D0283FB222720F991E0922790FB52
:1019500083F982C080919D0288607EC080919C0244
:10196000826080939C027AC080919C0219C0809111
:101970009C028860F6CF80919D0214C080919D02E8
:1019800082606AC080919C028062EBCF80919C0251
:101990008064E7CF0E948E1F80919C028068E1CF17
:1019A0008460DFCF816058C080919C028E7FD9CF48
:1019B00080919D02877F50C080919C028D7FD1CF06
:1019C00080919C021CC080919C02877FCACF80912D
:1019D0009D021AC080919D028D7F3EC080919C0225
:1019E0008F7EBFCF80919C028F7DBBCF0E948E1FC8
:1019F00080919C028F77B5CF80919C02877F8B7FEF
:101A0000B0CF80919D028D7F8E7F26C080919D02F8
:101A1000982F909591708E7F892B90FB81F91CC037
:101A20000E948E1F80919C0287FB222720F991E063
:101A3000922790FB87F995CF61E08EE090E00E94BD
:101A4000B6300CC080919C0284FB222720F991E0E3
:101A5000922790FB84F985CF80939D0260919C0230
:101A6000C0919D0284E090E00E94B6306C2F82E22B
:101A700090E00E94B6300E948E1FCDC2C631FCE5B8
:101A8000DF0711F58091D0028A7A91E009F490E0A5
:101A900090936B02882311F065E301C069E281ED48
:101AA00092E00E947D280DC0C631DC45C1F58091D1
:101AB0006B02882309F4BFC265E381ED92E00E94C6
:101AC00070280E94791DA7C2CB355DE5D50711F1BD
:101AD00050F4C1159CE5D90779F0CF3DDC45F9F408
:101AE0000E94041D0CC0CD35FDE5DF0759F0A0F0C4
:101AF000C83ADD4521F013C00E9407238CC20E9422
:101B0000F12289C280919D0282FB882780F991E0B1
:101B1000892703C081E001C080E00E94D21DF70147
:101B2000868197810097B9F4F7018281C081D181C4
:101B3000882349F0CE010E94991E182F682FCE01EC
:101B40000E940D1F04C0CE010E94DA1E182FBE0194
:101B5000812F0E943E1B0E94571BEC01F70102815E
:101B6000D580D2949FE0D922809123038770B9F069
:101B70000023A9F08D2F807F803421F080E28C0F2C
:101B8000883068F080919D0282FF09C082E00E9447
:101B9000B51D809123038770CC24C3948111C12C7F
:101BA000BD2EB2948FE0B8228B2D90E08C30910541
:101BB00008F0F6C1FC01EA5AFF4F0C94FE301D2FCD
:101BC0001F708D2F807F11F01295107F0023B9F0C8
:101BD000112309F4D2C180E28C0F883010F0C111BA
:101BE00006C08091D002182B1093D00205C08091BE
:101BF000F503182B1093F5030E94791DBEC18C2F9D
:101C00000E94C01F112309F4CBC180E28C0F8830E1
:101C100078F1CC2369F110958091F5031823109386
:101C2000F50329C01D2F1F708D2F807F803211F08A
:101C30001295107FCC2319F0C130D9F149C08091A1
:101C40009D0282FD1BC0002369F0112339F08091B1
:101C5000D002182B1093D0020E94791D80E00E94C0
:101C6000D92D9EC180E00E94C01F112309F498C1A4
:101C7000812F0E94721D0E94791D92C1002381F064
:101C800080912C03DD2051F0F1E0DF1207C0182B0A
:101C9000181709F485C110932C0382C1812B10C041
:101CA000DD2021F021E0D21609F47AC10E946C1DDA
:101CB00027C0002341F042E04D1508F471C1812F87
:101CC0000E94B61F6DC151E05D1508F469C118C0CE
:101CD000002349F0DD2099F3F701858180FF4DC194
:101CE0008F708583ECCFDD2059F0C93309F055C1E1
:101CF000FFEF27EE43E0F15020404040E1F74BC1B9
:101D0000812F0E94AF1F4CC18D2F869586958370C1
:101D100019F0813059F044C1002319F0CE019370BD
:101D200002C080E090E00E94AD2840C1002319F07D
:101D3000CE01937002C080E090E00E94972836C1E7
:101D40008C2F002319F00E947E2D02C00E948F2C40
:101D50000E94652C2BC18D2F837009F042C00111A8
:101D600023C13C2F329536953770330F330F8C2FAC
:101D70008F7090E0032E02C0880F991F0A94E2F73B
:101D8000C4FF0BC04FE050E002C0440F551F3A950E
:101D9000E2F79A012095309502C020E030E04D2F07
:101DA000469546954370423099F068F460912D0352
:101DB00070912E03413029F0822B932B8623972399
:101DC00004C0862B972B822B932B0E946C1FECC098
:101DD000822B932B20912D0330912E038227932762
:101DE000F4CF002319F08D2F817001C086958823D0
:101DF00009F4DAC03C2F329536953770330F330F24
:101E00008C2F8F7090E0032E02C0880F991F0A94C8
:101E1000E2F7C4FF0BC04FE050E002C0440F551F73
:101E20003A95E2F79A012095309502C020E030E023
:101E30004D2F469546954370423079F0B8F4609145
:101E40009A0270919B02413029F0822B932B8623BA
:101E500097230EC0862B972B09C0822B932B2091A2
:101E60009A0230919B028227932702C0822B932BE8
:101E70000E94411F99C01D2F1F70002339F0812F30
:101E80000E945C1F8C2F0E94B61F8EC08C2F0E9458
:101E9000AF1F812F0E944A1F87C0C23F79F128F4EB
:101EA000C03F41F0C13F29F163C0C33F71F1C43F5E
:101EB000E1F05EC00023A1F051E05D1508F470C0B0
:101EC0002D2F2F7181E090E002C0880F991F2A9575
:101ED000E2F720919A0230919B028227932725C036
:101EE00082E08D1508F45CC0EBCF80919D0282FDED
:101EF0001FC0002329F08D2F8F712DC00023D9F32F
:101F00008D2F8F710E944A1F4BC0002361F021E08A
:101F100030E09D2F9F71F90102C0EE0FFF1F9A95CF
:101F2000E2F7CF0102C080E090E00E94411F38C07C
:101F30000023A1F01D2F1F71812F0E945C1F809133
:101F40009D0282FF07C0F8E01F9FC001112483603B
:101F500080932303812F0E945C1F22C081E00E9496
:101F6000B51D21E02D15E0F482E00E94B51D18C0DA
:101F7000002329F0DD2009F4BECF8C2F70CEDD20A8
:101F800009F4BECFC93349F44FEF57EE83E0415017
:101F900050408040E1F700C000008C2F0E94C01F1D
:101FA00088EF8B0D843010F40E94C328CE010E946C
:101FB000731F882381F0002319F0D1100CC00FC0CB
:101FC000D11009C020E0F701408151816281738105
:101FD00084810E94C02210926D0210926C02CC206B
:101FE000A9F08091230380FD11C0F701128285952D
:101FF000859585950E945C1FC7010E94910680917E
:1020000023038595859585950E944A1F60E0C70149
:102010000E94E32212C080912303877071F0F701C0
:102020008281882351F080919D0282FF06C082E068
:102030000E94B51D02C069E240CDCDB7DEB7EAE02F
:102040000C949530A4E0B0E0E8E2F0E10C947F302D
:1020500040918302509184026091850270918602C2
:102060002FB7F8948091DB039091DC03A091DD03FE
:10207000B091DE032FBF841B950BA60BB70B8436E4
:102080009105A105B10508F441C00E949C1988235F
:1020900019F00E942F280EC00E942F28009188025C
:1020A0001091890220918A0230918B02600F711F7A
:1020B000821F931FDC01CB010296A11DB11D8983F4
:1020C0009A83AB83BC83809112019091130188584D
:1020D0009D4F4091110150E04530510510F044E012
:1020E00050E0BE016F5F7F4F0E94253182E090E09B
:1020F0000E94F62F882359F00E942F2860938302B4
:1021000070938402809385029093860281E02496E6
:10211000E4E00C949B30EF92FF921F93CF93DF93F8
:10212000CDB7DEB727970FB6F894DEBF0FBECDBF91
:102130007B0180E090E00E94F62F882309F463C0C1
:102140004091040150E04115510511F041E050E08B
:10215000609105017091060168587D4FCE01079688
:102160000E9425314091740250917502609176026F
:10217000709177022FB7F8948091DB039091DC0384
:10218000A091DD03B091DE032FBF841B950BA60B3E
:10219000B70B84369105A105B10538F489E792E0C3
:1021A0000E94BF149F81891781F181E090E00E9415
:1021B000F62F182F882391F040910C0150E0473002
:1021C000510510F046E050E060910D0170910E0154
:1021D00068587D4FCE0101960E94253189E792E033
:1021E0000E94BF1491E02F81281390E0192311F170
:1021F0000E942F2860937402709375028093760278
:10220000909377020CC010E001C011E086E0E9E78E
:10221000F2E0DE01119601900D928A95E1F711230B
:1022200049F086E0FE013196AEE6B2E001900D92F3
:102230008A95E1F786E0EEE6F2E0D70101900D9293
:102240008A95E1F7812F27960FB6F894DEBF0FBE6F
:10225000CDBFDF91CF911F91FF90EF900895A0E146
:10226000B0E0E5E3F1E10C94733085B7806885BF99
:1022700085B7806885BF84B7877F84BF0FB6F89421
:10228000A895809160008861809360001092600042
:102290000FBE90E080E80FB6F894809361009093B1
:1022A00061000FBE87E599E190935302809352023B
:1022B0000E9406180E9425188091E2008460809395
:1022C000E20078948091C6028823A1F01091E90081
:1022D0001F709091EC00892F817090FD80E8182B81
:1022E0001092E9008091E80083FD0E9400151F70A4
:1022F0001093E90082E084BD93E095BD9AEF97BD0D
:1023000080936E00109288021092890210928A02C5
:1023100010928B020E949C19809319010E949C19B3
:1023200081110E940B2F8091190180911901811157
:1023300002C096E001C090E09093990286E0891B6C
:102340008093980204E112E0D8018D918D018F3FB6
:1023500011F00E94BF19B2E00A311B07A9F70AE188
:1023600012E0F80181918F018F3F11F00E94BF1997
:10237000F2E000321F07A9F78CE0E0EAF2E0DF01AB
:10238000282F1D922A95E9F7ECE8F2E0DF011D9273
:102390008A95E9F780E090E00E94B030883E9E4F39
:1023A00011F00E94041D82E090E00E94A83080930A
:1023B000CC030E94F31C90939D0280939C0283E0C7
:1023C00090E00E94A83090E00E946C1F8CE090E0AA
:1023D0000E94A83090E0A0E0B0E08093EF039093DB
:1023E000F003A093F103B093F2030E949C198111B2
:1023F00002C00E940E2F8AE191E09093D703809350
:10240000D60308E110E040E4E42EFF24F394809129
:10241000C602853009F042C020E1C22E32E1D32E3F
:102420008091C602853009F035C08091C6028430A3
:1024300009F11092DA030FB6F894A89500936000A2
:102440000FBEE092600083B7817F846083BF83B753
:10245000816083BF7894889583B78E7F83BF0FB6E2
:10246000F894A89580916000886180936000109234
:1024700060000FBE8091C502882391F20E94D61998
:10248000E0EAF2E081918111ACC122E0EC3AF2077E
:10249000C9F7C6CF0E948E1F0E94C3280E94D6197A
:1024A0008CEAA82E82E0B82E90EA892E92E0992E2E
:1024B000D401F50191918D91892732E0E83BF30732
:1024C00019F08823B9F322C0811120C00E943B2853
:1024D0006C0180919E0290919F02C816D90609F462
:1024E0004CC08FEF8F83888719860E943B288160BC
:1024F000782F9B878A874F81588569858B850E94B5
:102500007124D0929F02C0929E0237C00E949C19F3
:10251000482ED12CD4015D904D01F50160806524D9
:1025200019F1C12C77247394862D8721B1F04420B2
:10253000A1F0CC86DD8691E0852D872109F490E01D
:102540009E870E943B288160782F988B8F874C85CF
:102550005D856E8588890E947124C394770CF6E0AE
:10256000CF12E2CFD5015C92D394BFEFAB1ABB0A76
:10257000ECE0DE12CFCF0E942F280E949C19882306
:1025800061F18091F201882341F18091C90390911A
:10259000CA03009711F10E9420282091F303309183
:1025A000F40328173907C8F49091C7038091C80332
:1025B000981759F00E94792A1092F4031092F303AD
:1025C0001092CA031092C90308C00E943F2B1092B8
:1025D000CA031092C9030E94952B86E0E9EEF3E04E
:1025E000DE01119601900D928A95E1F71092EB03AE
:1025F0001092EC031092ED031092EE038B81811187
:1026000004C08C81882309F45DC08091E703909118
:10261000E8030E942028AC019091E303992339F04C
:102620002091F70130E02417350758F04BC0209176
:10263000CD03FAE02F9F900111242417350718F0DD
:1026400041C09F3F19F09F5F9093E303DB80DD2043
:1026500061F00E943F2D1D1414F09FEF01C091E026
:10266000899F802D11248093EB03DC80DD2061F0B5
:102670000E943F2D1D1414F09FEF01C091E0899F2F
:10268000802D11248093EC033091EB033323D1F0A0
:102690002091EC032223B1F045EB3403C001112457
:1026A000992319F09093EB0302C0F092EB0335EB02
:1026B0002303C0011124992319F09093EC0302C065
:1026C000F092EC038D81811104C08E81882309F47E
:1026D00051C08091E5039091E6030E9420289C015F
:1026E0009091E203992309F492C02135310508F451
:1026F00041C09F3F19F09F5F9093E203DD80DD2092
:1027000061F00E94062D1D1414F09FEF01C091E0AE
:10271000899F802D11248093ED03DE80DD2061F000
:102720000E94062D1D1414F09FEF01C091E0899FB7
:10273000802D11248093EE033091ED033323D1F0EB
:102740002091EE032223B1F045EB3403C0011124A4
:10275000992319F09093ED0302C0F092ED0335EB4D
:102760002303C0011124992319F09093EE0302C0B2
:10277000F092EE0346E050E0BE016F5F7F4F89EEBE
:1027800093E00E941831892BA9F48091EB03811109
:102790000FC08091EC0381110BC08091ED0381117A
:1027A00007C081E09091EE03911103C080E001C069
:1027B00081E080FD0E94652C86E0FE013196A9EE45
:1027C000B3E001900D928A95E1F70E94C3289091A1
:1027D000B802891709F41BCE8093B8020E942F28F3
:1027E00016CEC9BCD9BC09B400FEFDCF8091D8007B
:1027F0008F7D8093D8008091E00082608093E0001C
:102800008091E00081FDFCCF0E948E1F09CE232B1A
:1028100009F071CFAFCFA0E0B0E0E1E1F4E10C94BA
:1028200079307C015B016A01809187028A3018F05F
:1028300001E010E002C00AE010E0C1E0D0E0B50124
:10284000C701F6010995811115C021960C171D07C6
:1028500094F0CC9F9001CD9F300D300D112480E07D
:1028600090E045E34A95F1F700000196821793073F
:10287000C1F7E5CF81E0CDB7DEB7EAE00C94953043
:10288000FF920F931F93CF93DF938C018AE0F82E72
:10289000F8018491882309F44CC0813009F042C0CA
:1028A000E8012196FE018491813031F42196FE01E8
:1028B00084910E943B2039C0823039F4E80122968D
:1028C000FE0184910E94D92D30C0833039F4E80193
:1028D0002296FE0184910E94C01F27C0843029F5F2
:1028E000E8012296FE01249180E090E030E0205340
:1028F00031092A30310560F4F89EA001F99E500D8F
:102900001124C901840F951F2196FE012491EECF59
:10291000009759F0EFE9FFE03197F1F700C00000B0
:102920000197F6CF0E94A62BE8018E010F5F1F4F83
:10293000AFCFCDB7DEB7E5E00C949A300F931F937D
:10294000CF938C018091D002C82FC17080FF03C04B
:1029500080EE0E94C01FF8018281882321F08FE25F
:102960000E94D92D03C08FE20E94C01FCC2319F012
:1029700080EE0E94D92DCF911F910F910895FC01F7
:10298000AC014A5F5F4F8FEF91E32191822728E0EE
:1029900030E087FF03C0880F892701C0880F2150CE
:1029A0003109B9F7E417F50781F70895EF92FF921F
:1029B0000F931F93CF93DF937C018B010E94152708
:1029C000811119C0E70101151105A1F08091E800FE
:1029D00085FD0AC08091E8008E778093E8000E9410
:1029E0001527882381F307C089918093F100015056
:1029F0001109E9CF80E0CDB7DEB7E6E00C9499305D
:102A0000AAE2B0E0E6E0F5E10C948030E8ECF2E018
:102A100080ED92E02091F10021938E179F07D1F76E
:102A20008091C902833009F461C030F4813071F0C3
:102A3000823009F49BC0B2C08A3009F487C08B3061
:102A400009F46CC0893009F0A9C020C08091C80287
:102A5000813A09F0A3C08091E800877F8093E80065
:102A60008091CC029091CD02892B21F468E08CEB0F
:102A700092E003C060E080E090E070E00E949C275C
:102A80008091E8008B778093E80088C08091C8022D
:102A9000813209F083C08091CC029091CD020297DF
:102AA00008F07CC08091E800877F8093E8008091E7
:102AB000E80082FD05C08091C6028111F8CF6EC08A
:102AC0002091F3008091F20090E0922B029731F474
:102AD0008091F100813011F0863021F48091F10075
:102AE0008093BB028091E8008B7754C08091C8022C
:102AF000813A09F053C08091CC029091CD02892B8C
:102B000009F04CC08091E800877F8093E8008091B5
:102B1000E80080FFFCCF8091260137C08091C80279
:102B20008132E1F58091CC029091CD02892BB1F5F3
:102B30008091E800877F8093E8000E944827809179
:102B4000CA02809326010E948E1F28C08091C8026D
:102B5000813221F58091E800877F8093E8000E9410
:102B600048278091CB028093BA0218C08091C80296
:102B7000813AA1F48091E800877F8093E8008091FA
:102B8000E80080FFFCCF8091BA028093F100809131
:102B9000E8008E778093E8000E9448278091E80043
:102BA00083FFCEC18091C8029091C902492F50E0A5
:102BB0004A30510508F0C4C1FA01EE59FF4F0C9498
:102BC000FE30803821F0823809F0BAC108C0809107
:102BD000C4029091C502992389F082600FC0809150
:102BE000CC028F70873008F0ABC18093E9008091F0
:102BF000EB0085FB882780F91092E9009091E800AE
:102C0000977F9093E8008093F1001092F10065C1E6
:102C1000282F2D7F09F094C1882319F0823061F0AC
:102C20008FC18091CA02813009F08AC1933009F0C6
:102C300080E08093C5022EC08091CA0281112AC013
:102C40008091CC028F702FEF280F263008F078C1CA
:102C50008093E9002091EB0020FF1CC0933021F409
:102C60008091EB00806214C09091EB009061909392
:102C7000EB0021E030E0A90102C0440F551F8A9506
:102C8000E2F74093EA001092EA008091EB0088603E
:102C90008093EB001092E9008091E800877F20C1CB
:102CA00081114EC11091CA021F778091E300807894
:102CB000812B8093E3008091E800877F8093E80078
:102CC0000E9448278091E80080FFFCCF8091E300BC
:102CD00080688093E300111102C082E001C083E0AC
:102CE0008093C6022DC18058823008F029C180919E
:102CF000CA029091CB028C3D53E0950779F583E0B1
:102D00008A838AE289834FB7F894DE01139620E024
:102D10003EE051E2E32FF0E050935700E49120FFB2
:102D200003C0E295EF703F5FEF708E2F90E0EA30C6
:102D300010F0C79601C0C0968D939D932F5F2431EC
:102D400049F74FBF8091E800877F8093E8006AE2EF
:102D500070E0CE0101960E949C27AEC04091CC024B
:102D60005091CD02292F332723303105A9F068F483
:102D70002130310509F4F3C02230310509F0E0C0FB
:102D80008BE390E0EDECF1E044C02132310521F11C
:102D90002232310571F1D4C0992781309105A1F01B
:102DA00058F0029709F0CCC0EAE1F2E0E4918E2FEE
:102DB00090E0EAE1F2E02AC0E8E5F2E0E4918E2F4B
:102DC00090E0E8E5F2E022C0E8E4F2E0E4918E2F42
:102DD00090E0E8E4F2E01AC04115510509F4C4C0DE
:102DE0004130510509F0ACC089E090E0E8EFF1E036
:102DF00010C04115510509F4BCC04130510509F01E
:102E00009FC08BE790E0E2E1F1E003C0009709F496
:102E100097C02091E800277F2093E8002091CE0200
:102E20003091CF028217930708F49C0140E02115EE
:102E3000310589F18091C602882309F43DC08530AF
:102E4000D9F18091E80083FD37C08091E80082FDD0
:102E50002FC08091E80080FFEACF4091F30080917D
:102E6000F20090E0942B2115310559F0883091053E
:102E700040F444914093F10031962150310901967C
:102E8000F2CF41E0089709F040E08091E8008E77AA
:102E90008093E800CCCF4111CDCF0AC08091C6020B
:102EA000882351F0853041F08091E80083FD04C013
:102EB0008091E80082FFF2CF8091E8008B778093C9
:102EC000E8003EC08038E1F58091E800877F80937C
:102ED000E8008091C7028093F1008091E8008E772E
:102EE0008093E8000E9448272BC0811129C080915F
:102EF000CA029091CB029927029714F58091E800BD
:102F0000877F8093E8001091CA021093C7020E9445
:102F10004827111106C08091E30087FD02C081E0BF
:102F200001C084E08093C60242E061EC81E00E942F
:102F3000672742E261EC82E00E9467278091C60227
:102F40008091E80083FF1AC08091E800877F80931A
:102F5000E8008091EB0080628093EB000FC082E17B
:102F600090E0E8E0F2E055CF89E090E0EFEDF1E0AD
:102F700050CF80E490E0EDE8F1E04BCFAA96E3E09B
:102F80000C949C301F920F920FB60F9211242F9326
:102F90003F934F935F936F937F938F939F93AF93E1
:102FA000BF93CF93DF93EF93FF93C091E900CF706E
:102FB0008091EC00D82FD17080FDD0E81092E9000C
:102FC0008091F000877F8093F00078940E94001534
:102FD0001092E9008091F00088608093F000CD2B82
:102FE000CF70C093E900FF91EF91DF91CF91BF9136
:102FF000AF919F918F917F916F915F914F913F9191
:103000002F910F900FBE0F901F901895E8EDF0E0F4
:1030100080818E7F80831092E2001092DA001092FD
:10302000E100A0EEB0E08C9181608C9380818F777D
:10303000808319BCA7EDB0E08C918E7F8C9380814A
:103040008F7E80831092B9020895A0E0B0E0EBE299
:10305000F8E10C947B30C8EDD0E088818F7E8883C6
:10306000E7EDF0E080818160808384E082BF81E0D1
:103070008093B90288818E7F888302EE10E0F80188
:1030800010821092DA0081EEC82ED12CF601108247
:1030900088818F77888388818068888388818F7D05
:1030A000888319BC1092C6021092C7021092C50202
:1030B0001092C40290EEE92EF12CF70180818B7FF3
:1030C000808388818160888342E060E080E00E94A4
:1030D0006727F60180818E7F8083F801808181607F
:1030E0008083808188608083F70180818E7F8083E8
:1030F000888180618883CDB7DEB7E8E00C94973093
:103100001F920F920FB60F9211242F933F934F935C
:103110005F936F937F938F939F93AF93BF93EF933F
:10312000FF938091E10082FF09C08091E20082FF5D
:1031300005C08091E1008B7F8093E1008091DA00EF
:1031400080FF2AC08091D80080FF26C08091DA00DD
:103150008E7F8093DA008091D90080FF18C080E1D3
:1031600089BD82E189BD09B400FEFDCF81E0809375
:10317000C6028091B90281110FC00E9406180E94F8
:1031800025188091E20084608093E20005C019BC9C
:103190001092C6021092B9028091E10080FF17C020
:1031A0008091E20080FF13C08091E2008E7F8093C7
:1031B000E2008091E20080618093E2008091D8007B
:1031C00080628093D80019BC85E08093C60280910C
:1031D000E10084FF30C08091E20084FF2CC080E1D8
:1031E00089BD82E189BD09B400FEFDCF8091D80080
:1031F0008F7D8093D8008091E1008F7E8093E100E5
:103200008091E2008F7E8093E2008091E2008160F5
:103210008093E2008091C702882311F084E007C008
:103220008091E30087FD02C081E001C083E08093CC
:10323000C6028091C6028091E10083FF27C0809181
:10324000E20083FF23C08091E100877F8093E1004B
:1032500082E08093C6021092C7028091E1008E7FC7
:103260008093E1008091E2008E7F8093E200809164
:10327000E20080618093E20042E060E080E00E9432
:1032800067278091F00088608093F000FF91EF91B4
:10329000BF91AF919F918F917F916F915F914F916E
:1032A0003F912F910F900FBE0F901F90189580E0C7
:1032B000089590919C0292FF0DC0282F287128300C
:1032C00019F4877F846006C0282F2471243011F4FC
:1032D0008B7F886093FF0DC0282F2871283119F447
:1032E000877E846106C0282F2471243111F48B7EDF
:1032F000886120919D0220FF0DC0382F3871383031
:1033000019F4877F816006C0382F3171313011F494
:103310008E7F886021FF0DC0282F2871283119F475
:10332000877E816106C0282F2171213111F48E7EA4
:10333000886194FD877E089580913903811118C0BA
:103340008091D80080618093D8008AE18A95F1F756
:1033500000C08091D90080FD02C082E001C081E000
:1033600080933903823021F40E9406181092C6021D
:1033700081E090913903913009F080E00895F8944C
:10338000E82FE295EF70F0E031A1282F2F7081E057
:1033900090E001C0880F2A95EAF7982F9095932323
:1033A00091A392A1892B82A378940895A2E1B0E021
:1033B000ECEDF9E10C947430AE014F5F5F4F7A0190
:1033C0008CE0DA011D928A95E9F704E112E06A01C6
:1033D0008AE1682E82E0782EAA24A394B12C20E200
:1033E000822E22E0922EF80180818F3F09F440C0A6
:1033F000F894E82FE295EF70F0E021A18F70A5011D
:1034000002C0440F551F8A95E2F7CA01922F982BEC
:1034100091A392A18095892382A3789400C0EAE1C8
:10342000F2E0512C31E021912F3F89F0A22FA2959B
:10343000AF70B0E090968C9190E02F7002C095959F
:1034400087952A95E2F780FD02C0832F01C080E0B6
:10345000582A330F8E169F0631F7D8018C918F3F73
:1034600011F00E94BF19B0EABA95F1F7F601508247
:103470000F5F1F4FFFEFCF1ADF0A6016710609F0CA
:10348000B2CF4CE050E0B7018CE892E00E941831D6
:10349000009741F02CE0F701ACE8B2E001900D920A
:1034A0002A95E1F700919902892B49F081E08093F8
:1034B00031030E943B289093300380932F03809127
:1034C0003103811102C0F12C22C080912F03909111
:1034D00030030E9420280597B0F310E000561D4FDE
:1034E00046E050E06CE872E0C8010E941831892B78
:1034F00059F086E0ECE8F2E0D80101900D928A954F
:10350000E1F7FF24F39401C0F12C109231030E94E3
:103510009C19E0919902882309F458C06E012DE0AE
:10352000C20ED11C86E0D6011D928A95E9F70E2FB6
:1035300010E000561D4F809187028A3048F44BE816
:1035400050E1B601C8010E940B14882399F00AC00B
:1035500080913203909133030E942028843F914050
:1035600070F71AC042E250E1B601C8010E940B1484
:10357000811171C0809187028F3F19F08F5F809316
:103580008702809187028A3008F467C00E943B2836
:10359000909333038093320380913803882309F496
:1035A00054C086E0F60111928A95E9F7109238032B
:1035B000A0919802B0E0A056BD4F86E0FE013D9676
:1035C00001900D928A95E1F781E040C0F0E0E0566D
:1035D000FD4F86E0A9E7B2E001900D928A95E1F7F0
:1035E00089E792E00E94BF148093780280907F0266
:1035F00090908002A0908102B0908202809134036A
:1036000090913503A0913603B0913703881699063F
:10361000AA06BB06D1F08092340390923503A092A3
:103620003603B09237030E949C1981110EC00E948C
:103630002F28861A970AA80AB90A809288029092BF
:103640008902A0928A02B0928B0280E08F29629652
:10365000EFE00C949030109287028091980290E0F5
:1036600046E050E0B60180569D4F0E94183121E09F
:1036700020933803892B09F09BCFE7CF7C30A0F44F
:10368000663090F498E4899FF001112486E0789FD9
:10369000E00DF11D1124E60FF11DEE0FFF1FE45A9E
:1036A000FD4F85919491089580E090E00895CF9327
:1036B000DF938238910569F1B0F48133910509F403
:1036C00077C048F48932910509F469C08A329105BE
:1036D00009F473C092C08533910509F45BC0893346
:1036E0009105B9F08AC0833E910591F138F4803E8E
:1036F0009105D1F0823E910531F17FC0863E910562
:10370000D9F1873E9105E9F1843E910509F075C034
:1037100028C020919C0220FD5BC021FD59C0209152
:103720009D0223FD61C069C080919C0280FD4AC05A
:1037300080919D0280FF4CC080919C0284FD4EC10F
:1037400083EE90E04DC180919C0282FF3EC0F4CF99
:1037500080919C0282FD39C080919D0280FD38C01D
:10376000EBCF80919D0281FF39C080919C0284FD46
:1037700035C187EE90E034C180919C0283FF2BC05D
:10378000F4CF80919C0283FD26C080919D0281FD33
:1037900025C0EBCF80919C0285FD26C022C0809180
:1037A0009C0285FD1EC080919D0283FF1DC00AC042
:1037B00080919C0286FD1BC01DC080919C0286FDED
:1037C00019C015C089E390E00BC182EE90E008C1FA
:1037D00080EE90E005C186EE90E002C184EE90E0BC
:1037E000FFC085E390E0FCC089E290E0F9C08AE286
:1037F00090E0F6C081E390E0F3C0811531E59307D6
:1038000008F061C0811520E59207B0F09C0123709B
:10381000332741E050E002C0440F551F2A95E2F7DC
:10382000282F2695269580E2289F90011124CA0111
:10383000822B932B9D68D4C0883E910568F5803E0D
:10384000910508F0CDC0883A9105B8F4853A910504
:1038500048F0855AE82FF0E0E05EFD4F808190E06F
:103860009064BEC08130910509F4B5C008F4B6C0BB
:103870008430910508F4B2C0B3C08F3B910508F0C5
:10388000ADC0885AE82FF0E0EE0FFF1FED5DFD4F51
:10389000808191819464A4C0811530E2930758F42B
:1038A000811521E0920708F09BC08D3E910508F438
:1038B00095C0906595C0811530E4930708F48EC0DB
:1038C0009F70906A8DC0811525E5920708F042C06F
:1038D000811534E5930728F0982F8827846F906A24
:1038E0007FC0811523E59207B0F09C012370332738
:1038F00041E050E002C0440F551F2A95E2F7282FFF
:103900002695269580E2289F90011124CA01822BDA
:10391000932B9A6865C0811532E5930728F4982F98
:103920008827816F906A5CC09C012370332741E037
:1039300050E002C0440F551F2A95E2F7282F269524
:10394000269580E2289F90011124CA01822B932B97
:103950009C6846C0EC01C11589E5D807B0F4C115D3
:1039600028E5D20728F09C2F8827806F906A38C0FE
:10397000C11536E5D30790F58C2F0E9459198F7128
:1039800090E0982F882790622BC0C1158AE5D80750
:1039900090F48C2F8F700E94591994E0D695C7959A
:1039A0009A95E1F7CF70D0E0DC2FCC27D0699E014B
:1039B000282BC90115C0CE0190568115904270F494
:1039C0008D2F8F710E945919282F2F71CE019927A1
:1039D0009062922B05C081E090E002C080E090E010
:1039E000DF91CF910895CF9384E090E00E94A830BA
:1039F000C82F82E290E00E94A8302C2F30E0A9016D
:103A0000582BCA01CF91089568EE7EEF80E090E0D8
:103A10000E94D43060E082E090E00E94B63060E026
:103A200083E090E00E94B63010922E0310922D0396
:103A300060E084E090E00E94B63064E082E290E0D2
:103A40000E94B63060E085E090E00E94B63060E011
:103A500086E090E00E94B6306FEF87E090E00E9431
:103A6000B63040E050E0BA0188E090E00E94C830F3
:103A700060E08DE090E00E94B63040E050E0BA0196
:103A800088E190E00E94C83060E087E190E00E9409
:103A9000B63040E050E0BA018CE190E00E94C830BE
:103AA00060E070E080E290E00E94D43040E050E0BE
:103AB000BA0188E190E00E94C83040E050E0BA01CD
:103AC0008FE090E00E94C83040E050E0BA0183E10E
:103AD00090E00E94C830089580912C0381111092CB
:103AE0002C03089580959091D00289238093D00271
:103AF00008959091D0028091F503982B9093D10274
:103B000080912C03882389F0892B8093D102E3EDE7
:103B1000F2E097E080E0915029F021912223D9F33F
:103B20008F5FF9CF81110E946C1D48E050E064E284
:103B300073E081ED92E00E941831892BA9F088E0B2
:103B4000E1EDF2E0A4E2B3E001900D928A95E1F795
:103B5000E091D603F091D703309731F00280F381E2
:103B6000E02D81ED92E00995089520912303809541
:103B7000822380932303982F977099F430E0482F85
:103B8000082E000C550B2417350759F090919D0213
:103B900092FF07C08595859585950E944A1F1092D2
:103BA00023030895CF93C0919D02C2FB992790F9FA
:103BB000981791F080FBC2F9C0939D0260919C021E
:103BC00084E090E00E94B6306C2F82E290E00E9488
:103BD000B63082E00E94B51DCF9108952091220356
:103BE0009091E1022917B1F030E0F90153E0EE0FB6
:103BF000FF1F5A95E1F7EE51FD4F5181561306C054
:103C00005081581303C05281541306C02F5F3F4F99
:103C10002770E8CF80E0089581E008958091220325
:103C20009091E102891719F08F5F8770FBCF08959B
:103C3000EF92FF920F931F93CF93DF938091DE0259
:103C400082958F7009F054C08091DB02882309F4BB
:103C50004FC0C0912203E090E102D091D902F090D0
:103C6000DA020091DC021091DD02CE1509F440C0A9
:103C7000A8016F2D8D2F0E945B2A2C2F30E081111F
:103C800032C0F90183E0EE0FFF1F8A95E1F7DF01F3
:103C9000AE51BD4F11968C9111978F1124C08C910C
:103CA0008D1321C012968C91129781111CC013960E
:103CB0008D919C911497801B910B883C910598F4F1
:103CC0008091DE028F7080618093DE02E951FD4FAA
:103CD00080818F708061808389ED92E00E949106DF
:103CE0000E940E1E05C02F5F3F4FC22FC770BDCF71
:103CF000CDB7DEB7E6E00C94993080E090E00E940A
:103D0000AD2880E090E00E9497281092F5030E9471
:103D1000791DE9EEF3E086E0DF011D928A95E9F76F
:103D20001092E3031092E2031092E4030E94652CC8
:103D30000895A0E0B0E0EFE9FEE10C947A307C0158
:103D400000919A0210919B0280912D0390912E0375
:103D5000082B192BCFE0D0E0CC24C394D12CC60182
:103D60000C2E02C0880F991F0A94E2F7802391233A
:103D7000892B21F4219798F7B12C09C0BC2EB701EB
:103D80008C2F0E943E1B0E94571B019799F38B2D8D
:103D9000CDB7DEB7E9E00C949630CF93DF93EC011A
:103DA0000E94991EBE010E943E1B0E94571BDF917C
:103DB000CF9108959C3078F5863068F5E82FF0E0D3
:103DC00086E0989FE00DF11D11249E2F977083E0EF
:103DD000F695E7958A95E1F7EE0FFF1FEE0FFF1FAF
:103DE000E65CFC4F40E050E080E0219130E0092E9D
:103DF00002C0369527950A94E2F721703327042EE6
:103E000001C0220F0A94EAF7822B4F5F5F4F4430C4
:103E1000510559F7089580E008959C3088F5863063
:103E200078F5E82FF0E086E0989FE00DF11D112471
:103E30008E2F877051E001C0550F8A95EAF783E015
:103E4000F695E7958A95E1F7EE0FFF1FEE0FFF1F3E
:103E5000E65CFC4F20E030E070E04081CB01022EB8
:103E600002C0969587950A94E2F781708195842720
:103E70008523842781932F5F3F4F2430310569F7D5
:103E800008950E94682390939B0280939A020E9457
:103E90007D1E089521E030E002C0220F331F8A9575
:103EA000E2F72095309580919A0290919B028223AF
:103EB00093230E94411F089521E030E002C0220FA9
:103EC000331F8A95E2F780919A0290919B02822B90
:103ED000932B0E94411F089590932E0380932D03EE
:103EE0000E947D1E089592959F70963079F010F48F
:103EF000925001C09A50923068F4803F69F018F4F3
:103F0000883E40F409C0843F29F406C0883E20F072
:103F1000813F11F080E0089581E008951092D00271
:103F200086E0E3EDF2E0DF011D928A95E9F70E9459
:103F30007D1E0895882341F080959091F503892393
:103F40008093F5030E94791D0895882339F090919C
:103F5000F503892B8093F5030E94791D089588232A
:103F600021F00E94721D0E94791D0895882339F066
:103F70009091D002892B8093D0020E94791D0895E0
:103F8000882309F45FC0823869F40E94C32881FF46
:103F900059C069E381ED92E00E947D280E94791D5D
:103FA00069E30EC0833899F40E94C32880FF4AC099
:103FB00063E581ED92E00E947D280E94791D63E512
:103FC00081ED92E00E9470280E94791D0895843846
:103FD00069F40E94C32882FF35C067E481ED92E056
:103FE0000E947D280E94791D67E4EACF9CEF980F1C
:103FF000913A10F4682FE4CF90E2980F983050F483
:10400000877091E001C0990F8A95EAF7892F0E9485
:10401000721DDACF9BE5980F933028F480E090E092
:104020000E94AD28089598E5980F973128F480E014
:1040300090E00E94972808958D3E20F00E948F2CDA
:104040000E94652C08951F93CF93DF93182FEB01E7
:104050000E94D92D209741F08FE99FE00197F1F759
:1040600000C000002197F6CF812F0E94C01FDF9172
:10407000CF911F910895893319F060E070E002C07C
:1040800060E570E00E9423200895CF93DF93EC0158
:104090004B815C81698188810E945B2A81110EC0FD
:1040A0008E819F81009719F00E94571B04C0888160
:1040B00099810E94CD1E0E94731F01C080E0DF9194
:1040C000CF910895A5E1B0E0E8E6F0E20C947230FB
:1040D0008C0185E0F801DE01519601900D928A95E0
:1040E000E1F7D8011296EC9089EDA82E82E0B82E67
:1040F0005090D9024090DA028090DC029090DD026C
:10410000A401642D852D0E945B2AF82E811174C1B3
:10411000F80170806180C380D4803090DB0296010A
:1041200028193909332009F419C18091DE02982F2A
:10413000907F283C310508F0D3C0911179C046101A
:104140001AC0571018C04091DF025091E00226813A
:1041500037814217530779F4E1100DC08F708061E9
:104160008093DE02C5010E9491068091DE02D80193
:1041700015968C935DC1A601662D872D0E945B2A42
:10418000D82E811103C081E08E2502C080E090E02E
:1041900080FF07C04E2D662D872D0E94EE1D8111D8
:1041A0003EC0D11003C081E08E2502C080E090E0C7
:1041B000B82FB170DB2E80FF2AC04E2D662D872DC3
:1041C0000E94EE1DC82E811122C0798A6A8A8989CF
:1041D0009A890E94CD1E292F22952F70223018F027
:1041E000243078F405C09F7049F0811107C00DC0DC
:1041F0009F7021F0F8019581907F39F0805E8830C2
:1042000020F0C8010E949106CD2CFC2C11C1EE209B
:1042100009F40DC18091DE0281608093DE0289ED98
:1042200092E00E949106E9EDF2E088E0DF01E0C053
:1042300046101BC0571019C04091DF025091E00298
:10424000F801268137814217530779F4E1100DC038
:104250008583C8010E94910688E0F801A9EDB2E0CB
:1042600001900D928A95E1F759C0C8010E9445203E
:10427000882381F1EE2071F12091DE02822F829558
:104280008F7090E00297A4F08091D9029091DA02A9
:104290009A8789871B86DD86CC862E878091DF02F0
:1042A0009091E002988B8F87CE0109960E9491062B
:1042B00088E0F801A9EDB2E001900D928A95E1F74E
:1042C0000E94181E0AC0461491F0C8010E944520A1
:1042D000811126C0C8010E949106FF24F394A8C052
:1042E0009111F1CF89ED92E00E9491067FC05710A5
:1042F000ECCF4091DF025091E002F8012681378136
:104300004217530711F7E110E0CF8583C8010E94DF
:10431000910688E0D5011D928A95E9F7F32C88C0B3
:10432000EE20C1F22091DE02822F82958F7090E004
:1043300002970CF4BDCF8091D9029091DA029A8352
:1043400089831B82DD82CC822E838091DF02909153
:10435000E00298878F83CE010196A8CF283C3105D3
:1043600008F044C0FE2CEE2009F4B4CF461030C053
:1043700057102EC02091DF023091E002F8018681B3
:1043800097812817390721F59091DE0290FD17C01B
:10439000892F82958F70282F30E02115310579F013
:1043A00095832F30310541F08F5F982F9295907F44
:1043B00085818F70892B8583C8010E94910688E0D2
:1043C000F801A9EDB2E001900D928A95E1F730C0B5
:1043D000C8010E94452081116BCF8091DE0281606F
:1043E0008093DE02C8010E94910622C088E0D501B8
:1043F0001D928A95E9F71CC0EE2009F46BCFC80125
:104400000E944520F82E882309F464CF88E0F80143
:10441000A9EDB2E001900D928A95E1F78091D90261
:104420009091DA020E94CD1E0E94181E01C0F12C4C
:104430008F2D6596E1E10C948E30A0E1B0E0E3E2CF
:10444000F2E20C947D3029873A874B875C876D8731
:104450007E878F87988BCE0109960E9462208111FA
:104460004AC088E0FE013996DE01119601900D9256
:104470008A95E1F7E984FA840C851D85A8016F2DE2
:104480008E2D0E945B2A811136C0A091E102B0E01E
:10449000CD010196877099272091220330E0821781
:1044A000930781F1E982FA821D830C8393E0AA0FBE
:1044B000BB1F9A95E1F7AE51BD4F98E0FE013196D2
:1044C00001900D929A95E1F78093E1020E940E1EF1
:1044D00012C028E0829FC00111248E519D4F0E947E
:1044E00062208823E1F08091220390E0019687709A
:1044F000992780932203809122039091E1028913EE
:10450000E8CF0DC00E948E1F1092E102109222038C
:10451000E9EDF2E088E0DF011D928A95E9F7609607
:10452000E6E00C9499309C013A9521153F4130F515
:10453000BC0166277270AC01442754709C0122278D
:10454000387094FF0FC090FF02C080E101C080E08E
:10455000672B09F08062452B09F08064232B79F0EA
:1045600080680895892F8170672B09F08260452B40
:1045700009F08460232B19F08860089580E0089585
:10458000A5E0B0E0E6ECF2E20C94803049835A8377
:1045900089819A81662359F0222349F00E94991E4D
:1045A000182F682F89819A810E940D1F03C00E94D5
:1045B000DA1E182F69817A81812F0E943E1B259671
:1045C000E3E00C949C30FC0186819781009741F4D4
:1045D000262F408151816281738184810E94C02293
:1045E00008950E948E1F2FEF84E39CE021508040AD
:1045F0009040E1F700C000009AE088E10FB6F8941F
:10460000A895809360000FBE90936000FFCF0E943A
:104610008E1F2FEF84E39CE0215080409040E1F713
:1046200000C0000087E797E7909301088093000897
:104630009AE088E10FB6F894A895809360000FBEC9
:1046400090936000FFCFEF92FF920F931F93CF9351
:10465000DF93EC018B017C0180EEE81AF10898E011
:10466000E916F10410F0209731F4CE010E94932254
:104670000E94B61F05C0CE010E9493220E94A51F72
:104680008C2F0E94D92D0115110549F08FE99FE06B
:104690000197F1F700C0000001501109F4CF8C2FF1
:1046A0000E94C01F98E0E916F10410F0209731F441
:1046B000CE010E9493220E94AF1F05C0CE010E942E
:1046C00093220E949A1FCDB7DEB7E6E00C94993092
:1046D0009C012C7033272C30310511F4806101C00E
:1046E0008F7E9C01247038702430384011F4906122
:1046F00008959F7E0895EF92FF920F931F93CF939B
:10470000DF937C01162FEA018091D002082F0270FE
:1047100081FF03C081EE0E94C01FF70182818823C0
:1047200049F0812F0E94D92D209761F08C2F0E9493
:10473000D92D08C0812F0E94C01F209719F08C2FFF
:104740000E94C01F002319F081EE0E94D92DCDB721
:10475000DEB7E6E00C9499300F931F93CF938C0152
:10476000C42FAB0166EE70E00E947B23F8018281CA
:10477000811106C08C2F0E94D92D8C2F0E94C01F42
:10478000CF911F910F9108958D31910508F0A8C028
:10479000FC01E459FF4F0C94FE30662309F4A0C0DD
:1047A00089E39BE09BC0662309F49AC08BE29BE0FF
:1047B00095C0662309F494C080E29BE08FC0662315
:1047C00009F48EC089E19BE089C0662309F488C0A2
:1047D00082E19BE083C0662309F482C084E09BE011
:1047E0007DC0662309F47CC08BEF9AE077C0662316
:1047F00009F476C083EF9AE071C0662309F470C0B3
:1048000089EE9AE06BC0662309F46AC081EE9AE0F3
:1048100065C0662309F464C087ED9AE05FC0662333
:1048200009F45EC080ED9AE059C0662309F458C0CF
:1048300087EC9AE053C0662309F452C08EEB9AE0ED
:104840004DC0662309F44CC081EB9AE047C0662353
:1048500009F446C086EA9AE041C0662309F440C0E4
:1048600080EA9AE03BC06623D9F187E99AE036C036
:104870006623B1F18AE89AE031C0662389F181E8C4
:104880009AE02CC0662361F186E79AE027C0662390
:1048900039F181E79AE022C0662311F18CE69AE0B3
:1048A0001DC06623E9F089E69AE018C06623C1F0CE
:1048B00084E69AE013C0662399F080E69AE00EC081
:1048C000662371F08AE59AE009C0662349F08DE419
:1048D0009AE004C0662321F08CE39AE00E94401421
:1048E0000895ABE1B0E0E7E7F4E20C947130942F67
:1048F000498B252F5A8B6B8B7C8B8D8B4C895D89DB
:10490000622F892F0E945B2A811109C080916C025D
:1049100090916D02019690936D0280936C028B8949
:1049200081111092F5038E01075F1F4F88E0F80197
:1049300011928A95E9F785E0FE017196D801019000
:104940000D928A95E1F74C855D856A8589850E947F
:104950005B2A8111D8C161E0C8010E94E3225C0199
:10496000883FFCE59F0739F48B858823A1F081E01F
:104970008093F201C8C1893F2CE5920731F48B8501
:10498000882349F00E946A2ABEC18A3F9C4519F4D7
:104990008B85811111C007E211E0712CC12CD12C43
:1049A00088248394912C55245394CE0101969F8B97
:1049B0008E8B77E0472E38C08091F2018823B9F2C0
:1049C000E1CFFFEFEF16FF0609F44BC1F801648158
:1049D000611145C02091F201822F81706B84F80132
:1049E00035812681662009F4DCC0882309F4D9C00A
:1049F0003323C1F1940102C0220F331F9A95E2F7CD
:104A000021503109F801868190E02817390709F40F
:104A100040C07628FFEFCF1ADF0A095F1F4F2DE154
:104A2000C216D10409F41FC1F801208131816FEF52
:104A30008FEF90E0E92EF12CF701EE0FFF1FE20F50
:104A4000F31F45915491A416B50611F0E62EF82EE9
:104A5000452B09F4B6CF9F5F6E2D8F2DEBCF20E055
:104A600030E0BACFA4010E2C01C0440F0A94EAF73B
:104A7000242B26832091F3033091F4032233310554
:104A800008F0B8CF22E330E03093F4032093F3032F
:104A9000B1CF8091C9039091CA03009729F00E9479
:104AA0002028C39708F02CC18091C703B091C80398
:104AB000982FE0E0F0E08B1709F45FC0282F30E07A
:104AC000F901EE0FFF1FE154FC4FE080F1804E9C96
:104AD000F0014F9CF00D1124E95DFE4F40814A8F9B
:104AE00041814B8FA0E060E070E0EA8DFB8DE70F25
:104AF000F11DE70FF11D2590349021143104D1F000
:104B0000F801F081F88FF801F181F98F60E0E88D0C
:104B1000F98DE60FF11DE60FF11D459154914115F8
:104B2000510531F02416350609F4A1E06F5FEFCF8F
:104B30007F5FDBCFAA23D1F0671708F4DBC04E9C60
:104B4000F0014F9CF00D1124E95DFE4F309781F08C
:104B50005482E017F10719F49093C7035ACF8913D1
:104B600007C0C9010196982F937002C0E0E0F0E001
:104B70002F5F3F4F822F83709ECF9093C703E01724
:104B8000F10709F446CF90E0FC01EE0FFF1FE1545E
:104B9000FC4FD182C0820196837099278093C8030D
:104BA00038CF311114C0A40102C0440F551F9A958B
:104BB000E2F74150510930E04217530709F043C072
:104BC000662309F441C0C6010E94112B3CC0822F0C
:104BD00090E09C0121503109282339230E2C02C07A
:104BE000959587950A94E2F7232B59F580FF29C004
:104BF000F80182819381892BE1F088E0EE89FF89B9
:104C000011928A95E9F78EEF89838A830E943B2867
:104C10008160582F9D838C83F801828193818F83DB
:104C2000988729813A814B816D817E810E941D2266
:104C300004C060E0C6010E94C423F801158281E02F
:104C400003C0817001C080E094010E2C01C0220FCE
:104C50000A94EAF72095F801968129232683682E85
:104C6000D8CE612CD6CE8B85882381F1772071F147
:104C70000E943B289093CA038093C90380915E03EE
:104C8000883008F04AC091E0980F90935E0398E056
:104C9000FE013996DE01119601900D929A95E1F789
:104CA0004CE0849FC0011124815A9C4F28E0FE01F2
:104CB0003196DC0101900D922A95E1F72FEF3FEF3D
:104CC000FC0131872087B386A28627C09091C70355
:104CD0008091C803981719F00E94792A08C00E9491
:104CE0003F2B1092CA031092C9030E94952B772084
:104CF00051F013C00115110509F438CF9093C70383
:104D0000F801548286CE29853A854B855C856D8570
:104D10007E858F8598890E941D226B96E2E10C9416
:104D20008D3008958091BB0208958093DF037093C6
:104D3000E1036093E0038091C602843001F582E0D4
:104D40008093E9008FEF9091E800815095FD06C0B7
:104D500095ED9A95F1F700008111F5CF8091E8006B
:104D600085FF0DC040E050E063E070E08FED93E020
:104D70000E94D6148091E8008E778093E800089511
:104D8000BC0184E00E9495260895BC0183E00E9446
:104D90009526089522E02093E9002FEF3091E80056
:104DA000215035FD06C035ED3A95F1F7000021118F
:104DB000F5CF2091E80025FF0BC040E050E066E011
:104DC00070E00E94D6148091E8008E778093E8000E
:104DD0000895CF93DF9321E02093E9002FEF3091E6
:104DE000E800215035FD06C035ED3A95F1F7000099
:104DF0002111F5CF2091E80025FF14C0EC0140E01F
:104E000050E068E070E00E94D6148091E8008E7750
:104E10008093E80088E0FE01ACEBB2E001900D92D7
:104E20008A95E1F7DF91CF9108952091E4003091C8
:104E3000E50095E64091EC00842F817040FF23C08F
:104E40008091E80080FD1DC08091C602882399F002
:104E5000853099F08091EB0085FD11C04091E40010
:104E60005091E5002417350729F3915011F09A016C
:104E7000E1CF84E0089582E0089583E0089581E021
:104E8000089580E008954091E80042FFDDCF089545
:104E90008091C80287FF11C08091E80082FD05C0A3
:104EA0008091C6028111F8CF11C08091E8008B7704
:104EB0000BC08091C602882349F08091E80080FFF2
:104EC000F8CF8091E8008E778093E8000895982FBE
:104ED000973068F59093E900981739F07091EC00DD
:104EE0002091ED005091F00003C0242F762F50E068
:104EF00021FD02C09F5FECCF3091EB003E7F3093ED
:104F0000EB003091ED003D7F3093ED003091EB00F0
:104F100031603093EB007093EC002093ED005093E0
:104F2000F0002091EE0027FDE5CF80E008958F701E
:104F30008093E90081E008952091CE023091CF0264
:104F40002617370748F06115710539F42091E800FC
:104F50002E772093E80001C0B901FC0120E0611523
:104F6000710579F18091C6028823F1F18530F1F164
:104F70008091E80083FD3CC08091E80082FD2EC056
:104F80008091E80080FFEBCF2091F3008091F20048
:104F900090E0922B6115710551F08830910538F43D
:104FA00021912093F100615071090196F3CF21E026
:104FB000089709F020E08091E8008E778093E80060
:104FC000CECF2111CFCF0AC08091C602882361F0D5
:104FD000853061F08091E80083FD0AC08091E8008F
:104FE00082FFF2CF80E0089582E0089583E0089583
:104FF00081E0089578941F920F920FB60F921124BA
:105000008F939F93AF93BF938091DB039091DC03C9
:10501000A091DD03B091DE030196A11DB11D809327
:10502000DB039093DC03A093DD03B093DE03BF9119
:10503000AF919F918F910F900FBE0F901F90189579
:105040009C014FB7F8948091DB039091DC03A09111
:10505000DD03B091DE034FBF821B930B08952FB782
:10506000F8946091DB037091DC038091DD039091F3
:10507000DE032FBF08952FB7F8948091DB03909142
:10508000DC03A091DD03B091DE032FBF08951F92D2
:105090000F920FB60F9211248F939F93AF93BF93EC
:1050A0008091DA03811113C08091DB039091DC03BE
:1050B000A091DD03B091DE034196A11DB11D809347
:1050C000DB039093DC03A093DD03B093DE03BF9179
:1050D000AF919F918F910F900FBE0F901F901895D9
:1050E0009C012A5F3F4FFC014281461301C012829E
:1050F000019682179307B9F708959C01FC01329637
:105100009FEF80E04191461789F09F3F19F44111CC
:1051100001C0982F8F5F8630A9F79F3F39F0F901C2
:10512000E90FF11D97FDFA95628308950895209186
:10513000D8033091D9032817390771F09093D90318
:105140008093D803E091D603F091D703309721F0F4
:105150000084F185E02D099508952091D4033091C4
:10516000D5032817390771F09093D5038093D403A2
:10517000E091D603F091D703309721F00680F781B4
:10518000E02D099508950E949C19882359F0E0911B
:10519000D603F091D703309729F00190F081E02DEC
:1051A0000995089580E008950F931F93CF93DF939F
:1051B000C42FD22FFC0182818823B1F04093D30306
:1051C0000E943B289093D2038093D10380E28C0FFE
:1051D000883008F04DC0C77081E001C0880FCA95C3
:1051E000EAF70E94B61F44C08091D303481330C031
:1051F0008091D1039091D2030E942028883C910590
:1052000038F510E21D0FCD17B9F080E28C0F883011
:1052100040F4C77081E001C0880FCA95EAF70E9488
:10522000AF1F183010F581E09D2F977001C0880FD7
:105230009A95EAF70E94B61F802F0E943B201830F3
:10524000B8F4D77081E001C0880FDA95EAF70AC098
:1052500080E28C0F883060F4C77081E001C0880F55
:10526000CA95EAF70E94AF1F03C0802F0E943B201F
:10527000DF91CF911F910F910895893279F1E0F478
:10528000843161F1A0F4873009F075C01092CD032C
:1052900094E19093F7018093F6018CE38093F501FC
:1052A00088E08093F40188E28093F30164C092EE79
:1052B000980F9A30F0F05FC0803509F444C028F4AC
:1052C0008F3409F058C08AE03FC0813529F082351B
:1052D00009F051C081E038C08FEF36C08091D00313
:1052E000882379F11092D0031092CF031092CE034D
:1052F00042C08D518093D003833099F038F48130CF
:1053000069F08230D9F487EF91E00DC0853099F0D3
:1053100078F0863099F483EF91E005C08DEC93E04E
:1053200002C086EF91E09093CF038093CE0323C019
:1053300085EF91E0F8CF84EF91E0F5CF1092D003A4
:105340001AC080E0089586EFE091CE03F091CF037C
:10535000309789F02081082E000C990B820F911D47
:105360008F3F910519F014F08FEF04C097FF02C032
:10537000108201C0808381E008958B3109F469C0F7
:1053800058F58B3009F493C078F4863009F446C0A0
:1053900020F4853009F44CC08CC0873009F44BC030
:1053A000883009F484C085C0803109F465C068F490
:1053B0008E3009F07EC08091CC0382FB222720F939
:1053C00091E0922790FB82F94DC0863109F46FC0BD
:1053D000893109F46CC06DC08A32E9F060F487321B
:1053E00009F45FC028F48E3108F463C08D514FC0BA
:1053F0008932F1F05EC0833450F48A3308F046C03D
:10540000853309F44EC0883309F451C052C0833447
:1054100009F447C04EC00E94041D49C08091CC03CE
:10542000817F8E7F8093CC0381E08093CB030895AE
:105430000E9407233CC08091CC03982F90959170D7
:1054400090FB80F98093CC03911131C0897F877FD5
:1054500010C08091CC0381FB222720F991E0922794
:1054600090FB81F98093CC03992309F18091CC03BF
:1054700081608093CC031BC08091CC0383FB2227E7
:1054800020F991E0922790FB83F9ECCF895321E03A
:1054900030E0A90102C0440F551F8A95E2F7CA0106
:1054A00002C081E090E00E946C1F0E948E1F81E08C
:1054B000089580E00895452B41F06F3F41F491E05D
:1054C0008F3F09F090E0892F03C081E001C080E0A8
:1054D000817008951092CA031092C9031092F201CC
:1054E0008091C8038093C7030E94952B0E943F2B95
:1054F0000895A0E0B0E0EFE7FAE20C947130C091BB
:10550000C703E7E0FE2E01E010E0FCE02F2EAEEF37
:10551000EA2E8091C803C81709F47AC0D0E0FE01D2
:10552000EE0FFF1FE154FC4F80819181F89EF00146
:10553000F99EF00D1124E95DFE4F2481211165C013
:1055400060905E03AFE5B3E020E030E0712C5F01D6
:10555000261508F058C01A964D905C901B97F501DF
:10556000808091804FEF5FEF312CC32CD12CF6015E
:10557000EE0FFF1FE80DF91D659174914616570651
:1055800009F4A601672B11F03394EFCF4F3FFFEFE3
:105590005F07A9F1B80102C0660F771F4A95E2F7CD
:1055A000762AA801032C02C0440F551F0A94E2F783
:1055B00041505109672D70E046175707E1F4229ECC
:1055C000F001239EF00D1124E15AFC4FF89ED0010A
:1055D000F99EB00D1124A95DBE4F12962D913C91FC
:1055E000139737832683E082E1829187808771E079
:1055F00015967C9308C014961C921E9213972F5FE9
:105600003F4F1C96A5CF0E94112B2196C37081CFCE
:105610000E943F2B0E94952BCDB7DEB7E2E10C94A0
:105620008D30BC014091C7038091C803942F981717
:1056300029F1292F30E0F901EE0FFF1FE154FC4F53
:105640000190F081E02DE617F70799F487E0869F37
:10565000F001879FF00D1124E95DFE4F81E0848306
:1056600094130CC02F5F3F4F237033272093C70341
:1056700008952F5F3F4F922F9370D9CF0895EF92E7
:10568000FF920F931F93CF93DF9380915E03882344
:1056900009F446C00091F6038CE0F82E80915E0379
:1056A0000817D0F5EE24E394E00EE092F60310E044
:1056B000F09EE001F19ED00D1124C15ADC4F4B81C8
:1056C0005C81698188810E945B2A811123C08E815F
:1056D0009F81892B51F4888599858F3F2FEF920701
:1056E00021F061E00E94C4230AC0288139814A81E7
:1056F0005B816C817D818E819F810E941D22F09E45
:10570000F001F19EF00D1124E15AFC4F1482138236
:105710001092F5030E2DC2CF10925E031092F60385
:10572000CDB7DEB7E6E00C9499301092F4031092F6
:10573000F303E7E2F1E08581811102C01482168251
:10574000379681E0E23FF807B1F70895A0E0B0E0B6
:10575000ECEAFBE20C947C30E82FF0E0ED59F34FDB
:10576000D490282F26952695269530E0F901ED5AFC
:10577000F34F0491877010E0082E02C0159507952D
:105780000A94E2F701701127F901ED5BF34FE49001
:10579000F12C082E02C0F594E7940A94E2F791E008
:1057A000E922FF24F901ED5CF34FC491D0E002C07F
:1057B000D595C7958A95E2F7C170DD2701151105CA
:1057C00019F081EE0E94D92DE114F10419F086EE52
:1057D0000E94D92D8D2D0E943B20E114F10419F077
:1057E00086EE0E94C01F0115110519F081EE0E947E
:1057F000C01FCD2B19F08CE20E943B20CDB7DEB745
:10580000E7E00C949830EF92FF921F93CF93DF93D1
:10581000EC011AE08881882309F44AC0813009F03C
:1058200043C08981813041F47E0182E0E80EF11CA1
:105830008A810E943B2009C0823049F47E01E2E067
:10584000EE0EF11C8A810E94D92DE7012FC0833012
:1058500041F47E01F2E0EF0EF11C8A810E94C01F2C
:10586000F4CF843011F0219621C02A81229680E065
:1058700090E030E0205331092A30310558F4189F68
:10588000A001199F500D1124C901840F951F219665
:105890002881EFCF009751F0EFE9FFE03197F1F762
:1058A00000C000000197F6CF0E94A62B2196B2CF30
:1058B000DF91CF911F91FF90EF9008956091EF03DA
:1058C0008CE090E00E94B63008950E943B28209121
:1058D000EB03211104C02091EC03222321F09093CB
:1058E000E8038093E7032091ED03211104C0209188
:1058F000EE03222321F09093E6038093E503E091E9
:10590000D603F091D703309749F082E08093E90302
:105910000480F581E02D89EE93E0099508958D3E90
:1059200039F49091EC0397FF35C01092EC0359C005
:105930008E3E29F49091EC031916BCF32BC0909184
:10594000EB038F3E29F497FF25C01092EB0349C06B
:10595000803F19F41916CCF31DC09091ED03893FD7
:1059600029F41916BCF41092ED033BC08A3F19F4D8
:1059700097FF10C0F8CF8B3F39F49091EE0397FF5B
:1059800009C01092EE032DC08C3F21F49091EE03DC
:105990001916BCF39FE0980F983080F421E030E0B6
:1059A000A90102C0440F551F9A95E2F7CA018095DC
:1059B0009091EA0389238093EA0313C08D3F21F479
:1059C0008091E4038E7F0BC08E3F21F48091E4032D
:1059D0008D7F05C08F3F29F48091E4038B7F8093F6
:1059E000E4038091EB03811106C08091EC038111E7
:1059F00002C01092E3038091ED03811106C08091F3
:105A0000EE03811102C01092E20308958091E40335
:105A100080FF08C06091F40170E0759567957595F9
:105A2000679521C081FF06C06091F40170E0759513
:105A3000679519C082FF04C06091F40170E010C046
:105A40009091E203992399F06091F3019617A0F7E2
:105A50008091F401899FC001112470E00E94EA3016
:105A60006038710540F46115710519F406C061E0F4
:105A700070E0862F08958FE7089581E00895809162
:105A8000E40380FF06C06091F60170E0660F771FA7
:105A900026C081FF04C06091F60184E005C082FF4A
:105AA00007C06091F60188E0689FB001112417C01B
:105AB0009091E3039923D1F06091F501961788F74F
:105AC0002091F60188E0289F90011124929FA00167
:105AD000939F500D112470E0CA010E94EA30603893
